{
  "contractName": "CraftingMapLoader",
  "abi": [
    {
      "constant": false,
      "inputs": [
        {
          "name": "density",
          "type": "uint256"
        },
        {
          "name": "itemType",
          "type": "uint256"
        }
      ],
      "name": "addItem",
      "outputs": [],
      "payable": false,
      "stateMutability": "nonpayable",
      "type": "function"
    },
    {
      "constant": false,
      "inputs": [],
      "name": "addRecipe",
      "outputs": [],
      "payable": false,
      "stateMutability": "nonpayable",
      "type": "function"
    },
    {
      "constant": false,
      "inputs": [
        {
          "name": "isInput",
          "type": "bool"
        },
        {
          "name": "itemId",
          "type": "uint256"
        },
        {
          "name": "quantity",
          "type": "uint256"
        }
      ],
      "name": "addRecipeElement",
      "outputs": [],
      "payable": false,
      "stateMutability": "nonpayable",
      "type": "function"
    },
    {
      "constant": false,
      "inputs": [],
      "name": "addExtractorProps",
      "outputs": [],
      "payable": false,
      "stateMutability": "nonpayable",
      "type": "function"
    }
  ],
  "bytecode": "0x608060405234801561001057600080fd5b50610456806100206000396000f3fe608060405234801561001057600080fd5b506004361061004c5760003560e01c80632e46dc9f14610051578063581228ac1461005b5780636cd59e3e14610065578063a2125232146100a9575b600080fd5b6100596100e1565b005b6100636100fc565b005b6100a76004803603606081101561007b57600080fd5b8101908080351515906020019092919080359060200190929190803590602001909291905050506100fe565b005b6100df600480360360408110156100bf57600080fd5b8101908080359060200190929190803590602001909291905050506101e4565b005b60016000818180549050019150816100f991906102c6565b50565b565b6000806001600080549050038154811061011457fe5b9060005260206000209060030201905061012c6102f8565b604051806040016040528085815260200184815250905084156101955781600101819080600181540180825580915050906001820390600052602060002090600202016000909192909190915060008201518160000155602082015181600101555050506101dd565b81600201819080600181540180825580915050906001820390600052602060002090600202016000909192909190915060008201518160000155602082015181600101555050505b5050505050565b6101ec610312565b6101f461032b565b6040518060800160405280600180549050815260200185815260200184600381111561021c57fe5b600381111561022757fe5b815260200183815250905060018190806001815401808255809150509060018203906000526020600020906004020160009091929091909150600082015181600001556020820151816001015560408201518160020160006101000a81548160ff0219169083600381111561029857fe5b0217905550606082015181600301600082015181600001600082015181600001555050505050505050505050565b8154818355818111156102f3576003028160030283600052602060002091820191016102f29190610364565b5b505050565b604051806040016040528060008152602001600081525090565b60405180602001604052806103256103ab565b81525090565b604051806080016040528060008152602001600081526020016000600381111561035157fe5b815260200161035e6103be565b81525090565b6103a891905b808211156103a45760008082016000905560018201600061038b91906103d7565b60028201600061039b91906103d7565b5060030161036a565b5090565b90565b6040518060200160405280600081525090565b60405180602001604052806103d16103ab565b81525090565b50805460008255600202906000526020600020908101906103f891906103fb565b50565b61042791905b8082111561042357600080820160009055600182016000905550600201610401565b5090565b9056fea165627a7a72305820b21cde659369d295baba8e2221c19d44bf477a52851bed521ab0ec7818b8641e0029",
  "source": "pragma solidity ^0.5.0;\r\n\r\nimport \"./ItemTypes.sol\";\r\nimport \"./RecipeTypes.sol\";\r\n\r\ncontract CraftingMapLoader is ItemTypes, RecipeTypes{\r\n    Recipe[] recipes;\r\n    ItemProperties[] items;\r\n\r\n    function addItem(uint density, uint itemType) public {\r\n        OptionalItemProperties memory itemPropsOptional;\r\n\r\n        ItemProperties memory itemProps = ItemProperties(\r\n            items.length,\r\n            density,\r\n            ItemType(itemType),\r\n            itemPropsOptional\r\n        );\r\n        items.push(itemProps);\r\n    }\r\n\r\n    function addRecipe() public {\r\n        recipes.length += 1;\r\n    }\r\n    function addRecipeElement(bool isInput, uint itemId, uint quantity) public {\r\n        //require(itemId < items.length, \"Require that itemId is within range of valid items.\");\r\n\r\n        Recipe storage recipe = recipes[recipes.length - 1];\r\n        RecipeElement memory element = RecipeElement(itemId, quantity);\r\n\r\n        if(isInput) {\r\n            recipe.inputs.push(element);\r\n        }else{\r\n            recipe.outputs.push(element);\r\n        }\r\n    }\r\n\r\n    function addExtractorProps() public {\r\n\r\n    }\r\n}",
  "sourcePath": "A:\\repos\\crypto_game\\contracts\\CraftingManager.sol",
  "compiler": {
    "name": "solc",
    "version": "0.5.8+commit.23d335f2.Emscripten.clang"
  },
  "schemaVersion": "3.0.14",
  "updatedAt": "2019-10-21T01:11:37.836Z",
  "devdoc": {
    "methods": {}
  },
  "userdoc": {
    "methods": {}
  }
}