{
  "contractName": "CraftingManager",
  "abi": [
    {
      "constant": true,
      "inputs": [
        {
          "name": "recipeId",
          "type": "uint256"
        }
      ],
      "name": "getRecipeProperties",
      "outputs": [
        {
          "name": "inputItemIds",
          "type": "uint256[]"
        },
        {
          "name": "inputQuantities",
          "type": "uint256[]"
        },
        {
          "name": "outputItemIds",
          "type": "uint256[]"
        },
        {
          "name": "outputQuantities",
          "type": "uint256[]"
        }
      ],
      "payable": false,
      "stateMutability": "view",
      "type": "function"
    },
    {
      "constant": true,
      "inputs": [
        {
          "name": "itemId",
          "type": "uint256"
        }
      ],
      "name": "getItemProperties",
      "outputs": [
        {
          "name": "density",
          "type": "uint256"
        },
        {
          "name": "itemType",
          "type": "uint256"
        }
      ],
      "payable": false,
      "stateMutability": "view",
      "type": "function"
    },
    {
      "constant": true,
      "inputs": [],
      "name": "getCraftingMapRanges",
      "outputs": [
        {
          "name": "itemCount",
          "type": "uint256"
        },
        {
          "name": "recipeCount",
          "type": "uint256"
        }
      ],
      "payable": false,
      "stateMutability": "view",
      "type": "function"
    },
    {
      "constant": false,
      "inputs": [
        {
          "name": "density",
          "type": "uint256"
        },
        {
          "name": "itemType",
          "type": "uint256"
        }
      ],
      "name": "addItem",
      "outputs": [],
      "payable": false,
      "stateMutability": "nonpayable",
      "type": "function"
    },
    {
      "constant": false,
      "inputs": [],
      "name": "addRecipe",
      "outputs": [],
      "payable": false,
      "stateMutability": "nonpayable",
      "type": "function"
    },
    {
      "constant": false,
      "inputs": [
        {
          "name": "isInput",
          "type": "bool"
        },
        {
          "name": "itemId",
          "type": "uint256"
        },
        {
          "name": "quantity",
          "type": "uint256"
        }
      ],
      "name": "addRecipeElement",
      "outputs": [],
      "payable": false,
      "stateMutability": "nonpayable",
      "type": "function"
    },
    {
      "constant": false,
      "inputs": [],
      "name": "addExtractorProps",
      "outputs": [],
      "payable": false,
      "stateMutability": "nonpayable",
      "type": "function"
    }
  ],
  "bytecode": "0x608060405234801561001057600080fd5b50610a77806100206000396000f3fe608060405234801561001057600080fd5b506004361061007d5760003560e01c80636cd59e3e1161005b5780636cd59e3e146100df578063a212523214610123578063e99b61b21461015b578063f171eba2146102b65761007d565b806321ce76de146100825780632e46dc9f146100cb578063581228ac146100d5575b600080fd5b6100ae6004803603602081101561009857600080fd5b81019080803590602001909291905050506102db565b604051808381526020018281526020019250505060405180910390f35b6100d36103a0565b005b6100dd6103bb565b005b610121600480360360608110156100f557600080fd5b8101908080351515906020019092919080359060200190929190803590602001909291905050506103bd565b005b6101596004803603604081101561013957600080fd5b8101908080359060200190929190803590602001909291905050506104a3565b005b6101876004803603602081101561017157600080fd5b8101908080359060200190929190505050610585565b6040518080602001806020018060200180602001858103855289818151815260200191508051906020019060200280838360005b838110156101d65780820151818401526020810190506101bb565b50505050905001858103845288818151815260200191508051906020019060200280838360005b838110156102185780820151818401526020810190506101fd565b50505050905001858103835287818151815260200191508051906020019060200280838360005b8381101561025a57808201518184015260208101905061023f565b50505050905001858103825286818151815260200191508051906020019060200280838360005b8381101561029c578082015181840152602081019050610281565b505050509050019850505050505050505060405180910390f35b6102be6108af565b604051808381526020018281526020019250505060405180910390f35b6000806102e66108c6565b600184815481106102f357fe5b906000526020600020906004020160405180608001604052908160008201548152602001600182015481526020016002820160009054906101000a900460ff16600381111561033e57fe5b600381111561034957fe5b815260200160038201604051806020016040529081600082016040518060200160405290816000820154815250508152505081525050905080602001518160400151600381111561039657fe5b9250925050915091565b60016000818180549050019150816103b891906108ff565b50565b565b600080600160008054905003815481106103d357fe5b906000526020600020906003020190506103eb610931565b6040518060400160405280858152602001848152509050841561045457816001018190806001815401808255809150509060018203906000526020600020906002020160009091929091909150600082015181600001556020820151816001015550505061049c565b81600201819080600181540180825580915050906001820390600052602060002090600202016000909192909190915060008201518160000155602082015181600101555050505b5050505050565b6104ab61094b565b6104b36108c6565b604051806080016040528060018054905081526020018581526020018460038111156104db57fe5b60038111156104e657fe5b815260200183815250905060018190806001815401808255809150509060018203906000526020600020906004020160009091929091909150600082015181600001556020820151816001015560408201518160020160006101000a81548160ff0219169083600381111561055757fe5b0217905550606082015181600301600082015181600001600082015181600001555050505050505050505050565b606080606080610593610964565b600086815481106105a057fe5b90600052602060002090600302016040518060600160405290816000820154815260200160018201805480602002602001604051908101604052809291908181526020016000905b8282101561062e578382906000526020600020906002020160405180604001604052908160008201548152602001600182015481525050815260200190600101906105e8565b50505050815260200160028201805480602002602001604051908101604052809291908181526020016000905b828210156106a15783829060005260206000209060020201604051806040016040529081600082015481526020016001820154815250508152602001906001019061065b565b505050508152505090508060200151516040519080825280602002602001820160405280156106df5781602001602082028038833980820191505090505b5094508060200151516040519080825280602002602001820160405280156107165781602001602082028038833980820191505090505b50935080604001515160405190808252806020026020018201604052801561074d5781602001602082028038833980820191505090505b5092508060400151516040519080825280602002602001820160405280156107845781602001602082028038833980820191505090505b50915060008090505b8160200151516000101561081057816020015181815181106107ab57fe5b6020026020010151600001518682815181106107c357fe5b602002602001018181525050816020015181815181106107df57fe5b6020026020010151602001518582815181106107f757fe5b602002602001018181525050808060010191505061078d565b5060008090505b8160400151516000101561089a578160400151818151811061083557fe5b60200260200101516000015184828151811061084d57fe5b6020026020010181815250508160400151818151811061086957fe5b60200260200101516020015183828151811061088157fe5b6020026020010181815250508080600101915050610817565b50848484849450945094509450509193509193565b600080600180549050600080549050915091509091565b60405180608001604052806000815260200160008152602001600060038111156108ec57fe5b81526020016108f9610985565b81525090565b81548183558181111561092c5760030281600302836000526020600020918201910161092b919061099e565b5b505050565b604051806040016040528060008152602001600081525090565b604051806020016040528061095e6109e5565b81525090565b60405180606001604052806000815260200160608152602001606081525090565b60405180602001604052806109986109e5565b81525090565b6109e291905b808211156109de576000808201600090556001820160006109c591906109f8565b6002820160006109d591906109f8565b506003016109a4565b5090565b90565b6040518060200160405280600081525090565b5080546000825560020290600052602060002090810190610a199190610a1c565b50565b610a4891905b80821115610a4457600080820160009055600182016000905550600201610a22565b5090565b9056fea165627a7a72305820b2f031ce654aa86235a103624ef2e780452d1234c957761beb9b8e7554fadfc90029",
  "source": "pragma solidity ^0.5.0;\r\n\r\nimport \"./ItemTypes.sol\";\r\nimport \"./RecipeTypes.sol\";\r\n\r\ncontract CraftingManager is ItemTypes, RecipeTypes{\r\n    Recipe[] recipes;\r\n    ItemProperties[] items;\r\n\r\n    /**************************************************************\r\n    Public pure/views\r\n    **************************************************************/\r\n    function getRecipeProperties(uint recipeId) public view returns (\r\n        uint[] memory inputItemIds,\r\n        uint[] memory inputQuantities,\r\n        uint[] memory outputItemIds,\r\n        uint[] memory outputQuantities\r\n    ){\r\n        Recipe memory recipe = recipes[recipeId];\r\n\r\n        inputItemIds = new uint[](recipe.inputs.length);\r\n        inputQuantities = new uint[](recipe.inputs.length);\r\n        outputItemIds = new uint[](recipe.outputs.length);\r\n        outputQuantities = new uint[](recipe.outputs.length);\r\n\r\n        for(uint i = 0; 0 < recipe.inputs.length; i++){\r\n            inputItemIds[i] = (recipe.inputs[i].itemId);\r\n            inputQuantities[i] = (recipe.inputs[i].quantity);\r\n        }\r\n        for(uint i = 0; 0 < recipe.outputs.length; i++){\r\n            outputItemIds[i] = (recipe.outputs[i].itemId);\r\n            outputQuantities[i] = (recipe.outputs[i].quantity);\r\n        }\r\n\r\n        return (\r\n            inputItemIds,\r\n            inputQuantities,\r\n            outputItemIds,\r\n            outputQuantities\r\n        );\r\n    }\r\n\r\n    function getItemProperties(uint itemId) public view returns (\r\n        uint density,\r\n        uint itemType\r\n    ){\r\n        //require(itemId < items.length, \"Require that itemId is within range of valid items.\");\r\n        ItemProperties memory item = items[itemId];\r\n\r\n        return (\r\n            item.density,\r\n            uint(item.itemType)\r\n        );\r\n    }\r\n\r\n    function getCraftingMapRanges() public view returns (\r\n        uint itemCount,\r\n        uint recipeCount\r\n    ){\r\n        return(\r\n            items.length,\r\n            recipes.length\r\n        );\r\n    }\r\n\r\n    /**************************************************************\r\n    Recipe/item map loading\r\n    **************************************************************/\r\n    function addItem(uint density, uint itemType) public {\r\n        OptionalItemProperties memory itemPropsOptional;\r\n\r\n        ItemProperties memory itemProps = ItemProperties(\r\n            items.length,\r\n            density,\r\n            ItemType(itemType),\r\n            itemPropsOptional\r\n        );\r\n        items.push(itemProps);\r\n    }\r\n\r\n    function addRecipe() public {\r\n        recipes.length += 1;\r\n    }\r\n    function addRecipeElement(bool isInput, uint itemId, uint quantity) public {\r\n        //require(itemId < items.length, \"Require that itemId is within range of valid items.\");\r\n\r\n        Recipe storage recipe = recipes[recipes.length - 1];\r\n        RecipeElement memory element = RecipeElement(itemId, quantity);\r\n\r\n        if(isInput) {\r\n            recipe.inputs.push(element);\r\n        }else{\r\n            recipe.outputs.push(element);\r\n        }\r\n    }\r\n\r\n    function addExtractorProps() public {\r\n\r\n    }\r\n}",
  "sourcePath": "A:\\repos\\crypto_game\\contracts\\CraftingManager.sol",
  "compiler": {
    "name": "solc",
    "version": "0.5.8+commit.23d335f2.Emscripten.clang"
  },
  "schemaVersion": "3.0.14",
  "updatedAt": "2019-10-21T05:13:09.493Z",
  "devdoc": {
    "methods": {}
  },
  "userdoc": {
    "methods": {
      "addItem(uint256,uint256)": {
        "notice": "************************************************************\r Recipe/item map loading\r*************************************************************"
      },
      "getRecipeProperties(uint256)": {
        "notice": "************************************************************\r Public pure/views\r*************************************************************"
      }
    }
  }
}