{
  "contractName": "CraftingManager",
  "abi": [
    {
      "constant": true,
      "inputs": [
        {
          "name": "recipeId",
          "type": "uint256"
        }
      ],
      "name": "getRecipeProperties",
      "outputs": [
        {
          "name": "inputCounts",
          "type": "uint256"
        },
        {
          "name": "inputItemIds",
          "type": "uint256[50]"
        },
        {
          "name": "inputQuantities",
          "type": "uint256[50]"
        },
        {
          "name": "outputCounts",
          "type": "uint256"
        },
        {
          "name": "outputItemIds",
          "type": "uint256[50]"
        },
        {
          "name": "outputQuantities",
          "type": "uint256[50]"
        }
      ],
      "payable": false,
      "stateMutability": "view",
      "type": "function"
    },
    {
      "constant": true,
      "inputs": [
        {
          "name": "itemId",
          "type": "uint256"
        }
      ],
      "name": "getItemProperties",
      "outputs": [
        {
          "name": "density",
          "type": "uint256"
        },
        {
          "name": "itemType",
          "type": "uint256"
        }
      ],
      "payable": false,
      "stateMutability": "view",
      "type": "function"
    },
    {
      "constant": true,
      "inputs": [],
      "name": "getCraftingMapRanges",
      "outputs": [
        {
          "name": "itemCount",
          "type": "uint256"
        },
        {
          "name": "recipeCount",
          "type": "uint256"
        }
      ],
      "payable": false,
      "stateMutability": "view",
      "type": "function"
    },
    {
      "constant": false,
      "inputs": [
        {
          "name": "density",
          "type": "uint256"
        },
        {
          "name": "itemType",
          "type": "uint256"
        }
      ],
      "name": "addItem",
      "outputs": [],
      "payable": false,
      "stateMutability": "nonpayable",
      "type": "function"
    },
    {
      "constant": false,
      "inputs": [],
      "name": "addRecipe",
      "outputs": [],
      "payable": false,
      "stateMutability": "nonpayable",
      "type": "function"
    },
    {
      "constant": false,
      "inputs": [
        {
          "name": "isInput",
          "type": "bool"
        },
        {
          "name": "itemId",
          "type": "uint256"
        },
        {
          "name": "quantity",
          "type": "uint256"
        }
      ],
      "name": "addRecipeElement",
      "outputs": [],
      "payable": false,
      "stateMutability": "nonpayable",
      "type": "function"
    },
    {
      "constant": false,
      "inputs": [],
      "name": "addExtractorProps",
      "outputs": [],
      "payable": false,
      "stateMutability": "nonpayable",
      "type": "function"
    }
  ],
  "bytecode": "0x608060405234801561001057600080fd5b5061098a806100206000396000f3fe608060405234801561001057600080fd5b506004361061007d5760003560e01c80636cd59e3e1161005b5780636cd59e3e146100df578063a212523214610123578063e99b61b21461015b578063f171eba2146102605761007d565b806321ce76de146100825780632e46dc9f146100cb578063581228ac146100d5575b600080fd5b6100ae6004803603602081101561009857600080fd5b8101908080359060200190929190505050610285565b604051808381526020018281526020019250505060405180910390f35b6100d361034a565b005b6100dd610365565b005b610121600480360360608110156100f557600080fd5b810190808035151590602001909291908035906020019092919080359060200190929190505050610367565b005b6101596004803603604081101561013957600080fd5b81019080803590602001909291908035906020019092919050505061044d565b005b6101876004803603602081101561017157600080fd5b8101908080359060200190929190505050610531565b6040518087815260200186603260200280838360005b838110156101b857808201518184015260208101905061019d565b5050505090500185603260200280838360005b838110156101e65780820151818401526020810190506101cb565b5050505090500184815260200183603260200280838360005b8381101561021a5780820151818401526020810190506101ff565b5050505090500182603260200280838360005b8381101561024857808201518184015260208101905061022d565b50505050905001965050505050505060405180910390f35b61026861079f565b604051808381526020018281526020019250505060405180910390f35b6000806102906107b6565b6001848154811061029d57fe5b906000526020600020906004020160405180608001604052908160008201548152602001600182015481526020016002820160009054906101000a900460ff1660038111156102e857fe5b60038111156102f357fe5b815260200160038201604051806020016040529081600082016040518060200160405290816000820154815250508152505081525050905080602001518160400151600381111561034057fe5b9250925050915091565b600160008181805490500191508161036291906107ef565b50565b565b6000806001600080549050038154811061037d57fe5b90600052602060002090600302019050610395610821565b604051806040016040528085815260200184815250905084156103fe578160010181908060018154018082558091505090600182039060005260206000209060020201600090919290919091506000820151816000015560208201518160010155505050610446565b81600201819080600181540180825580915050906001820390600052602060002090600202016000909192909190915060008201518160000155602082015181600101555050505b5050505050565b61045561083b565b61045d6107b6565b60405180608001604052806001808054905003815260200185815260200184600381111561048757fe5b600381111561049257fe5b815260200183815250905060018190806001815401808255809150509060018203906000526020600020906004020160009091929091909150600082015181600001556020820151816001015560408201518160020160006101000a81548160ff0219169083600381111561050357fe5b0217905550606082015181600301600082015181600001600082015181600001555050505050505050505050565b600061053b610854565b610543610854565b600061054d610854565b610555610854565b61055d610877565b6000888154811061056a57fe5b90600052602060002090600302016040518060600160405290816000820154815260200160018201805480602002602001604051908101604052809291908181526020016000905b828210156105f8578382906000526020600020906002020160405180604001604052908160008201548152602001600182015481525050815260200190600101906105b2565b50505050815260200160028201805480602002602001604051908101604052809291908181526020016000905b8282101561066b57838290600052602060002090600202016040518060400160405290816000820154815260200160018201548152505081526020019060010190610625565b5050505081525050905060008090505b8160200151518110156106f7578160200151818151811061069857fe5b6020026020010151600001518782603281106106b057fe5b602002018181525050816020015181815181106106c957fe5b6020026020010151602001518682603281106106e157fe5b602002018181525050808060010191505061067b565b600090505b816040015151811015610778578160400151818151811061071957fe5b60200260200101516000015184826032811061073157fe5b6020020181815250508160400151818151811061074a57fe5b60200260200101516020015183826032811061076257fe5b60200201818152505080806001019150506106fc565b81602001515187878460400151518787975097509750975097509750505091939550919395565b600080600180549050600080549050915091509091565b60405180608001604052806000815260200160008152602001600060038111156107dc57fe5b81526020016107e9610898565b81525090565b81548183558181111561081c5760030281600302836000526020600020918201910161081b91906108b1565b5b505050565b604051806040016040528060008152602001600081525090565b604051806020016040528061084e6108f8565b81525090565b604051806106400160405280603290602082028038833980820191505090505090565b60405180606001604052806000815260200160608152602001606081525090565b60405180602001604052806108ab6108f8565b81525090565b6108f591905b808211156108f1576000808201600090556001820160006108d8919061090b565b6002820160006108e8919061090b565b506003016108b7565b5090565b90565b6040518060200160405280600081525090565b508054600082556002029060005260206000209081019061092c919061092f565b50565b61095b91905b8082111561095757600080820160009055600182016000905550600201610935565b5090565b9056fea165627a7a72305820f1a96d11cf1e29aef2ae1dd3acb3a6a6f927b163fc22d376c0ed7cd134bd069c0029",
  "source": "pragma solidity ^0.5.0;\n\nimport \"./ItemTypes.sol\";\nimport \"./RecipeTypes.sol\";\n\ncontract CraftingManager is ItemTypes, RecipeTypes{\n    Recipe[] recipes;\n    ItemProperties[] items;\n\n    /**************************************************************\n    Public pure/views\n    **************************************************************/\n    function getRecipeProperties(uint recipeId) public view returns (\n        uint inputCounts,\n        uint[50] memory inputItemIds,\n        uint[50] memory inputQuantities,\n        uint outputCounts,\n        uint[50] memory outputItemIds,\n        uint[50] memory outputQuantities\n    ){\n        Recipe memory recipe = recipes[recipeId];\n\n        uint i;\n\n        for(i = 0; i < recipe.inputs.length; i++){\n            inputItemIds[i] = recipe.inputs[i].itemId;\n            inputQuantities[i] = recipe.inputs[i].quantity;\n        }\n        for(i = 0; i < recipe.outputs.length; i++){\n            outputItemIds[i] = recipe.outputs[i].itemId;\n            outputQuantities[i] = recipe.outputs[i].quantity;\n        }\n\n        return (\n            recipe.inputs.length,\n            inputItemIds,\n            inputQuantities,\n\n            recipe.outputs.length,\n            outputItemIds,\n            outputQuantities\n        );\n    }\n\n    function getItemProperties(uint itemId) public view returns (\n        uint density,\n        uint itemType\n    ){\n        //require(itemId < items.length, \"Require that itemId is within range of valid items.\");\n        ItemProperties memory item = items[itemId];\n\n        return (\n            item.density,\n            uint(item.itemType)\n        );\n    }\n\n    function getCraftingMapRanges() public view returns (\n        uint itemCount,\n        uint recipeCount\n    ){\n        return(\n            items.length,\n            recipes.length\n        );\n    }\n\n    /**************************************************************\n    Recipe/item loading\n    **************************************************************/\n    function addItem(uint density, uint itemType) public {\n        OptionalItemProperties memory itemPropsOptional;\n\n        ItemProperties memory itemProps = ItemProperties(\n            items.length - 1,\n            density,\n            ItemType(itemType),\n            itemPropsOptional\n        );\n        items.push(itemProps);\n    }\n\n    function addRecipe() public {\n        recipes.length += 1;\n    }\n    function addRecipeElement(bool isInput, uint itemId, uint quantity) public {\n        //require(itemId < items.length, \"Require that itemId is within range of valid items.\");\n\n        Recipe storage recipe = recipes[recipes.length - 1];\n        RecipeElement memory element = RecipeElement(itemId, quantity);\n\n        if(isInput) {\n            recipe.inputs.push(element);\n        }else{\n            recipe.outputs.push(element);\n        }\n    }\n\n    function addExtractorProps() public {\n\n    }\n}",
  "sourcePath": "/Users/idanreed/Documents/repos/CryptoGame/contracts/CraftingManager.sol",
  "compiler": {
    "name": "solc",
    "version": "0.5.8+commit.23d335f2.Emscripten.clang"
  },
  "schemaVersion": "3.0.16",
  "updatedAt": "2019-10-31T20:25:01.464Z",
  "devdoc": {
    "methods": {}
  },
  "userdoc": {
    "methods": {
      "addItem(uint256,uint256)": {
        "notice": "************************************************************ Recipe/item loading*************************************************************"
      },
      "getRecipeProperties(uint256)": {
        "notice": "************************************************************ Public pure/views*************************************************************"
      }
    }
  }
}