{
  "contractName": "Fed",
  "abi": [
    {
      "inputs": [],
      "payable": false,
      "stateMutability": "nonpayable",
      "type": "constructor"
    },
    {
      "constant": false,
      "inputs": [],
      "name": "storeETH",
      "outputs": [],
      "payable": true,
      "stateMutability": "payable",
      "type": "function"
    }
  ],
  "bytecode": "0x6080604052348015600f57600080fd5b50605780601d6000396000f3fe608060405260043610601c5760003560e01c8063f1ad3334146021575b600080fd5b60276029565b005b56fea165627a7a72305820f53db0bc79129881c433a1f7c1bce05634aa533492237cef523f3e75ee8207730029",
  "deployedBytecode": "0x608060405260043610601c5760003560e01c8063f1ad3334146021575b600080fd5b60276029565b005b56fea165627a7a72305820f53db0bc79129881c433a1f7c1bce05634aa533492237cef523f3e75ee8207730029",
  "source": "pragma solidity ^0.5.0;\r\n\r\ncontract Fed {\r\n\r\n    constructor() public {\r\n\r\n    }\r\n    function storeETH() public payable {\r\n    // nothing to do here\r\n    }\r\n}\r\n",
  "sourcePath": "A:/repos/crypto_game/contracts/Fed.sol",
  "compiler": {
    "name": "solc",
    "version": "0.5.8+commit.23d335f2.Emscripten.clang"
  },
  "schemaVersion": "3.0.14",
  "updatedAt": "2019-09-04T01:17:50.068Z",
  "devdoc": {
    "methods": {}
  },
  "userdoc": {
    "methods": {}
  }
}