{
  "contractName": "Game",
  "abi": [
    {
      "constant": true,
      "inputs": [
        {
          "name": "itemId",
          "type": "uint256"
        }
      ],
      "name": "getItemProperties",
      "outputs": [
        {
          "name": "itemType",
          "type": "uint256"
        }
      ],
      "payable": false,
      "stateMutability": "view",
      "type": "function"
    },
    {
      "constant": false,
      "inputs": [
        {
          "name": "targetTransformationId",
          "type": "uint256"
        }
      ],
      "name": "addAssemblerProperties",
      "outputs": [],
      "payable": false,
      "stateMutability": "nonpayable",
      "type": "function"
    },
    {
      "constant": false,
      "inputs": [
        {
          "name": "itemId",
          "type": "uint256"
        },
        {
          "name": "itemType",
          "type": "uint256"
        },
        {
          "name": "itemSubType",
          "type": "uint256"
        }
      ],
      "name": "addItem",
      "outputs": [],
      "payable": false,
      "stateMutability": "nonpayable",
      "type": "function"
    },
    {
      "constant": false,
      "inputs": [
        {
          "name": "targetItemId",
          "type": "uint256"
        },
        {
          "name": "maxQuantity",
          "type": "uint256"
        }
      ],
      "name": "addSiloProperties",
      "outputs": [],
      "payable": false,
      "stateMutability": "nonpayable",
      "type": "function"
    },
    {
      "constant": true,
      "inputs": [
        {
          "name": "transformationId",
          "type": "uint256"
        }
      ],
      "name": "getTransformationProperties",
      "outputs": [
        {
          "name": "inputCounts",
          "type": "uint256"
        },
        {
          "name": "inputItemIds",
          "type": "uint256[50]"
        },
        {
          "name": "inputQuantities",
          "type": "uint256[50]"
        },
        {
          "name": "outputCounts",
          "type": "uint256"
        },
        {
          "name": "outputItemIds",
          "type": "uint256[50]"
        },
        {
          "name": "outputQuantities",
          "type": "uint256[50]"
        }
      ],
      "payable": false,
      "stateMutability": "view",
      "type": "function"
    },
    {
      "constant": true,
      "inputs": [],
      "name": "getProductionMapRanges",
      "outputs": [
        {
          "name": "itemCount",
          "type": "uint256"
        },
        {
          "name": "transformationCount",
          "type": "uint256"
        }
      ],
      "payable": false,
      "stateMutability": "view",
      "type": "function"
    },
    {
      "constant": false,
      "inputs": [
        {
          "name": "transformationId",
          "type": "uint256"
        }
      ],
      "name": "addTransformation",
      "outputs": [],
      "payable": false,
      "stateMutability": "nonpayable",
      "type": "function"
    },
    {
      "constant": true,
      "inputs": [
        {
          "name": "addressToConvert",
          "type": "address"
        }
      ],
      "name": "convertAddressToCordinateTuple",
      "outputs": [
        {
          "name": "xAngle",
          "type": "uint256"
        },
        {
          "name": "zAngle",
          "type": "uint256"
        }
      ],
      "payable": false,
      "stateMutability": "pure",
      "type": "function"
    },
    {
      "constant": false,
      "inputs": [
        {
          "name": "targetTransformationId",
          "type": "uint256"
        }
      ],
      "name": "addExtractorProperties",
      "outputs": [],
      "payable": false,
      "stateMutability": "nonpayable",
      "type": "function"
    },
    {
      "constant": false,
      "inputs": [
        {
          "name": "isInput",
          "type": "bool"
        },
        {
          "name": "itemId",
          "type": "uint256"
        },
        {
          "name": "quantity",
          "type": "uint256"
        }
      ],
      "name": "addTransformationElement",
      "outputs": [],
      "payable": false,
      "stateMutability": "nonpayable",
      "type": "function"
    },
    {
      "constant": false,
      "inputs": [
        {
          "name": "sectorAddress",
          "type": "address"
        }
      ],
      "name": "tickSector",
      "outputs": [],
      "payable": false,
      "stateMutability": "nonpayable",
      "type": "function"
    },
    {
      "constant": false,
      "inputs": [],
      "name": "initializeNativeSector",
      "outputs": [],
      "payable": false,
      "stateMutability": "nonpayable",
      "type": "function"
    },
    {
      "constant": false,
      "inputs": [
        {
          "name": "sectorAddress",
          "type": "address"
        },
        {
          "name": "transformationId",
          "type": "uint256"
        }
      ],
      "name": "manualTransformation",
      "outputs": [],
      "payable": false,
      "stateMutability": "nonpayable",
      "type": "function"
    },
    {
      "constant": true,
      "inputs": [
        {
          "name": "sectorAddress",
          "type": "address"
        }
      ],
      "name": "getSectorAttributes",
      "outputs": [
        {
          "name": "initialized",
          "type": "bool"
        },
        {
          "name": "owner",
          "type": "address"
        },
        {
          "name": "xAngle",
          "type": "uint256"
        },
        {
          "name": "zAngle",
          "type": "uint256"
        }
      ],
      "payable": false,
      "stateMutability": "view",
      "type": "function"
    },
    {
      "constant": true,
      "inputs": [
        {
          "name": "sectorAddress",
          "type": "address"
        }
      ],
      "name": "getSectorSilos",
      "outputs": [
        {
          "name": "itemIds",
          "type": "uint256[]"
        },
        {
          "name": "itemQuantities",
          "type": "uint256[]"
        }
      ],
      "payable": false,
      "stateMutability": "view",
      "type": "function"
    }
  ],
  "bytecode": "0x608060405234801561001057600080fd5b50613208806100206000396000f3fe608060405234801561001057600080fd5b50600436106100f55760003560e01c80637b0ed12211610097578063ba52d77f11610066578063ba52d77f1461050e578063d5bbd7791461053c578063f1e3769b14610580578063f82f6a881461058a576100f5565b80637b0ed1221461035757806386f5ffde1461045c5780639fab11c414610481578063ba2371c5146104af576100f5565b80636e963872116100d35780636e963872146101ce578063724c2551146102af578063798a712a146102dd5780637abe28d31461031f576100f5565b80630124d89f146100fa57806321ce76de1461013e5780632e2f362e14610180575b600080fd5b61013c6004803603602081101561011057600080fd5b81019080803573ffffffffffffffffffffffffffffffffffffffff169060200190929190505050610627565b005b61016a6004803603602081101561015457600080fd5b8101908080359060200190929190505050610a1a565b6040518082815260200191505060405180910390f35b6101cc6004803603604081101561019657600080fd5b81019080803573ffffffffffffffffffffffffffffffffffffffff16906020019092919080359060200190929190505050610cca565b005b610210600480360360208110156101e457600080fd5b81019080803573ffffffffffffffffffffffffffffffffffffffff169060200190929190505050610f13565b604051808060200180602001838103835285818151815260200191508051906020019060200280838360005b8381101561025757808201518184015260208101905061023c565b50505050905001838103825284818151815260200191508051906020019060200280838360005b8381101561029957808201518184015260208101905061027e565b5050505090500194505050505060405180910390f35b6102db600480360360208110156102c557600080fd5b8101908080359060200190929190505050611392565b005b61031d600480360360608110156102f357600080fd5b810190808035906020019092919080359060200190929190803590602001909291905050506113de565b005b6103556004803603604081101561033557600080fd5b810190808035906020019092919080359060200190929190505050611750565b005b6103836004803603602081101561036d57600080fd5b81019080803590602001909291905050506117a6565b6040518087815260200186603260200280838360005b838110156103b4578082015181840152602081019050610399565b5050505090500185603260200280838360005b838110156103e25780820151818401526020810190506103c7565b5050505090500184815260200183603260200280838360005b838110156104165780820151818401526020810190506103fb565b5050505090500182603260200280838360005b83811015610444578082015181840152602081019050610429565b50505050905001965050505050505060405180910390f35b610464611a16565b604051808381526020018281526020019250505060405180910390f35b6104ad6004803603602081101561049757600080fd5b8101908080359060200190929190505050611a2d565b005b6104f1600480360360208110156104c557600080fd5b81019080803573ffffffffffffffffffffffffffffffffffffffff169060200190929190505050611aa6565b604051808381526020018281526020019250505060405180910390f35b61053a6004803603602081101561052457600080fd5b8101908080359060200190929190505050611aef565b005b61057e6004803603606081101561055257600080fd5b810190808035151590602001909291908035906020019092919080359060200190929190505050611b3b565b005b610588611c21565b005b6105cc600480360360208110156105a057600080fd5b81019080803573ffffffffffffffffffffffffffffffffffffffff169060200190929190505050611c89565b60405180851515151581526020018473ffffffffffffffffffffffffffffffffffffffff1673ffffffffffffffffffffffffffffffffffffffff16815260200183815260200182815260200194505050505060405180910390f35b80600260008273ffffffffffffffffffffffffffffffffffffffff1673ffffffffffffffffffffffffffffffffffffffff16815260200190815260200160002060000160019054906101000a900473ffffffffffffffffffffffffffffffffffffffff1673ffffffffffffffffffffffffffffffffffffffff163373ffffffffffffffffffffffffffffffffffffffff161461070e576040517f08c379a00000000000000000000000000000000000000000000000000000000081526004018080602001828103825260408152602001806130986040913960400191505060405180910390fd5b6000600260008473ffffffffffffffffffffffffffffffffffffffff1673ffffffffffffffffffffffffffffffffffffffff168152602001908152602001600020905060008090505b81600601805490508110156108b2576108a582600084600601848154811061077b57fe5b9060005260206000209060030201600201548154811061079757fe5b90600052602060002090600302016040518060600160405290816000820154815260200160018201805480602002602001604051908101604052809291908181526020016000905b82821015610825578382906000526020600020906002020160405180604001604052908160008201548152602001600182015481525050815260200190600101906107df565b50505050815260200160028201805480602002602001604051908101604052809291908181526020016000905b8282101561089857838290600052602060002090600202016040518060400160405290816000820154815260200160018201548152505081526020019060010190610852565b5050505081525050612033565b8080600101915050610757565b5060008090505b8160070180549050811015610a1457610a078260008460070184815481106108dd57fe5b906000526020600020906003020160020154815481106108f957fe5b90600052602060002090600302016040518060600160405290816000820154815260200160018201805480602002602001604051908101604052809291908181526020016000905b8282101561098757838290600052602060002090600202016040518060400160405290816000820154815260200160018201548152505081526020019060010190610941565b50505050815260200160028201805480602002602001604051908101604052809291908181526020016000905b828210156109fa578382906000526020600020906002020160405180604001604052908160008201548152602001600182015481525050815260200190600101906109b4565b5050505081525050612033565b80806001019150506108b9565b50505050565b60006001805490508210610a79576040517f08c379a00000000000000000000000000000000000000000000000000000000081526004018080602001828103825260338152602001806131166033913960400191505060405180910390fd5b610a81612d8a565b60018381548110610a8e57fe5b90600052602060002090600f0201604051806101000160405290816000820154815260200160018201548152602001600282015481526020016003820160009054906101000a900460ff166002811115610ae457fe5b6002811115610aef57fe5b81526020016003820160019054906101000a900460ff166001811115610b1157fe5b6001811115610b1c57fe5b81526020016003820160029054906101000a900460ff166001811115610b3e57fe5b6001811115610b4957fe5b81526020016003820160039054906101000a900460ff166003811115610b6b57fe5b6003811115610b7657fe5b815260200160048201604051806060016040529081600082016040518060a001604052908160008201604051806020016040529081600082015481525050815260200160018201604051806020016040529081600082015481525050815260200160028201548152602001600382015481526020016004820154815250508152602001600582016040518060600160405290816000820160405180602001604052908160008201548152505081526020016001820160405180602001604052908160008201548152505081526020016002820154815250508152602001600882016040518060600160405290816000820160405180602001604052908160008201548152505081526020016001820160405180602001604052908160008201548152505081526020016002820154815250508152505081525050905080606001516002811115610cc257fe5b915050919050565b81600260008273ffffffffffffffffffffffffffffffffffffffff1673ffffffffffffffffffffffffffffffffffffffff16815260200190815260200160002060000160019054906101000a900473ffffffffffffffffffffffffffffffffffffffff1673ffffffffffffffffffffffffffffffffffffffff163373ffffffffffffffffffffffffffffffffffffffff1614610db1576040517f08c379a00000000000000000000000000000000000000000000000000000000081526004018080602001828103825260408152602001806130986040913960400191505060405180910390fd5b610f0e600260008573ffffffffffffffffffffffffffffffffffffffff1673ffffffffffffffffffffffffffffffffffffffff16815260200190815260200160002060008481548110610e0057fe5b90600052602060002090600302016040518060600160405290816000820154815260200160018201805480602002602001604051908101604052809291908181526020016000905b82821015610e8e57838290600052602060002090600202016040518060400160405290816000820154815260200160018201548152505081526020019060010190610e48565b50505050815260200160028201805480602002602001604051908101604052809291908181526020016000905b82821015610f0157838290600052602060002090600202016040518060400160405290816000820154815260200160018201548152505081526020019060010190610ebb565b5050505081525050612033565b505050565b606080610f1e612e01565b600260008573ffffffffffffffffffffffffffffffffffffffff1673ffffffffffffffffffffffffffffffffffffffff168152602001908152602001600020604051806101000160405290816000820160009054906101000a900460ff161515151581526020016000820160019054906101000a900473ffffffffffffffffffffffffffffffffffffffff1673ffffffffffffffffffffffffffffffffffffffff1673ffffffffffffffffffffffffffffffffffffffff168152602001600182016040518060400160405290816000820154815260200160018201548152505081526020016003820154815260200160048201805480602002602001604051908101604052809291908181526020016000905b828210156110815783829060005260206000209060030201604051806060016040529081600082015481526020016001820154815260200160028201548152505081526020019060010190611031565b50505050815260200160058201805480602002602001604051908101604052809291908181526020016000905b8282101561113a57838290600052602060002090600502016040518060a00160405290816000820160405180602001604052908160008201548152505081526020016001820160405180602001604052908160008201548152505081526020016002820154815260200160038201548152602001600482015481525050815260200190600101906110ae565b50505050815260200160068201805480602002602001604051908101604052809291908181526020016000905b828210156111df578382906000526020600020906003020160405180606001604052908160008201604051806020016040529081600082015481525050815260200160018201604051806020016040529081600082015481525050815260200160028201548152505081526020019060010190611167565b50505050815260200160078201805480602002602001604051908101604052809291908181526020016000905b8282101561128457838290600052602060002090600302016040518060600160405290816000820160405180602001604052908160008201548152505081526020016001820160405180602001604052908160008201548152505081526020016002820154815250508152602001906001019061120c565b5050505081525050905060008160a00151519050806040519080825280602002602001820160405280156112c75781602001602082028038833980820191505090505b509350806040519080825280602002602001820160405280156112f95781602001602082028038833980820191505090505b50925060008090505b8260a0015151811015611384578260a00151818151811061131f57fe5b60200260200101516040015185828151811061133757fe5b6020026020010181815250508260a00151818151811061135357fe5b60200260200101516080015184828151811061136b57fe5b6020026020010181815250508080600101915050611302565b508383935093505050915091565b6000600161139e61262b565b815481106113a857fe5b90600052602060002090600f020160040160080190506113c661262b565b81600001600001819055508181600201819055505050565b826001805490501461143b576040517f08c379a00000000000000000000000000000000000000000000000000000000081526004018080602001828103825260338152602001806131496033913960400191505060405180910390fd5b611443612d8a565b60018054905081600001818152505082600281111561145e57fe5b8160600190600281111561146e57fe5b9081600281111561147b57fe5b815250506000600281111561148c57fe5b8160600151600281111561149c57fe5b14156114d4578160018111156114ae57fe5b816080019060018111156114be57fe5b908160018111156114cb57fe5b8152505061157b565b600160028111156114e157fe5b816060015160028111156114f157fe5b14156115295781600181111561150357fe5b8160a00190600181111561151357fe5b9081600181111561152057fe5b8152505061157a565b60028081111561153557fe5b8160600151600281111561154557fe5b14156115795781600381111561155757fe5b8160c00190600381111561156757fe5b9081600381111561157457fe5b815250505b5b5b6001819080600181540180825580915050906001820390600052602060002090600f02016000909192909190915060008201518160000155602082015181600101556040820151816002015560608201518160030160006101000a81548160ff021916908360028111156115eb57fe5b021790555060808201518160030160016101000a81548160ff0219169083600181111561161457fe5b021790555060a08201518160030160026101000a81548160ff0219169083600181111561163d57fe5b021790555060c08201518160030160036101000a81548160ff0219169083600381111561166657fe5b021790555060e0820151816004016000820151816000016000820151816000016000820151816000015550506020820151816001016000820151816000015550506040820151816002015560608201518160030155608082015181600401555050602082015181600501600082015181600001600082015181600001555050602082015181600101600082015181600001555050604082015181600201555050604082015181600801600082015181600001600082015181600001555050602082015181600101600082015181600001555050604082015181600201555050505050505050505050565b6000600161175c61262b565b8154811061176657fe5b90600052602060002090600f0201600401600001905061178461262b565b8160000160000181905550828160020181905550818160030181905550505050565b60006117b0612e64565b6117b8612e64565b60006117c2612e64565b6117ca612e64565b6117d2612e87565b600088815481106117df57fe5b90600052602060002090600302016040518060600160405290816000820154815260200160018201805480602002602001604051908101604052809291908181526020016000905b8282101561186d57838290600052602060002090600202016040518060400160405290816000820154815260200160018201548152505081526020019060010190611827565b50505050815260200160028201805480602002602001604051908101604052809291908181526020016000905b828210156118e05783829060005260206000209060020201604051806040016040529081600082015481526020016001820154815250508152602001906001019061189a565b5050505081525050905060008090505b81602001515181101561196c578160200151818151811061190d57fe5b60200260200101516000015187826032811061192557fe5b6020020181815250508160200151818151811061193e57fe5b60200260200101516020015186826032811061195657fe5b60200201818152505080806001019150506118f0565b5060008090505b8160400151518110156119ef578160400151818151811061199057fe5b6020026020010151600001518482603281106119a857fe5b602002018181525050816040015181815181106119c157fe5b6020026020010151602001518382603281106119d957fe5b6020020181815250508080600101915050611973565b50806020015151868683604001515186869650965096509650965096505091939550919395565b600080600180549050600080549050915091509091565b8060008054905014611a8a576040517f08c379a000000000000000000000000000000000000000000000000000000000815260040180806020018281038252603e8152602001806130d8603e913960400191505060405180910390fd5b6001600081818054905001915081611aa29190612ea8565b5050565b600080600069ffffffffffffffffffff905060008473ffffffffffffffffffffffffffffffffffffffff169050605082198216901c935081811692508383935093505050915091565b60006001611afb61262b565b81548110611b0557fe5b90600052602060002090600f02016004016005019050611b2361262b565b81600001600001819055508181600201819055505050565b60008060016000805490500381548110611b5157fe5b90600052602060002090600302019050611b69612eda565b60405180604001604052808581526020018481525090508415611bd2578160010181908060018154018082558091505090600182039060005260206000209060020201600090919290919091506000820151816000015560208201518160010155505050611c1a565b81600201819080600181540180825580915050906001820390600052602060002090600202016000909192909190915060008201518160000155602082015181600101555050505b5050505050565b6000600260003373ffffffffffffffffffffffffffffffffffffffff1673ffffffffffffffffffffffffffffffffffffffff16815260200190815260200160002090508060000160009054906101000a900460ff16611c8657611c8581333361263a565b5b50565b600080600080611c97612e01565b600260008773ffffffffffffffffffffffffffffffffffffffff1673ffffffffffffffffffffffffffffffffffffffff168152602001908152602001600020604051806101000160405290816000820160009054906101000a900460ff161515151581526020016000820160019054906101000a900473ffffffffffffffffffffffffffffffffffffffff1673ffffffffffffffffffffffffffffffffffffffff1673ffffffffffffffffffffffffffffffffffffffff168152602001600182016040518060400160405290816000820154815260200160018201548152505081526020016003820154815260200160048201805480602002602001604051908101604052809291908181526020016000905b82821015611dfa5783829060005260206000209060030201604051806060016040529081600082015481526020016001820154815260200160028201548152505081526020019060010190611daa565b50505050815260200160058201805480602002602001604051908101604052809291908181526020016000905b82821015611eb357838290600052602060002090600502016040518060a0016040529081600082016040518060200160405290816000820154815250508152602001600182016040518060200160405290816000820154815250508152602001600282015481526020016003820154815260200160048201548152505081526020019060010190611e27565b50505050815260200160068201805480602002602001604051908101604052809291908181526020016000905b82821015611f58578382906000526020600020906003020160405180606001604052908160008201604051806020016040529081600082015481525050815260200160018201604051806020016040529081600082015481525050815260200160028201548152505081526020019060010190611ee0565b50505050815260200160078201805480602002602001604051908101604052809291908181526020016000905b82821015611ffd578382906000526020600020906003020160405180606001604052908160008201604051806020016040529081600082015481525050815260200160018201604051806020016040529081600082015481525050815260200160028201548152505081526020019060010190611f85565b50505050815250509050806000015181602001518260400151600001518360400151602001519450945094509450509193509193565b61203b612eda565b612043612d8a565b60008090505b836020015151811015612333578360200151818151811061206657fe5b60200260200101519250600183600001518154811061208157fe5b90600052602060002090600f0201604051806101000160405290816000820154815260200160018201548152602001600282015481526020016003820160009054906101000a900460ff1660028111156120d757fe5b60028111156120e257fe5b81526020016003820160019054906101000a900460ff16600181111561210457fe5b600181111561210f57fe5b81526020016003820160029054906101000a900460ff16600181111561213157fe5b600181111561213c57fe5b81526020016003820160039054906101000a900460ff16600381111561215e57fe5b600381111561216957fe5b815260200160048201604051806060016040529081600082016040518060a00160405290816000820160405180602001604052908160008201548152505081526020016001820160405180602001604052908160008201548152505081526020016002820154815260200160038201548152602001600482015481525050815260200160058201604051806060016040529081600082016040518060200160405290816000820154815250508152602001600182016040518060200160405290816000820154815250508152602001600282015481525050815260200160088201604051806060016040529081600082016040518060200160405290816000820154815250508152602001600182016040518060200160405290816000820154815250508152602001600282015481525050815250508152505091506122b485838560200151612752565b612326576040517f08c379a000000000000000000000000000000000000000000000000000000000815260040180806020018281038252601c8152602001807f556e61626c6520746f20636f6e73756d6520696e707574206974656d0000000081525060200191505060405180910390fd5b8080600101915050612049565b5060008090505b836040015151811015612624578360400151818151811061235757fe5b60200260200101519250600183600001518154811061237257fe5b90600052602060002090600f0201604051806101000160405290816000820154815260200160018201548152602001600282015481526020016003820160009054906101000a900460ff1660028111156123c857fe5b60028111156123d357fe5b81526020016003820160019054906101000a900460ff1660018111156123f557fe5b600181111561240057fe5b81526020016003820160029054906101000a900460ff16600181111561242257fe5b600181111561242d57fe5b81526020016003820160039054906101000a900460ff16600381111561244f57fe5b600381111561245a57fe5b815260200160048201604051806060016040529081600082016040518060a00160405290816000820160405180602001604052908160008201548152505081526020016001820160405180602001604052908160008201548152505081526020016002820154815260200160038201548152602001600482015481525050815260200160058201604051806060016040529081600082016040518060200160405290816000820154815250508152602001600182016040518060200160405290816000820154815250508152602001600282015481525050815260200160088201604051806060016040529081600082016040518060200160405290816000820154815250508152602001600182016040518060200160405290816000820154815250508152602001600282015481525050815250508152505091506125a58583856020015161298e565b612617576040517f08c379a000000000000000000000000000000000000000000000000000000000815260040180806020018281038252601b8152602001807f556e61626c6520746f2073746f7265206f7574707574206974656d000000000081525060200191505060405180910390fd5b808060010191505061233a565b5050505050565b60006001808054905003905090565b8260000160009054906101000a900460ff16156126a2576040517f08c379a00000000000000000000000000000000000000000000000000000000081526004018080602001828103825260328152602001806131ab6032913960400191505060405180910390fd5b818360000160016101000a81548173ffffffffffffffffffffffffffffffffffffffff021916908373ffffffffffffffffffffffffffffffffffffffff16021790555060018360000160006101000a81548160ff02191690831515021790555060008061270e83611aa6565b9150915060405180604001604052808381526020018281525085600101600082015181600001556020820151816001015590505061274b85612d87565b5050505050565b6000808290506000600281111561276557fe5b8460600151600281111561277557fe5b141561278057612980565b6001600281111561278d57fe5b8460600151600281111561279d57fe5b14156128af5760008090505b8560050180549050811080156127bf5750600082115b156128a9578560050181815481106127d357fe5b9060005260206000209060050201600201548560000151141561289c578560050181815481106127ff57fe5b90600052602060002090600502016004015482101561284f578186600501828154811061282857fe5b9060005260206000209060050201600401600082825403925050819055506000915061289b565b85600501818154811061285e57fe5b90600052602060002090600502016004015482039150600086600501828154811061288557fe5b9060005260206000209060050201600401819055505b5b80806001019150506127a9565b5061297f565b6002808111156128bb57fe5b846060015160028111156128cb57fe5b141561297e576003808111156128dd57fe5b8460c0015160038111156128ed57fe5b141561295d5760008090505b85600701805490508110801561290f5750600082115b1561295757846000015186600701828154811061292857fe5b906000526020600020906003020160000160000154141561294a576001820391505b80806001019150506128f9565b5061297d565b6002600381111561296a57fe5b8460c00151600381111561297a57fe5b50505b5b5b5b600081149150509392505050565b6000808290506002808111156129a057fe5b846060015160028111156129b057fe5b1415612bee5760018114612a0f576040517f08c379a000000000000000000000000000000000000000000000000000000000815260040180806020018281038252602f81526020018061317c602f913960400191505060405180910390fd5b60016003811115612a1c57fe5b8460c001516003811115612a2c57fe5b1415612aba57846005018460e001516000015190806001815401808255809150509060018203906000526020600020906005020160009091929091909150600082015181600001600082015181600001555050602082015181600101600082015181600001555050604082015181600201556060820151816003015560808201518160040155505050612be5565b60026003811115612ac757fe5b8460c001516003811115612ad757fe5b1415612b5157846006018460e00151602001519080600181540180825580915050906001820390600052602060002090600302016000909192909190915060008201518160000160008201518160000155505060208201518160010160008201518160000155505060408201518160020155505050612be4565b600380811115612b5d57fe5b8460c001516003811115612b6d57fe5b1415612be357846007018460e001516040015190806001815401808255809150509060018203906000526020600020906003020160009091929091909150600082015181600001600082015181600001555050602082015181600101600082015181600001555050604082015181600201555050505b5b5b60009050612d79565b60016002811115612bfb57fe5b84606001516002811115612c0b57fe5b1415612d785760008090505b856005018054905081108015612c2d5750600082115b15612d7657856005018181548110612c4157fe5b90600052602060002090600502016002015485600001511415612d695781866005018281548110612c6e57fe5b906000526020600020906005020160040160008282540192505081905550856005018181548110612c9b57fe5b906000526020600020906005020160030154866005018281548110612cbc57fe5b9060005260206000209060050201600401541115612d6357856005018181548110612ce357fe5b906000526020600020906005020160030154866005018281548110612d0457fe5b906000526020600020906005020160040154039150856005018181548110612d2857fe5b906000526020600020906005020160030154866005018281548110612d4957fe5b906000526020600020906005020160040181905550612d68565b600091505b5b8080600101915050612c17565b505b5b600081149150509392505050565b50565b60405180610240016040528060008152602001600081526020016000815260200160006002811115612db857fe5b815260200160006001811115612dca57fe5b815260200160006001811115612ddc57fe5b815260200160006003811115612dee57fe5b8152602001612dfb612ef4565b81525090565b604051806101200160405280600015158152602001600073ffffffffffffffffffffffffffffffffffffffff168152602001612e3b612f28565b815260200160008152602001606081526020016060815260200160608152602001606081525090565b604051806106400160405280603290602082028038833980820191505090505090565b60405180606001604052806000815260200160608152602001606081525090565b815481835581811115612ed557600302816003028360005260206000209182019101612ed49190612f42565b5b505050565b604051806040016040528060008152602001600081525090565b604051806101600160405280612f08612f89565b8152602001612f15612fc4565b8152602001612f22612ff1565b81525090565b604051806040016040528060008152602001600081525090565b612f8691905b80821115612f8257600080820160009055600182016000612f69919061301e565b600282016000612f79919061301e565b50600301612f48565b5090565b90565b6040518060a00160405280612f9c613042565b8152602001612fa9613055565b81526020016000815260200160008152602001600081525090565b6040518060600160405280612fd7613042565b8152602001612fe4613055565b8152602001600081525090565b6040518060600160405280613004613042565b8152602001613011613055565b8152602001600081525090565b508054600082556002029060005260206000209081019061303f9190613068565b50565b6040518060200160405280600081525090565b6040518060200160405280600081525090565b61309491905b808211156130905760008082016000905560018201600090555060020161306e565b5090565b9056fe52657175697265207468617420736563746f72207265666572656e6365642062792061646472657373206973206f776e6564206279207468652063616c6c65725265717569726520746861742063616c6c6572206b6e6f772074686520696420746865207472616e73666f726d6174696f6e206265696e67206164646564526571756972652074686174206974656d49642069732077697468696e2072616e6765206f662076616c6964206974656d732e5265717569726520746861742063616c6c6572206b6e6f7720746865206964206f66206974656d206265696e6720616464656452657175697265207468617420706c61636561626c65206172652073746f726564206f6e6520617420612074696d6552657175697265207468617420676976656e20736563746f7220686173206e6f74206265656e20696e697469616c697a6564a165627a7a723058202d85d933e25d02c9f22141e8048f5e3ad2164c0e0102d182849966d431a81d130029",
  "source": "pragma solidity ^0.5.0;\n\nimport \"./types/TypesItem.sol\";\nimport \"./types/TypesTransformation.sol\";\nimport \"./types/TypesSector.sol\";\n\nimport \"./ProductionManager.sol\";\n\ncontract Game is\n    TypesItem, TypesTransformation, TypesSector,\n    ProductionManager\n    {\n\n    /**************************************************************\n    Data\n    **************************************************************/\n\n    mapping (address => Sector) sectors;\n\n    /**************************************************************\n    External functions - full\n    **************************************************************/\n\n    /**\n    A primary game function that is called to make a sector's buildings act.\n    */\n    function tickSector(\n        address sectorAddress\n    ) external callerOwnsSector(sectorAddress) {\n        Sector storage sector = sectors[sectorAddress];\n\n        for(uint i = 0; i < sector.extractors.length; i++){\n            proccessTransformation(\n                sector,\n                transformations[sector.extractors[i].targetTransformationId]\n            );\n        }\n\n        for(uint i = 0; i < sector.assemblers.length; i++){\n            proccessTransformation(\n                sector,\n                transformations[sector.assemblers[i].targetTransformationId]\n            );\n        }\n    }\n\n    /**\n    Native sector is one with the same key address as the caller. If this\n    sector hasn't been annexed or initialized this will do so .\n    */\n    function initializeNativeSector() external {\n        Sector storage nativeSector = sectors[msg.sender];\n        if(!nativeSector.initialized){\n            initializeSector(nativeSector, msg.sender, msg.sender);\n        }\n    }\n    /**\n    This function attempts to execute a transformation that was externally\n    called. Intended for building placeable items in a sector.\n    */\n    function manualTransformation(\n        address sectorAddress,\n        uint transformationId\n    )\n    external callerOwnsSector(sectorAddress){\n        proccessTransformation(\n            sectors[sectorAddress],\n            transformations[transformationId]\n        );\n    }\n\n    /**************************************************************\n    Public functions   - view, pure\n    **************************************************************/\n\n    function getSectorAttributes(address sectorAddress) public view returns (\n        bool initialized,\n        address owner,\n        uint xAngle,\n        uint zAngle\n    ){\n        Sector memory selSector = sectors[sectorAddress];\n\n        return (\n            selSector.initialized,\n            selSector.owner,\n            selSector.cordinates.xAngle,\n            selSector.cordinates.zAngle\n        );\n    }\n\n    function getSectorSilos(address sectorAddress) public view returns (\n        uint[] memory itemIds,\n        uint[] memory itemQuantities\n    ){\n\n        Sector memory selSector = sectors[sectorAddress];\n        uint siloCount = selSector.silos.length;\n\n        itemIds = new uint[](siloCount);\n        itemQuantities = new uint[](siloCount);\n\n        for(uint i = 0; i < selSector.silos.length; i++){\n            itemIds[i] = selSector.silos[i].targetItemId;\n            itemQuantities[i] = selSector.silos[i].curQuantity;\n        }\n\n        return (\n            itemIds,\n            itemQuantities\n        );\n    }\n\n    /**************************************************************\n    Modifiers\n    **************************************************************/\n\n    modifier callerOwnsSector(address sectorAddress) {\n        require(\n            msg.sender == sectors[sectorAddress].owner,\n            \"Require that sector referenced by address is owned by the caller\"\n        );\n        _;\n    }\n}",
  "sourcePath": "/Users/idanreed/Documents/repos/CryptoGame/contracts/Game.sol",
  "compiler": {
    "name": "solc",
    "version": "0.5.8+commit.23d335f2.Emscripten.clang"
  },
  "schemaVersion": "3.0.16",
  "updatedAt": "2019-11-27T03:19:22.820Z",
  "devdoc": {
    "methods": {}
  },
  "userdoc": {
    "methods": {
      "addItem(uint256,uint256,uint256)": {
        "notice": "************************************************************ External functions - full*************************************************************"
      },
      "convertAddressToCordinateTuple(address)": {
        "notice": "************************************************************ Public Views/Pure*************************************************************"
      },
      "getSectorAttributes(address)": {
        "notice": "************************************************************ Public functions   - view, pure*************************************************************"
      },
      "getTransformationProperties(uint256)": {
        "notice": "************************************************************ External functions - view, pure*************************************************************"
      },
      "initializeNativeSector()": {
        "notice": "Native sector is one with the same key address as the caller. If this sector hasn't been annexed or initialized this will do so ."
      },
      "manualTransformation(address,uint256)": {
        "notice": "This function attempts to execute a transformation that was externally called. Intended for building placeable items in a sector."
      },
      "tickSector(address)": {
        "notice": "A primary game function that is called to make a sector's buildings act."
      }
    }
  }
}