{
  "contractName": "Game",
  "abi": [
    {
      "constant": true,
      "inputs": [
        {
          "name": "itemId",
          "type": "uint256"
        }
      ],
      "name": "getItemProperties",
      "outputs": [
        {
          "name": "density",
          "type": "uint256"
        },
        {
          "name": "itemType",
          "type": "uint256"
        }
      ],
      "payable": false,
      "stateMutability": "view",
      "type": "function"
    },
    {
      "constant": false,
      "inputs": [],
      "name": "addTransformation",
      "outputs": [],
      "payable": false,
      "stateMutability": "nonpayable",
      "type": "function"
    },
    {
      "constant": false,
      "inputs": [],
      "name": "addExtractorProps",
      "outputs": [],
      "payable": false,
      "stateMutability": "nonpayable",
      "type": "function"
    },
    {
      "constant": true,
      "inputs": [
        {
          "name": "transformationId",
          "type": "uint256"
        }
      ],
      "name": "getTransformationProperties",
      "outputs": [
        {
          "name": "inputCounts",
          "type": "uint256"
        },
        {
          "name": "inputItemIds",
          "type": "uint256[50]"
        },
        {
          "name": "inputQuantities",
          "type": "uint256[50]"
        },
        {
          "name": "outputCounts",
          "type": "uint256"
        },
        {
          "name": "outputItemIds",
          "type": "uint256[50]"
        },
        {
          "name": "outputQuantities",
          "type": "uint256[50]"
        }
      ],
      "payable": false,
      "stateMutability": "view",
      "type": "function"
    },
    {
      "constant": true,
      "inputs": [],
      "name": "getProductionMapRanges",
      "outputs": [
        {
          "name": "itemCount",
          "type": "uint256"
        },
        {
          "name": "transformationCount",
          "type": "uint256"
        }
      ],
      "payable": false,
      "stateMutability": "view",
      "type": "function"
    },
    {
      "constant": false,
      "inputs": [
        {
          "name": "density",
          "type": "uint256"
        },
        {
          "name": "itemType",
          "type": "uint256"
        }
      ],
      "name": "addItem",
      "outputs": [],
      "payable": false,
      "stateMutability": "nonpayable",
      "type": "function"
    },
    {
      "constant": true,
      "inputs": [
        {
          "name": "addressToConvert",
          "type": "address"
        }
      ],
      "name": "convertAddressToCordinateTuple",
      "outputs": [
        {
          "name": "xAngle",
          "type": "uint256"
        },
        {
          "name": "zAngle",
          "type": "uint256"
        }
      ],
      "payable": false,
      "stateMutability": "pure",
      "type": "function"
    },
    {
      "constant": false,
      "inputs": [
        {
          "name": "isInput",
          "type": "bool"
        },
        {
          "name": "itemId",
          "type": "uint256"
        },
        {
          "name": "quantity",
          "type": "uint256"
        }
      ],
      "name": "addTransformationElement",
      "outputs": [],
      "payable": false,
      "stateMutability": "nonpayable",
      "type": "function"
    },
    {
      "constant": false,
      "inputs": [],
      "name": "initializeNativeSector",
      "outputs": [],
      "payable": false,
      "stateMutability": "nonpayable",
      "type": "function"
    },
    {
      "constant": false,
      "inputs": [
        {
          "name": "sectorAddress",
          "type": "address"
        }
      ],
      "name": "tickSector",
      "outputs": [],
      "payable": false,
      "stateMutability": "nonpayable",
      "type": "function"
    },
    {
      "constant": false,
      "inputs": [
        {
          "name": "sectorAddress",
          "type": "address"
        },
        {
          "name": "transformationId",
          "type": "uint256"
        }
      ],
      "name": "manualTransformation",
      "outputs": [
        {
          "name": "successful",
          "type": "bool"
        }
      ],
      "payable": false,
      "stateMutability": "nonpayable",
      "type": "function"
    },
    {
      "constant": true,
      "inputs": [
        {
          "name": "sectorAddress",
          "type": "address"
        }
      ],
      "name": "getSectorAttributes",
      "outputs": [
        {
          "name": "initialized",
          "type": "bool"
        },
        {
          "name": "owner",
          "type": "address"
        },
        {
          "name": "xAngle",
          "type": "uint256"
        },
        {
          "name": "zAngle",
          "type": "uint256"
        }
      ],
      "payable": false,
      "stateMutability": "view",
      "type": "function"
    }
  ],
  "bytecode": "0x608060405234801561001057600080fd5b5061103a806100206000396000f3fe608060405234801561001057600080fd5b50600436106100b45760003560e01c806386f5ffde1161007157806386f5ffde146102c5578063a2125232146102ea578063ba2371c514610322578063d5bbd77914610381578063f1e3769b146103c5578063f82f6a88146103cf576100b4565b80630124d89f146100b957806321ce76de146100fd5780632e2f362e14610146578063352c1c1f146101ac578063581228ac146101b65780637b0ed122146101c0575b600080fd5b6100fb600480360360208110156100cf57600080fd5b81019080803573ffffffffffffffffffffffffffffffffffffffff16906020019092919050505061046c565b005b6101296004803603602081101561011357600080fd5b810190808035906020019092919050505061046f565b604051808381526020018281526020019250505060405180910390f35b6101926004803603604081101561015c57600080fd5b81019080803573ffffffffffffffffffffffffffffffffffffffff16906020019092919080359060200190929190505050610534565b604051808215151515815260200191505060405180910390f35b6101b461053c565b005b6101be610557565b005b6101ec600480360360208110156101d657600080fd5b8101908080359060200190929190505050610559565b6040518087815260200186603260200280838360005b8381101561021d578082015181840152602081019050610202565b5050505090500185603260200280838360005b8381101561024b578082015181840152602081019050610230565b5050505090500184815260200183603260200280838360005b8381101561027f578082015181840152602081019050610264565b5050505090500182603260200280838360005b838110156102ad578082015181840152602081019050610292565b50505050905001965050505050505060405180910390f35b6102cd6107c7565b604051808381526020018281526020019250505060405180910390f35b6103206004803603604081101561030057600080fd5b8101908080359060200190929190803590602001909291905050506107de565b005b6103646004803603602081101561033857600080fd5b81019080803573ffffffffffffffffffffffffffffffffffffffff1690602001909291905050506108c2565b604051808381526020018281526020019250505060405180910390f35b6103c36004803603606081101561039757600080fd5b81019080803515159060200190929190803590602001909291908035906020019092919050505061090b565b005b6103cd6109f1565b005b610411600480360360208110156103e557600080fd5b81019080803573ffffffffffffffffffffffffffffffffffffffff169060200190929190505050610b14565b60405180851515151581526020018473ffffffffffffffffffffffffffffffffffffffff1673ffffffffffffffffffffffffffffffffffffffff16815260200183815260200182815260200194505050505060405180910390f35b50565b60008061047a610df0565b6001848154811061048757fe5b906000526020600020906004020160405180608001604052908160008201548152602001600182015481526020016002820160009054906101000a900460ff1660038111156104d257fe5b60038111156104dd57fe5b815260200160038201604051806020016040529081600082016040518060200160405290816000820154815250508152505081525050905080602001518160400151600381111561052a57fe5b9250925050915091565b600092915050565b60016000818180549050019150816105549190610e29565b50565b565b6000610563610e5b565b61056b610e5b565b6000610575610e5b565b61057d610e5b565b610585610e7e565b6000888154811061059257fe5b90600052602060002090600302016040518060600160405290816000820154815260200160018201805480602002602001604051908101604052809291908181526020016000905b82821015610620578382906000526020600020906002020160405180604001604052908160008201548152602001600182015481525050815260200190600101906105da565b50505050815260200160028201805480602002602001604051908101604052809291908181526020016000905b828210156106935783829060005260206000209060020201604051806040016040529081600082015481526020016001820154815250508152602001906001019061064d565b5050505081525050905060008090505b81602001515181101561071f57816020015181815181106106c057fe5b6020026020010151600001518782603281106106d857fe5b602002018181525050816020015181815181106106f157fe5b60200260200101516020015186826032811061070957fe5b60200201818152505080806001019150506106a3565b600090505b8160400151518110156107a0578160400151818151811061074157fe5b60200260200101516000015184826032811061075957fe5b6020020181815250508160400151818151811061077257fe5b60200260200101516020015183826032811061078a57fe5b6020020181815250508080600101915050610724565b81602001515187878460400151518787975097509750975097509750505091939550919395565b600080600180549050600080549050915091509091565b6107e6610e9f565b6107ee610df0565b60405180608001604052806001808054905003815260200185815260200184600381111561081857fe5b600381111561082357fe5b815260200183815250905060018190806001815401808255809150509060018203906000526020600020906004020160009091929091909150600082015181600001556020820151816001015560408201518160020160006101000a81548160ff0219169083600381111561089457fe5b0217905550606082015181600301600082015181600001600082015181600001555050505050505050505050565b600080600069ffffffffffffffffffff905060008473ffffffffffffffffffffffffffffffffffffffff169050605082198216901c935081811692508383935093505050915091565b6000806001600080549050038154811061092157fe5b90600052602060002090600302019050610939610eb8565b604051806040016040528085815260200184815250905084156109a25781600101819080600181540180825580915050906001820390600052602060002090600202016000909192909190915060008201518160000155602082015181600101555050506109ea565b81600201819080600181540180825580915050906001820390600052602060002090600202016000909192909190915060008201518160000155602082015181600101555050505b5050505050565b6000600260003373ffffffffffffffffffffffffffffffffffffffff1673ffffffffffffffffffffffffffffffffffffffff16815260200190815260200160002090508060000160009054906101000a900460ff16610b115760018160000160006101000a81548160ff021916908315150217905550338160000160016101000a81548173ffffffffffffffffffffffffffffffffffffffff021916908373ffffffffffffffffffffffffffffffffffffffff160217905550600080610ada8360000160019054906101000a900473ffffffffffffffffffffffffffffffffffffffff166108c2565b9150915060405180604001604052808381526020018281525083600101600082015181600001556020820151816001015590505050505b50565b600080600080610b22610ed2565b600260008773ffffffffffffffffffffffffffffffffffffffff1673ffffffffffffffffffffffffffffffffffffffff1681526020019081526020016000206040518060e00160405290816000820160009054906101000a900460ff161515151581526020016000820160019054906101000a900473ffffffffffffffffffffffffffffffffffffffff1673ffffffffffffffffffffffffffffffffffffffff1673ffffffffffffffffffffffffffffffffffffffff168152602001600182016040518060400160405290816000820154815260200160018201548152505081526020016003820154815260200160048201805480602002602001604051908101604052809291908181526020016000905b82821015610ca25783829060005260206000209060040201604051806060016040529081600082016040518060400160405290816000820154815260200160018201548152505081526020016002820154815260200160038201548152505081526020019060010190610c34565b50505050815260200160058201805480602002602001604051908101604052809291908181526020016000905b82821015610d29578382906000526020600020906002020160405180602001604052908160008201604051806040016040529081600082015481526020016001820154815250508152505081526020019060010190610ccf565b50505050815260200160068201805480602002602001604051908101604052809291908181526020016000905b82821015610dba57838290600052602060002090600302016040518060400160405290816000820160405180604001604052908160008201548152602001600182015481525050815260200160028201548152505081526020019060010190610d56565b50505050815250509050806000015181602001518260400151600001518360400151602001519450945094509450509193509193565b6040518060800160405280600081526020016000815260200160006003811115610e1657fe5b8152602001610e23610f2e565b81525090565b815481835581811115610e5657600302816003028360005260206000209182019101610e559190610f47565b5b505050565b604051806106400160405280603290602082028038833980820191505090505090565b60405180606001604052806000815260200160608152602001606081525090565b6040518060200160405280610eb2610f8e565b81525090565b604051806040016040528060008152602001600081525090565b604051806101000160405280600015158152602001600073ffffffffffffffffffffffffffffffffffffffff168152602001610f0c610fa1565b8152602001600081526020016060815260200160608152602001606081525090565b6040518060200160405280610f41610f8e565b81525090565b610f8b91905b80821115610f8757600080820160009055600182016000610f6e9190610fbb565b600282016000610f7e9190610fbb565b50600301610f4d565b5090565b90565b6040518060200160405280600081525090565b604051806040016040528060008152602001600081525090565b5080546000825560020290600052602060002090810190610fdc9190610fdf565b50565b61100b91905b8082111561100757600080820160009055600182016000905550600201610fe5565b5090565b9056fea165627a7a72305820ca22e490f80b2bbbe35adad24688998ca85e8307efda57c9117ac324604a88d90029",
  "source": "pragma solidity ^0.5.0;\n\nimport \"./types/TypesItem.sol\";\nimport \"./types/TypesTransformation.sol\";\nimport \"./types/TypesSector.sol\";\n\nimport \"./ProductionManager.sol\";\n\ncontract Game is\n    TypesItem, TypesTransformation, TypesSector,\n    ProductionManager\n    {\n\n    mapping (address => Sector) sectors;\n\n    /**************************************************************\n    Public ABI\n    **************************************************************/\n    function initializeNativeSector() public {\n        Sector storage nativeSector = sectors[msg.sender];\n\n        if (!nativeSector.initialized) {\n            nativeSector.initialized = true;\n            nativeSector.owner = msg.sender;\n\n            (   uint xAngle,\n                uint zAngle\n            ) = convertAddressToCordinateTuple(nativeSector.owner);\n\n            nativeSector.cordinates = SphereCordinate(xAngle, zAngle);\n        }\n    }\n    function tickSector(address sectorAddress) public {\n\n    }\n    function manualTransformation(address sectorAddress, uint transformationId) public returns (\n        bool successful\n    ){\n\n    }\n\n    /**************************************************************\n    Public Views/Pure\n    **************************************************************/\n    function getSectorAttributes(address sectorAddress) public view returns (\n        bool initialized,\n        address owner,\n        uint xAngle,\n        uint zAngle ){\n\n        Sector memory selSector = sectors[sectorAddress];\n\n        return (\n            selSector.initialized,\n            selSector.owner,\n            selSector.cordinates.xAngle,\n            selSector.cordinates.zAngle\n        );\n    }\n\n    /**************************************************************\n    Modifiers\n    **************************************************************/\n    modifier callerOwnsSector(address sectorAddress) {\n        require(\n            msg.sender == sectors[sectorAddress].owner,\n            \"Require that sector reference by address is owned by the caller\"\n        );\n        _;\n    }\n}",
  "sourcePath": "/Users/idanreed/Documents/repos/CryptoGame/contracts/Game.sol",
  "compiler": {
    "name": "solc",
    "version": "0.5.8+commit.23d335f2.Emscripten.clang"
  },
  "schemaVersion": "3.0.16",
  "updatedAt": "2019-10-31T22:07:00.435Z",
  "devdoc": {
    "methods": {}
  },
  "userdoc": {
    "methods": {
      "addItem(uint256,uint256)": {
        "notice": "************************************************************ Item loading*************************************************************"
      },
      "addTransformation()": {
        "notice": "************************************************************ Transformation loading*************************************************************"
      },
      "convertAddressToCordinateTuple(address)": {
        "notice": "************************************************************ Public Views/Pure - type utils*************************************************************"
      },
      "getSectorAttributes(address)": {
        "notice": "************************************************************ Public Views/Pure*************************************************************"
      },
      "getTransformationProperties(uint256)": {
        "notice": "************************************************************ Public pure/views*************************************************************"
      },
      "initializeNativeSector()": {
        "notice": "************************************************************ Public ABI*************************************************************"
      }
    }
  }
}