{
  "contractName": "Game",
  "abi": [
    {
      "constant": true,
      "inputs": [
        {
          "name": "itemId",
          "type": "uint256"
        }
      ],
      "name": "getItemProperties",
      "outputs": [
        {
          "name": "density",
          "type": "uint256"
        },
        {
          "name": "itemType",
          "type": "uint256"
        }
      ],
      "payable": false,
      "stateMutability": "view",
      "type": "function"
    },
    {
      "constant": false,
      "inputs": [],
      "name": "addRecipe",
      "outputs": [],
      "payable": false,
      "stateMutability": "nonpayable",
      "type": "function"
    },
    {
      "constant": false,
      "inputs": [],
      "name": "addExtractorProps",
      "outputs": [],
      "payable": false,
      "stateMutability": "nonpayable",
      "type": "function"
    },
    {
      "constant": false,
      "inputs": [
        {
          "name": "isInput",
          "type": "bool"
        },
        {
          "name": "itemId",
          "type": "uint256"
        },
        {
          "name": "quantity",
          "type": "uint256"
        }
      ],
      "name": "addRecipeElement",
      "outputs": [],
      "payable": false,
      "stateMutability": "nonpayable",
      "type": "function"
    },
    {
      "constant": false,
      "inputs": [
        {
          "name": "density",
          "type": "uint256"
        },
        {
          "name": "itemType",
          "type": "uint256"
        }
      ],
      "name": "addItem",
      "outputs": [],
      "payable": false,
      "stateMutability": "nonpayable",
      "type": "function"
    },
    {
      "constant": true,
      "inputs": [
        {
          "name": "addressToConvert",
          "type": "address"
        }
      ],
      "name": "convertAddressToCordinateTuple",
      "outputs": [
        {
          "name": "xAngle",
          "type": "uint256"
        },
        {
          "name": "zAngle",
          "type": "uint256"
        }
      ],
      "payable": false,
      "stateMutability": "pure",
      "type": "function"
    },
    {
      "constant": true,
      "inputs": [
        {
          "name": "recipeId",
          "type": "uint256"
        }
      ],
      "name": "getRecipeProperties",
      "outputs": [
        {
          "name": "inputCounts",
          "type": "uint256"
        },
        {
          "name": "inputItemIds",
          "type": "uint256[50]"
        },
        {
          "name": "inputQuantities",
          "type": "uint256[50]"
        },
        {
          "name": "outputCounts",
          "type": "uint256"
        },
        {
          "name": "outputItemIds",
          "type": "uint256[50]"
        },
        {
          "name": "outputQuantities",
          "type": "uint256[50]"
        }
      ],
      "payable": false,
      "stateMutability": "view",
      "type": "function"
    },
    {
      "constant": true,
      "inputs": [],
      "name": "getCraftingMapRanges",
      "outputs": [
        {
          "name": "itemCount",
          "type": "uint256"
        },
        {
          "name": "recipeCount",
          "type": "uint256"
        }
      ],
      "payable": false,
      "stateMutability": "view",
      "type": "function"
    },
    {
      "constant": false,
      "inputs": [],
      "name": "initializeNativeSector",
      "outputs": [],
      "payable": false,
      "stateMutability": "nonpayable",
      "type": "function"
    },
    {
      "constant": false,
      "inputs": [
        {
          "name": "sectorAddress",
          "type": "address"
        },
        {
          "name": "recipeId",
          "type": "uint256"
        }
      ],
      "name": "craftRecipe",
      "outputs": [],
      "payable": false,
      "stateMutability": "nonpayable",
      "type": "function"
    },
    {
      "constant": false,
      "inputs": [
        {
          "name": "sectorAddress",
          "type": "address"
        }
      ],
      "name": "tickSector",
      "outputs": [],
      "payable": false,
      "stateMutability": "nonpayable",
      "type": "function"
    },
    {
      "constant": true,
      "inputs": [
        {
          "name": "sectorAddress",
          "type": "address"
        }
      ],
      "name": "getSectorAttributes",
      "outputs": [
        {
          "name": "initialized",
          "type": "bool"
        },
        {
          "name": "owner",
          "type": "address"
        },
        {
          "name": "xAngle",
          "type": "uint256"
        },
        {
          "name": "zAngle",
          "type": "uint256"
        }
      ],
      "payable": false,
      "stateMutability": "view",
      "type": "function"
    }
  ],
  "bytecode": "0x608060405234801561001057600080fd5b506113cf806100206000396000f3fe608060405234801561001057600080fd5b50600436106100b45760003560e01c8063a212523211610071578063a2125232146101ec578063ba2371c514610224578063e99b61b214610283578063f171eba214610388578063f1e3769b146103ad578063f82f6a88146103b7576100b4565b80630124d89f146100b957806321ce76de146100fd5780632e46dc9f14610146578063347c134214610150578063581228ac1461019e5780636cd59e3e146101a8575b600080fd5b6100fb600480360360208110156100cf57600080fd5b81019080803573ffffffffffffffffffffffffffffffffffffffff169060200190929190505050610454565b005b6101296004803603602081101561011357600080fd5b8101908080359060200190929190505050610457565b604051808381526020018281526020019250505060405180910390f35b61014e61051c565b005b61019c6004803603604081101561016657600080fd5b81019080803573ffffffffffffffffffffffffffffffffffffffff16906020019092919080359060200190929190505050610537565b005b6101a66108c6565b005b6101ea600480360360608110156101be57600080fd5b8101908080351515906020019092919080359060200190929190803590602001909291905050506108c8565b005b6102226004803603604081101561020257600080fd5b8101908080359060200190929190803590602001909291905050506109ae565b005b6102666004803603602081101561023a57600080fd5b81019080803573ffffffffffffffffffffffffffffffffffffffff169060200190929190505050610a92565b604051808381526020018281526020019250505060405180910390f35b6102af6004803603602081101561029957600080fd5b8101908080359060200190929190505050610adb565b6040518087815260200186603260200280838360005b838110156102e05780820151818401526020810190506102c5565b5050505090500185603260200280838360005b8381101561030e5780820151818401526020810190506102f3565b5050505090500184815260200183603260200280838360005b83811015610342578082015181840152602081019050610327565b5050505090500182603260200280838360005b83811015610370578082015181840152602081019050610355565b50505050905001965050505050505060405180910390f35b610390610d49565b604051808381526020018281526020019250505060405180910390f35b6103b5610d60565b005b6103f9600480360360208110156103cd57600080fd5b81019080803573ffffffffffffffffffffffffffffffffffffffff169060200190929190505050610e83565b60405180851515151581526020018473ffffffffffffffffffffffffffffffffffffffff1673ffffffffffffffffffffffffffffffffffffffff16815260200183815260200182815260200194505050505060405180910390f35b50565b60008061046261115f565b6001848154811061046f57fe5b906000526020600020906004020160405180608001604052908160008201548152602001600182015481526020016002820160009054906101000a900460ff1660038111156104ba57fe5b60038111156104c557fe5b815260200160038201604051806020016040529081600082016040518060200160405290816000820154815250508152505081525050905080602001518160400151600381111561051257fe5b9250925050915091565b60016000818180549050019150816105349190611198565b50565b600080610542610d49565b9150915080831061059e576040517f08c379a000000000000000000000000000000000000000000000000000000000815260040180806020018281038252602681526020018061137e6026913960400191505060405180910390fd5b6105a66111ca565b600260008673ffffffffffffffffffffffffffffffffffffffff1673ffffffffffffffffffffffffffffffffffffffff1681526020019081526020016000206040518060e00160405290816000820160009054906101000a900460ff161515151581526020016000820160019054906101000a900473ffffffffffffffffffffffffffffffffffffffff1673ffffffffffffffffffffffffffffffffffffffff1673ffffffffffffffffffffffffffffffffffffffff168152602001600182016040518060400160405290816000820154815260200160018201548152505081526020016003820154815260200160048201805480602002602001604051908101604052809291908181526020016000905b8282101561072657838290600052602060002090600402016040518060600160405290816000820160405180604001604052908160008201548152602001600182015481525050815260200160028201548152602001600382015481525050815260200190600101906106b8565b50505050815260200160058201805480602002602001604051908101604052809291908181526020016000905b828210156107ad578382906000526020600020906002020160405180602001604052908160008201604051806040016040529081600082015481526020016001820154815250508152505081526020019060010190610753565b50505050815260200160068201805480602002602001604051908101604052809291908181526020016000905b8282101561083e578382906000526020600020906003020160405180604001604052908160008201604051806040016040529081600082015481526020016001820154815250508152602001600282015481525050815260200190600101906107da565b505050508152505090506000610852611226565b61085a611226565b6000610864611226565b61086c611226565b6108758a610adb565b95509550955095509550955060008090505b8681101561089c578080600101915050610887565b5060008090505b838110156108b85780806001019150506108a3565b505050505050505050505050565b565b600080600160008054905003815481106108de57fe5b906000526020600020906003020190506108f6611249565b6040518060400160405280858152602001848152509050841561095f5781600101819080600181540180825580915050906001820390600052602060002090600202016000909192909190915060008201518160000155602082015181600101555050506109a7565b81600201819080600181540180825580915050906001820390600052602060002090600202016000909192909190915060008201518160000155602082015181600101555050505b5050505050565b6109b6611263565b6109be61115f565b6040518060800160405280600180805490500381526020018581526020018460038111156109e857fe5b60038111156109f357fe5b815260200183815250905060018190806001815401808255809150509060018203906000526020600020906004020160009091929091909150600082015181600001556020820151816001015560408201518160020160006101000a81548160ff02191690836003811115610a6457fe5b0217905550606082015181600301600082015181600001600082015181600001555050505050505050505050565b600080600069ffffffffffffffffffff905060008473ffffffffffffffffffffffffffffffffffffffff169050605082198216901c935081811692508383935093505050915091565b6000610ae5611226565b610aed611226565b6000610af7611226565b610aff611226565b610b0761127c565b60008881548110610b1457fe5b90600052602060002090600302016040518060600160405290816000820154815260200160018201805480602002602001604051908101604052809291908181526020016000905b82821015610ba257838290600052602060002090600202016040518060400160405290816000820154815260200160018201548152505081526020019060010190610b5c565b50505050815260200160028201805480602002602001604051908101604052809291908181526020016000905b82821015610c1557838290600052602060002090600202016040518060400160405290816000820154815260200160018201548152505081526020019060010190610bcf565b5050505081525050905060008090505b816020015151811015610ca15781602001518181518110610c4257fe5b602002602001015160000151878260328110610c5a57fe5b60200201818152505081602001518181518110610c7357fe5b602002602001015160200151868260328110610c8b57fe5b6020020181815250508080600101915050610c25565b600090505b816040015151811015610d225781604001518181518110610cc357fe5b602002602001015160000151848260328110610cdb57fe5b60200201818152505081604001518181518110610cf457fe5b602002602001015160200151838260328110610d0c57fe5b6020020181815250508080600101915050610ca6565b81602001515187878460400151518787975097509750975097509750505091939550919395565b600080600180549050600080549050915091509091565b6000600260003373ffffffffffffffffffffffffffffffffffffffff1673ffffffffffffffffffffffffffffffffffffffff16815260200190815260200160002090508060000160009054906101000a900460ff16610e805760018160000160006101000a81548160ff021916908315150217905550338160000160016101000a81548173ffffffffffffffffffffffffffffffffffffffff021916908373ffffffffffffffffffffffffffffffffffffffff160217905550600080610e498360000160019054906101000a900473ffffffffffffffffffffffffffffffffffffffff16610a92565b9150915060405180604001604052808381526020018281525083600101600082015181600001556020820151816001015590505050505b50565b600080600080610e916111ca565b600260008773ffffffffffffffffffffffffffffffffffffffff1673ffffffffffffffffffffffffffffffffffffffff1681526020019081526020016000206040518060e00160405290816000820160009054906101000a900460ff161515151581526020016000820160019054906101000a900473ffffffffffffffffffffffffffffffffffffffff1673ffffffffffffffffffffffffffffffffffffffff1673ffffffffffffffffffffffffffffffffffffffff168152602001600182016040518060400160405290816000820154815260200160018201548152505081526020016003820154815260200160048201805480602002602001604051908101604052809291908181526020016000905b828210156110115783829060005260206000209060040201604051806060016040529081600082016040518060400160405290816000820154815260200160018201548152505081526020016002820154815260200160038201548152505081526020019060010190610fa3565b50505050815260200160058201805480602002602001604051908101604052809291908181526020016000905b8282101561109857838290600052602060002090600202016040518060200160405290816000820160405180604001604052908160008201548152602001600182015481525050815250508152602001906001019061103e565b50505050815260200160068201805480602002602001604051908101604052809291908181526020016000905b82821015611129578382906000526020600020906003020160405180604001604052908160008201604051806040016040529081600082015481526020016001820154815250508152602001600282015481525050815260200190600101906110c5565b50505050815250509050806000015181602001518260400151600001518360400151602001519450945094509450509193509193565b604051806080016040528060008152602001600081526020016000600381111561118557fe5b815260200161119261129d565b81525090565b8154818355818111156111c5576003028160030283600052602060002091820191016111c491906112b6565b5b505050565b604051806101000160405280600015158152602001600073ffffffffffffffffffffffffffffffffffffffff1681526020016112046112fd565b8152602001600081526020016060815260200160608152602001606081525090565b604051806106400160405280603290602082028038833980820191505090505090565b604051806040016040528060008152602001600081525090565b6040518060200160405280611276611317565b81525090565b60405180606001604052806000815260200160608152602001606081525090565b60405180602001604052806112b0611317565b81525090565b6112fa91905b808211156112f6576000808201600090556001820160006112dd919061132a565b6002820160006112ed919061132a565b506003016112bc565b5090565b90565b604051806040016040528060008152602001600081525090565b6040518060200160405280600081525090565b508054600082556002029060005260206000209081019061134b919061134e565b50565b61137a91905b8082111561137657600080820160009055600182016000905550600201611354565b5090565b9056fe5265717569726520726563697065496420746f20626520696e2076616c69642072616e67652ea165627a7a723058207ecd2f16e0cba4be42d16ed9a9fd98ff16ae467a949ee90908761828db3e651a0029",
  "source": "pragma solidity ^0.5.0;\r\n\r\nimport \"./ItemTypes.sol\";\r\nimport \"./RecipeTypes.sol\";\r\nimport \"./CraftingManager.sol\";\r\nimport \"./SectorTypes.sol\";\r\n\r\ncontract Game is ItemTypes, RecipeTypes, CraftingManager, SectorTypes{\r\n\r\n    mapping (address => Sector) sectors;\r\n\r\n    /**************************************************************\r\n    Public ABI\r\n    **************************************************************/\r\n    function initializeNativeSector() public {\r\n        Sector storage nativeSector = sectors[msg.sender];\r\n\r\n        if (!nativeSector.initialized) {\r\n            nativeSector.initialized = true;\r\n            nativeSector.owner = msg.sender;\r\n\r\n            (   uint xAngle,\r\n                uint zAngle\r\n            ) = convertAddressToCordinateTuple(nativeSector.owner);\r\n\r\n            nativeSector.cordinates = SphereCordinate(xAngle, zAngle);\r\n        }\r\n    }\r\n    function craftInputPlaceable() private {\r\n        \r\n    }\r\n    function craftInputNonPlaceable() private {\r\n\r\n    }\r\n    function craftOutputPlaceable() private {\r\n\r\n    }\r\n    function craftOutputNonPlaceable() private {\r\n\r\n    }\r\n    function craftRecipeElement(Sector memory sector, bool isInput, uint itemId, uint quantity) private pure returns (bool) {\r\n        if(isInput){\r\n            // Determine if sector has something then su\r\n        }else{\r\n            // Store or place element\r\n        }\r\n    }\r\n\r\n    function visTest(Sector memory a) internal {\r\n\r\n    }\r\n    function craftRecipe(address sectorAddress, uint recipeId) public {\r\n        (   uint itemCount,\r\n            uint recipeCount\r\n        ) = getCraftingMapRanges();\r\n        require(recipeId < recipeCount, \"Require recipeId to be in valid range.\");\r\n\r\n        Sector memory sector = sectors[sectorAddress];\r\n        //require(sector.owner == msg.sender, \"Require that the caller is the owner of the sector.\");\r\n\r\n        (\r\n            uint inputCounts,\r\n            uint[50] memory inputItemIds,\r\n            uint[50] memory inputQuantities,\r\n            uint outputCounts,\r\n            uint[50] memory outputItemIds,\r\n            uint[50] memory outputQuantities\r\n        ) = getRecipeProperties(recipeId);\r\n\r\n        for(uint i = 0; i < inputCounts; i++){\r\n            \r\n        }\r\n        for(uint i = 0; i < outputCounts; i++){\r\n\r\n        }\r\n\r\n    }\r\n\r\n    function tickSector(address sectorAddress) public {\r\n\r\n    }\r\n\r\n    /**************************************************************\r\n    Public Views/Pure\r\n    **************************************************************/\r\n    function getSectorAttributes(address sectorAddress) public view returns (\r\n        bool initialized,\r\n        address owner,\r\n        uint xAngle,\r\n        uint zAngle ){\r\n\r\n        Sector memory selSector = sectors[sectorAddress];\r\n\r\n        return (\r\n            selSector.initialized,\r\n            selSector.owner,\r\n            selSector.cordinates.xAngle,\r\n            selSector.cordinates.zAngle\r\n        );\r\n    }\r\n}",
  "sourcePath": "A:/repos/crypto_game/contracts/Game.sol",
  "compiler": {
    "name": "solc",
    "version": "0.5.8+commit.23d335f2.Emscripten.clang"
  },
  "schemaVersion": "3.0.14",
  "updatedAt": "2019-10-25T17:38:23.656Z",
  "devdoc": {
    "methods": {}
  },
  "userdoc": {
    "methods": {
      "addItem(uint256,uint256)": {
        "notice": "************************************************************\r Recipe/item loading\r*************************************************************"
      },
      "convertAddressToCordinateTuple(address)": {
        "notice": "************************************************************\r Public Views/Pure\r*************************************************************"
      },
      "getRecipeProperties(uint256)": {
        "notice": "************************************************************\r Public pure/views\r*************************************************************"
      },
      "getSectorAttributes(address)": {
        "notice": "************************************************************\r Public Views/Pure\r*************************************************************"
      },
      "initializeNativeSector()": {
        "notice": "************************************************************\r Public ABI\r*************************************************************"
      }
    }
  }
}