{
  "contractName": "Game",
  "abi": [
    {
      "constant": true,
      "inputs": [
        {
          "name": "itemId",
          "type": "uint256"
        }
      ],
      "name": "getItemProperties",
      "outputs": [
        {
          "name": "density",
          "type": "uint256"
        },
        {
          "name": "itemType",
          "type": "uint256"
        }
      ],
      "payable": false,
      "stateMutability": "view",
      "type": "function"
    },
    {
      "constant": false,
      "inputs": [],
      "name": "addTransformation",
      "outputs": [],
      "payable": false,
      "stateMutability": "nonpayable",
      "type": "function"
    },
    {
      "constant": false,
      "inputs": [],
      "name": "addExtractorProps",
      "outputs": [],
      "payable": false,
      "stateMutability": "nonpayable",
      "type": "function"
    },
    {
      "constant": true,
      "inputs": [
        {
          "name": "transformationId",
          "type": "uint256"
        }
      ],
      "name": "getTransformationProperties",
      "outputs": [
        {
          "name": "inputCounts",
          "type": "uint256"
        },
        {
          "name": "inputItemIds",
          "type": "uint256[50]"
        },
        {
          "name": "inputQuantities",
          "type": "uint256[50]"
        },
        {
          "name": "outputCounts",
          "type": "uint256"
        },
        {
          "name": "outputItemIds",
          "type": "uint256[50]"
        },
        {
          "name": "outputQuantities",
          "type": "uint256[50]"
        }
      ],
      "payable": false,
      "stateMutability": "view",
      "type": "function"
    },
    {
      "constant": true,
      "inputs": [],
      "name": "getProductionMapRanges",
      "outputs": [
        {
          "name": "itemCount",
          "type": "uint256"
        },
        {
          "name": "transformationCount",
          "type": "uint256"
        }
      ],
      "payable": false,
      "stateMutability": "view",
      "type": "function"
    },
    {
      "constant": false,
      "inputs": [
        {
          "name": "density",
          "type": "uint256"
        },
        {
          "name": "itemType",
          "type": "uint256"
        }
      ],
      "name": "addItem",
      "outputs": [],
      "payable": false,
      "stateMutability": "nonpayable",
      "type": "function"
    },
    {
      "constant": true,
      "inputs": [
        {
          "name": "addressToConvert",
          "type": "address"
        }
      ],
      "name": "convertAddressToCordinateTuple",
      "outputs": [
        {
          "name": "xAngle",
          "type": "uint256"
        },
        {
          "name": "zAngle",
          "type": "uint256"
        }
      ],
      "payable": false,
      "stateMutability": "pure",
      "type": "function"
    },
    {
      "constant": false,
      "inputs": [
        {
          "name": "isInput",
          "type": "bool"
        },
        {
          "name": "itemId",
          "type": "uint256"
        },
        {
          "name": "quantity",
          "type": "uint256"
        }
      ],
      "name": "addTransformationElement",
      "outputs": [],
      "payable": false,
      "stateMutability": "nonpayable",
      "type": "function"
    },
    {
      "constant": false,
      "inputs": [],
      "name": "initializeNativeSector",
      "outputs": [],
      "payable": false,
      "stateMutability": "nonpayable",
      "type": "function"
    },
    {
      "constant": false,
      "inputs": [
        {
          "name": "sectorAddress",
          "type": "address"
        }
      ],
      "name": "tickSector",
      "outputs": [],
      "payable": false,
      "stateMutability": "nonpayable",
      "type": "function"
    },
    {
      "constant": true,
      "inputs": [
        {
          "name": "sectorAddress",
          "type": "address"
        }
      ],
      "name": "getSectorAttributes",
      "outputs": [
        {
          "name": "initialized",
          "type": "bool"
        },
        {
          "name": "owner",
          "type": "address"
        },
        {
          "name": "xAngle",
          "type": "uint256"
        },
        {
          "name": "zAngle",
          "type": "uint256"
        }
      ],
      "payable": false,
      "stateMutability": "view",
      "type": "function"
    }
  ],
  "bytecode": "0x608060405234801561001057600080fd5b50611407806100206000396000f3fe608060405234801561001057600080fd5b50600436106100a95760003560e01c806386f5ffde1161007157806386f5ffde14610254578063a212523214610279578063ba2371c5146102b1578063d5bbd77914610310578063f1e3769b14610354578063f82f6a881461035e576100a9565b80630124d89f146100ae57806321ce76de146100f2578063352c1c1f1461013b578063581228ac146101455780637b0ed1221461014f575b600080fd5b6100f0600480360360208110156100c457600080fd5b81019080803573ffffffffffffffffffffffffffffffffffffffff1690602001909291905050506103fb565b005b61011e6004803603602081101561010857600080fd5b81019080803590602001909291905050506103fe565b604051808381526020018281526020019250505060405180910390f35b6101436104c3565b005b61014d6104de565b005b61017b6004803603602081101561016557600080fd5b81019080803590602001909291905050506104e0565b6040518087815260200186603260200280838360005b838110156101ac578082015181840152602081019050610191565b5050505090500185603260200280838360005b838110156101da5780820151818401526020810190506101bf565b5050505090500184815260200183603260200280838360005b8381101561020e5780820151818401526020810190506101f3565b5050505090500182603260200280838360005b8381101561023c578082015181840152602081019050610221565b50505050905001965050505050505060405180910390f35b61025c61074e565b604051808381526020018281526020019250505060405180910390f35b6102af6004803603604081101561028f57600080fd5b810190808035906020019092919080359060200190929190505050610765565b005b6102f3600480360360208110156102c757600080fd5b81019080803573ffffffffffffffffffffffffffffffffffffffff169060200190929190505050610849565b604051808381526020018281526020019250505060405180910390f35b6103526004803603606081101561032657600080fd5b810190808035151590602001909291908035906020019092919080359060200190929190505050610892565b005b61035c610978565b005b6103a06004803603602081101561037457600080fd5b81019080803573ffffffffffffffffffffffffffffffffffffffff1690602001909291905050506109e0565b60405180851515151581526020018473ffffffffffffffffffffffffffffffffffffffff1673ffffffffffffffffffffffffffffffffffffffff16815260200183815260200182815260200194505050505060405180910390f35b50565b600080610409611184565b6001848154811061041657fe5b906000526020600020906004020160405180608001604052908160008201548152602001600182015481526020016002820160009054906101000a900460ff16600381111561046157fe5b600381111561046c57fe5b81526020016003820160405180602001604052908160008201604051806020016040529081600082015481525050815250508152505090508060200151816040015160038111156104b957fe5b9250925050915091565b60016000818180549050019150816104db91906111bd565b50565b565b60006104ea6111ef565b6104f26111ef565b60006104fc6111ef565b6105046111ef565b61050c611212565b6000888154811061051957fe5b90600052602060002090600302016040518060600160405290816000820154815260200160018201805480602002602001604051908101604052809291908181526020016000905b828210156105a757838290600052602060002090600202016040518060400160405290816000820154815260200160018201548152505081526020019060010190610561565b50505050815260200160028201805480602002602001604051908101604052809291908181526020016000905b8282101561061a578382906000526020600020906002020160405180604001604052908160008201548152602001600182015481525050815260200190600101906105d4565b5050505081525050905060008090505b8160200151518110156106a6578160200151818151811061064757fe5b60200260200101516000015187826032811061065f57fe5b6020020181815250508160200151818151811061067857fe5b60200260200101516020015186826032811061069057fe5b602002018181525050808060010191505061062a565b600090505b81604001515181101561072757816040015181815181106106c857fe5b6020026020010151600001518482603281106106e057fe5b602002018181525050816040015181815181106106f957fe5b60200260200101516020015183826032811061071157fe5b60200201818152505080806001019150506106ab565b81602001515187878460400151518787975097509750975097509750505091939550919395565b600080600180549050600080549050915091509091565b61076d611233565b610775611184565b60405180608001604052806001808054905003815260200185815260200184600381111561079f57fe5b60038111156107aa57fe5b815260200183815250905060018190806001815401808255809150509060018203906000526020600020906004020160009091929091909150600082015181600001556020820151816001015560408201518160020160006101000a81548160ff0219169083600381111561081b57fe5b0217905550606082015181600301600082015181600001600082015181600001555050505050505050505050565b600080600069ffffffffffffffffffff905060008473ffffffffffffffffffffffffffffffffffffffff169050605082198216901c935081811692508383935093505050915091565b600080600160008054905003815481106108a857fe5b906000526020600020906003020190506108c061124c565b60405180604001604052808581526020018481525090508415610929578160010181908060018154018082558091505090600182039060005260206000209060020201600090919290919091506000820151816000015560208201518160010155505050610971565b81600201819080600181540180825580915050906001820390600052602060002090600202016000909192909190915060008201518160000155602082015181600101555050505b5050505050565b6000600260003373ffffffffffffffffffffffffffffffffffffffff1673ffffffffffffffffffffffffffffffffffffffff16815260200190815260200160002090508060000160009054906101000a900460ff166109dd576109dc813333610d62565b5b50565b6000806000806109ee611266565b600260008773ffffffffffffffffffffffffffffffffffffffff1673ffffffffffffffffffffffffffffffffffffffff168152602001908152602001600020604051806101000160405290816000820160009054906101000a900460ff161515151581526020016000820160019054906101000a900473ffffffffffffffffffffffffffffffffffffffff1673ffffffffffffffffffffffffffffffffffffffff1673ffffffffffffffffffffffffffffffffffffffff168152602001600182016040518060400160405290816000820154815260200160018201548152505081526020016003820154815260200160048201805480602002602001604051908101604052809291908181526020016000905b82821015610b79578382906000526020600020906005020160405180606001604052908160008201604051806060016040529081600082015481526020016001820154815260200160028201548152505081526020016003820154815260200160048201548152505081526020019060010190610b01565b50505050815260200160058201805480602002602001604051908101604052809291908181526020016000905b82821015610c145783829060005260206000209060040201604051806060016040529081600082016040518060400160405290816000820154815260200160018201548152505081526020016002820154815260200160038201548152505081526020019060010190610ba6565b50505050815260200160068201805480602002602001604051908101604052809291908181526020016000905b82821015610c9b578382906000526020600020906002020160405180602001604052908160008201604051806040016040529081600082015481526020016001820154815250508152505081526020019060010190610c41565b50505050815260200160078201805480602002602001604051908101604052809291908181526020016000905b82821015610d2c57838290600052602060002090600302016040518060400160405290816000820160405180604001604052908160008201548152602001600182015481525050815260200160028201548152505081526020019060010190610cc8565b50505050815250509050806000015181602001518260400151600001518360400151602001519450945094509450509193509193565b8260000160009054906101000a900460ff1615610dca576040517f08c379a00000000000000000000000000000000000000000000000000000000081526004018080602001828103825260328152602001806113aa6032913960400191505060405180910390fd5b818360000160016101000a81548173ffffffffffffffffffffffffffffffffffffffff021916908373ffffffffffffffffffffffffffffffffffffffff16021790555060018360000160006101000a81548160ff021916908315150217905550600080610e3683610849565b9150915060405180604001604052808381526020018281525085600101600082015181600001556020820151816001015590505061117a85604051806101000160405290816000820160009054906101000a900460ff161515151581526020016000820160019054906101000a900473ffffffffffffffffffffffffffffffffffffffff1673ffffffffffffffffffffffffffffffffffffffff1673ffffffffffffffffffffffffffffffffffffffff168152602001600182016040518060400160405290816000820154815260200160018201548152505081526020016003820154815260200160048201805480602002602001604051908101604052809291908181526020016000905b82821015610fba578382906000526020600020906005020160405180606001604052908160008201604051806060016040529081600082015481526020016001820154815260200160028201548152505081526020016003820154815260200160048201548152505081526020019060010190610f42565b50505050815260200160058201805480602002602001604051908101604052809291908181526020016000905b828210156110555783829060005260206000209060040201604051806060016040529081600082016040518060400160405290816000820154815260200160018201548152505081526020016002820154815260200160038201548152505081526020019060010190610fe7565b50505050815260200160068201805480602002602001604051908101604052809291908181526020016000905b828210156110dc578382906000526020600020906002020160405180602001604052908160008201604051806040016040529081600082015481526020016001820154815250508152505081526020019060010190611082565b50505050815260200160078201805480602002602001604051908101604052809291908181526020016000905b8282101561116d57838290600052602060002090600302016040518060400160405290816000820160405180604001604052908160008201548152602001600182015481525050815260200160028201548152505081526020019060010190611109565b5050505081525050611181565b5050505050565b50565b60405180608001604052806000815260200160008152602001600060038111156111aa57fe5b81526020016111b76112c9565b81525090565b8154818355818111156111ea576003028160030283600052602060002091820191016111e991906112e2565b5b505050565b604051806106400160405280603290602082028038833980820191505090505090565b60405180606001604052806000815260200160608152602001606081525090565b6040518060200160405280611246611329565b81525090565b604051806040016040528060008152602001600081525090565b604051806101200160405280600015158152602001600073ffffffffffffffffffffffffffffffffffffffff1681526020016112a061133c565b815260200160008152602001606081526020016060815260200160608152602001606081525090565b60405180602001604052806112dc611329565b81525090565b61132691905b80821115611322576000808201600090556001820160006113099190611356565b6002820160006113199190611356565b506003016112e8565b5090565b90565b6040518060200160405280600081525090565b604051806040016040528060008152602001600081525090565b5080546000825560020290600052602060002090810190611377919061137a565b50565b6113a691905b808211156113a257600080820160009055600182016000905550600201611380565b5090565b9056fe52657175697265207468617420676976656e20736563746f7220686173206e6f74206265656e20696e697469616c697a6564a165627a7a72305820ba71b2ee72a82641c025edef58b0e0cc656fa0c187376f5f04fabd576dc82bf90029",
  "source": "pragma solidity ^0.5.0;\r\n\r\nimport \"./types/TypesItem.sol\";\r\nimport \"./types/TypesTransformation.sol\";\r\nimport \"./types/TypesSector.sol\";\r\n\r\nimport \"./ProductionManager.sol\";\r\n\r\ncontract Game is\r\n    TypesItem, TypesTransformation, TypesSector,\r\n    ProductionManager\r\n    {\r\n\r\n    /**************************************************************\r\n    Data\r\n    **************************************************************/\r\n    mapping (address => Sector) sectors;\r\n\r\n    /**************************************************************\r\n    Public functions   - full\r\n    **************************************************************/\r\n    function initializeNativeSector() public {\r\n        Sector storage nativeSector = sectors[msg.sender];\r\n        if(!nativeSector.initialized){\r\n            initializeSector(nativeSector, msg.sender, msg.sender);\r\n        }\r\n    }\r\n\r\n    function tickSector(address sectorAddress) public {\r\n\r\n    }\r\n\r\n    // function manualTransformation(\r\n    //     address sectorAddress,\r\n    //     uint transformationId\r\n    // )\r\n    // public callerOwnsSector(sectorAddress) returns (\r\n    //     bool successful\r\n    // ){\r\n    //     return proccessTransformation(sectors[sectorAddress], transformations[transformationId]);\r\n    // }\r\n\r\n    /**************************************************************\r\n    Public functions   - view, pure\r\n    **************************************************************/\r\n    function getSectorAttributes(address sectorAddress) public view returns (\r\n        bool initialized,\r\n        address owner,\r\n        uint xAngle,\r\n        uint zAngle\r\n    ){\r\n\r\n        Sector memory selSector = sectors[sectorAddress];\r\n\r\n        return (\r\n            selSector.initialized,\r\n            selSector.owner,\r\n            selSector.cordinates.xAngle,\r\n            selSector.cordinates.zAngle\r\n        );\r\n    }\r\n\r\n    /**************************************************************\r\n    Modifiers\r\n    **************************************************************/\r\n    modifier callerOwnsSector(address sectorAddress) {\r\n        require(\r\n            msg.sender == sectors[sectorAddress].owner,\r\n            \"Require that sector reference by address is owned by the caller\"\r\n        );\r\n        _;\r\n    }\r\n}",
  "sourcePath": "A:/repos/crypto_game/contracts/Game.sol",
  "compiler": {
    "name": "solc",
    "version": "0.5.8+commit.23d335f2.Emscripten.clang"
  },
  "schemaVersion": "3.0.14",
  "updatedAt": "2019-11-13T21:06:49.432Z",
  "devdoc": {
    "methods": {}
  },
  "userdoc": {
    "methods": {
      "addItem(uint256,uint256)": {
        "notice": "************************************************************\r Item loading\r*************************************************************"
      },
      "addTransformation()": {
        "notice": "************************************************************\r Transformation loading\r*************************************************************"
      },
      "convertAddressToCordinateTuple(address)": {
        "notice": "************************************************************\r Public Views/Pure\r*************************************************************"
      },
      "getSectorAttributes(address)": {
        "notice": "************************************************************\r Public functions   - view, pure\r*************************************************************"
      },
      "initializeNativeSector()": {
        "notice": "************************************************************\r Public functions   - full\r*************************************************************"
      }
    }
  }
}