{
  "contractName": "Game",
  "abi": [
    {
      "inputs": [],
      "payable": false,
      "stateMutability": "nonpayable",
      "type": "constructor"
    },
    {
      "constant": false,
      "inputs": [],
      "name": "initializeNativeSector",
      "outputs": [],
      "payable": false,
      "stateMutability": "nonpayable",
      "type": "function"
    },
    {
      "constant": false,
      "inputs": [
        {
          "name": "sectorAddress",
          "type": "address"
        }
      ],
      "name": "buildPlaceable",
      "outputs": [],
      "payable": false,
      "stateMutability": "nonpayable",
      "type": "function"
    },
    {
      "constant": false,
      "inputs": [
        {
          "name": "sectorAddress",
          "type": "address"
        }
      ],
      "name": "tickSector",
      "outputs": [],
      "payable": false,
      "stateMutability": "nonpayable",
      "type": "function"
    },
    {
      "constant": true,
      "inputs": [
        {
          "name": "addressToConvert",
          "type": "address"
        }
      ],
      "name": "convertAddressToCordinateTuple",
      "outputs": [
        {
          "name": "",
          "type": "uint256"
        },
        {
          "name": "",
          "type": "uint256"
        }
      ],
      "payable": false,
      "stateMutability": "pure",
      "type": "function"
    },
    {
      "constant": true,
      "inputs": [
        {
          "name": "sectorAddress",
          "type": "address"
        }
      ],
      "name": "getSectorAttributes",
      "outputs": [
        {
          "name": "initialized",
          "type": "bool"
        },
        {
          "name": "owner",
          "type": "address"
        },
        {
          "name": "xAngle",
          "type": "uint256"
        },
        {
          "name": "zAngle",
          "type": "uint256"
        }
      ],
      "payable": false,
      "stateMutability": "view",
      "type": "function"
    }
  ],
  "bytecode": "0x608060405234801561001057600080fd5b506106a6806100206000396000f3fe608060405234801561001057600080fd5b50600436106100575760003560e01c80630124d89f1461005c578063ae2c1d32146100a0578063ba2371c5146100e4578063f1e3769b14610143578063f82f6a881461014d575b600080fd5b61009e6004803603602081101561007257600080fd5b81019080803573ffffffffffffffffffffffffffffffffffffffff1690602001909291905050506101ea565b005b6100e2600480360360208110156100b657600080fd5b81019080803573ffffffffffffffffffffffffffffffffffffffff1690602001909291905050506101ed565b005b610126600480360360208110156100fa57600080fd5b81019080803573ffffffffffffffffffffffffffffffffffffffff1690602001909291905050506101f0565b604051808381526020018281526020019250505060405180910390f35b61014b61021a565b005b61018f6004803603602081101561016357600080fd5b81019080803573ffffffffffffffffffffffffffffffffffffffff16906020019092919050505061031f565b60405180851515151581526020018473ffffffffffffffffffffffffffffffffffffffff1673ffffffffffffffffffffffffffffffffffffffff16815260200183815260200182815260200194505050505060405180910390f35b50565b50565b6000806101fb6105f2565b61020484610590565b9050806000015181602001519250925050915091565b6000600460003373ffffffffffffffffffffffffffffffffffffffff1673ffffffffffffffffffffffffffffffffffffffff16815260200190815260200160002090508060000160009054906101000a900460ff1661031c5760018160000160006101000a81548160ff021916908315150217905550338160000160016101000a81548173ffffffffffffffffffffffffffffffffffffffff021916908373ffffffffffffffffffffffffffffffffffffffff1602179055506103008160000160019054906101000a900473ffffffffffffffffffffffffffffffffffffffff16610590565b8160010160008201518160000155602082015181600101559050505b50565b60008060008061032d61060c565b600460008773ffffffffffffffffffffffffffffffffffffffff1673ffffffffffffffffffffffffffffffffffffffff1681526020019081526020016000206040518060c00160405290816000820160009054906101000a900460ff161515151581526020016000820160019054906101000a900473ffffffffffffffffffffffffffffffffffffffff1673ffffffffffffffffffffffffffffffffffffffff1673ffffffffffffffffffffffffffffffffffffffff168152602001600182016040518060400160405290816000820154815260200160018201548152505081526020016003820154815260200160048201805480602002602001604051908101604052809291908181526020016000905b828210156104c05783829060005260206000209060040201604051806080016040529081600082016040518060200160405290816000820160009054906101000a900460ff1660ff1660ff1681525050815260200160018201548152602001600282015481526020016003820154815250508152602001906001019061043f565b50505050815260200160058201805480602002602001604051908101604052809291908181526020016000905b8282101561055a5783829060005260206000209060020201604051806040016040529081600082016040518060200160405290816000820160009054906101000a900460ff1660ff1660ff16815250508152602001600182015481525050815260200190600101906104ed565b50505050815250509050806000015181602001518260400151600001518360400151602001519450945094509450509193509193565b6105986105f2565b6105a06105f2565b600069ffffffffffffffffffff905060008473ffffffffffffffffffffffffffffffffffffffff169050605082198216901c836000018181525050818116836020018181525050829350505050919050565b604051806040016040528060008152602001600081525090565b6040518060e00160405280600015158152602001600073ffffffffffffffffffffffffffffffffffffffff168152602001610645610660565b81526020016000815260200160608152602001606081525090565b60405180604001604052806000815260200160008152509056fea165627a7a72305820a98440ecd3fccd20c2f2ac42dda0a4a6e57cf750e36ecf0c34b1b7af6b57199f0029",
  "source": "pragma solidity ^0.5.0;\r\n\r\ncontract Game {\r\n    constructor() public { }\r\n\r\n\r\n    /**************************************************************\r\n    Non-placeable types\r\n    **************************************************************/\r\n    enum ReasourceType {Natural, AttackPower, Component}\r\n\r\n    struct NaturalReasourceType {\r\n        uint extractionDifficulty;\r\n    }\r\n    uint constant NATURAL_REASOURCE_TYPE_CAP = 1;\r\n    NaturalReasourceType[NATURAL_REASOURCE_TYPE_CAP] naturalReasourcesTypes;\r\n\r\n    /**************************************************************\r\n    Recipe\r\n    **************************************************************/\r\n\r\n    /**************************************************************\r\n    Sector\r\n    **************************************************************/\r\n    struct SectorPlaceable {\r\n        uint8 spaceRequired;\r\n    }\r\n\r\n\r\n    /**************************************************************\r\n    Silo\r\n    **************************************************************/\r\n    struct SiloType{\r\n        ReasourceType storageType;\r\n    }\r\n    uint constant SILO_TYPE_CAP = 1;\r\n    SiloType[SILO_TYPE_CAP] siloTypes;\r\n\r\n    struct Silo {\r\n        SectorPlaceable placeableData;\r\n        uint siloTypeId;\r\n\r\n        uint reasourceId;\r\n        uint value;\r\n    }\r\n\r\n\r\n    /**************************************************************\r\n    Extractor\r\n    **************************************************************/\r\n    struct ExtractorType{\r\n\r\n        uint rate;\r\n        NaturalReasourceType reasourceType;\r\n    }\r\n    uint constant EXTRACTOR_TYPE_CAP = 1;\r\n    ExtractorType[EXTRACTOR_TYPE_CAP] extractorTypes;\r\n\r\n    struct Extractor {\r\n        SectorPlaceable placeableData;\r\n        uint extractorTypeId;\r\n    }\r\n\r\n\r\n    /**************************************************************\r\n    World\r\n    **************************************************************/\r\n    struct SphereCordinate{\r\n        uint xAngle; /* address bits from 160 to 80 */\r\n        uint zAngle; /* address bits from 80 to 0   */\r\n    }\r\n\r\n    struct Sector {\r\n        bool initialized;\r\n\r\n        address owner;\r\n        SphereCordinate cordinates;\r\n        uint lastTickBlock;\r\n\r\n        /* Placeables       */\r\n        Silo[] silos;\r\n        Extractor[] extractors;\r\n    }\r\n\r\n    mapping (address => Sector) sectors;\r\n\r\n    function convertAddressToCordinate(address addressToConvert) private pure returns (SphereCordinate memory) {\r\n        SphereCordinate memory cords;\r\n        uint rightMask = (1 << 80) - 1;\r\n        uint addressCasted = uint(addressToConvert);\r\n\r\n        cords.xAngle = (addressCasted & ~rightMask) >> 80;\r\n        cords.zAngle = addressCasted & rightMask;\r\n        return cords;\r\n    }\r\n\r\n    // function tickExtractor(address sectorAddress, uint extractorIndex) public {\r\n    //     Sector storage selSector = sectors[sectorAddress];\r\n\r\n    //     if(\r\n    //         selSector.initialized &&\r\n    //         selSector.owner == msg.sender &&\r\n    //         extractorIndex < selSector.extractors.length\r\n    //         ) {\r\n\r\n    //         Extractor storage selExtractor = selSector.extractors[extractorIndex];\r\n    //         selExtractor.testVal = true;\r\n    //     }\r\n    // }\r\n    struct abc{\r\n        uint aVar;\r\n    }\r\n\r\n    enum recipeType {SectorToPlaceable}\r\n    mapping(uint => abc[]) testArr;\r\n\r\n    /**************************************************************\r\n    Public ABI\r\n    **************************************************************/\r\n    function initializeNativeSector() public {\r\n        Sector storage nativeSector = sectors[msg.sender];\r\n\r\n        if (!nativeSector.initialized) {\r\n            nativeSector.initialized = true;\r\n            nativeSector.owner = msg.sender;\r\n            nativeSector.cordinates = convertAddressToCordinate(nativeSector.owner);\r\n        }\r\n    }\r\n\r\n    function buildPlaceable(address sectorAddress) public {\r\n        \r\n    }\r\n\r\n    function tickSector(address sectorAddress) public {\r\n        \r\n    }\r\n\r\n    /**************************************************************\r\n    Public Views/Pure\r\n    **************************************************************/\r\n    function convertAddressToCordinateTuple(address addressToConvert) public pure returns (uint, uint){\r\n        SphereCordinate memory cords = convertAddressToCordinate(addressToConvert);\r\n        return (cords.xAngle, cords.zAngle);\r\n    }\r\n\r\n    function getSectorAttributes(address sectorAddress) public view returns (\r\n        bool initialized,\r\n        address owner,\r\n        uint xAngle,\r\n        uint zAngle ){\r\n\r\n        Sector memory selSector = sectors[sectorAddress];\r\n\r\n        return (\r\n            selSector.initialized,\r\n            selSector.owner,\r\n            selSector.cordinates.xAngle,\r\n            selSector.cordinates.zAngle\r\n        );\r\n    }\r\n}",
  "sourcePath": "A:/repos/crypto_game/contracts/Game.sol",
  "compiler": {
    "name": "solc",
    "version": "0.5.8+commit.23d335f2.Emscripten.clang"
  },
  "schemaVersion": "3.0.14",
  "updatedAt": "2019-09-15T23:35:14.806Z",
  "devdoc": {
    "methods": {}
  },
  "userdoc": {
    "methods": {
      "convertAddressToCordinateTuple(address)": {
        "notice": "************************************************************\r Public Views/Pure\r*************************************************************"
      },
      "initializeNativeSector()": {
        "notice": "************************************************************\r Public ABI\r*************************************************************"
      }
    }
  }
}