{
  "contractName": "Game",
  "abi": [
    {
      "inputs": [],
      "payable": false,
      "stateMutability": "nonpayable",
      "type": "constructor"
    },
    {
      "constant": false,
      "inputs": [],
      "name": "initializeNativeSector",
      "outputs": [],
      "payable": false,
      "stateMutability": "nonpayable",
      "type": "function"
    },
    {
      "constant": false,
      "inputs": [
        {
          "name": "sectorAddress",
          "type": "address"
        },
        {
          "name": "extractorIndex",
          "type": "uint256"
        }
      ],
      "name": "tickExtractor",
      "outputs": [],
      "payable": false,
      "stateMutability": "nonpayable",
      "type": "function"
    },
    {
      "constant": true,
      "inputs": [
        {
          "name": "addressToConvert",
          "type": "address"
        }
      ],
      "name": "convertAddressToCordinateTuple",
      "outputs": [
        {
          "name": "",
          "type": "uint256"
        },
        {
          "name": "",
          "type": "uint256"
        }
      ],
      "payable": false,
      "stateMutability": "pure",
      "type": "function"
    },
    {
      "constant": true,
      "inputs": [
        {
          "name": "sectorAddress",
          "type": "address"
        }
      ],
      "name": "getSectorAttributes",
      "outputs": [
        {
          "name": "initialized",
          "type": "bool"
        },
        {
          "name": "owner",
          "type": "address"
        },
        {
          "name": "xAngle",
          "type": "uint256"
        },
        {
          "name": "zAngle",
          "type": "uint256"
        }
      ],
      "payable": false,
      "stateMutability": "view",
      "type": "function"
    }
  ],
  "bytecode": "0x608060405234801561001057600080fd5b5061094d806100206000396000f3fe608060405234801561001057600080fd5b506004361061004c5760003560e01c80637af9feb914610051578063ba2371c51461009f578063f1e3769b146100fe578063f82f6a8814610108575b600080fd5b61009d6004803603604081101561006757600080fd5b81019080803573ffffffffffffffffffffffffffffffffffffffff169060200190929190803590602001909291905050506101a5565b005b6100e1600480360360208110156100b557600080fd5b81019080803573ffffffffffffffffffffffffffffffffffffffff16906020019092919050505061046c565b604051808381526020018281526020019250505060405180910390f35b610106610496565b005b61014a6004803603602081101561011e57600080fd5b81019080803573ffffffffffffffffffffffffffffffffffffffff16906020019092919050505061059b565b60405180851515151581526020018473ffffffffffffffffffffffffffffffffffffffff1673ffffffffffffffffffffffffffffffffffffffff16815260200183815260200182815260200194505050505060405180910390f35b6101ad6108a0565b600360008473ffffffffffffffffffffffffffffffffffffffff1673ffffffffffffffffffffffffffffffffffffffff1681526020019081526020016000206040518060a00160405290816000820160009054906101000a900460ff161515151581526020016000820160019054906101000a900473ffffffffffffffffffffffffffffffffffffffff1673ffffffffffffffffffffffffffffffffffffffff1673ffffffffffffffffffffffffffffffffffffffff1681526020016001820160405180604001604052908160008201548152602001600182015481525050815260200160038201805480602002602001604051908101604052809291908181526020016000905b828210156103405783829060005260206000209060050201604051806080016040529081600082016040518060400160405290816000820160009054906101000a900460ff1660ff1660ff16815260200160018201548152505081526020016002820154815260200160038201548152602001600482015481525050815260200190600101906102b5565b50505050815260200160048201805480602002602001604051908101604052809291908181526020016000905b8282101561040c5783829060005260206000209060050201604051806080016040529081600082016040518060400160405290816000820160009054906101000a900460ff1660ff1660ff1681526020016001820154815250508152602001600282015481526020016003820160405180602001604052908160008201548152505081526020016004820154815250508152602001906001019061036d565b505050508152505090508060000151801561045657503373ffffffffffffffffffffffffffffffffffffffff16816020015173ffffffffffffffffffffffffffffffffffffffff16145b8015610466575080608001515182105b50505050565b6000806104776108ed565b6104808461083e565b9050806000015181602001519250925050915091565b6000600360003373ffffffffffffffffffffffffffffffffffffffff1673ffffffffffffffffffffffffffffffffffffffff16815260200190815260200160002090508060000160009054906101000a900460ff166105985760018160000160006101000a81548160ff021916908315150217905550338160000160016101000a81548173ffffffffffffffffffffffffffffffffffffffff021916908373ffffffffffffffffffffffffffffffffffffffff16021790555061057c8160000160019054906101000a900473ffffffffffffffffffffffffffffffffffffffff1661083e565b8160010160008201518160000155602082015181600101559050505b50565b6000806000806105a96108a0565b600360008773ffffffffffffffffffffffffffffffffffffffff1673ffffffffffffffffffffffffffffffffffffffff1681526020019081526020016000206040518060a00160405290816000820160009054906101000a900460ff161515151581526020016000820160019054906101000a900473ffffffffffffffffffffffffffffffffffffffff1673ffffffffffffffffffffffffffffffffffffffff1673ffffffffffffffffffffffffffffffffffffffff1681526020016001820160405180604001604052908160008201548152602001600182015481525050815260200160038201805480602002602001604051908101604052809291908181526020016000905b8282101561073c5783829060005260206000209060050201604051806080016040529081600082016040518060400160405290816000820160009054906101000a900460ff1660ff1660ff16815260200160018201548152505081526020016002820154815260200160038201548152602001600482015481525050815260200190600101906106b1565b50505050815260200160048201805480602002602001604051908101604052809291908181526020016000905b828210156108085783829060005260206000209060050201604051806080016040529081600082016040518060400160405290816000820160009054906101000a900460ff1660ff1660ff16815260200160018201548152505081526020016002820154815260200160038201604051806020016040529081600082015481525050815260200160048201548152505081526020019060010190610769565b50505050815250509050806000015181602001518260400151600001518360400151602001519450945094509450509193509193565b6108466108ed565b61084e6108ed565b600069ffffffffffffffffffff905060008473ffffffffffffffffffffffffffffffffffffffff169050605082198216901c836000018181525050818116836020018181525050829350505050919050565b6040518060c00160405280600015158152602001600073ffffffffffffffffffffffffffffffffffffffff1681526020016108d9610907565b815260200160608152602001606081525090565b604051806040016040528060008152602001600081525090565b60405180604001604052806000815260200160008152509056fea165627a7a72305820e676524c40bb4c6d13a33918e59867295a9af0121f38683249e33b7ab767ea370029",
  "source": "pragma solidity ^0.5.0;\r\n\r\ncontract Game {\r\n    constructor() public { }\r\n\r\n\r\n    /**************************************************************\r\n    Non-placeable types\r\n    **************************************************************/\r\n    enum ReasourceType {Natural, AttackPower, Component}\r\n\r\n    struct NaturalReasourceType {\r\n        uint extractionDifficulty;\r\n    }\r\n    uint constant NATURAL_REASOURCE_TYPE_CAP = 1;\r\n    NaturalReasourceType[NATURAL_REASOURCE_TYPE_CAP] naturalReasourcesTypes;\r\n\r\n\r\n    /**************************************************************\r\n    Sector\r\n    **************************************************************/\r\n    struct SectorPlaceable {\r\n        uint8 spaceRequired;\r\n        uint tickBlockNumber;\r\n    }\r\n\r\n\r\n    /**************************************************************\r\n    Silo\r\n    **************************************************************/\r\n    struct SiloType{\r\n        ReasourceType storageType;\r\n    }\r\n    uint constant SILO_TYPE_CAP = 1;\r\n    SiloType[SILO_TYPE_CAP] siloTypes;\r\n\r\n    struct Silo {\r\n        SectorPlaceable placeableData;\r\n        uint siloTypeId;\r\n\r\n        uint reasourceId;\r\n        uint value;\r\n    }\r\n\r\n\r\n    /**************************************************************\r\n    Extractor\r\n    **************************************************************/\r\n    struct ExtractorType{\r\n        uint rate;\r\n    }\r\n    uint constant EXTRACTOR_TYPE_CAP = 1;\r\n    ExtractorType[EXTRACTOR_TYPE_CAP] extractorTypes;\r\n\r\n    struct Extractor {\r\n        SectorPlaceable placeableData;\r\n        uint extractorTypeId;\r\n\r\n        NaturalReasourceType reasourceType;\r\n        uint rate;\r\n    }\r\n\r\n\r\n    /**************************************************************\r\n    World\r\n    **************************************************************/\r\n    struct SphereCordinate{\r\n        uint xAngle; /* address bits from 160 to 80 */\r\n        uint zAngle; /* address bits from 80 to 0   */\r\n    }\r\n\r\n    struct Sector {\r\n        bool initialized;\r\n\r\n        address owner;\r\n        SphereCordinate cordinates;\r\n\r\n        /* Placeables       */\r\n        Silo[] silos;\r\n        Extractor[] extractors;\r\n    }\r\n\r\n    mapping (address => Sector) sectors;\r\n\r\n    function convertAddressToCordinate(address addressToConvert) private pure returns (SphereCordinate memory) {\r\n        SphereCordinate memory cords;\r\n        uint rightMask = (1 << 80) - 1;\r\n        uint addressCasted = uint(addressToConvert);\r\n\r\n        cords.xAngle = (addressCasted & ~rightMask) >> 80;\r\n        cords.zAngle = addressCasted & rightMask;\r\n        return cords;\r\n    }\r\n\r\n    /**************************************************************\r\n    Public ABI\r\n    **************************************************************/\r\n    function initializeNativeSector() public {\r\n        Sector storage nativeSector = sectors[msg.sender];\r\n\r\n        if (!nativeSector.initialized) {\r\n            nativeSector.initialized = true;\r\n            nativeSector.owner = msg.sender;\r\n            nativeSector.cordinates = convertAddressToCordinate(nativeSector.owner);\r\n        }\r\n    }\r\n\r\n    function tickExtractor(address sectorAddress, uint extractorIndex) public {\r\n        Sector memory selSector = sectors[sectorAddress];\r\n\r\n        if(\r\n            selSector.initialized &&\r\n            selSector.owner == msg.sender &&\r\n            extractorIndex < selSector.extractors.length\r\n            ) {\r\n        \r\n        }\r\n    }\r\n    /**************************************************************\r\n    Public Views/Pure\r\n    **************************************************************/\r\n    function convertAddressToCordinateTuple(address addressToConvert) public pure returns (uint, uint){\r\n        SphereCordinate memory cords = convertAddressToCordinate(addressToConvert);\r\n        return (cords.xAngle, cords.zAngle);\r\n    }\r\n\r\n    function getSectorAttributes(address sectorAddress) public view returns (\r\n        bool initialized,\r\n        address owner,\r\n        uint xAngle,\r\n        uint zAngle ){\r\n\r\n        Sector memory selSector = sectors[sectorAddress];\r\n\r\n        return (\r\n            selSector.initialized,\r\n            selSector.owner,\r\n            selSector.cordinates.xAngle,\r\n            selSector.cordinates.zAngle\r\n        );\r\n    }\r\n}",
  "sourcePath": "A:/repos/crypto_game/contracts/Game.sol",
  "compiler": {
    "name": "solc",
    "version": "0.5.8+commit.23d335f2.Emscripten.clang"
  },
  "schemaVersion": "3.0.14",
  "updatedAt": "2019-09-12T18:13:17.222Z",
  "devdoc": {
    "methods": {}
  },
  "userdoc": {
    "methods": {
      "convertAddressToCordinateTuple(address)": {
        "notice": "************************************************************\r Public Views/Pure\r*************************************************************"
      },
      "initializeNativeSector()": {
        "notice": "************************************************************\r Public ABI\r*************************************************************"
      }
    }
  }
}