{
  "contractName": "Game",
  "abi": [
    {
      "constant": false,
      "inputs": [
        {
          "name": "targetTransformationId",
          "type": "uint256"
        }
      ],
      "name": "addAssemblerProperties",
      "outputs": [],
      "payable": false,
      "stateMutability": "nonpayable",
      "type": "function"
    },
    {
      "constant": false,
      "inputs": [
        {
          "name": "itemId",
          "type": "uint256"
        },
        {
          "name": "itemCategory",
          "type": "uint256"
        },
        {
          "name": "itemSubType",
          "type": "uint256"
        }
      ],
      "name": "addItem",
      "outputs": [],
      "payable": false,
      "stateMutability": "nonpayable",
      "type": "function"
    },
    {
      "constant": false,
      "inputs": [
        {
          "name": "targetItemId",
          "type": "uint256"
        },
        {
          "name": "maxQuantity",
          "type": "uint256"
        }
      ],
      "name": "addSiloProperties",
      "outputs": [],
      "payable": false,
      "stateMutability": "nonpayable",
      "type": "function"
    },
    {
      "constant": true,
      "inputs": [
        {
          "name": "transformationId",
          "type": "uint256"
        }
      ],
      "name": "getTransformationProperties",
      "outputs": [
        {
          "name": "inputCounts",
          "type": "uint256"
        },
        {
          "name": "inputItemIds",
          "type": "uint256[50]"
        },
        {
          "name": "inputQuantities",
          "type": "uint256[50]"
        },
        {
          "name": "outputCounts",
          "type": "uint256"
        },
        {
          "name": "outputItemIds",
          "type": "uint256[50]"
        },
        {
          "name": "outputQuantities",
          "type": "uint256[50]"
        }
      ],
      "payable": false,
      "stateMutability": "view",
      "type": "function"
    },
    {
      "constant": true,
      "inputs": [],
      "name": "getProductionMapRanges",
      "outputs": [
        {
          "name": "itemCount",
          "type": "uint256"
        },
        {
          "name": "transformationCount",
          "type": "uint256"
        }
      ],
      "payable": false,
      "stateMutability": "view",
      "type": "function"
    },
    {
      "constant": false,
      "inputs": [
        {
          "name": "transformationId",
          "type": "uint256"
        }
      ],
      "name": "addTransformation",
      "outputs": [],
      "payable": false,
      "stateMutability": "nonpayable",
      "type": "function"
    },
    {
      "constant": true,
      "inputs": [
        {
          "name": "addressToConvert",
          "type": "address"
        }
      ],
      "name": "convertAddressToCordinateTuple",
      "outputs": [
        {
          "name": "xAngle",
          "type": "uint256"
        },
        {
          "name": "zAngle",
          "type": "uint256"
        }
      ],
      "payable": false,
      "stateMutability": "pure",
      "type": "function"
    },
    {
      "constant": false,
      "inputs": [
        {
          "name": "targetTransformationId",
          "type": "uint256"
        }
      ],
      "name": "addExtractorProperties",
      "outputs": [],
      "payable": false,
      "stateMutability": "nonpayable",
      "type": "function"
    },
    {
      "constant": true,
      "inputs": [
        {
          "name": "itemId",
          "type": "uint256"
        }
      ],
      "name": "getItemType",
      "outputs": [
        {
          "name": "itemCategory",
          "type": "uint256"
        },
        {
          "name": "itemSubtype",
          "type": "uint256"
        }
      ],
      "payable": false,
      "stateMutability": "view",
      "type": "function"
    },
    {
      "constant": false,
      "inputs": [
        {
          "name": "isInput",
          "type": "bool"
        },
        {
          "name": "itemId",
          "type": "uint256"
        },
        {
          "name": "quantity",
          "type": "uint256"
        }
      ],
      "name": "addTransformationElement",
      "outputs": [],
      "payable": false,
      "stateMutability": "nonpayable",
      "type": "function"
    },
    {
      "constant": false,
      "inputs": [
        {
          "name": "sectorAddress",
          "type": "address"
        }
      ],
      "name": "tickSector",
      "outputs": [],
      "payable": false,
      "stateMutability": "nonpayable",
      "type": "function"
    },
    {
      "constant": false,
      "inputs": [],
      "name": "initializeNativeSector",
      "outputs": [],
      "payable": false,
      "stateMutability": "nonpayable",
      "type": "function"
    },
    {
      "constant": false,
      "inputs": [
        {
          "name": "sectorAddress",
          "type": "address"
        },
        {
          "name": "transformationId",
          "type": "uint256"
        }
      ],
      "name": "manualTransformation",
      "outputs": [
        {
          "name": "",
          "type": "bool"
        }
      ],
      "payable": false,
      "stateMutability": "nonpayable",
      "type": "function"
    },
    {
      "constant": true,
      "inputs": [
        {
          "name": "sectorAddress",
          "type": "address"
        }
      ],
      "name": "getSectorAttributes",
      "outputs": [
        {
          "name": "initialized",
          "type": "bool"
        },
        {
          "name": "owner",
          "type": "address"
        },
        {
          "name": "xAngle",
          "type": "uint256"
        },
        {
          "name": "zAngle",
          "type": "uint256"
        }
      ],
      "payable": false,
      "stateMutability": "view",
      "type": "function"
    },
    {
      "constant": true,
      "inputs": [
        {
          "name": "sectorAddress",
          "type": "address"
        }
      ],
      "name": "getSectorSilos",
      "outputs": [
        {
          "name": "itemIds",
          "type": "uint256[]"
        },
        {
          "name": "itemQuantities",
          "type": "uint256[]"
        }
      ],
      "payable": false,
      "stateMutability": "view",
      "type": "function"
    }
  ],
  "bytecode": "0x608060405234801561001057600080fd5b506135f1806100206000396000f3fe608060405234801561001057600080fd5b50600436106100f55760003560e01c806386f5ffde11610097578063c19a4ef511610066578063c19a4ef514610512578063d5bbd7791461055b578063f1e3769b1461059f578063f82f6a88146105a9576100f5565b806386f5ffde146104325780639fab11c414610457578063ba2371c514610485578063ba52d77f146104e4576100f5565b8063724c2551116100d3578063724c255114610285578063798a712a146102b35780637abe28d3146102f55780637b0ed1221461032d576100f5565b80630124d89f146100fa5780632e2f362e1461013e5780636e963872146101a4575b600080fd5b61013c6004803603602081101561011057600080fd5b81019080803573ffffffffffffffffffffffffffffffffffffffff169060200190929190505050610646565b005b61018a6004803603604081101561015457600080fd5b81019080803573ffffffffffffffffffffffffffffffffffffffff16906020019092919080359060200190929190505050610a3b565b604051808215151515815260200191505060405180910390f35b6101e6600480360360208110156101ba57600080fd5b81019080803573ffffffffffffffffffffffffffffffffffffffff169060200190929190505050610c8a565b604051808060200180602001838103835285818151815260200191508051906020019060200280838360005b8381101561022d578082015181840152602081019050610212565b50505050905001838103825284818151815260200191508051906020019060200280838360005b8381101561026f578082015181840152602081019050610254565b5050505090500194505050505060405180910390f35b6102b16004803603602081101561029b57600080fd5b8101908080359060200190929190505050611109565b005b6102f3600480360360608110156102c957600080fd5b81019080803590602001909291908035906020019092919080359060200190929190505050611158565b005b61032b6004803603604081101561030b57600080fd5b810190808035906020019092919080359060200190929190505050611385565b005b6103596004803603602081101561034357600080fd5b81019080803590602001909291905050506113de565b6040518087815260200186603260200280838360005b8381101561038a57808201518184015260208101905061036f565b5050505090500185603260200280838360005b838110156103b857808201518184015260208101905061039d565b5050505090500184815260200183603260200280838360005b838110156103ec5780820151818401526020810190506103d1565b5050505090500182603260200280838360005b8381101561041a5780820151818401526020810190506103ff565b50505050905001965050505050505060405180910390f35b61043a61164e565b604051808381526020018281526020019250505060405180910390f35b6104836004803603602081101561046d57600080fd5b8101908080359060200190929190505050611665565b005b6104c76004803603602081101561049b57600080fd5b81019080803573ffffffffffffffffffffffffffffffffffffffff1690602001909291905050506116de565b604051808381526020018281526020019250505060405180910390f35b610510600480360360208110156104fa57600080fd5b8101908080359060200190929190505050611727565b005b61053e6004803603602081101561052857600080fd5b8101908080359060200190929190505050611776565b604051808381526020018281526020019250505060405180910390f35b61059d6004803603606081101561057157600080fd5b8101908080351515906020019092919080359060200190929190803590602001909291905050506119e0565b005b6105a7611ac6565b005b6105eb600480360360208110156105bf57600080fd5b81019080803573ffffffffffffffffffffffffffffffffffffffff169060200190929190505050611b2e565b60405180851515151581526020018473ffffffffffffffffffffffffffffffffffffffff1673ffffffffffffffffffffffffffffffffffffffff16815260200183815260200182815260200194505050505060405180910390f35b80600260008273ffffffffffffffffffffffffffffffffffffffff1673ffffffffffffffffffffffffffffffffffffffff16815260200190815260200160002060000160019054906101000a900473ffffffffffffffffffffffffffffffffffffffff1673ffffffffffffffffffffffffffffffffffffffff163373ffffffffffffffffffffffffffffffffffffffff161461072d576040517f08c379a00000000000000000000000000000000000000000000000000000000081526004018080602001828103825260408152602001806134b06040913960400191505060405180910390fd5b6000600260008473ffffffffffffffffffffffffffffffffffffffff1673ffffffffffffffffffffffffffffffffffffffff168152602001908152602001600020905060008090505b81600601805490508110156108d2576108c482600084600601848154811061079a57fe5b906000526020600020906003020160020154815481106107b657fe5b90600052602060002090600302016040518060600160405290816000820154815260200160018201805480602002602001604051908101604052809291908181526020016000905b82821015610844578382906000526020600020906002020160405180604001604052908160008201548152602001600182015481525050815260200190600101906107fe565b50505050815260200160028201805480602002602001604051908101604052809291908181526020016000905b828210156108b757838290600052602060002090600202016040518060400160405290816000820154815260200160018201548152505081526020019060010190610871565b5050505081525050611ed8565b508080600101915050610776565b5060008090505b8160070180549050811015610a3557610a278260008460070184815481106108fd57fe5b9060005260206000209060030201600201548154811061091957fe5b90600052602060002090600302016040518060600160405290816000820154815260200160018201805480602002602001604051908101604052809291908181526020016000905b828210156109a757838290600052602060002090600202016040518060400160405290816000820154815260200160018201548152505081526020019060010190610961565b50505050815260200160028201805480602002602001604051908101604052809291908181526020016000905b82821015610a1a578382906000526020600020906002020160405180604001604052908160008201548152602001600182015481525050815260200190600101906109d4565b5050505081525050611ed8565b5080806001019150506108d9565b50505050565b600082600260008273ffffffffffffffffffffffffffffffffffffffff1673ffffffffffffffffffffffffffffffffffffffff16815260200190815260200160002060000160019054906101000a900473ffffffffffffffffffffffffffffffffffffffff1673ffffffffffffffffffffffffffffffffffffffff163373ffffffffffffffffffffffffffffffffffffffff1614610b24576040517f08c379a00000000000000000000000000000000000000000000000000000000081526004018080602001828103825260408152602001806134b06040913960400191505060405180910390fd5b610c81600260008673ffffffffffffffffffffffffffffffffffffffff1673ffffffffffffffffffffffffffffffffffffffff16815260200190815260200160002060008581548110610b7357fe5b90600052602060002090600302016040518060600160405290816000820154815260200160018201805480602002602001604051908101604052809291908181526020016000905b82821015610c0157838290600052602060002090600202016040518060400160405290816000820154815260200160018201548152505081526020019060010190610bbb565b50505050815260200160028201805480602002602001604051908101604052809291908181526020016000905b82821015610c7457838290600052602060002090600202016040518060400160405290816000820154815260200160018201548152505081526020019060010190610c2e565b5050505081525050611ed8565b91505092915050565b606080610c95613029565b600260008573ffffffffffffffffffffffffffffffffffffffff1673ffffffffffffffffffffffffffffffffffffffff168152602001908152602001600020604051806101000160405290816000820160009054906101000a900460ff161515151581526020016000820160019054906101000a900473ffffffffffffffffffffffffffffffffffffffff1673ffffffffffffffffffffffffffffffffffffffff1673ffffffffffffffffffffffffffffffffffffffff168152602001600182016040518060400160405290816000820154815260200160018201548152505081526020016003820154815260200160048201805480602002602001604051908101604052809291908181526020016000905b82821015610df85783829060005260206000209060030201604051806060016040529081600082015481526020016001820154815260200160028201548152505081526020019060010190610da8565b50505050815260200160058201805480602002602001604051908101604052809291908181526020016000905b82821015610eb157838290600052602060002090600502016040518060a0016040529081600082016040518060200160405290816000820154815250508152602001600182016040518060200160405290816000820154815250508152602001600282015481526020016003820154815260200160048201548152505081526020019060010190610e25565b50505050815260200160068201805480602002602001604051908101604052809291908181526020016000905b82821015610f56578382906000526020600020906003020160405180606001604052908160008201604051806020016040529081600082015481525050815260200160018201604051806020016040529081600082015481525050815260200160028201548152505081526020019060010190610ede565b50505050815260200160078201805480602002602001604051908101604052809291908181526020016000905b82821015610ffb578382906000526020600020906003020160405180606001604052908160008201604051806020016040529081600082015481525050815260200160018201604051806020016040529081600082015481525050815260200160028201548152505081526020019060010190610f83565b5050505081525050905060008160a001515190508060405190808252806020026020018201604052801561103e5781602001602082028038833980820191505090505b509350806040519080825280602002602001820160405280156110705781602001602082028038833980820191505090505b50925060008090505b8260a00151518110156110fb578260a00151818151811061109657fe5b6020026020010151604001518582815181106110ae57fe5b6020026020010181815250508260a0015181815181106110ca57fe5b6020026020010151608001518482815181106110e257fe5b6020026020010181815250508080600101915050611079565b508383935093505050915091565b600060016111156126ba565b8154811061111f57fe5b906000526020600020906010020160050160000160080190506111406126ba565b81600001600001819055508181600201819055505050565b82600180549050146111b5576040517f08c379a00000000000000000000000000000000000000000000000000000000081526004018080602001828103825260338152602001806135616033913960400191505060405180910390fd5b6111bd61308c565b6001805490508160000181815250508260038111156111d857fe5b81606001516000019060038111156111ec57fe5b908160038111156111f957fe5b8152505081816060015160200181815250506001819080600181540180825580915050906001820390600052602060002090601002016000909192909190915060008201518160000155602082015181600101556040820151816002015560608201518160030160008201518160000160006101000a81548160ff0219169083600381111561128457fe5b021790555060208201518160010155505060808201518160050160008201518160000160008201518160000160008201518160000160008201518160000155505060208201518160010160008201518160000155505060408201518160020155606082015181600301556080820151816004015550506020820151816005016000820151816000016000820151816000015550506020820151816001016000820151816000015550506040820151816002015550506040820151816008016000820151816000016000820151816000015550506020820151816001016000820151816000015550506040820151816002015550505050505050505050505050565b600060016113916126ba565b8154811061139b57fe5b906000526020600020906010020160050160000160000190506113bc6126ba565b8160000160000181905550828160020181905550818160030181905550505050565b60006113e86130c8565b6113f06130c8565b60006113fa6130c8565b6114026130c8565b61140a6130eb565b6000888154811061141757fe5b90600052602060002090600302016040518060600160405290816000820154815260200160018201805480602002602001604051908101604052809291908181526020016000905b828210156114a55783829060005260206000209060020201604051806040016040529081600082015481526020016001820154815250508152602001906001019061145f565b50505050815260200160028201805480602002602001604051908101604052809291908181526020016000905b82821015611518578382906000526020600020906002020160405180604001604052908160008201548152602001600182015481525050815260200190600101906114d2565b5050505081525050905060008090505b8160200151518110156115a4578160200151818151811061154557fe5b60200260200101516000015187826032811061155d57fe5b6020020181815250508160200151818151811061157657fe5b60200260200101516020015186826032811061158e57fe5b6020020181815250508080600101915050611528565b5060008090505b81604001515181101561162757816040015181815181106115c857fe5b6020026020010151600001518482603281106115e057fe5b602002018181525050816040015181815181106115f957fe5b60200260200101516020015183826032811061161157fe5b60200201818152505080806001019150506115ab565b50806020015151868683604001515186869650965096509650965096505091939550919395565b600080600180549050600080549050915091509091565b80600080549050146116c2576040517f08c379a000000000000000000000000000000000000000000000000000000000815260040180806020018281038252603e8152602001806134f0603e913960400191505060405180910390fd5b60016000818180549050019150816116da919061310c565b5050565b600080600069ffffffffffffffffffff905060008473ffffffffffffffffffffffffffffffffffffffff169050605082198216901c935081811692508383935093505050915091565b600060016117336126ba565b8154811061173d57fe5b9060005260206000209060100201600501600001600501905061175e6126ba565b81600001600001819055508181600201819055505050565b60008060018054905083106117d6576040517f08c379a000000000000000000000000000000000000000000000000000000000815260040180806020018281038252603381526020018061352e6033913960400191505060405180910390fd5b6117de61308c565b600184815481106117eb57fe5b90600052602060002090601002016040518060a0016040529081600082015481526020016001820154815260200160028201548152602001600382016040518060400160405290816000820160009054906101000a900460ff16600381111561185057fe5b600381111561185b57fe5b815260200160018201548152505081526020016005820160405180602001604052908160008201604051806060016040529081600082016040518060a00160405290816000820160405180602001604052908160008201548152505081526020016001820160405180602001604052908160008201548152505081526020016002820154815260200160038201548152602001600482015481525050815260200160058201604051806060016040529081600082016040518060200160405290816000820154815250508152602001600182016040518060200160405290816000820154815250508152602001600282015481525050815260200160088201604051806060016040529081600082016040518060200160405290816000820154815250508152602001600182016040518060200160405290816000820154815250508152602001600282015481525050815250508152505081525050905080606001516000015160038111156119cd57fe5b8160600151602001519250925050915091565b600080600160008054905003815481106119f657fe5b90600052602060002090600302019050611a0e61313e565b60405180604001604052808581526020018481525090508415611a77578160010181908060018154018082558091505090600182039060005260206000209060020201600090919290919091506000820151816000015560208201518160010155505050611abf565b81600201819080600181540180825580915050906001820390600052602060002090600202016000909192909190915060008201518160000155602082015181600101555050505b5050505050565b6000600260003373ffffffffffffffffffffffffffffffffffffffff1673ffffffffffffffffffffffffffffffffffffffff16815260200190815260200160002090508060000160009054906101000a900460ff16611b2b57611b2a8133336126c9565b5b50565b600080600080611b3c613029565b600260008773ffffffffffffffffffffffffffffffffffffffff1673ffffffffffffffffffffffffffffffffffffffff168152602001908152602001600020604051806101000160405290816000820160009054906101000a900460ff161515151581526020016000820160019054906101000a900473ffffffffffffffffffffffffffffffffffffffff1673ffffffffffffffffffffffffffffffffffffffff1673ffffffffffffffffffffffffffffffffffffffff168152602001600182016040518060400160405290816000820154815260200160018201548152505081526020016003820154815260200160048201805480602002602001604051908101604052809291908181526020016000905b82821015611c9f5783829060005260206000209060030201604051806060016040529081600082015481526020016001820154815260200160028201548152505081526020019060010190611c4f565b50505050815260200160058201805480602002602001604051908101604052809291908181526020016000905b82821015611d5857838290600052602060002090600502016040518060a0016040529081600082016040518060200160405290816000820154815250508152602001600182016040518060200160405290816000820154815250508152602001600282015481526020016003820154815260200160048201548152505081526020019060010190611ccc565b50505050815260200160068201805480602002602001604051908101604052809291908181526020016000905b82821015611dfd578382906000526020600020906003020160405180606001604052908160008201604051806020016040529081600082015481525050815260200160018201604051806020016040529081600082015481525050815260200160028201548152505081526020019060010190611d85565b50505050815260200160078201805480602002602001604051908101604052809291908181526020016000905b82821015611ea2578382906000526020600020906003020160405180606001604052908160008201604051806020016040529081600082015481525050815260200160018201604051806020016040529081600082015481525050815260200160028201548152505081526020019060010190611e2a565b50505050815250509050806000015181602001518260400151600001518360400151602001519450945094509450509193509193565b6000611ee2613029565b83604051806101000160405290816000820160009054906101000a900460ff161515151581526020016000820160019054906101000a900473ffffffffffffffffffffffffffffffffffffffff1673ffffffffffffffffffffffffffffffffffffffff1673ffffffffffffffffffffffffffffffffffffffff168152602001600182016040518060400160405290816000820154815260200160018201548152505081526020016003820154815260200160048201805480602002602001604051908101604052809291908181526020016000905b828210156120075783829060005260206000209060030201604051806060016040529081600082015481526020016001820154815260200160028201548152505081526020019060010190611fb7565b50505050815260200160058201805480602002602001604051908101604052809291908181526020016000905b828210156120c057838290600052602060002090600502016040518060a0016040529081600082016040518060200160405290816000820154815250508152602001600182016040518060200160405290816000820154815250508152602001600282015481526020016003820154815260200160048201548152505081526020019060010190612034565b50505050815260200160068201805480602002602001604051908101604052809291908181526020016000905b828210156121655783829060005260206000209060030201604051806060016040529081600082016040518060200160405290816000820154815250508152602001600182016040518060200160405290816000820154815250508152602001600282015481525050815260200190600101906120ed565b50505050815260200160078201805480602002602001604051908101604052809291908181526020016000905b8282101561220a578382906000526020600020906003020160405180606001604052908160008201604051806020016040529081600082015481525050815260200160018201604051806020016040529081600082015481525050815260200160028201548152505081526020019060010190612192565b5050505081525050905061221c61313e565b61222461308c565b60008090505b856020015151811015612467578560200151818151811061224757fe5b60200260200101519250600183600001518154811061226257fe5b90600052602060002090601002016040518060a0016040529081600082015481526020016001820154815260200160028201548152602001600382016040518060400160405290816000820160009054906101000a900460ff1660038111156122c757fe5b60038111156122d257fe5b815260200160018201548152505081526020016005820160405180602001604052908160008201604051806060016040529081600082016040518060a00160405290816000820160405180602001604052908160008201548152505081526020016001820160405180602001604052908160008201548152505081526020016002820154815260200160038201548152602001600482015481525050815260200160058201604051806060016040529081600082016040518060200160405290816000820154815250508152602001600182016040518060200160405290816000820154815250508152602001600282015481525050815260200160088201604051806060016040529081600082016040518060200160405290816000820154815250508152602001600182016040518060200160405290816000820154815250508152602001600282015481525050815250508152505081525050915061243f878385602001516127e1565b61245a5761244d8488612a85565b60009450505050506126b4565b808060010191505061222a565b5060008090505b8560400151518110156126ab578560400151818151811061248b57fe5b6020026020010151925060018360000151815481106124a657fe5b90600052602060002090601002016040518060a0016040529081600082015481526020016001820154815260200160028201548152602001600382016040518060400160405290816000820160009054906101000a900460ff16600381111561250b57fe5b600381111561251657fe5b815260200160018201548152505081526020016005820160405180602001604052908160008201604051806060016040529081600082016040518060a00160405290816000820160405180602001604052908160008201548152505081526020016001820160405180602001604052908160008201548152505081526020016002820154815260200160038201548152602001600482015481525050815260200160058201604051806060016040529081600082016040518060200160405290816000820154815250508152602001600182016040518060200160405290816000820154815250508152602001600282015481525050815260200160088201604051806060016040529081600082016040518060200160405290816000820154815250508152602001600182016040518060200160405290816000820154815250508152602001600282015481525050815250508152505081525050915061268387838560200151612c86565b61269e576126918488612a85565b60009450505050506126b4565b808060010191505061246e565b50600193505050505b92915050565b60006001808054905003905090565b8260000160009054906101000a900460ff1615612731576040517f08c379a00000000000000000000000000000000000000000000000000000000081526004018080602001828103825260328152602001806135946032913960400191505060405180910390fd5b818360000160016101000a81548173ffffffffffffffffffffffffffffffffffffffff021916908373ffffffffffffffffffffffffffffffffffffffff16021790555060018360000160006101000a81548160ff02191690831515021790555060008061279d836116de565b915091506040518060400160405280838152602001828152508560010160008201518160000155602082015181600101559050506127da85613026565b5050505050565b600080829050600160038111156127f457fe5b846060015160000151600381111561280857fe5b141561281357612a77565b6002600381111561282057fe5b846060015160000151600381111561283457fe5b14156129465760008090505b8560050180549050811080156128565750600082115b156129405785600501818154811061286a57fe5b906000526020600020906005020160020154856000015114156129335785600501818154811061289657fe5b9060005260206000209060050201600401548210156128e657818660050182815481106128bf57fe5b90600052602060002090600502016004016000828254039250508190555060009150612932565b8560050181815481106128f557fe5b90600052602060002090600502016004015482039150600086600501828154811061291c57fe5b9060005260206000209060050201600401819055505b5b8080600101915050612840565b50612a76565b60038081111561295257fe5b846060015160000151600381111561296657fe5b1415612a755760038081111561297857fe5b84606001516020015114156129f15760008090505b8560070180549050811080156129a35750600082115b156129eb5784600001518660070182815481106129bc57fe5b90600052602060002090600302016000016000015414156129de576001820391505b808060010191505061298d565b50612a74565b600260038111156129fe57fe5b8460600151602001511415612a735760008090505b856006018054905081108015612a295750600082115b15612a71578460000151866006018281548110612a4257fe5b9060005260206000209060030201600001600001541415612a64576001820391505b8080600101915050612a13565b505b5b5b5b5b600081149150509392505050565b8160a00151518160050181612a9a9190613158565b5060008090505b8260a0015151811015612b3b578260a001518181518110612abe57fe5b6020026020010151826005018281548110612ad557fe5b90600052602060002090600502016000820151816000016000820151816000015550506020820151816001016000820151816000015550506040820151816002015560608201518160030155608082015181600401559050508080600101915050612aa1565b508160c00151518160060181612b51919061318a565b5060008090505b8260c0015151811015612bde578260c001518181518110612b7557fe5b6020026020010151826006018281548110612b8c57fe5b9060005260206000209060030201600082015181600001600082015181600001555050602082015181600101600082015181600001555050604082015181600201559050508080600101915050612b58565b508160e00151518160070181612bf491906131bc565b5060008090505b8260e0015151811015612c81578260e001518181518110612c1857fe5b6020026020010151826007018281548110612c2f57fe5b9060005260206000209060030201600082015181600001600082015181600001555050602082015181600101600082015181600001555050604082015181600201559050508080600101915050612bfb565b505050565b600080829050600380811115612c9857fe5b8460600151600001516003811115612cac57fe5b1415612e895760016003811115612cbf57fe5b8460600151602001511415612d5a57846005018460800151600001516000015190806001815401808255809150509060018203906000526020600020906005020160009091929091909150600082015181600001600082015181600001555050602082015181600101600082015181600001555050604082015181600201556060820151816003015560808201518160040155505050612e80565b60026003811115612d6757fe5b8460600151602001511415612dee5784600601846080015160000151602001519080600181540180825580915050906001820390600052602060002090600302016000909192909190915060008201518160000160008201518160000155505060208201518160010160008201518160000155505060408201518160020155505050612e7f565b60016003811115612dfb57fe5b8460600151602001511415612e7e57846007018460800151600001516040015190806001815401808255809150509060018203906000526020600020906003020160009091929091909150600082015181600001600082015181600001555050602082015181600101600082015181600001555050604082015181600201555050505b5b5b60009050613018565b60026003811115612e9657fe5b8460600151600001516003811115612eaa57fe5b14156130175760008090505b856005018054905081108015612ecc5750600082115b1561301557856005018181548110612ee057fe5b906000526020600020906005020160020154856000015114156130085781866005018281548110612f0d57fe5b906000526020600020906005020160040160008282540192505081905550856005018181548110612f3a57fe5b906000526020600020906005020160030154866005018281548110612f5b57fe5b906000526020600020906005020160040154111561300257856005018181548110612f8257fe5b906000526020600020906005020160030154866005018281548110612fa357fe5b906000526020600020906005020160040154039150856005018181548110612fc757fe5b906000526020600020906005020160030154866005018281548110612fe857fe5b906000526020600020906005020160040181905550613007565b600091505b5b8080600101915050612eb6565b505b5b600081149150509392505050565b50565b604051806101200160405280600015158152602001600073ffffffffffffffffffffffffffffffffffffffff1681526020016130636131ee565b815260200160008152602001606081526020016060815260200160608152602001606081525090565b6040518061020001604052806000815260200160008152602001600081526020016130b5613208565b81526020016130c261322d565b81525090565b604051806106400160405280603290602082028038833980820191505090505090565b60405180606001604052806000815260200160608152602001606081525090565b815481835581811115613139576003028160030283600052602060002091820191016131389190613247565b5b505050565b604051806040016040528060008152602001600081525090565b81548183558181111561318557600502816005028360005260206000209182019101613184919061328e565b5b505050565b8154818355818111156131b7576003028160030283600052602060002091820191016131b691906132e3565b5b505050565b8154818355818111156131e9576003028160030283600052602060002091820191016131e89190613328565b5b505050565b604051806040016040528060008152602001600081525090565b60405180604001604052806000600381111561322057fe5b8152602001600081525090565b60405180610160016040528061324161336d565b81525090565b61328b91905b808211156132875760008082016000905560018201600061326e91906133a1565b60028201600061327e91906133a1565b5060030161324d565b5090565b90565b6132e091905b808211156132dc576000808201600080820160009055505060018201600080820160009055505060028201600090556003820160009055600482016000905550600501613294565b5090565b90565b61332591905b8082111561332157600080820160008082016000905550506001820160008082016000905550506002820160009055506003016132e9565b5090565b90565b61336a91905b80821115613366576000808201600080820160009055505060018201600080820160009055505060028201600090555060030161332e565b5090565b90565b6040518061016001604052806133816133c5565b815260200161338e613400565b815260200161339b61342d565b81525090565b50805460008255600202906000526020600020908101906133c2919061345a565b50565b6040518060a001604052806133d8613489565b81526020016133e561349c565b81526020016000815260200160008152602001600081525090565b6040518060600160405280613413613489565b815260200161342061349c565b8152602001600081525090565b6040518060600160405280613440613489565b815260200161344d61349c565b8152602001600081525090565b61348691905b8082111561348257600080820160009055600182016000905550600201613460565b5090565b90565b6040518060200160405280600081525090565b604051806020016040528060008152509056fe52657175697265207468617420736563746f72207265666572656e6365642062792061646472657373206973206f776e6564206279207468652063616c6c65725265717569726520746861742063616c6c6572206b6e6f772074686520696420746865207472616e73666f726d6174696f6e206265696e67206164646564526571756972652074686174206974656d49642069732077697468696e2072616e6765206f662076616c6964206974656d732e5265717569726520746861742063616c6c6572206b6e6f7720746865206964206f66206974656d206265696e6720616464656452657175697265207468617420676976656e20736563746f7220686173206e6f74206265656e20696e697469616c697a6564a165627a7a72305820ff466ddee57a3bd5108fdf96d311dc8ad7fb0c883e3e3af2fb38976269c12ab10029",
  "source": "pragma solidity ^0.5.0;\n\nimport \"./types/TypesItem.sol\";\nimport \"./types/TypesTransformation.sol\";\nimport \"./types/TypesSector.sol\";\n\nimport \"./ProductionManager.sol\";\n\ncontract Game is\n    TypesItem, TypesTransformation, TypesSector,\n    ProductionManager\n    {\n\n    /**************************************************************\n    Data\n    **************************************************************/\n\n    mapping (address => Sector) sectors;\n\n    /**************************************************************\n    External functions - full\n    **************************************************************/\n\n    /**\n    A primary game function that is called to make a sector's buildings act.\n    */\n    function tickSector(\n        address sectorAddress\n    ) external callerOwnsSector(sectorAddress) {\n        Sector storage sector = sectors[sectorAddress];\n\n        for(uint i = 0; i < sector.extractors.length; i++){\n            proccessTransformation(\n                sector,\n                transformations[sector.extractors[i].targetTransformationId]\n            );\n        }\n\n        for(uint i = 0; i < sector.assemblers.length; i++){\n            proccessTransformation(\n                sector,\n                transformations[sector.assemblers[i].targetTransformationId]\n            );\n        }\n    }\n\n    /**\n    Native sector is one with the same key address as the caller. If this\n    sector hasn't been annexed or initialized this will do so .\n    */\n    function initializeNativeSector() external {\n        Sector storage nativeSector = sectors[msg.sender];\n        if(!nativeSector.initialized){\n            initializeSector(nativeSector, msg.sender, msg.sender);\n        }\n    }\n\n    /**\n    This function attempts to execute a transformation that was externally\n    called. Intended for building placeable items in a sector.\n    */\n    function manualTransformation(\n        address sectorAddress,\n        uint transformationId\n    )\n    external callerOwnsSector(sectorAddress)\n    returns (bool){\n        return proccessTransformation(\n            sectors[sectorAddress],\n            transformations[transformationId]\n        );\n    }\n\n    /**************************************************************\n    Public functions   - view, pure\n    **************************************************************/\n\n    function getSectorAttributes(address sectorAddress) public view returns (\n        bool initialized,\n        address owner,\n        uint xAngle,\n        uint zAngle\n    ){\n        Sector memory selSector = sectors[sectorAddress];\n\n        return (\n            selSector.initialized,\n            selSector.owner,\n            selSector.cordinates.xAngle,\n            selSector.cordinates.zAngle\n        );\n    }\n\n    function getSectorSilos(address sectorAddress) public view returns (\n        uint[] memory itemIds,\n        uint[] memory itemQuantities\n    ){\n\n        Sector memory selSector = sectors[sectorAddress];\n        uint siloCount = selSector.silos.length;\n\n        itemIds = new uint[](siloCount);\n        itemQuantities = new uint[](siloCount);\n\n        for(uint i = 0; i < selSector.silos.length; i++){\n            itemIds[i] = selSector.silos[i].targetItemId;\n            itemQuantities[i] = selSector.silos[i].curQuantity;\n        }\n\n        return (\n            itemIds,\n            itemQuantities\n        );\n    }\n\n    /**************************************************************\n    Modifiers\n    **************************************************************/\n\n    modifier callerOwnsSector(address sectorAddress) {\n        require(\n            msg.sender == sectors[sectorAddress].owner,\n            \"Require that sector referenced by address is owned by the caller\"\n        );\n        _;\n    }\n}",
  "sourcePath": "/Users/idanreed/Documents/repos/CryptoGame/contracts/Game.sol",
  "compiler": {
    "name": "solc",
    "version": "0.5.8+commit.23d335f2.Emscripten.clang"
  },
  "schemaVersion": "3.0.16",
  "updatedAt": "2019-12-06T23:23:15.701Z",
  "devdoc": {
    "methods": {}
  },
  "userdoc": {
    "methods": {
      "addItem(uint256,uint256,uint256)": {
        "notice": "************************************************************ External functions - full*************************************************************"
      },
      "convertAddressToCordinateTuple(address)": {
        "notice": "************************************************************ Public Views/Pure*************************************************************"
      },
      "getSectorAttributes(address)": {
        "notice": "************************************************************ Public functions   - view, pure*************************************************************"
      },
      "getTransformationProperties(uint256)": {
        "notice": "************************************************************ External functions - view, pure*************************************************************"
      },
      "initializeNativeSector()": {
        "notice": "Native sector is one with the same key address as the caller. If this sector hasn't been annexed or initialized this will do so ."
      },
      "manualTransformation(address,uint256)": {
        "notice": "This function attempts to execute a transformation that was externally called. Intended for building placeable items in a sector."
      },
      "tickSector(address)": {
        "notice": "A primary game function that is called to make a sector's buildings act."
      }
    }
  }
}