{
  "contractName": "Game",
  "abi": [
    {
      "constant": true,
      "inputs": [
        {
          "name": "itemId",
          "type": "uint256"
        }
      ],
      "name": "getItemProperties",
      "outputs": [
        {
          "name": "density",
          "type": "uint256"
        },
        {
          "name": "itemType",
          "type": "uint256"
        }
      ],
      "payable": false,
      "stateMutability": "view",
      "type": "function"
    },
    {
      "constant": false,
      "inputs": [],
      "name": "addTransformation",
      "outputs": [],
      "payable": false,
      "stateMutability": "nonpayable",
      "type": "function"
    },
    {
      "constant": false,
      "inputs": [
        {
          "name": "itemId",
          "type": "uint256"
        },
        {
          "name": "itemType",
          "type": "uint256"
        },
        {
          "name": "itemSubType",
          "type": "uint256"
        }
      ],
      "name": "addItem",
      "outputs": [],
      "payable": false,
      "stateMutability": "nonpayable",
      "type": "function"
    },
    {
      "constant": false,
      "inputs": [
        {
          "name": "targetItemId",
          "type": "uint256"
        },
        {
          "name": "maxQuantity",
          "type": "uint256"
        }
      ],
      "name": "addSiloProperties",
      "outputs": [],
      "payable": false,
      "stateMutability": "nonpayable",
      "type": "function"
    },
    {
      "constant": true,
      "inputs": [
        {
          "name": "transformationId",
          "type": "uint256"
        }
      ],
      "name": "getTransformationProperties",
      "outputs": [
        {
          "name": "inputCounts",
          "type": "uint256"
        },
        {
          "name": "inputItemIds",
          "type": "uint256[50]"
        },
        {
          "name": "inputQuantities",
          "type": "uint256[50]"
        },
        {
          "name": "outputCounts",
          "type": "uint256"
        },
        {
          "name": "outputItemIds",
          "type": "uint256[50]"
        },
        {
          "name": "outputQuantities",
          "type": "uint256[50]"
        }
      ],
      "payable": false,
      "stateMutability": "view",
      "type": "function"
    },
    {
      "constant": true,
      "inputs": [],
      "name": "getProductionMapRanges",
      "outputs": [
        {
          "name": "itemCount",
          "type": "uint256"
        },
        {
          "name": "transformationCount",
          "type": "uint256"
        }
      ],
      "payable": false,
      "stateMutability": "view",
      "type": "function"
    },
    {
      "constant": true,
      "inputs": [
        {
          "name": "addressToConvert",
          "type": "address"
        }
      ],
      "name": "convertAddressToCordinateTuple",
      "outputs": [
        {
          "name": "xAngle",
          "type": "uint256"
        },
        {
          "name": "zAngle",
          "type": "uint256"
        }
      ],
      "payable": false,
      "stateMutability": "pure",
      "type": "function"
    },
    {
      "constant": false,
      "inputs": [
        {
          "name": "",
          "type": "uint256"
        }
      ],
      "name": "addExtractorProperties",
      "outputs": [],
      "payable": false,
      "stateMutability": "nonpayable",
      "type": "function"
    },
    {
      "constant": false,
      "inputs": [
        {
          "name": "isInput",
          "type": "bool"
        },
        {
          "name": "itemId",
          "type": "uint256"
        },
        {
          "name": "quantity",
          "type": "uint256"
        }
      ],
      "name": "addTransformationElement",
      "outputs": [],
      "payable": false,
      "stateMutability": "nonpayable",
      "type": "function"
    },
    {
      "constant": false,
      "inputs": [],
      "name": "initializeNativeSector",
      "outputs": [],
      "payable": false,
      "stateMutability": "nonpayable",
      "type": "function"
    },
    {
      "constant": false,
      "inputs": [
        {
          "name": "sectorAddress",
          "type": "address"
        }
      ],
      "name": "tickSector",
      "outputs": [],
      "payable": false,
      "stateMutability": "nonpayable",
      "type": "function"
    },
    {
      "constant": false,
      "inputs": [
        {
          "name": "sectorAddress",
          "type": "address"
        },
        {
          "name": "transformationId",
          "type": "uint256"
        }
      ],
      "name": "manualTransformation",
      "outputs": [],
      "payable": false,
      "stateMutability": "nonpayable",
      "type": "function"
    },
    {
      "constant": true,
      "inputs": [
        {
          "name": "sectorAddress",
          "type": "address"
        }
      ],
      "name": "getSectorAttributes",
      "outputs": [
        {
          "name": "initialized",
          "type": "bool"
        },
        {
          "name": "owner",
          "type": "address"
        },
        {
          "name": "xAngle",
          "type": "uint256"
        },
        {
          "name": "zAngle",
          "type": "uint256"
        }
      ],
      "payable": false,
      "stateMutability": "view",
      "type": "function"
    },
    {
      "constant": true,
      "inputs": [
        {
          "name": "sectorAddress",
          "type": "address"
        }
      ],
      "name": "getSectorSilos",
      "outputs": [
        {
          "name": "itemIds",
          "type": "uint256[]"
        },
        {
          "name": "itemQuantities",
          "type": "uint256[]"
        }
      ],
      "payable": false,
      "stateMutability": "view",
      "type": "function"
    }
  ],
  "bytecode": "0x608060405234801561001057600080fd5b506128a1806100206000396000f3fe608060405234801561001057600080fd5b50600436106100ea5760003560e01c80637b0ed1221161008c578063ba52d77f11610066578063ba52d77f146104b8578063d5bbd779146104e6578063f1e3769b1461052a578063f82f6a8814610534576100ea565b80637b0ed1221461032f57806386f5ffde14610434578063ba2371c514610459576100ea565b8063352c1c1f116100c8578063352c1c1f146101ca5780636e963872146101d4578063798a712a146102b55780637abe28d3146102f7576100ea565b80630124d89f146100ef57806321ce76de146101335780632e2f362e1461017c575b600080fd5b6101316004803603602081101561010557600080fd5b81019080803573ffffffffffffffffffffffffffffffffffffffff1690602001909291905050506105d1565b005b61015f6004803603602081101561014957600080fd5b81019080803590602001909291905050506105d4565b604051808381526020018281526020019250505060405180910390f35b6101c86004803603604081101561019257600080fd5b81019080803573ffffffffffffffffffffffffffffffffffffffff16906020019092919080359060200190929190505050610831565b005b6101d2610a7a565b005b610216600480360360208110156101ea57600080fd5b81019080803573ffffffffffffffffffffffffffffffffffffffff169060200190929190505050610a95565b604051808060200180602001838103835285818151815260200191508051906020019060200280838360005b8381101561025d578082015181840152602081019050610242565b50505050905001838103825284818151815260200191508051906020019060200280838360005b8381101561029f578082015181840152602081019050610284565b5050505090500194505050505060405180910390f35b6102f5600480360360608110156102cb57600080fd5b81019080803590602001909291908035906020019092919080359060200190929190505050610f14565b005b61032d6004803603604081101561030d57600080fd5b810190808035906020019092919080359060200190929190505050611169565b005b61035b6004803603602081101561034557600080fd5b81019080803590602001909291905050506111ab565b6040518087815260200186603260200280838360005b8381101561038c578082015181840152602081019050610371565b5050505090500185603260200280838360005b838110156103ba57808201518184015260208101905061039f565b5050505090500184815260200183603260200280838360005b838110156103ee5780820151818401526020810190506103d3565b5050505090500182603260200280838360005b8381101561041c578082015181840152602081019050610401565b50505050905001965050505050505060405180910390f35b61043c61141b565b604051808381526020018281526020019250505060405180910390f35b61049b6004803603602081101561046f57600080fd5b81019080803573ffffffffffffffffffffffffffffffffffffffff169060200190929190505050611432565b604051808381526020018281526020019250505060405180910390f35b6104e4600480360360208110156104ce57600080fd5b810190808035906020019092919050505061147b565b005b610528600480360360608110156104fc57600080fd5b81019080803515159060200190929190803590602001909291908035906020019092919050505061147e565b005b610532611564565b005b6105766004803603602081101561054a57600080fd5b81019080803573ffffffffffffffffffffffffffffffffffffffff1690602001909291905050506115cc565b60405180851515151581526020018473ffffffffffffffffffffffffffffffffffffffff1673ffffffffffffffffffffffffffffffffffffffff16815260200183815260200182815260200194505050505060405180910390f35b50565b6000806001805490508310610634576040517f08c379a00000000000000000000000000000000000000000000000000000000081526004018080602001828103825260338152602001806127af6033913960400191505060405180910390fd5b61063c612451565b6001848154811061064957fe5b90600052602060002090600f02016040518060c00160405290816000820154815260200160018201548152602001600282015481526020016003820160009054906101000a900460ff16600281111561069e57fe5b60028111156106a957fe5b81526020016003820160019054906101000a900460ff1660038111156106cb57fe5b60038111156106d657fe5b815260200160048201604051806060016040529081600082016040518060a001604052908160008201604051806020016040529081600082015481525050815260200160018201604051806020016040529081600082015481525050815260200160028201548152602001600382015481526020016004820154815250508152602001600582016040518060600160405290816000820160405180602001604052908160008201548152505081526020016001820160405180602001604052908160008201548152505081526020016002820154815250508152602001600882016040518060600160405290816000820160405180602001604052908160008201548152505081526020016001820160405180602001604052908160008201548152505081526020016002820154815250508152505081525050905080602001518160600151600281111561082757fe5b9250925050915091565b81600260008273ffffffffffffffffffffffffffffffffffffffff1673ffffffffffffffffffffffffffffffffffffffff16815260200190815260200160002060000160019054906101000a900473ffffffffffffffffffffffffffffffffffffffff1673ffffffffffffffffffffffffffffffffffffffff163373ffffffffffffffffffffffffffffffffffffffff1614610918576040517f08c379a000000000000000000000000000000000000000000000000000000000815260040180806020018281038252604081526020018061276f6040913960400191505060405180910390fd5b610a75600260008573ffffffffffffffffffffffffffffffffffffffff1673ffffffffffffffffffffffffffffffffffffffff1681526020019081526020016000206000848154811061096757fe5b90600052602060002090600302016040518060600160405290816000820154815260200160018201805480602002602001604051908101604052809291908181526020016000905b828210156109f5578382906000526020600020906002020160405180604001604052908160008201548152602001600182015481525050815260200190600101906109af565b50505050815260200160028201805480602002602001604051908101604052809291908181526020016000905b82821015610a6857838290600052602060002090600202016040518060400160405290816000820154815260200160018201548152505081526020019060010190610a22565b5050505081525050611976565b505050565b6001600081818054905001915081610a9291906124a4565b50565b606080610aa06124d6565b600260008573ffffffffffffffffffffffffffffffffffffffff1673ffffffffffffffffffffffffffffffffffffffff168152602001908152602001600020604051806101000160405290816000820160009054906101000a900460ff161515151581526020016000820160019054906101000a900473ffffffffffffffffffffffffffffffffffffffff1673ffffffffffffffffffffffffffffffffffffffff1673ffffffffffffffffffffffffffffffffffffffff168152602001600182016040518060400160405290816000820154815260200160018201548152505081526020016003820154815260200160048201805480602002602001604051908101604052809291908181526020016000905b82821015610c035783829060005260206000209060030201604051806060016040529081600082015481526020016001820154815260200160028201548152505081526020019060010190610bb3565b50505050815260200160058201805480602002602001604051908101604052809291908181526020016000905b82821015610cbc57838290600052602060002090600502016040518060a0016040529081600082016040518060200160405290816000820154815250508152602001600182016040518060200160405290816000820154815250508152602001600282015481526020016003820154815260200160048201548152505081526020019060010190610c30565b50505050815260200160068201805480602002602001604051908101604052809291908181526020016000905b82821015610d61578382906000526020600020906003020160405180606001604052908160008201604051806020016040529081600082015481525050815260200160018201604051806020016040529081600082015481525050815260200160028201548152505081526020019060010190610ce9565b50505050815260200160078201805480602002602001604051908101604052809291908181526020016000905b82821015610e06578382906000526020600020906003020160405180606001604052908160008201604051806020016040529081600082015481525050815260200160018201604051806020016040529081600082015481525050815260200160028201548152505081526020019060010190610d8e565b5050505081525050905060008160a0015151905080604051908082528060200260200182016040528015610e495781602001602082028038833980820191505090505b50935080604051908082528060200260200182016040528015610e7b5781602001602082028038833980820191505090505b50925060008090505b8260a0015151811015610f06578260a001518181518110610ea157fe5b602002602001015160400151858281518110610eb957fe5b6020026020010181815250508260a001518181518110610ed557fe5b602002602001015160800151848281518110610eed57fe5b6020026020010181815250508080600101915050610e84565b508383935093505050915091565b8260018054905014610f71576040517f08c379a00000000000000000000000000000000000000000000000000000000081526004018080602001828103825260338152602001806127e26033913960400191505060405180910390fd5b610f79612539565b610f81612451565b6040518060c00160405280600180805490500381526020016007815260200160078152602001856002811115610fb357fe5b6002811115610fbe57fe5b8152602001846003811115610fcf57fe5b6003811115610fda57fe5b81526020018381525090506001819080600181540180825580915050906001820390600052602060002090600f02016000909192909190915060008201518160000155602082015181600101556040820151816002015560608201518160030160006101000a81548160ff0219169083600281111561105557fe5b021790555060808201518160030160016101000a81548160ff0219169083600381111561107e57fe5b021790555060a082015181600401600082015181600001600082015181600001600082015181600001555050602082015181600101600082015181600001555050604082015181600201556060820151816003015560808201518160040155505060208201518160050160008201518160000160008201518160000155505060208201518160010160008201518160000155505060408201518160020155505060408201518160080160008201518160000160008201518160000155505060208201518160010160008201518160000155505060408201518160020155505050505050505050505050565b60006001808080549050038154811061117e57fe5b90600052602060002090600f02016004016000019050828160020181905550818160030181905550505050565b60006111b561256d565b6111bd61256d565b60006111c761256d565b6111cf61256d565b6111d7612590565b600088815481106111e457fe5b90600052602060002090600302016040518060600160405290816000820154815260200160018201805480602002602001604051908101604052809291908181526020016000905b828210156112725783829060005260206000209060020201604051806040016040529081600082015481526020016001820154815250508152602001906001019061122c565b50505050815260200160028201805480602002602001604051908101604052809291908181526020016000905b828210156112e55783829060005260206000209060020201604051806040016040529081600082015481526020016001820154815250508152602001906001019061129f565b5050505081525050905060008090505b816020015151811015611371578160200151818151811061131257fe5b60200260200101516000015187826032811061132a57fe5b6020020181815250508160200151818151811061134357fe5b60200260200101516020015186826032811061135b57fe5b60200201818152505080806001019150506112f5565b5060008090505b8160400151518110156113f4578160400151818151811061139557fe5b6020026020010151600001518482603281106113ad57fe5b602002018181525050816040015181815181106113c657fe5b6020026020010151602001518382603281106113de57fe5b6020020181815250508080600101915050611378565b50806020015151868683604001515186869650965096509650965096505091939550919395565b600080600180549050600080549050915091509091565b600080600069ffffffffffffffffffff905060008473ffffffffffffffffffffffffffffffffffffffff169050605082198216901c935081811692508383935093505050915091565b50565b6000806001600080549050038154811061149457fe5b906000526020600020906003020190506114ac6125b1565b6040518060400160405280858152602001848152509050841561151557816001018190806001815401808255809150509060018203906000526020600020906002020160009091929091909150600082015181600001556020820151816001015550505061155d565b81600201819080600181540180825580915050906001820390600052602060002090600202016000909192909190915060008201518160000155602082015181600101555050505b5050505050565b6000600260003373ffffffffffffffffffffffffffffffffffffffff1673ffffffffffffffffffffffffffffffffffffffff16815260200190815260200160002090508060000160009054906101000a900460ff166115c9576115c8813333611eb8565b5b50565b6000806000806115da6124d6565b600260008773ffffffffffffffffffffffffffffffffffffffff1673ffffffffffffffffffffffffffffffffffffffff168152602001908152602001600020604051806101000160405290816000820160009054906101000a900460ff161515151581526020016000820160019054906101000a900473ffffffffffffffffffffffffffffffffffffffff1673ffffffffffffffffffffffffffffffffffffffff1673ffffffffffffffffffffffffffffffffffffffff168152602001600182016040518060400160405290816000820154815260200160018201548152505081526020016003820154815260200160048201805480602002602001604051908101604052809291908181526020016000905b8282101561173d57838290600052602060002090600302016040518060600160405290816000820154815260200160018201548152602001600282015481525050815260200190600101906116ed565b50505050815260200160058201805480602002602001604051908101604052809291908181526020016000905b828210156117f657838290600052602060002090600502016040518060a001604052908160008201604051806020016040529081600082015481525050815260200160018201604051806020016040529081600082015481525050815260200160028201548152602001600382015481526020016004820154815250508152602001906001019061176a565b50505050815260200160068201805480602002602001604051908101604052809291908181526020016000905b8282101561189b578382906000526020600020906003020160405180606001604052908160008201604051806020016040529081600082015481525050815260200160018201604051806020016040529081600082015481525050815260200160028201548152505081526020019060010190611823565b50505050815260200160078201805480602002602001604051908101604052809291908181526020016000905b828210156119405783829060005260206000209060030201604051806060016040529081600082016040518060200160405290816000820154815250508152602001600182016040518060200160405290816000820154815250508152602001600282015481525050815260200190600101906118c8565b50505050815250509050806000015181602001518260400151600001518360400151602001519450945094509450509193509193565b61197e6125b1565b611986612451565b60008090505b836020015151811015611c1b57836020015181815181106119a957fe5b6020026020010151925060018360000151815481106119c457fe5b90600052602060002090600f02016040518060c00160405290816000820154815260200160018201548152602001600282015481526020016003820160009054906101000a900460ff166002811115611a1957fe5b6002811115611a2457fe5b81526020016003820160019054906101000a900460ff166003811115611a4657fe5b6003811115611a5157fe5b815260200160048201604051806060016040529081600082016040518060a0016040529081600082016040518060200160405290816000820154815250508152602001600182016040518060200160405290816000820154815250508152602001600282015481526020016003820154815260200160048201548152505081526020016005820160405180606001604052908160008201604051806020016040529081600082015481525050815260200160018201604051806020016040529081600082015481525050815260200160028201548152505081526020016008820160405180606001604052908160008201604051806020016040529081600082015481525050815260200160018201604051806020016040529081600082015481525050815260200160028201548152505081525050815250509150611b9c85838560200151611fd0565b611c0e576040517f08c379a000000000000000000000000000000000000000000000000000000000815260040180806020018281038252601c8152602001807f556e61626c6520746f20636f6e73756d6520696e707574206974656d0000000081525060200191505060405180910390fd5b808060010191505061198c565b5060008090505b836040015151811015611eb15783604001518181518110611c3f57fe5b602002602001015192506001836000015181548110611c5a57fe5b90600052602060002090600f02016040518060c00160405290816000820154815260200160018201548152602001600282015481526020016003820160009054906101000a900460ff166002811115611caf57fe5b6002811115611cba57fe5b81526020016003820160019054906101000a900460ff166003811115611cdc57fe5b6003811115611ce757fe5b815260200160048201604051806060016040529081600082016040518060a0016040529081600082016040518060200160405290816000820154815250508152602001600182016040518060200160405290816000820154815250508152602001600282015481526020016003820154815260200160048201548152505081526020016005820160405180606001604052908160008201604051806020016040529081600082015481525050815260200160018201604051806020016040529081600082015481525050815260200160028201548152505081526020016008820160405180606001604052908160008201604051806020016040529081600082015481525050815260200160018201604051806020016040529081600082015481525050815260200160028201548152505081525050815250509150611e328583856020015161215b565b611ea4576040517f08c379a000000000000000000000000000000000000000000000000000000000815260040180806020018281038252601b8152602001807f556e61626c6520746f2073746f7265206f7574707574206974656d000000000081525060200191505060405180910390fd5b8080600101915050611c22565b5050505050565b8260000160009054906101000a900460ff1615611f20576040517f08c379a00000000000000000000000000000000000000000000000000000000081526004018080602001828103825260328152602001806128446032913960400191505060405180910390fd5b818360000160016101000a81548173ffffffffffffffffffffffffffffffffffffffff021916908373ffffffffffffffffffffffffffffffffffffffff16021790555060018360000160006101000a81548160ff021916908315150217905550600080611f8c83611432565b91509150604051806040016040528083815260200182815250856001016000820151816000015560208201518160010155905050611fc98561244e565b5050505050565b60008082905060006002811115611fe357fe5b84606001516002811115611ff357fe5b1415611ffe5761214d565b6001600281111561200b57fe5b8460600151600281111561201b57fe5b141561212d5760008090505b85600501805490508110801561203d5750600082115b156121275785600501818154811061205157fe5b9060005260206000209060050201600201548560000151141561211a5785600501818154811061207d57fe5b9060005260206000209060050201600401548210156120cd57818660050182815481106120a657fe5b90600052602060002090600502016004016000828254039250508190555060009150612119565b8560050181815481106120dc57fe5b90600052602060002090600502016004015482039150600086600501828154811061210357fe5b9060005260206000209060050201600401819055505b5b8080600101915050612027565b5061214c565b60028081111561213957fe5b8460600151600281111561214957fe5b50505b5b600081149150509392505050565b60008082905060028081111561216d57fe5b8460600151600281111561217d57fe5b14156123bb57600181146121dc576040517f08c379a000000000000000000000000000000000000000000000000000000000815260040180806020018281038252602f815260200180612815602f913960400191505060405180910390fd5b600160038111156121e957fe5b846080015160038111156121f957fe5b141561228757846005018460a0015160000151908060018154018082558091505090600182039060005260206000209060050201600090919290919091506000820151816000016000820151816000015550506020820151816001016000820151816000015550506040820151816002015560608201518160030155608082015181600401555050506123b2565b6002600381111561229457fe5b846080015160038111156122a457fe5b141561231e57846006018460a001516020015190806001815401808255809150509060018203906000526020600020906003020160009091929091909150600082015181600001600082015181600001555050602082015181600101600082015181600001555050604082015181600201555050506123b1565b60038081111561232a57fe5b8460800151600381111561233a57fe5b14156123b057846007018460a001516040015190806001815401808255809150509060018203906000526020600020906003020160009091929091909150600082015181600001600082015181600001555050602082015181600101600082015181600001555050604082015181600201555050505b5b5b60009050612440565b600160028111156123c857fe5b846060015160028111156123d857fe5b141561243f5760008090505b8560050180549050811080156123fa5750600082115b1561243d5785600501818154811061240e57fe5b9060005260206000209060050201600201548560000151141561243057600091505b80806001019150506123e4565b505b5b600081149150509392505050565b50565b6040518061020001604052806000815260200160008152602001600081526020016000600281111561247f57fe5b81526020016000600381111561249157fe5b815260200161249e6125cb565b81525090565b8154818355818111156124d1576003028160030283600052602060002091820191016124d091906125ff565b5b505050565b604051806101200160405280600015158152602001600073ffffffffffffffffffffffffffffffffffffffff168152602001612510612646565b815260200160008152602001606081526020016060815260200160608152602001606081525090565b60405180610160016040528061254d612660565b815260200161255a61269b565b81526020016125676126c8565b81525090565b604051806106400160405280603290602082028038833980820191505090505090565b60405180606001604052806000815260200160608152602001606081525090565b604051806040016040528060008152602001600081525090565b6040518061016001604052806125df612660565b81526020016125ec61269b565b81526020016125f96126c8565b81525090565b61264391905b8082111561263f5760008082016000905560018201600061262691906126f5565b60028201600061263691906126f5565b50600301612605565b5090565b90565b604051806040016040528060008152602001600081525090565b6040518060a00160405280612673612719565b815260200161268061272c565b81526020016000815260200160008152602001600081525090565b60405180606001604052806126ae612719565b81526020016126bb61272c565b8152602001600081525090565b60405180606001604052806126db612719565b81526020016126e861272c565b8152602001600081525090565b5080546000825560020290600052602060002090810190612716919061273f565b50565b6040518060200160405280600081525090565b6040518060200160405280600081525090565b61276b91905b8082111561276757600080820160009055600182016000905550600201612745565b5090565b9056fe52657175697265207468617420736563746f72207265666572656e6365642062792061646472657373206973206f776e6564206279207468652063616c6c6572526571756972652074686174206974656d49642069732077697468696e2072616e6765206f662076616c6964206974656d732e5265717569726520746861742063616c6c6572206b6e6f7720746865206964206f66206974656d206265696e6720616464656452657175697265207468617420706c61636561626c65206172652073746f726564206f6e6520617420612074696d6552657175697265207468617420676976656e20736563746f7220686173206e6f74206265656e20696e697469616c697a6564a165627a7a723058205a4352ab9f599c2fd779a8b35ecc82e2935f863411602558e16705ba0a5c38f50029",
  "source": "pragma solidity ^0.5.0;\n\nimport \"./types/TypesItem.sol\";\nimport \"./types/TypesTransformation.sol\";\nimport \"./types/TypesSector.sol\";\n\nimport \"./ProductionManager.sol\";\n\ncontract Game is\n    TypesItem, TypesTransformation, TypesSector,\n    ProductionManager\n    {\n\n    /**************************************************************\n    Data\n    **************************************************************/\n    mapping (address => Sector) sectors;\n\n    /**************************************************************\n    Public functions   - full\n    **************************************************************/\n\n    /**\n    Native sector is one with the same key address as the caller. If this\n    sector hasn't been annexed or initialized this will do so.\n    */\n    function initializeNativeSector() public {\n        Sector storage nativeSector = sectors[msg.sender];\n        if(!nativeSector.initialized){\n            initializeSector(nativeSector, msg.sender, msg.sender);\n        }\n    }\n\n    /**\n    A primary game function that is called to make a sector's buildings act.\n    */\n    function tickSector(address sectorAddress) public {\n\n\n    }\n\n    /**\n    This function attempts to execute a transformation that was externally\n    called. Intended for building placeable items in a sector.\n    */\n    function manualTransformation(\n        address sectorAddress,\n        uint transformationId\n    )\n    external callerOwnsSector(sectorAddress){\n        proccessTransformation(\n            sectors[sectorAddress],\n            transformations[transformationId]\n        );\n    }\n\n    /**************************************************************\n    Public functions   - view, pure\n    **************************************************************/\n    function getSectorAttributes(address sectorAddress) public view returns (\n        bool initialized,\n        address owner,\n        uint xAngle,\n        uint zAngle\n    ){\n        Sector memory selSector = sectors[sectorAddress];\n\n        return (\n            selSector.initialized,\n            selSector.owner,\n            selSector.cordinates.xAngle,\n            selSector.cordinates.zAngle\n        );\n    }\n\n    function getSectorSilos(address sectorAddress) public view returns (\n        uint[] memory itemIds,\n        uint[] memory itemQuantities\n    ){\n\n        Sector memory selSector = sectors[sectorAddress];\n        uint siloCount = selSector.silos.length;\n\n        itemIds = new uint[](siloCount);\n        itemQuantities = new uint[](siloCount);\n\n        for(uint i = 0; i < selSector.silos.length; i++){\n            itemIds[i] = selSector.silos[i].targetItemId;\n            itemQuantities[i] = selSector.silos[i].curQuantity;\n        }\n\n        return (\n            itemIds,\n            itemQuantities\n        );\n    }\n\n    /**************************************************************\n    Modifiers\n    **************************************************************/\n    modifier callerOwnsSector(address sectorAddress) {\n        require(\n            msg.sender == sectors[sectorAddress].owner,\n            \"Require that sector referenced by address is owned by the caller\"\n        );\n        _;\n    }\n}",
  "sourcePath": "/Users/idanreed/Documents/repos/CryptoGame/contracts/Game.sol",
  "compiler": {
    "name": "solc",
    "version": "0.5.8+commit.23d335f2.Emscripten.clang"
  },
  "schemaVersion": "3.0.16",
  "updatedAt": "2019-11-22T00:24:14.144Z",
  "devdoc": {
    "methods": {}
  },
  "userdoc": {
    "methods": {
      "convertAddressToCordinateTuple(address)": {
        "notice": "************************************************************ Public Views/Pure*************************************************************"
      },
      "getSectorAttributes(address)": {
        "notice": "************************************************************ Public functions   - view, pure*************************************************************"
      },
      "getTransformationProperties(uint256)": {
        "notice": "************************************************************ External functions - view, pure*************************************************************"
      },
      "initializeNativeSector()": {
        "notice": "Native sector is one with the same key address as the caller. If this sector hasn't been annexed or initialized this will do so."
      },
      "manualTransformation(address,uint256)": {
        "notice": "This function attempts to execute a transformation that was externally called. Intended for building placeable items in a sector."
      },
      "tickSector(address)": {
        "notice": "A primary game function that is called to make a sector's buildings act."
      }
    }
  }
}