{
  "contractName": "Game",
  "abi": [
    {
      "constant": true,
      "inputs": [
        {
          "name": "itemId",
          "type": "uint256"
        }
      ],
      "name": "getItemProperties",
      "outputs": [
        {
          "name": "density",
          "type": "uint256"
        },
        {
          "name": "itemType",
          "type": "uint256"
        }
      ],
      "payable": false,
      "stateMutability": "view",
      "type": "function"
    },
    {
      "constant": false,
      "inputs": [],
      "name": "addRecipe",
      "outputs": [],
      "payable": false,
      "stateMutability": "nonpayable",
      "type": "function"
    },
    {
      "constant": false,
      "inputs": [],
      "name": "addExtractorProps",
      "outputs": [],
      "payable": false,
      "stateMutability": "nonpayable",
      "type": "function"
    },
    {
      "constant": false,
      "inputs": [
        {
          "name": "isInput",
          "type": "bool"
        },
        {
          "name": "itemId",
          "type": "uint256"
        },
        {
          "name": "quantity",
          "type": "uint256"
        }
      ],
      "name": "addRecipeElement",
      "outputs": [],
      "payable": false,
      "stateMutability": "nonpayable",
      "type": "function"
    },
    {
      "constant": false,
      "inputs": [
        {
          "name": "density",
          "type": "uint256"
        },
        {
          "name": "itemType",
          "type": "uint256"
        }
      ],
      "name": "addItem",
      "outputs": [],
      "payable": false,
      "stateMutability": "nonpayable",
      "type": "function"
    },
    {
      "constant": true,
      "inputs": [
        {
          "name": "recipeId",
          "type": "uint256"
        }
      ],
      "name": "getRecipeProperties",
      "outputs": [
        {
          "name": "inputItemIds",
          "type": "uint256[]"
        },
        {
          "name": "inputQuantities",
          "type": "uint256[]"
        },
        {
          "name": "outputItemIds",
          "type": "uint256[]"
        },
        {
          "name": "outputQuantities",
          "type": "uint256[]"
        }
      ],
      "payable": false,
      "stateMutability": "view",
      "type": "function"
    },
    {
      "constant": true,
      "inputs": [],
      "name": "getCraftingMapRanges",
      "outputs": [
        {
          "name": "itemCount",
          "type": "uint256"
        },
        {
          "name": "recipeCount",
          "type": "uint256"
        }
      ],
      "payable": false,
      "stateMutability": "view",
      "type": "function"
    },
    {
      "constant": false,
      "inputs": [],
      "name": "initializeNativeSector",
      "outputs": [],
      "payable": false,
      "stateMutability": "nonpayable",
      "type": "function"
    },
    {
      "constant": false,
      "inputs": [
        {
          "name": "sectorAddress",
          "type": "address"
        }
      ],
      "name": "buildPlaceable",
      "outputs": [],
      "payable": false,
      "stateMutability": "nonpayable",
      "type": "function"
    },
    {
      "constant": false,
      "inputs": [
        {
          "name": "sectorAddress",
          "type": "address"
        }
      ],
      "name": "tickSector",
      "outputs": [],
      "payable": false,
      "stateMutability": "nonpayable",
      "type": "function"
    },
    {
      "constant": true,
      "inputs": [
        {
          "name": "addressToConvert",
          "type": "address"
        }
      ],
      "name": "convertAddressToCordinateTuple",
      "outputs": [
        {
          "name": "",
          "type": "uint256"
        },
        {
          "name": "",
          "type": "uint256"
        }
      ],
      "payable": false,
      "stateMutability": "pure",
      "type": "function"
    },
    {
      "constant": true,
      "inputs": [
        {
          "name": "sectorAddress",
          "type": "address"
        }
      ],
      "name": "getSectorAttributes",
      "outputs": [
        {
          "name": "initialized",
          "type": "bool"
        },
        {
          "name": "owner",
          "type": "address"
        },
        {
          "name": "xAngle",
          "type": "uint256"
        },
        {
          "name": "zAngle",
          "type": "uint256"
        }
      ],
      "payable": false,
      "stateMutability": "view",
      "type": "function"
    }
  ],
  "bytecode": "0x608060405234801561001057600080fd5b5061113f806100206000396000f3fe608060405234801561001057600080fd5b50600436106100b45760003560e01c8063ae2c1d3211610071578063ae2c1d32146101d6578063ba2371c51461021a578063e99b61b214610279578063f171eba2146103d4578063f1e3769b146103f9578063f82f6a8814610403576100b4565b80630124d89f146100b957806321ce76de146100fd5780632e46dc9f14610146578063581228ac146101505780636cd59e3e1461015a578063a21252321461019e575b600080fd5b6100fb600480360360208110156100cf57600080fd5b81019080803573ffffffffffffffffffffffffffffffffffffffff1690602001909291905050506104a0565b005b6101296004803603602081101561011357600080fd5b81019080803590602001909291905050506104a3565b604051808381526020018281526020019250505060405180910390f35b61014e610568565b005b610158610583565b005b61019c6004803603606081101561017057600080fd5b810190808035151590602001909291908035906020019092919080359060200190929190505050610585565b005b6101d4600480360360408110156101b457600080fd5b81019080803590602001909291908035906020019092919050505061066b565b005b610218600480360360208110156101ec57600080fd5b81019080803573ffffffffffffffffffffffffffffffffffffffff16906020019092919050505061074d565b005b61025c6004803603602081101561023057600080fd5b81019080803573ffffffffffffffffffffffffffffffffffffffff169060200190929190505050610750565b604051808381526020018281526020019250505060405180910390f35b6102a56004803603602081101561028f57600080fd5b810190808035906020019092919050505061077a565b6040518080602001806020018060200180602001858103855289818151815260200191508051906020019060200280838360005b838110156102f45780820151818401526020810190506102d9565b50505050905001858103845288818151815260200191508051906020019060200280838360005b8381101561033657808201518184015260208101905061031b565b50505050905001858103835287818151815260200191508051906020019060200280838360005b8381101561037857808201518184015260208101905061035d565b50505050905001858103825286818151815260200191508051906020019060200280838360005b838110156103ba57808201518184015260208101905061039f565b505050509050019850505050505050505060405180910390f35b6103dc610aa4565b604051808381526020018281526020019250505060405180910390f35b610401610abb565b005b6104456004803603602081101561041957600080fd5b81019080803573ffffffffffffffffffffffffffffffffffffffff169060200190929190505050610bc0565b60405180851515151581526020018473ffffffffffffffffffffffffffffffffffffffff1673ffffffffffffffffffffffffffffffffffffffff16815260200183815260200182815260200194505050505060405180910390f35b50565b6000806104ae610efe565b600184815481106104bb57fe5b906000526020600020906004020160405180608001604052908160008201548152602001600182015481526020016002820160009054906101000a900460ff16600381111561050657fe5b600381111561051157fe5b815260200160038201604051806020016040529081600082016040518060200160405290816000820154815250508152505081525050905080602001518160400151600381111561055e57fe5b9250925050915091565b60016000818180549050019150816105809190610f37565b50565b565b6000806001600080549050038154811061059b57fe5b906000526020600020906003020190506105b3610f69565b6040518060400160405280858152602001848152509050841561061c578160010181908060018154018082558091505090600182039060005260206000209060020201600090919290919091506000820151816000015560208201518160010155505050610664565b81600201819080600181540180825580915050906001820390600052602060002090600202016000909192909190915060008201518160000155602082015181600101555050505b5050505050565b610673610f83565b61067b610efe565b604051806080016040528060018054905081526020018581526020018460038111156106a357fe5b60038111156106ae57fe5b815260200183815250905060018190806001815401808255809150509060018203906000526020600020906004020160009091929091909150600082015181600001556020820151816001015560408201518160020160006101000a81548160ff0219169083600381111561071f57fe5b0217905550606082015181600301600082015181600001600082015181600001555050505050505050505050565b50565b60008061075b610f9c565b61076484610e9c565b9050806000015181602001519250925050915091565b606080606080610788610fb6565b6000868154811061079557fe5b90600052602060002090600302016040518060600160405290816000820154815260200160018201805480602002602001604051908101604052809291908181526020016000905b82821015610823578382906000526020600020906002020160405180604001604052908160008201548152602001600182015481525050815260200190600101906107dd565b50505050815260200160028201805480602002602001604051908101604052809291908181526020016000905b8282101561089657838290600052602060002090600202016040518060400160405290816000820154815260200160018201548152505081526020019060010190610850565b505050508152505090508060200151516040519080825280602002602001820160405280156108d45781602001602082028038833980820191505090505b50945080602001515160405190808252806020026020018201604052801561090b5781602001602082028038833980820191505090505b5093508060400151516040519080825280602002602001820160405280156109425781602001602082028038833980820191505090505b5092508060400151516040519080825280602002602001820160405280156109795781602001602082028038833980820191505090505b50915060008090505b81602001515160001015610a0557816020015181815181106109a057fe5b6020026020010151600001518682815181106109b857fe5b602002602001018181525050816020015181815181106109d457fe5b6020026020010151602001518582815181106109ec57fe5b6020026020010181815250508080600101915050610982565b5060008090505b81604001515160001015610a8f5781604001518181518110610a2a57fe5b602002602001015160000151848281518110610a4257fe5b60200260200101818152505081604001518181518110610a5e57fe5b602002602001015160200151838281518110610a7657fe5b6020026020010181815250508080600101915050610a0c565b50848484849450945094509450509193509193565b600080600180549050600080549050915091509091565b6000600260003373ffffffffffffffffffffffffffffffffffffffff1673ffffffffffffffffffffffffffffffffffffffff16815260200190815260200160002090508060000160009054906101000a900460ff16610bbd5760018160000160006101000a81548160ff021916908315150217905550338160000160016101000a81548173ffffffffffffffffffffffffffffffffffffffff021916908373ffffffffffffffffffffffffffffffffffffffff160217905550610ba18160000160019054906101000a900473ffffffffffffffffffffffffffffffffffffffff16610e9c565b8160010160008201518160000155602082015181600101559050505b50565b600080600080610bce610fd7565b600260008773ffffffffffffffffffffffffffffffffffffffff1673ffffffffffffffffffffffffffffffffffffffff1681526020019081526020016000206040518060e00160405290816000820160009054906101000a900460ff161515151581526020016000820160019054906101000a900473ffffffffffffffffffffffffffffffffffffffff1673ffffffffffffffffffffffffffffffffffffffff1673ffffffffffffffffffffffffffffffffffffffff168152602001600182016040518060400160405290816000820154815260200160018201548152505081526020016003820154815260200160048201805480602002602001604051908101604052809291908181526020016000905b82821015610d4e5783829060005260206000209060040201604051806060016040529081600082016040518060400160405290816000820154815260200160018201548152505081526020016002820154815260200160038201548152505081526020019060010190610ce0565b50505050815260200160058201805480602002602001604051908101604052809291908181526020016000905b82821015610dd5578382906000526020600020906002020160405180602001604052908160008201604051806040016040529081600082015481526020016001820154815250508152505081526020019060010190610d7b565b50505050815260200160068201805480602002602001604051908101604052809291908181526020016000905b82821015610e6657838290600052602060002090600302016040518060400160405290816000820160405180604001604052908160008201548152602001600182015481525050815260200160028201548152505081526020019060010190610e02565b50505050815250509050806000015181602001518260400151600001518360400151602001519450945094509450509193509193565b610ea4610f9c565b610eac610f9c565b600069ffffffffffffffffffff905060008473ffffffffffffffffffffffffffffffffffffffff169050605082198216901c836000018181525050818116836020018181525050829350505050919050565b6040518060800160405280600081526020016000815260200160006003811115610f2457fe5b8152602001610f31611033565b81525090565b815481835581811115610f6457600302816003028360005260206000209182019101610f63919061104c565b5b505050565b604051806040016040528060008152602001600081525090565b6040518060200160405280610f96611093565b81525090565b604051806040016040528060008152602001600081525090565b60405180606001604052806000815260200160608152602001606081525090565b604051806101000160405280600015158152602001600073ffffffffffffffffffffffffffffffffffffffff1681526020016110116110a6565b8152602001600081526020016060815260200160608152602001606081525090565b6040518060200160405280611046611093565b81525090565b61109091905b8082111561108c5760008082016000905560018201600061107391906110c0565b60028201600061108391906110c0565b50600301611052565b5090565b90565b6040518060200160405280600081525090565b604051806040016040528060008152602001600081525090565b50805460008255600202906000526020600020908101906110e191906110e4565b50565b61111091905b8082111561110c576000808201600090556001820160009055506002016110ea565b5090565b9056fea165627a7a72305820166d011ca44ec2b8d5e765bdbe7464c7dc9d471b8bf49e9c8184176257aef90e0029",
  "source": "pragma solidity ^0.5.0;\r\n\r\nimport \"./ItemTypes.sol\";\r\nimport \"./RecipeTypes.sol\";\r\nimport \"./CraftingManager.sol\";\r\n\r\ncontract Game is ItemTypes, RecipeTypes, CraftingManager{\r\n\r\n    /**************************************************************\r\n    Sector\r\n    **************************************************************/\r\n    struct SectorPlaceable {\r\n        uint itemId;\r\n\r\n        uint spaceRequired;\r\n    }\r\n\r\n    /**************************************************************\r\n    Silo\r\n    **************************************************************/\r\n    struct Silo {\r\n        SectorPlaceable placeableData;\r\n\r\n        uint itemId;\r\n        uint quantity;\r\n    }\r\n\r\n    /**************************************************************\r\n    Extractor\r\n    **************************************************************/\r\n    struct Extractor {\r\n        SectorPlaceable placeableData;\r\n\r\n    }\r\n\r\n    /**************************************************************\r\n    Extractor\r\n    **************************************************************/\r\n    struct Factory {\r\n        SectorPlaceable placeableData;\r\n\r\n        uint targetRecipe;\r\n    }\r\n\r\n    /**************************************************************\r\n    World\r\n    **************************************************************/\r\n    struct SphereCordinate{\r\n        uint xAngle; /* address bits from 160 to 80 */\r\n        uint zAngle; /* address bits from 80 to 0   */\r\n    }\r\n\r\n    struct Sector {\r\n        bool initialized;\r\n\r\n        address owner;\r\n        SphereCordinate cordinates;\r\n        uint lastTickBlock;\r\n\r\n        /* Placeables       */\r\n        Silo[] silos;\r\n        Extractor[] extractors;\r\n        Factory[] factories;\r\n    }\r\n\r\n    mapping (address => Sector) sectors;\r\n\r\n    function convertAddressToCordinate(address addressToConvert) private pure returns (SphereCordinate memory) {\r\n        SphereCordinate memory cords;\r\n        uint rightMask = (1 << 80) - 1;\r\n        uint addressCasted = uint(addressToConvert);\r\n\r\n        cords.xAngle = (addressCasted & ~rightMask) >> 80;\r\n        cords.zAngle = addressCasted & rightMask;\r\n        return cords;\r\n    }\r\n\r\n    // function tickExtractor(address sectorAddress, uint extractorIndex) public {\r\n    //     Sector storage selSector = sectors[sectorAddress];\r\n\r\n    //     if(\r\n    //         selSector.initialized &&\r\n    //         selSector.owner == msg.sender &&\r\n    //         extractorIndex < selSector.extractors.length\r\n    //         ) {\r\n\r\n    //         //Extractor storage selExtractor = selSector.extractors[extractorIndex];\r\n    //     }\r\n    // }\r\n\r\n    /**************************************************************\r\n    Public ABI\r\n    **************************************************************/\r\n    function initializeNativeSector() public {\r\n        Sector storage nativeSector = sectors[msg.sender];\r\n\r\n        if (!nativeSector.initialized) {\r\n            nativeSector.initialized = true;\r\n            nativeSector.owner = msg.sender;\r\n            nativeSector.cordinates = convertAddressToCordinate(nativeSector.owner);\r\n        }\r\n    }\r\n\r\n    function buildPlaceable(address sectorAddress) public {\r\n\r\n    }\r\n\r\n    function tickSector(address sectorAddress) public {\r\n\r\n    }\r\n\r\n    /**************************************************************\r\n    Public Views/Pure\r\n    **************************************************************/\r\n    function convertAddressToCordinateTuple(address addressToConvert) public pure returns (uint, uint){\r\n        SphereCordinate memory cords = convertAddressToCordinate(addressToConvert);\r\n        return (cords.xAngle, cords.zAngle);\r\n    }\r\n\r\n    function getSectorAttributes(address sectorAddress) public view returns (\r\n        bool initialized,\r\n        address owner,\r\n        uint xAngle,\r\n        uint zAngle ){\r\n\r\n        Sector memory selSector = sectors[sectorAddress];\r\n\r\n        return (\r\n            selSector.initialized,\r\n            selSector.owner,\r\n            selSector.cordinates.xAngle,\r\n            selSector.cordinates.zAngle\r\n        );\r\n    }\r\n\r\n}",
  "sourcePath": "A:/repos/crypto_game/contracts/Game.sol",
  "compiler": {
    "name": "solc",
    "version": "0.5.8+commit.23d335f2.Emscripten.clang"
  },
  "schemaVersion": "3.0.14",
  "updatedAt": "2019-10-21T05:13:09.502Z",
  "devdoc": {
    "methods": {}
  },
  "userdoc": {
    "methods": {
      "addItem(uint256,uint256)": {
        "notice": "************************************************************\r Recipe/item map loading\r*************************************************************"
      },
      "convertAddressToCordinateTuple(address)": {
        "notice": "************************************************************\r Public Views/Pure\r*************************************************************"
      },
      "getRecipeProperties(uint256)": {
        "notice": "************************************************************\r Public pure/views\r*************************************************************"
      },
      "initializeNativeSector()": {
        "notice": "************************************************************\r Public ABI\r*************************************************************"
      }
    }
  }
}