{
  "contractName": "NodeStatus",
  "abi": [
    {
      "constant": true,
      "inputs": [
        {
          "name": "",
          "type": "uint256"
        }
      ],
      "name": "activeNodes",
      "outputs": [
        {
          "name": "",
          "type": "address"
        }
      ],
      "payable": false,
      "stateMutability": "view",
      "type": "function"
    },
    {
      "inputs": [],
      "payable": false,
      "stateMutability": "nonpayable",
      "type": "constructor"
    },
    {
      "constant": false,
      "inputs": [],
      "name": "storeETH",
      "outputs": [],
      "payable": true,
      "stateMutability": "payable",
      "type": "function"
    },
    {
      "constant": true,
      "inputs": [
        {
          "name": "requestedAddress",
          "type": "address"
        }
      ],
      "name": "getNodeCash",
      "outputs": [
        {
          "name": "",
          "type": "uint256"
        }
      ],
      "payable": false,
      "stateMutability": "view",
      "type": "function"
    }
  ],
  "bytecode": "0x608060405234801561001057600080fd5b50610227806100206000396000f3fe6080604052600436106100345760003560e01c806350f4377b1461003957806396f9d9831461009e578063f1ad333414610119575b600080fd5b34801561004557600080fd5b506100886004803603602081101561005c57600080fd5b81019080803573ffffffffffffffffffffffffffffffffffffffff169060200190929190505050610123565b6040518082815260200191505060405180910390f35b3480156100aa57600080fd5b506100d7600480360360208110156100c157600080fd5b810190808035906020019092919050505061016e565b604051808273ffffffffffffffffffffffffffffffffffffffff1673ffffffffffffffffffffffffffffffffffffffff16815260200191505060405180910390f35b6101216101aa565b005b60008060008373ffffffffffffffffffffffffffffffffffffffff1673ffffffffffffffffffffffffffffffffffffffff168152602001908152602001600020600101549050919050565b6001818154811061017b57fe5b906000526020600020016000915054906101000a900473ffffffffffffffffffffffffffffffffffffffff1681565b346000803373ffffffffffffffffffffffffffffffffffffffff1673ffffffffffffffffffffffffffffffffffffffff1681526020019081526020016000206001016000828254019250508190555056fea165627a7a7230582055cdca94a4306adf97424544d5a239c1baf916e1bc296732ddfa2a7ab1d40c500029",
  "source": "pragma solidity ^0.5.0;\r\n\r\ncontract NodeStatus {\r\n\r\n    struct NodeData {\r\n        bool active;\r\n        uint cash;\r\n    }\r\n\r\n    mapping (address => NodeData) allNodes;\r\n    address[] public activeNodes;\r\n\r\n    constructor() public {\r\n\r\n    }\r\n\r\n    function storeETH() public payable {\r\n        allNodes[msg.sender].cash += msg.value;\r\n    }\r\n\r\n    function getNodeCash(address requestedAddress) public view returns (uint){\r\n        return allNodes[requestedAddress].cash;\r\n    }\r\n}\r\n",
  "sourcePath": "A:/repos/crypto_game/contracts/Game.sol",
  "compiler": {
    "name": "solc",
    "version": "0.5.8+commit.23d335f2.Emscripten.clang"
  },
  "schemaVersion": "3.0.14",
  "updatedAt": "2019-09-08T15:23:20.038Z",
  "devdoc": {
    "methods": {}
  },
  "userdoc": {
    "methods": {}
  }
}