{
  "contractName": "NodeState",
  "abi": [
    {
      "inputs": [],
      "payable": false,
      "stateMutability": "nonpayable",
      "type": "constructor"
    },
    {
      "constant": false,
      "inputs": [],
      "name": "initializeNativeSector",
      "outputs": [],
      "payable": false,
      "stateMutability": "nonpayable",
      "type": "function"
    },
    {
      "constant": false,
      "inputs": [],
      "name": "mine",
      "outputs": [],
      "payable": false,
      "stateMutability": "nonpayable",
      "type": "function"
    },
    {
      "constant": false,
      "inputs": [
        {
          "name": "sector",
          "type": "address"
        },
        {
          "name": "siloIndex",
          "type": "uint256"
        },
        {
          "name": "value",
          "type": "uint256"
        }
      ],
      "name": "testFillSilo",
      "outputs": [],
      "payable": false,
      "stateMutability": "nonpayable",
      "type": "function"
    }
  ],
  "bytecode": "0x608060405260ff60035534801561001557600080fd5b50610205806100256000396000f3fe608060405234801561001057600080fd5b50600436106100415760003560e01c806399f4b25114610046578063b240e0b514610050578063f1e3769b146100a8575b600080fd5b61004e6100b2565b005b6100a66004803603606081101561006657600080fd5b81019080803573ffffffffffffffffffffffffffffffffffffffff16906020019092919080359060200190929190803590602001909291905050506100b4565b005b6100b061011c565b005b565b80600460008573ffffffffffffffffffffffffffffffffffffffff1673ffffffffffffffffffffffffffffffffffffffff168152602001908152602001600020600301838154811061010257fe5b906000526020600020906004020160030181905550505050565b6000600460003373ffffffffffffffffffffffffffffffffffffffff1673ffffffffffffffffffffffffffffffffffffffff16815260200190815260200160002090508060000160009054906101000a900460ff166101d65760018160000160006101000a81548160ff021916908315150217905550338160000160016101000a81548173ffffffffffffffffffffffffffffffffffffffff021916908373ffffffffffffffffffffffffffffffffffffffff1602179055505b5056fea165627a7a72305820594078a18e89f870ac9edc98064b11d75b82eb45696723c6159b95c8bdd32edc0029",
  "source": "pragma solidity ^0.5.0;\r\n\r\ncontract NodeState {\r\n    constructor() public { }\r\n\r\n    /**************************************************************\r\n    Non-placeable types\r\n    **************************************************************/\r\n    enum ReasourceType {Natural, AttackPower, Component}\r\n\r\n    struct NaturalReasourceType {\r\n        uint extractionDifficulty;\r\n    }\r\n    uint constant NATURAL_REASOURCE_TYPE_CAP = 1;\r\n    NaturalReasourceType[NATURAL_REASOURCE_TYPE_CAP] naturalReasourcesTypes;\r\n\r\n    /**************************************************************\r\n    Sector\r\n    **************************************************************/\r\n    struct SectorPlaceable {\r\n        uint8 spaceRequired;\r\n    }\r\n\r\n    /**************************************************************\r\n    Silo\r\n    **************************************************************/\r\n    struct SiloType{\r\n        ReasourceType storageType;\r\n    }\r\n    uint constant SILO_TYPE_CAP = 1;\r\n    SiloType[SILO_TYPE_CAP] siloTypes;\r\n\r\n    struct Silo {\r\n        SectorPlaceable placeableData;\r\n        uint siloTypeId;\r\n\r\n        uint reasourceId;\r\n        uint value;\r\n    }\r\n\r\n    /**************************************************************\r\n    Extractor\r\n    **************************************************************/\r\n    struct ExtractorType{\r\n        uint rate;\r\n    }\r\n    uint constant EXTRACTOR_TYPE_CAP = 1;\r\n    ExtractorType[EXTRACTOR_TYPE_CAP] extractorTypes;\r\n\r\n    struct Extractor {\r\n        SectorPlaceable placeableData;\r\n        uint extractorTypeId;\r\n\r\n        NaturalReasourceType reasourceType;\r\n        uint rate;\r\n    }\r\n\r\n\r\n\r\n\r\n    /**************************************************************\r\n    World\r\n    **************************************************************/\r\n    struct SphereCordinate{\r\n        uint xAngle; /* address bits from 160 to 80 */\r\n        uint zAngle; /* address bits from 80 to 0 */\r\n    }\r\n    uint testval = 0xff;\r\n\r\n    struct Sector {\r\n        bool initialized;\r\n\r\n        address owner;\r\n        SphereCordinate cords;\r\n\r\n        /* Placeables */\r\n        Silo[] silos;\r\n        Extractor[] extractors;\r\n    }\r\n\r\n    mapping (address => Sector) sectors;\r\n\r\n    function convertAddressToCordinate(address addr) private pure returns (SphereCordinate memory) {\r\n        SphereCordinate memory cords;\r\n        uint rightMask = (1 << 80);\r\n        uint leftMask = ~rightMask;\r\n        uint addrCasted = uint(addr);\r\n\r\n        cords.xAngle = addrCasted & rightMask;\r\n        cords.zAngle = (addrCasted & leftMask) >> 80;\r\n        return cords;\r\n    }\r\n\r\n    /**************************************************************\r\n    Public API\r\n    **************************************************************/\r\n    function initializeNativeSector() public {\r\n        Sector storage nativeSector = sectors[msg.sender];\r\n\r\n        if (!nativeSector.initialized) {\r\n            nativeSector.initialized = true;\r\n            nativeSector.owner = msg.sender;\r\n        }\r\n    }\r\n\r\n    function mine() public {\r\n\r\n    }\r\n\r\n    function testFillSilo(address sector, uint siloIndex, uint value) public {\r\n        sectors[sector].silos[siloIndex].value = value;\r\n    }\r\n}",
  "sourcePath": "A:/repos/crypto_game/contracts/NodeState.sol",
  "compiler": {
    "name": "solc",
    "version": "0.5.8+commit.23d335f2.Emscripten.clang"
  },
  "schemaVersion": "3.0.14",
  "updatedAt": "2019-09-12T00:46:45.147Z",
  "devdoc": {
    "methods": {}
  },
  "userdoc": {
    "methods": {
      "initializeNativeSector()": {
        "notice": "************************************************************\r Public API\r*************************************************************"
      }
    }
  }
}