{
  "contractName": "ProductionMap",
  "abi": [
    {
      "constant": true,
      "inputs": [
        {
          "name": "addressToConvert",
          "type": "address"
        }
      ],
      "name": "convertAddressToCordinateTuple",
      "outputs": [
        {
          "name": "xAngle",
          "type": "uint256"
        },
        {
          "name": "zAngle",
          "type": "uint256"
        }
      ],
      "payable": false,
      "stateMutability": "pure",
      "type": "function"
    },
    {
      "constant": false,
      "inputs": [
        {
          "name": "density",
          "type": "uint256"
        },
        {
          "name": "itemType",
          "type": "uint256"
        }
      ],
      "name": "addItem",
      "outputs": [],
      "payable": false,
      "stateMutability": "nonpayable",
      "type": "function"
    },
    {
      "constant": false,
      "inputs": [],
      "name": "addExtractorProps",
      "outputs": [],
      "payable": false,
      "stateMutability": "nonpayable",
      "type": "function"
    },
    {
      "constant": false,
      "inputs": [],
      "name": "addTransformation",
      "outputs": [],
      "payable": false,
      "stateMutability": "nonpayable",
      "type": "function"
    },
    {
      "constant": false,
      "inputs": [
        {
          "name": "isInput",
          "type": "bool"
        },
        {
          "name": "itemId",
          "type": "uint256"
        },
        {
          "name": "quantity",
          "type": "uint256"
        }
      ],
      "name": "addTransformationElement",
      "outputs": [],
      "payable": false,
      "stateMutability": "nonpayable",
      "type": "function"
    }
  ],
  "bytecode": "0x608060405234801561001057600080fd5b5061050b806100206000396000f3fe608060405234801561001057600080fd5b50600436106100575760003560e01c8063352c1c1f1461005c578063581228ac14610066578063a212523214610070578063ba2371c5146100a8578063d5bbd77914610107575b600080fd5b61006461014b565b005b61006e610166565b005b6100a66004803603604081101561008657600080fd5b810190808035906020019092919080359060200190929190505050610168565b005b6100ea600480360360208110156100be57600080fd5b81019080803573ffffffffffffffffffffffffffffffffffffffff16906020019092919050505061024c565b604051808381526020018281526020019250505060405180910390f35b6101496004803603606081101561011d57600080fd5b810190808035151590602001909291908035906020019092919080359060200190929190505050610295565b005b6001600081818054905001915081610163919061037b565b50565b565b6101706103ad565b6101786103c6565b6040518060800160405280600180805490500381526020018581526020018460038111156101a257fe5b60038111156101ad57fe5b815260200183815250905060018190806001815401808255809150509060018203906000526020600020906004020160009091929091909150600082015181600001556020820151816001015560408201518160020160006101000a81548160ff0219169083600381111561021e57fe5b0217905550606082015181600301600082015181600001600082015181600001555050505050505050505050565b600080600069ffffffffffffffffffff905060008473ffffffffffffffffffffffffffffffffffffffff169050605082198216901c935081811692508383935093505050915091565b600080600160008054905003815481106102ab57fe5b906000526020600020906003020190506102c36103ff565b6040518060400160405280858152602001848152509050841561032c578160010181908060018154018082558091505090600182039060005260206000209060020201600090919290919091506000820151816000015560208201518160010155505050610374565b81600201819080600181540180825580915050906001820390600052602060002090600202016000909192909190915060008201518160000155602082015181600101555050505b5050505050565b8154818355818111156103a8576003028160030283600052602060002091820191016103a79190610419565b5b505050565b60405180602001604052806103c0610460565b81525090565b60405180608001604052806000815260200160008152602001600060038111156103ec57fe5b81526020016103f9610473565b81525090565b604051806040016040528060008152602001600081525090565b61045d91905b8082111561045957600080820160009055600182016000610440919061048c565b600282016000610450919061048c565b5060030161041f565b5090565b90565b6040518060200160405280600081525090565b6040518060200160405280610486610460565b81525090565b50805460008255600202906000526020600020908101906104ad91906104b0565b50565b6104dc91905b808211156104d8576000808201600090556001820160009055506002016104b6565b5090565b9056fea165627a7a72305820bed49ceedb820f8b9c0d33658fe0527f9d447f9d75c0ccb44832433de62c2c880029",
  "source": "pragma solidity ^0.5.0;\r\n\r\nimport \"./types/TypesSector.sol\";\r\nimport \"./types/TypesItem.sol\";\r\nimport \"./types/TypesTransformation.sol\";\r\n\r\n/**\r\nProductionMap contract:\r\n    stores all possible production transformations and items\r\n*/\r\ncontract ProductionMap is\r\n    TypesItem, TypesTransformation, TypesSector\r\n    {\r\n\r\n    Transformation[] transformations;\r\n    ItemProperties[] items;\r\n\r\n    /**************************************************************\r\n    Item loading\r\n    **************************************************************/\r\n    function addItem(uint density, uint itemType) external {\r\n        OptionalItemProperties memory itemPropsOptional;\r\n\r\n        ItemProperties memory itemProps = ItemProperties(\r\n            items.length - 1,\r\n            density,\r\n            ItemType(itemType),\r\n            itemPropsOptional\r\n        );\r\n        items.push(itemProps);\r\n    }\r\n    function addExtractorProps() external {\r\n\r\n    }\r\n\r\n    /**************************************************************\r\n    Transformation loading\r\n    **************************************************************/\r\n    function addTransformation() external {\r\n        transformations.length += 1;\r\n    }\r\n    function addTransformationElement(bool isInput, uint itemId, uint quantity) external {\r\n\r\n        Transformation storage transformation = transformations[transformations.length - 1];\r\n        TransformationElement memory element = TransformationElement(itemId, quantity);\r\n    \r\n        if(isInput) {\r\n            transformation.inputs.push(element);\r\n        }else{\r\n            transformation.outputs.push(element);\r\n        }\r\n    }\r\n}",
  "sourcePath": "A:\\repos\\crypto_game\\contracts\\ProductionMap.sol",
  "compiler": {
    "name": "solc",
    "version": "0.5.8+commit.23d335f2.Emscripten.clang"
  },
  "schemaVersion": "3.0.14",
  "updatedAt": "2019-11-13T21:06:49.452Z",
  "devdoc": {
    "methods": {}
  },
  "userdoc": {
    "methods": {
      "addItem(uint256,uint256)": {
        "notice": "************************************************************\r Item loading\r*************************************************************"
      },
      "addTransformation()": {
        "notice": "************************************************************\r Transformation loading\r*************************************************************"
      },
      "convertAddressToCordinateTuple(address)": {
        "notice": "************************************************************\r Public Views/Pure\r*************************************************************"
      }
    },
    "notice": "ProductionMap contract:\r stores all possible production transformations and items\r"
  }
}