{
  "contractName": "ProductionManager",
  "abi": [
    {
      "constant": false,
      "inputs": [
        {
          "name": "targetTransformationId",
          "type": "uint256"
        }
      ],
      "name": "addAssemblerProperties",
      "outputs": [],
      "payable": false,
      "stateMutability": "nonpayable",
      "type": "function"
    },
    {
      "constant": false,
      "inputs": [
        {
          "name": "itemId",
          "type": "uint256"
        },
        {
          "name": "itemType",
          "type": "uint256"
        },
        {
          "name": "itemSubType",
          "type": "uint256"
        }
      ],
      "name": "addItem",
      "outputs": [],
      "payable": false,
      "stateMutability": "nonpayable",
      "type": "function"
    },
    {
      "constant": false,
      "inputs": [
        {
          "name": "targetItemId",
          "type": "uint256"
        },
        {
          "name": "maxQuantity",
          "type": "uint256"
        }
      ],
      "name": "addSiloProperties",
      "outputs": [],
      "payable": false,
      "stateMutability": "nonpayable",
      "type": "function"
    },
    {
      "constant": false,
      "inputs": [
        {
          "name": "transformationId",
          "type": "uint256"
        }
      ],
      "name": "addTransformation",
      "outputs": [],
      "payable": false,
      "stateMutability": "nonpayable",
      "type": "function"
    },
    {
      "constant": true,
      "inputs": [
        {
          "name": "addressToConvert",
          "type": "address"
        }
      ],
      "name": "convertAddressToCordinateTuple",
      "outputs": [
        {
          "name": "xAngle",
          "type": "uint256"
        },
        {
          "name": "zAngle",
          "type": "uint256"
        }
      ],
      "payable": false,
      "stateMutability": "pure",
      "type": "function"
    },
    {
      "constant": false,
      "inputs": [
        {
          "name": "targetTransformationId",
          "type": "uint256"
        }
      ],
      "name": "addExtractorProperties",
      "outputs": [],
      "payable": false,
      "stateMutability": "nonpayable",
      "type": "function"
    },
    {
      "constant": false,
      "inputs": [
        {
          "name": "isInput",
          "type": "bool"
        },
        {
          "name": "itemId",
          "type": "uint256"
        },
        {
          "name": "quantity",
          "type": "uint256"
        }
      ],
      "name": "addTransformationElement",
      "outputs": [],
      "payable": false,
      "stateMutability": "nonpayable",
      "type": "function"
    },
    {
      "constant": true,
      "inputs": [
        {
          "name": "transformationId",
          "type": "uint256"
        }
      ],
      "name": "getTransformationProperties",
      "outputs": [
        {
          "name": "inputCounts",
          "type": "uint256"
        },
        {
          "name": "inputItemIds",
          "type": "uint256[50]"
        },
        {
          "name": "inputQuantities",
          "type": "uint256[50]"
        },
        {
          "name": "outputCounts",
          "type": "uint256"
        },
        {
          "name": "outputItemIds",
          "type": "uint256[50]"
        },
        {
          "name": "outputQuantities",
          "type": "uint256[50]"
        }
      ],
      "payable": false,
      "stateMutability": "view",
      "type": "function"
    },
    {
      "constant": true,
      "inputs": [
        {
          "name": "itemId",
          "type": "uint256"
        }
      ],
      "name": "getItemProperties",
      "outputs": [
        {
          "name": "itemType",
          "type": "uint256"
        }
      ],
      "payable": false,
      "stateMutability": "view",
      "type": "function"
    },
    {
      "constant": true,
      "inputs": [],
      "name": "getProductionMapRanges",
      "outputs": [
        {
          "name": "itemCount",
          "type": "uint256"
        },
        {
          "name": "transformationCount",
          "type": "uint256"
        }
      ],
      "payable": false,
      "stateMutability": "view",
      "type": "function"
    }
  ],
  "bytecode": "0x608060405234801561001057600080fd5b50611264806100206000396000f3fe608060405234801561001057600080fd5b506004361061009e5760003560e01c806386f5ffde1161006657806386f5ffde146102925780639fab11c4146102b7578063ba2371c5146102e5578063ba52d77f14610344578063d5bbd779146103725761009e565b806321ce76de146100a3578063724c2551146100e5578063798a712a146101135780637abe28d3146101555780637b0ed1221461018d575b600080fd5b6100cf600480360360208110156100b957600080fd5b81019080803590602001909291905050506103b6565b6040518082815260200191505060405180910390f35b610111600480360360208110156100fb57600080fd5b8101908080359060200190929190505050610666565b005b6101536004803603606081101561012957600080fd5b810190808035906020019092919080359060200190929190803590602001909291905050506106b2565b005b61018b6004803603604081101561016b57600080fd5b810190808035906020019092919080359060200190929190505050610a24565b005b6101b9600480360360208110156101a357600080fd5b8101908080359060200190929190505050610a7a565b6040518087815260200186603260200280838360005b838110156101ea5780820151818401526020810190506101cf565b5050505090500185603260200280838360005b838110156102185780820151818401526020810190506101fd565b5050505090500184815260200183603260200280838360005b8381101561024c578082015181840152602081019050610231565b5050505090500182603260200280838360005b8381101561027a57808201518184015260208101905061025f565b50505050905001965050505050505060405180910390f35b61029a610cea565b604051808381526020018281526020019250505060405180910390f35b6102e3600480360360208110156102cd57600080fd5b8101908080359060200190929190505050610d01565b005b610327600480360360208110156102fb57600080fd5b81019080803573ffffffffffffffffffffffffffffffffffffffff169060200190929190505050610d7a565b604051808381526020018281526020019250505060405180910390f35b6103706004803603602081101561035a57600080fd5b8101908080359060200190929190505050610dc3565b005b6103b46004803603606081101561038857600080fd5b810190808035151590602001909291908035906020019092919080359060200190929190505050610e0f565b005b60006001805490508210610415576040517f08c379a00000000000000000000000000000000000000000000000000000000081526004018080602001828103825260338152602001806111d36033913960400191505060405180910390fd5b61041d610f04565b6001838154811061042a57fe5b90600052602060002090600f0201604051806101000160405290816000820154815260200160018201548152602001600282015481526020016003820160009054906101000a900460ff16600281111561048057fe5b600281111561048b57fe5b81526020016003820160019054906101000a900460ff1660018111156104ad57fe5b60018111156104b857fe5b81526020016003820160029054906101000a900460ff1660018111156104da57fe5b60018111156104e557fe5b81526020016003820160039054906101000a900460ff16600381111561050757fe5b600381111561051257fe5b815260200160048201604051806060016040529081600082016040518060a00160405290816000820160405180602001604052908160008201548152505081526020016001820160405180602001604052908160008201548152505081526020016002820154815260200160038201548152602001600482015481525050815260200160058201604051806060016040529081600082016040518060200160405290816000820154815250508152602001600182016040518060200160405290816000820154815250508152602001600282015481525050815260200160088201604051806060016040529081600082016040518060200160405290816000820154815250508152602001600182016040518060200160405290816000820154815250508152602001600282015481525050815250508152505090508060600151600281111561065e57fe5b915050919050565b60006001610672610ef5565b8154811061067c57fe5b90600052602060002090600f0201600401600801905061069a610ef5565b81600001600001819055508181600201819055505050565b826001805490501461070f576040517f08c379a00000000000000000000000000000000000000000000000000000000081526004018080602001828103825260338152602001806112066033913960400191505060405180910390fd5b610717610f04565b60018054905081600001818152505082600281111561073257fe5b8160600190600281111561074257fe5b9081600281111561074f57fe5b815250506000600281111561076057fe5b8160600151600281111561077057fe5b14156107a85781600181111561078257fe5b8160800190600181111561079257fe5b9081600181111561079f57fe5b8152505061084f565b600160028111156107b557fe5b816060015160028111156107c557fe5b14156107fd578160018111156107d757fe5b8160a0019060018111156107e757fe5b908160018111156107f457fe5b8152505061084e565b60028081111561080957fe5b8160600151600281111561081957fe5b141561084d5781600381111561082b57fe5b8160c00190600381111561083b57fe5b9081600381111561084857fe5b815250505b5b5b6001819080600181540180825580915050906001820390600052602060002090600f02016000909192909190915060008201518160000155602082015181600101556040820151816002015560608201518160030160006101000a81548160ff021916908360028111156108bf57fe5b021790555060808201518160030160016101000a81548160ff021916908360018111156108e857fe5b021790555060a08201518160030160026101000a81548160ff0219169083600181111561091157fe5b021790555060c08201518160030160036101000a81548160ff0219169083600381111561093a57fe5b021790555060e0820151816004016000820151816000016000820151816000016000820151816000015550506020820151816001016000820151816000015550506040820151816002015560608201518160030155608082015181600401555050602082015181600501600082015181600001600082015181600001555050602082015181600101600082015181600001555050604082015181600201555050604082015181600801600082015181600001600082015181600001555050602082015181600101600082015181600001555050604082015181600201555050505050505050505050565b60006001610a30610ef5565b81548110610a3a57fe5b90600052602060002090600f02016004016000019050610a58610ef5565b8160000160000181905550828160020181905550818160030181905550505050565b6000610a84610f7b565b610a8c610f7b565b6000610a96610f7b565b610a9e610f7b565b610aa6610f9e565b60008881548110610ab357fe5b90600052602060002090600302016040518060600160405290816000820154815260200160018201805480602002602001604051908101604052809291908181526020016000905b82821015610b4157838290600052602060002090600202016040518060400160405290816000820154815260200160018201548152505081526020019060010190610afb565b50505050815260200160028201805480602002602001604051908101604052809291908181526020016000905b82821015610bb457838290600052602060002090600202016040518060400160405290816000820154815260200160018201548152505081526020019060010190610b6e565b5050505081525050905060008090505b816020015151811015610c405781602001518181518110610be157fe5b602002602001015160000151878260328110610bf957fe5b60200201818152505081602001518181518110610c1257fe5b602002602001015160200151868260328110610c2a57fe5b6020020181815250508080600101915050610bc4565b5060008090505b816040015151811015610cc35781604001518181518110610c6457fe5b602002602001015160000151848260328110610c7c57fe5b60200201818152505081604001518181518110610c9557fe5b602002602001015160200151838260328110610cad57fe5b6020020181815250508080600101915050610c47565b50806020015151868683604001515186869650965096509650965096505091939550919395565b600080600180549050600080549050915091509091565b8060008054905014610d5e576040517f08c379a000000000000000000000000000000000000000000000000000000000815260040180806020018281038252603e815260200180611195603e913960400191505060405180910390fd5b6001600081818054905001915081610d769190610fbf565b5050565b600080600069ffffffffffffffffffff905060008473ffffffffffffffffffffffffffffffffffffffff169050605082198216901c935081811692508383935093505050915091565b60006001610dcf610ef5565b81548110610dd957fe5b90600052602060002090600f02016004016005019050610df7610ef5565b81600001600001819055508181600201819055505050565b60008060016000805490500381548110610e2557fe5b90600052602060002090600302019050610e3d610ff1565b60405180604001604052808581526020018481525090508415610ea6578160010181908060018154018082558091505090600182039060005260206000209060020201600090919290919091506000820151816000015560208201518160010155505050610eee565b81600201819080600181540180825580915050906001820390600052602060002090600202016000909192909190915060008201518160000155602082015181600101555050505b5050505050565b60006001808054905003905090565b60405180610240016040528060008152602001600081526020016000815260200160006002811115610f3257fe5b815260200160006001811115610f4457fe5b815260200160006001811115610f5657fe5b815260200160006003811115610f6857fe5b8152602001610f7561100b565b81525090565b604051806106400160405280603290602082028038833980820191505090505090565b60405180606001604052806000815260200160608152602001606081525090565b815481835581811115610fec57600302816003028360005260206000209182019101610feb919061103f565b5b505050565b604051806040016040528060008152602001600081525090565b60405180610160016040528061101f611086565b815260200161102c6110c1565b81526020016110396110ee565b81525090565b61108391905b8082111561107f57600080820160009055600182016000611066919061111b565b600282016000611076919061111b565b50600301611045565b5090565b90565b6040518060a0016040528061109961113f565b81526020016110a6611152565b81526020016000815260200160008152602001600081525090565b60405180606001604052806110d461113f565b81526020016110e1611152565b8152602001600081525090565b604051806060016040528061110161113f565b815260200161110e611152565b8152602001600081525090565b508054600082556002029060005260206000209081019061113c9190611165565b50565b6040518060200160405280600081525090565b6040518060200160405280600081525090565b61119191905b8082111561118d5760008082016000905560018201600090555060020161116b565b5090565b9056fe5265717569726520746861742063616c6c6572206b6e6f772074686520696420746865207472616e73666f726d6174696f6e206265696e67206164646564526571756972652074686174206974656d49642069732077697468696e2072616e6765206f662076616c6964206974656d732e5265717569726520746861742063616c6c6572206b6e6f7720746865206964206f66206974656d206265696e67206164646564a165627a7a7230582039e0b2e33a06b0ac77d5fce4784a1e1a477d4626d127e6770e5f64fe463618350029",
  "source": "pragma solidity ^0.5.0;\n\nimport \"./types/TypesItem.sol\";\nimport \"./types/TypesTransformation.sol\";\nimport \"./types/TypesSector.sol\";\n\nimport \"./ProductionMap.sol\";\n\n/**\nProductionManager contract:\n    is for processing production transformations on a sector\n*/\ncontract ProductionManager is\n    TypesItem, TypesTransformation, TypesSector,\n    ProductionMap\n{\n    /**************************************************************\n    External functions - view, pure\n    **************************************************************/\n    function getTransformationProperties(\n        uint transformationId\n    )\n    external view returns (\n        uint inputCounts,\n        uint[50] memory inputItemIds,\n        uint[50] memory inputQuantities,\n        uint outputCounts,\n        uint[50] memory outputItemIds,\n        uint[50] memory outputQuantities\n    ){\n        Transformation memory transformation = transformations[\n            transformationId\n        ];\n\n        for(uint i = 0; i < transformation.inputs.length; i++){\n            inputItemIds[i] = transformation.inputs[i].itemId;\n            inputQuantities[i] = transformation.inputs[i].quantity;\n        }\n        for(uint i = 0; i < transformation.outputs.length; i++){\n            outputItemIds[i] = transformation.outputs[i].itemId;\n            outputQuantities[i] = transformation.outputs[i].quantity;\n        }\n\n        return (\n            transformation.inputs.length,\n            inputItemIds,\n            inputQuantities,\n\n            transformation.outputs.length,\n            outputItemIds,\n            outputQuantities\n        );\n    }\n\n    function getItemProperties(uint itemId) external view returns (\n        uint itemType\n    ){\n        require(\n            itemId < items.length,\n            \"Require that itemId is within range of valid items.\"\n        );\n\n        ItemProperties memory item = items[itemId];\n        return uint(item.itemType);\n    }\n\n    function getProductionMapRanges() external view returns (\n        uint itemCount,\n        uint transformationCount\n    ){\n        return(\n            items.length,\n            transformations.length\n        );\n    }\n    /**************************************************************\n    Internal functions - full\n    **************************************************************/\n\n    /**\n    This function is called by manualTransformation or tickSector to\n    execute production transformations on a sector.\n    */\n    function proccessTransformation(\n        Sector storage sector,\n        Transformation memory transformation\n    ) internal {\n        TransformationElement memory trElem;\n        ItemProperties memory itemProps;\n\n        for(uint i = 0; i < transformation.inputs.length; i++){\n            trElem = transformation.inputs[i];\n            itemProps = items[trElem.itemId];\n\n            if(!consumeItem(\n                sector,\n                itemProps,\n                trElem.quantity\n            )){\n                revert(\"Unable to consume input item\");\n            }\n        }\n        for(uint i = 0; i < transformation.outputs.length; i++){\n            trElem = transformation.outputs[i];\n            itemProps = items[trElem.itemId];\n\n            if(!storeItem(\n                sector,\n                itemProps,\n                trElem.quantity\n            )){\n                revert(\"Unable to store output item\");\n            }\n        }\n    }\n\n}",
  "sourcePath": "/Users/idanreed/Documents/repos/CryptoGame/contracts/ProductionManager.sol",
  "compiler": {
    "name": "solc",
    "version": "0.5.8+commit.23d335f2.Emscripten.clang"
  },
  "schemaVersion": "3.0.16",
  "updatedAt": "2019-11-27T03:19:22.828Z",
  "devdoc": {
    "methods": {}
  },
  "userdoc": {
    "methods": {
      "addItem(uint256,uint256,uint256)": {
        "notice": "************************************************************ External functions - full*************************************************************"
      },
      "convertAddressToCordinateTuple(address)": {
        "notice": "************************************************************ Public Views/Pure*************************************************************"
      },
      "getTransformationProperties(uint256)": {
        "notice": "************************************************************ External functions - view, pure*************************************************************"
      }
    },
    "notice": "ProductionManager contract: is for processing production transformations on a sector"
  }
}