{
  "contractName": "ProductionManager",
  "abi": [
    {
      "constant": false,
      "inputs": [
        {
          "name": "targetTransformationId",
          "type": "uint256"
        }
      ],
      "name": "addAssemblerProperties",
      "outputs": [],
      "payable": false,
      "stateMutability": "nonpayable",
      "type": "function"
    },
    {
      "constant": false,
      "inputs": [
        {
          "name": "itemId",
          "type": "uint256"
        },
        {
          "name": "itemCategory",
          "type": "uint256"
        },
        {
          "name": "itemSubType",
          "type": "uint256"
        }
      ],
      "name": "addItem",
      "outputs": [],
      "payable": false,
      "stateMutability": "nonpayable",
      "type": "function"
    },
    {
      "constant": false,
      "inputs": [
        {
          "name": "targetItemId",
          "type": "uint256"
        },
        {
          "name": "maxQuantity",
          "type": "uint256"
        }
      ],
      "name": "addSiloProperties",
      "outputs": [],
      "payable": false,
      "stateMutability": "nonpayable",
      "type": "function"
    },
    {
      "constant": false,
      "inputs": [
        {
          "name": "transformationId",
          "type": "uint256"
        }
      ],
      "name": "addTransformation",
      "outputs": [],
      "payable": false,
      "stateMutability": "nonpayable",
      "type": "function"
    },
    {
      "constant": true,
      "inputs": [
        {
          "name": "addressToConvert",
          "type": "address"
        }
      ],
      "name": "convertAddressToCordinateTuple",
      "outputs": [
        {
          "name": "xAngle",
          "type": "uint256"
        },
        {
          "name": "zAngle",
          "type": "uint256"
        }
      ],
      "payable": false,
      "stateMutability": "pure",
      "type": "function"
    },
    {
      "constant": false,
      "inputs": [
        {
          "name": "targetTransformationId",
          "type": "uint256"
        }
      ],
      "name": "addExtractorProperties",
      "outputs": [],
      "payable": false,
      "stateMutability": "nonpayable",
      "type": "function"
    },
    {
      "constant": false,
      "inputs": [
        {
          "name": "isInput",
          "type": "bool"
        },
        {
          "name": "itemId",
          "type": "uint256"
        },
        {
          "name": "quantity",
          "type": "uint256"
        }
      ],
      "name": "addTransformationElement",
      "outputs": [],
      "payable": false,
      "stateMutability": "nonpayable",
      "type": "function"
    },
    {
      "constant": true,
      "inputs": [
        {
          "name": "transformationId",
          "type": "uint256"
        }
      ],
      "name": "getTransformationProperties",
      "outputs": [
        {
          "name": "inputCounts",
          "type": "uint256"
        },
        {
          "name": "inputItemIds",
          "type": "uint256[50]"
        },
        {
          "name": "inputQuantities",
          "type": "uint256[50]"
        },
        {
          "name": "outputCounts",
          "type": "uint256"
        },
        {
          "name": "outputItemIds",
          "type": "uint256[50]"
        },
        {
          "name": "outputQuantities",
          "type": "uint256[50]"
        }
      ],
      "payable": false,
      "stateMutability": "view",
      "type": "function"
    },
    {
      "constant": true,
      "inputs": [
        {
          "name": "itemId",
          "type": "uint256"
        }
      ],
      "name": "getItemType",
      "outputs": [
        {
          "name": "itemCategory",
          "type": "uint256"
        },
        {
          "name": "itemSubtype",
          "type": "uint256"
        }
      ],
      "payable": false,
      "stateMutability": "view",
      "type": "function"
    },
    {
      "constant": true,
      "inputs": [],
      "name": "getProductionMapRanges",
      "outputs": [
        {
          "name": "itemCount",
          "type": "uint256"
        },
        {
          "name": "transformationCount",
          "type": "uint256"
        }
      ],
      "payable": false,
      "stateMutability": "view",
      "type": "function"
    }
  ],
  "bytecode": "0x608060405234801561001057600080fd5b506110ed806100206000396000f3fe608060405234801561001057600080fd5b506004361061009e5760003560e01c80639fab11c4116100665780639fab11c414610275578063ba2371c5146102a3578063ba52d77f14610302578063c19a4ef514610330578063d5bbd779146103795761009e565b8063724c2551146100a3578063798a712a146100d15780637abe28d3146101135780637b0ed1221461014b57806386f5ffde14610250575b600080fd5b6100cf600480360360208110156100b957600080fd5b81019080803590602001909291905050506103bd565b005b610111600480360360608110156100e757600080fd5b8101908080359060200190929190803590602001909291908035906020019092919050505061040c565b005b6101496004803603604081101561012957600080fd5b810190808035906020019092919080359060200190929190505050610639565b005b6101776004803603602081101561016157600080fd5b8101908080359060200190929190505050610692565b6040518087815260200186603260200280838360005b838110156101a857808201518184015260208101905061018d565b5050505090500185603260200280838360005b838110156101d65780820151818401526020810190506101bb565b5050505090500184815260200183603260200280838360005b8381101561020a5780820151818401526020810190506101ef565b5050505090500182603260200280838360005b8381101561023857808201518184015260208101905061021d565b50505050905001965050505050505060405180910390f35b610258610902565b604051808381526020018281526020019250505060405180910390f35b6102a16004803603602081101561028b57600080fd5b8101908080359060200190929190505050610919565b005b6102e5600480360360208110156102b957600080fd5b81019080803573ffffffffffffffffffffffffffffffffffffffff169060200190929190505050610992565b604051808381526020018281526020019250505060405180910390f35b61032e6004803603602081101561031857600080fd5b81019080803590602001909291905050506109db565b005b61035c6004803603602081101561034657600080fd5b8101908080359060200190929190505050610a2a565b604051808381526020018281526020019250505060405180910390f35b6103bb6004803603606081101561038f57600080fd5b810190808035151590602001909291908035906020019092919080359060200190929190505050610c94565b005b600060016103c9610d7a565b815481106103d357fe5b906000526020600020906010020160050160000160080190506103f4610d7a565b81600001600001819055508181600201819055505050565b8260018054905014610469576040517f08c379a000000000000000000000000000000000000000000000000000000000815260040180806020018281038252603381526020018061108f6033913960400191505060405180910390fd5b610471610d89565b60018054905081600001818152505082600381111561048c57fe5b81606001516000019060038111156104a057fe5b908160038111156104ad57fe5b8152505081816060015160200181815250506001819080600181540180825580915050906001820390600052602060002090601002016000909192909190915060008201518160000155602082015181600101556040820151816002015560608201518160030160008201518160000160006101000a81548160ff0219169083600381111561053857fe5b021790555060208201518160010155505060808201518160050160008201518160000160008201518160000160008201518160000160008201518160000155505060208201518160010160008201518160000155505060408201518160020155606082015181600301556080820151816004015550506020820151816005016000820151816000016000820151816000015550506020820151816001016000820151816000015550506040820151816002015550506040820151816008016000820151816000016000820151816000015550506020820151816001016000820151816000015550506040820151816002015550505050505050505050505050565b60006001610645610d7a565b8154811061064f57fe5b90600052602060002090601002016005016000016000019050610670610d7a565b8160000160000181905550828160020181905550818160030181905550505050565b600061069c610dc5565b6106a4610dc5565b60006106ae610dc5565b6106b6610dc5565b6106be610de8565b600088815481106106cb57fe5b90600052602060002090600302016040518060600160405290816000820154815260200160018201805480602002602001604051908101604052809291908181526020016000905b8282101561075957838290600052602060002090600202016040518060400160405290816000820154815260200160018201548152505081526020019060010190610713565b50505050815260200160028201805480602002602001604051908101604052809291908181526020016000905b828210156107cc57838290600052602060002090600202016040518060400160405290816000820154815260200160018201548152505081526020019060010190610786565b5050505081525050905060008090505b81602001515181101561085857816020015181815181106107f957fe5b60200260200101516000015187826032811061081157fe5b6020020181815250508160200151818151811061082a57fe5b60200260200101516020015186826032811061084257fe5b60200201818152505080806001019150506107dc565b5060008090505b8160400151518110156108db578160400151818151811061087c57fe5b60200260200101516000015184826032811061089457fe5b602002018181525050816040015181815181106108ad57fe5b6020026020010151602001518382603281106108c557fe5b602002018181525050808060010191505061085f565b50806020015151868683604001515186869650965096509650965096505091939550919395565b600080600180549050600080549050915091509091565b8060008054905014610976576040517f08c379a000000000000000000000000000000000000000000000000000000000815260040180806020018281038252603e81526020018061101e603e913960400191505060405180910390fd5b600160008181805490500191508161098e9190610e09565b5050565b600080600069ffffffffffffffffffff905060008473ffffffffffffffffffffffffffffffffffffffff169050605082198216901c935081811692508383935093505050915091565b600060016109e7610d7a565b815481106109f157fe5b90600052602060002090601002016005016000016005019050610a12610d7a565b81600001600001819055508181600201819055505050565b6000806001805490508310610a8a576040517f08c379a000000000000000000000000000000000000000000000000000000000815260040180806020018281038252603381526020018061105c6033913960400191505060405180910390fd5b610a92610d89565b60018481548110610a9f57fe5b90600052602060002090601002016040518060a0016040529081600082015481526020016001820154815260200160028201548152602001600382016040518060400160405290816000820160009054906101000a900460ff166003811115610b0457fe5b6003811115610b0f57fe5b815260200160018201548152505081526020016005820160405180602001604052908160008201604051806060016040529081600082016040518060a0016040529081600082016040518060200160405290816000820154815250508152602001600182016040518060200160405290816000820154815250508152602001600282015481526020016003820154815260200160048201548152505081526020016005820160405180606001604052908160008201604051806020016040529081600082015481525050815260200160018201604051806020016040529081600082015481525050815260200160028201548152505081526020016008820160405180606001604052908160008201604051806020016040529081600082015481525050815260200160018201604051806020016040529081600082015481525050815260200160028201548152505081525050815250508152505090508060600151600001516003811115610c8157fe5b8160600151602001519250925050915091565b60008060016000805490500381548110610caa57fe5b90600052602060002090600302019050610cc2610e3b565b60405180604001604052808581526020018481525090508415610d2b578160010181908060018154018082558091505090600182039060005260206000209060020201600090919290919091506000820151816000015560208201518160010155505050610d73565b81600201819080600181540180825580915050906001820390600052602060002090600202016000909192909190915060008201518160000155602082015181600101555050505b5050505050565b60006001808054905003905090565b604051806102000160405280600081526020016000815260200160008152602001610db2610e55565b8152602001610dbf610e7a565b81525090565b604051806106400160405280603290602082028038833980820191505090505090565b60405180606001604052806000815260200160608152602001606081525090565b815481835581811115610e3657600302816003028360005260206000209182019101610e359190610e94565b5b505050565b604051806040016040528060008152602001600081525090565b604051806040016040528060006003811115610e6d57fe5b8152602001600081525090565b604051806101600160405280610e8e610edb565b81525090565b610ed891905b80821115610ed457600080820160009055600182016000610ebb9190610f0f565b600282016000610ecb9190610f0f565b50600301610e9a565b5090565b90565b604051806101600160405280610eef610f33565b8152602001610efc610f6e565b8152602001610f09610f9b565b81525090565b5080546000825560020290600052602060002090810190610f309190610fc8565b50565b6040518060a00160405280610f46610ff7565b8152602001610f5361100a565b81526020016000815260200160008152602001600081525090565b6040518060600160405280610f81610ff7565b8152602001610f8e61100a565b8152602001600081525090565b6040518060600160405280610fae610ff7565b8152602001610fbb61100a565b8152602001600081525090565b610ff491905b80821115610ff057600080820160009055600182016000905550600201610fce565b5090565b90565b6040518060200160405280600081525090565b604051806020016040528060008152509056fe5265717569726520746861742063616c6c6572206b6e6f772074686520696420746865207472616e73666f726d6174696f6e206265696e67206164646564526571756972652074686174206974656d49642069732077697468696e2072616e6765206f662076616c6964206974656d732e5265717569726520746861742063616c6c6572206b6e6f7720746865206964206f66206974656d206265696e67206164646564a165627a7a723058201f3035d47f307d6fd0b6ea07498ffae6d440b195423b3ee5e2e82a76c4f2963b0029",
  "source": "pragma solidity ^0.5.0;\n\nimport \"./types/TypesItem.sol\";\nimport \"./types/TypesTransformation.sol\";\nimport \"./types/TypesSector.sol\";\n\nimport \"./ProductionMap.sol\";\n\n/**\nProductionManager contract:\n    is for processing production transformations on a sector\n*/\ncontract ProductionManager is\n    TypesItem, TypesTransformation, TypesSector,\n    ProductionMap\n{\n    /**************************************************************\n    External functions - view, pure\n    **************************************************************/\n    function getTransformationProperties(\n        uint transformationId\n    )\n    external view returns (\n        uint inputCounts,\n        uint[50] memory inputItemIds,\n        uint[50] memory inputQuantities,\n        uint outputCounts,\n        uint[50] memory outputItemIds,\n        uint[50] memory outputQuantities\n    ){\n        Transformation memory transformation = transformations[\n            transformationId\n        ];\n\n        for(uint i = 0; i < transformation.inputs.length; i++){\n            inputItemIds[i] = transformation.inputs[i].itemId;\n            inputQuantities[i] = transformation.inputs[i].quantity;\n        }\n        for(uint i = 0; i < transformation.outputs.length; i++){\n            outputItemIds[i] = transformation.outputs[i].itemId;\n            outputQuantities[i] = transformation.outputs[i].quantity;\n        }\n\n        return (\n            transformation.inputs.length,\n            inputItemIds,\n            inputQuantities,\n\n            transformation.outputs.length,\n            outputItemIds,\n            outputQuantities\n        );\n    }\n\n    function getItemType(uint itemId) external view returns (\n        uint itemCategory,\n        uint itemSubtype\n    ){\n        require(\n            itemId < items.length,\n            \"Require that itemId is within range of valid items.\"\n        );\n\n        ItemProperties memory item = items[itemId];\n        return (\n            uint(item.itemType.itemCategory),\n            item.itemType.itemSubtype\n        );\n    }\n\n    function getProductionMapRanges() external view returns (\n        uint itemCount,\n        uint transformationCount\n    ){\n        return(\n            items.length,\n            transformations.length\n        );\n    }\n\n    /**************************************************************\n    Internal functions - full\n    **************************************************************/\n\n    /**\n    This function is called by manualTransformation or tickSector to\n    execute production transformations on a sector.\n    */\n    function proccessTransformation(\n        Sector storage sector,\n        Transformation memory transformation\n    ) internal returns (\n        bool successful\n    ){\n        Sector memory sectorBackup = sector;\n\n        TransformationElement memory trElem;\n        ItemProperties memory itemProps;\n\n        for(uint i = 0; i < transformation.inputs.length; i++){\n            trElem = transformation.inputs[i];\n            itemProps = items[trElem.itemId];\n\n            if(!consumeItem(\n                sector,\n                itemProps,\n                trElem.quantity\n            )){\n                memcpyPlaceable(sectorBackup, sector);\n                return false;\n            }\n        }\n        for(uint i = 0; i < transformation.outputs.length; i++){\n            trElem = transformation.outputs[i];\n            itemProps = items[trElem.itemId];\n\n            if(!storeItem(\n                sector,\n                itemProps,\n                trElem.quantity\n            )){\n                memcpyPlaceable(sectorBackup, sector);\n                return false;\n            }\n        }\n\n        return true;\n    }\n\n}",
  "sourcePath": "/Users/idanreed/Documents/repos/CryptoGame/contracts/ProductionManager.sol",
  "compiler": {
    "name": "solc",
    "version": "0.5.8+commit.23d335f2.Emscripten.clang"
  },
  "schemaVersion": "3.0.16",
  "updatedAt": "2019-12-06T23:23:15.743Z",
  "devdoc": {
    "methods": {}
  },
  "userdoc": {
    "methods": {
      "addItem(uint256,uint256,uint256)": {
        "notice": "************************************************************ External functions - full*************************************************************"
      },
      "convertAddressToCordinateTuple(address)": {
        "notice": "************************************************************ Public Views/Pure*************************************************************"
      },
      "getTransformationProperties(uint256)": {
        "notice": "************************************************************ External functions - view, pure*************************************************************"
      }
    },
    "notice": "ProductionManager contract: is for processing production transformations on a sector"
  }
}