{
  "contractName": "ProductionMap",
  "abi": [
    {
      "constant": true,
      "inputs": [
        {
          "name": "addressToConvert",
          "type": "address"
        }
      ],
      "name": "convertAddressToCordinateTuple",
      "outputs": [
        {
          "name": "xAngle",
          "type": "uint256"
        },
        {
          "name": "zAngle",
          "type": "uint256"
        }
      ],
      "payable": false,
      "stateMutability": "pure",
      "type": "function"
    },
    {
      "constant": false,
      "inputs": [
        {
          "name": "itemId",
          "type": "uint256"
        },
        {
          "name": "itemType",
          "type": "uint256"
        },
        {
          "name": "itemSubType",
          "type": "uint256"
        }
      ],
      "name": "addItem",
      "outputs": [],
      "payable": false,
      "stateMutability": "nonpayable",
      "type": "function"
    },
    {
      "constant": false,
      "inputs": [
        {
          "name": "targetTransformationId",
          "type": "uint256"
        }
      ],
      "name": "addAssemblerProperties",
      "outputs": [],
      "payable": false,
      "stateMutability": "nonpayable",
      "type": "function"
    },
    {
      "constant": false,
      "inputs": [
        {
          "name": "targetTransformationId",
          "type": "uint256"
        }
      ],
      "name": "addExtractorProperties",
      "outputs": [],
      "payable": false,
      "stateMutability": "nonpayable",
      "type": "function"
    },
    {
      "constant": false,
      "inputs": [
        {
          "name": "targetItemId",
          "type": "uint256"
        },
        {
          "name": "maxQuantity",
          "type": "uint256"
        }
      ],
      "name": "addSiloProperties",
      "outputs": [],
      "payable": false,
      "stateMutability": "nonpayable",
      "type": "function"
    },
    {
      "constant": false,
      "inputs": [
        {
          "name": "transformationId",
          "type": "uint256"
        }
      ],
      "name": "addTransformation",
      "outputs": [],
      "payable": false,
      "stateMutability": "nonpayable",
      "type": "function"
    },
    {
      "constant": false,
      "inputs": [
        {
          "name": "isInput",
          "type": "bool"
        },
        {
          "name": "itemId",
          "type": "uint256"
        },
        {
          "name": "quantity",
          "type": "uint256"
        }
      ],
      "name": "addTransformationElement",
      "outputs": [],
      "payable": false,
      "stateMutability": "nonpayable",
      "type": "function"
    }
  ],
  "bytecode": "0x608060405234801561001057600080fd5b50610b29806100206000396000f3fe608060405234801561001057600080fd5b506004361061007d5760003560e01c80639fab11c41161005b5780639fab11c41461012a578063ba2371c514610158578063ba52d77f146101b7578063d5bbd779146101e55761007d565b8063724c255114610082578063798a712a146100b05780637abe28d3146100f2575b600080fd5b6100ae6004803603602081101561009857600080fd5b8101908080359060200190929190505050610229565b005b6100f0600480360360608110156100c657600080fd5b81019080803590602001909291908035906020019092919080359060200190929190505050610275565b005b6101286004803603604081101561010857600080fd5b8101908080359060200190929190803590602001909291905050506105e7565b005b6101566004803603602081101561014057600080fd5b810190808035906020019092919050505061063d565b005b61019a6004803603602081101561016e57600080fd5b81019080803573ffffffffffffffffffffffffffffffffffffffff1690602001909291905050506106b6565b604051808381526020018281526020019250505060405180910390f35b6101e3600480360360208110156101cd57600080fd5b81019080803590602001909291905050506106ff565b005b610227600480360360608110156101fb57600080fd5b81019080803515159060200190929190803590602001909291908035906020019092919050505061074b565b005b60006001610235610831565b8154811061023f57fe5b90600052602060002090600f0201600401600801905061025d610831565b81600001600001819055508181600201819055505050565b82600180549050146102d2576040517f08c379a0000000000000000000000000000000000000000000000000000000008152600401808060200182810382526033815260200180610acb6033913960400191505060405180910390fd5b6102da610840565b6001805490508160000181815250508260028111156102f557fe5b8160600190600281111561030557fe5b9081600281111561031257fe5b815250506000600281111561032357fe5b8160600151600281111561033357fe5b141561036b5781600181111561034557fe5b8160800190600181111561035557fe5b9081600181111561036257fe5b81525050610412565b6001600281111561037857fe5b8160600151600281111561038857fe5b14156103c05781600181111561039a57fe5b8160a0019060018111156103aa57fe5b908160018111156103b757fe5b81525050610411565b6002808111156103cc57fe5b816060015160028111156103dc57fe5b1415610410578160038111156103ee57fe5b8160c0019060038111156103fe57fe5b9081600381111561040b57fe5b815250505b5b5b6001819080600181540180825580915050906001820390600052602060002090600f02016000909192909190915060008201518160000155602082015181600101556040820151816002015560608201518160030160006101000a81548160ff0219169083600281111561048257fe5b021790555060808201518160030160016101000a81548160ff021916908360018111156104ab57fe5b021790555060a08201518160030160026101000a81548160ff021916908360018111156104d457fe5b021790555060c08201518160030160036101000a81548160ff021916908360038111156104fd57fe5b021790555060e0820151816004016000820151816000016000820151816000016000820151816000015550506020820151816001016000820151816000015550506040820151816002015560608201518160030155608082015181600401555050602082015181600501600082015181600001600082015181600001555050602082015181600101600082015181600001555050604082015181600201555050604082015181600801600082015181600001600082015181600001555050602082015181600101600082015181600001555050604082015181600201555050505050505050505050565b600060016105f3610831565b815481106105fd57fe5b90600052602060002090600f0201600401600001905061061b610831565b8160000160000181905550828160020181905550818160030181905550505050565b806000805490501461069a576040517f08c379a000000000000000000000000000000000000000000000000000000000815260040180806020018281038252603e815260200180610a8d603e913960400191505060405180910390fd5b60016000818180549050019150816106b291906108b7565b5050565b600080600069ffffffffffffffffffff905060008473ffffffffffffffffffffffffffffffffffffffff169050605082198216901c935081811692508383935093505050915091565b6000600161070b610831565b8154811061071557fe5b90600052602060002090600f02016004016005019050610733610831565b81600001600001819055508181600201819055505050565b6000806001600080549050038154811061076157fe5b906000526020600020906003020190506107796108e9565b604051806040016040528085815260200184815250905084156107e257816001018190806001815401808255809150509060018203906000526020600020906002020160009091929091909150600082015181600001556020820151816001015550505061082a565b81600201819080600181540180825580915050906001820390600052602060002090600202016000909192909190915060008201518160000155602082015181600101555050505b5050505050565b60006001808054905003905090565b6040518061024001604052806000815260200160008152602001600081526020016000600281111561086e57fe5b81526020016000600181111561088057fe5b81526020016000600181111561089257fe5b8152602001600060038111156108a457fe5b81526020016108b1610903565b81525090565b8154818355818111156108e4576003028160030283600052602060002091820191016108e39190610937565b5b505050565b604051806040016040528060008152602001600081525090565b60405180610160016040528061091761097e565b81526020016109246109b9565b81526020016109316109e6565b81525090565b61097b91905b808211156109775760008082016000905560018201600061095e9190610a13565b60028201600061096e9190610a13565b5060030161093d565b5090565b90565b6040518060a00160405280610991610a37565b815260200161099e610a4a565b81526020016000815260200160008152602001600081525090565b60405180606001604052806109cc610a37565b81526020016109d9610a4a565b8152602001600081525090565b60405180606001604052806109f9610a37565b8152602001610a06610a4a565b8152602001600081525090565b5080546000825560020290600052602060002090810190610a349190610a5d565b50565b6040518060200160405280600081525090565b6040518060200160405280600081525090565b610a8991905b80821115610a8557600080820160009055600182016000905550600201610a63565b5090565b9056fe5265717569726520746861742063616c6c6572206b6e6f772074686520696420746865207472616e73666f726d6174696f6e206265696e672061646465645265717569726520746861742063616c6c6572206b6e6f7720746865206964206f66206974656d206265696e67206164646564a165627a7a723058202b8ccaf4ca698956fa8b5c1f7aaef29936bbfe735d5f23cf48164a966524e74e0029",
  "source": "pragma solidity ^0.5.0;\n\nimport \"./types/TypesSector.sol\";\nimport \"./types/TypesItem.sol\";\nimport \"./types/TypesTransformation.sol\";\n\n/**\nProductionMap contract:\n    stores all possible production transformations and items\n*/\ncontract ProductionMap is\n    TypesItem, TypesTransformation, TypesSector\n    {\n\n    Transformation[] transformations;\n    ItemProperties[] items;\n\n    /**************************************************************\n    External functions - full\n    **************************************************************/\n\n    function addItem(\n        uint itemId,\n        uint itemType,\n        uint itemSubType\n    ) external {\n        require(\n            items.length == itemId,\n            \"Require that caller know the id of item being added\"\n        );\n\n        ItemProperties memory itemProps;\n        itemProps.id = items.length;\n        itemProps.itemType = ItemType(itemType);\n\n        if(itemProps.itemType == ItemType.NaturalResource){\n            itemProps.itemSubtypeNaturalResource = ItemSubtypeNaturalResource(\n                itemSubType\n            );\n        }else if(itemProps.itemType == ItemType.Component){\n            itemProps.itemSubtypeComponent = ItemSubtypeComponent(\n                itemSubType\n            );\n        }else if(itemProps.itemType == ItemType.Placeable){\n            itemProps.itemSubtypePlaceable = ItemSubtypePlaceable(\n                itemSubType\n            );\n        }\n\n        items.push(itemProps);\n    }\n\n    function addAssemblerProperties(uint targetTransformationId) external {\n\n        AssemblerItem storage curAssembler = items[topItemId()]\n            .placeableSubtypes\n            .assembler;\n\n        curAssembler.itemIntf.itemId = topItemId();\n        curAssembler.targetTransformationId = targetTransformationId;\n    }\n\n    function addExtractorProperties(uint targetTransformationId) external {\n        ExtractorItem storage curExtractor = items[\n            topItemId()\n        ].placeableSubtypes.extractor;\n\n        curExtractor.itemIntf.itemId = topItemId();\n\n        curExtractor.targetTransformationId = targetTransformationId;\n    }\n\n    function addSiloProperties(uint targetItemId, uint maxQuantity) external {\n\n        SiloItem storage curSilo = items[topItemId()].placeableSubtypes.silo;\n\n        curSilo.itemIntf.itemId = topItemId();\n\n        curSilo.targetItemId = targetItemId;\n        curSilo.maxQuantity = maxQuantity;\n    }\n\n    function addTransformation(uint transformationId) external {\n        require(\n            transformations.length == transformationId,\n            \"Require that caller know the id the transformation being added\"\n        );\n        transformations.length += 1;\n    }\n\n    function addTransformationElement(\n        bool isInput,\n        uint itemId,\n        uint quantity\n    ) external {\n\n        Transformation storage transformation = transformations[\n            transformations.length - 1\n        ];\n        TransformationElement memory element = TransformationElement(\n            itemId,\n            quantity\n        );\n\n        if(isInput) {\n            transformation.inputs.push(element);\n        }else{\n            transformation.outputs.push(element);\n        }\n    }\n\n    /**************************************************************\n    Internal functions - full\n    **************************************************************/\n\n    function topItemId() internal view returns(uint ) {\n        return items.length - 1;\n    }\n}",
  "sourcePath": "/Users/idanreed/Documents/repos/CryptoGame/contracts/ProductionMap.sol",
  "compiler": {
    "name": "solc",
    "version": "0.5.8+commit.23d335f2.Emscripten.clang"
  },
  "schemaVersion": "3.0.16",
  "updatedAt": "2019-11-27T03:19:22.834Z",
  "devdoc": {
    "methods": {}
  },
  "userdoc": {
    "methods": {
      "addItem(uint256,uint256,uint256)": {
        "notice": "************************************************************ External functions - full*************************************************************"
      },
      "convertAddressToCordinateTuple(address)": {
        "notice": "************************************************************ Public Views/Pure*************************************************************"
      }
    },
    "notice": "ProductionMap contract: stores all possible production transformations and items"
  }
}