{
  "contractName": "ProductionMap",
  "abi": [
    {
      "constant": true,
      "inputs": [
        {
          "name": "addressToConvert",
          "type": "address"
        }
      ],
      "name": "convertAddressToCordinateTuple",
      "outputs": [
        {
          "name": "xAngle",
          "type": "uint256"
        },
        {
          "name": "zAngle",
          "type": "uint256"
        }
      ],
      "payable": false,
      "stateMutability": "pure",
      "type": "function"
    },
    {
      "constant": false,
      "inputs": [
        {
          "name": "itemId",
          "type": "uint256"
        },
        {
          "name": "itemCategory",
          "type": "uint256"
        },
        {
          "name": "itemSubType",
          "type": "uint256"
        }
      ],
      "name": "addItem",
      "outputs": [],
      "payable": false,
      "stateMutability": "nonpayable",
      "type": "function"
    },
    {
      "constant": false,
      "inputs": [
        {
          "name": "targetTransformationId",
          "type": "uint256"
        }
      ],
      "name": "addAssemblerProperties",
      "outputs": [],
      "payable": false,
      "stateMutability": "nonpayable",
      "type": "function"
    },
    {
      "constant": false,
      "inputs": [
        {
          "name": "targetTransformationId",
          "type": "uint256"
        }
      ],
      "name": "addExtractorProperties",
      "outputs": [],
      "payable": false,
      "stateMutability": "nonpayable",
      "type": "function"
    },
    {
      "constant": false,
      "inputs": [
        {
          "name": "targetItemId",
          "type": "uint256"
        },
        {
          "name": "maxQuantity",
          "type": "uint256"
        }
      ],
      "name": "addSiloProperties",
      "outputs": [],
      "payable": false,
      "stateMutability": "nonpayable",
      "type": "function"
    },
    {
      "constant": false,
      "inputs": [
        {
          "name": "transformationId",
          "type": "uint256"
        }
      ],
      "name": "addTransformation",
      "outputs": [],
      "payable": false,
      "stateMutability": "nonpayable",
      "type": "function"
    },
    {
      "constant": false,
      "inputs": [
        {
          "name": "isInput",
          "type": "bool"
        },
        {
          "name": "itemId",
          "type": "uint256"
        },
        {
          "name": "quantity",
          "type": "uint256"
        }
      ],
      "name": "addTransformationElement",
      "outputs": [],
      "payable": false,
      "stateMutability": "nonpayable",
      "type": "function"
    }
  ],
  "bytecode": "0x608060405234801561001057600080fd5b506109f1806100206000396000f3fe608060405234801561001057600080fd5b506004361061007d5760003560e01c80639fab11c41161005b5780639fab11c41461012a578063ba2371c514610158578063ba52d77f146101b7578063d5bbd779146101e55761007d565b8063724c255114610082578063798a712a146100b05780637abe28d3146100f2575b600080fd5b6100ae6004803603602081101561009857600080fd5b8101908080359060200190929190505050610229565b005b6100f0600480360360608110156100c657600080fd5b81019080803590602001909291908035906020019092919080359060200190929190505050610278565b005b6101286004803603604081101561010857600080fd5b8101908080359060200190929190803590602001909291905050506104a5565b005b6101566004803603602081101561014057600080fd5b81019080803590602001909291905050506104fe565b005b61019a6004803603602081101561016e57600080fd5b81019080803573ffffffffffffffffffffffffffffffffffffffff169060200190929190505050610577565b604051808381526020018281526020019250505060405180910390f35b6101e3600480360360208110156101cd57600080fd5b81019080803590602001909291905050506105c0565b005b610227600480360360608110156101fb57600080fd5b81019080803515159060200190929190803590602001909291908035906020019092919050505061060f565b005b600060016102356106f5565b8154811061023f57fe5b906000526020600020906010020160050160000160080190506102606106f5565b81600001600001819055508181600201819055505050565b82600180549050146102d5576040517f08c379a00000000000000000000000000000000000000000000000000000000081526004018080602001828103825260338152602001806109936033913960400191505060405180910390fd5b6102dd610704565b6001805490508160000181815250508260038111156102f857fe5b816060015160000190600381111561030c57fe5b9081600381111561031957fe5b8152505081816060015160200181815250506001819080600181540180825580915050906001820390600052602060002090601002016000909192909190915060008201518160000155602082015181600101556040820151816002015560608201518160030160008201518160000160006101000a81548160ff021916908360038111156103a457fe5b021790555060208201518160010155505060808201518160050160008201518160000160008201518160000160008201518160000160008201518160000155505060208201518160010160008201518160000155505060408201518160020155606082015181600301556080820151816004015550506020820151816005016000820151816000016000820151816000015550506020820151816001016000820151816000015550506040820151816002015550506040820151816008016000820151816000016000820151816000015550506020820151816001016000820151816000015550506040820151816002015550505050505050505050505050565b600060016104b16106f5565b815481106104bb57fe5b906000526020600020906010020160050160000160000190506104dc6106f5565b8160000160000181905550828160020181905550818160030181905550505050565b806000805490501461055b576040517f08c379a000000000000000000000000000000000000000000000000000000000815260040180806020018281038252603e815260200180610955603e913960400191505060405180910390fd5b60016000818180549050019150816105739190610740565b5050565b600080600069ffffffffffffffffffff905060008473ffffffffffffffffffffffffffffffffffffffff169050605082198216901c935081811692508383935093505050915091565b600060016105cc6106f5565b815481106105d657fe5b906000526020600020906010020160050160000160050190506105f76106f5565b81600001600001819055508181600201819055505050565b6000806001600080549050038154811061062557fe5b9060005260206000209060030201905061063d610772565b604051806040016040528085815260200184815250905084156106a65781600101819080600181540180825580915050906001820390600052602060002090600202016000909192909190915060008201518160000155602082015181600101555050506106ee565b81600201819080600181540180825580915050906001820390600052602060002090600202016000909192909190915060008201518160000155602082015181600101555050505b5050505050565b60006001808054905003905090565b60405180610200016040528060008152602001600081526020016000815260200161072d61078c565b815260200161073a6107b1565b81525090565b81548183558181111561076d5760030281600302836000526020600020918201910161076c91906107cb565b5b505050565b604051806040016040528060008152602001600081525090565b6040518060400160405280600060038111156107a457fe5b8152602001600081525090565b6040518061016001604052806107c5610812565b81525090565b61080f91905b8082111561080b576000808201600090556001820160006107f29190610846565b6002820160006108029190610846565b506003016107d1565b5090565b90565b60405180610160016040528061082661086a565b81526020016108336108a5565b81526020016108406108d2565b81525090565b508054600082556002029060005260206000209081019061086791906108ff565b50565b6040518060a0016040528061087d61092e565b815260200161088a610941565b81526020016000815260200160008152602001600081525090565b60405180606001604052806108b861092e565b81526020016108c5610941565b8152602001600081525090565b60405180606001604052806108e561092e565b81526020016108f2610941565b8152602001600081525090565b61092b91905b8082111561092757600080820160009055600182016000905550600201610905565b5090565b90565b6040518060200160405280600081525090565b604051806020016040528060008152509056fe5265717569726520746861742063616c6c6572206b6e6f772074686520696420746865207472616e73666f726d6174696f6e206265696e672061646465645265717569726520746861742063616c6c6572206b6e6f7720746865206964206f66206974656d206265696e67206164646564a165627a7a72305820d160048c3f4bf5d318d919c4cf686dd7fc7d7e030c9ce4f60ad50524416d18070029",
  "source": "pragma solidity ^0.5.0;\n\nimport \"./types/TypesSector.sol\";\nimport \"./types/TypesItem.sol\";\nimport \"./types/TypesTransformation.sol\";\n\n/**\nProductionMap contract:\n    stores all possible production transformations and items\n*/\ncontract ProductionMap is\n    TypesItem, TypesTransformation, TypesSector\n    {\n\n    Transformation[] transformations;\n    ItemProperties[] items;\n\n    /**************************************************************\n    External functions - full\n    **************************************************************/\n\n    function addItem(\n        uint itemId,\n        uint itemCategory,\n        uint itemSubType\n    ) external {\n        require(\n            items.length == itemId,\n            \"Require that caller know the id of item being added\"\n        );\n\n        ItemProperties memory itemProps;\n        itemProps.id = items.length;\n        itemProps.itemType.itemCategory = ItemCategory(itemCategory);\n\n        itemProps.itemType.itemSubtype = uint(itemSubType);\n        // if(itemProps.itemType.itemCategory == ItemCategory.NaturalResource){\n        //     itemProps.itemSubtypeNaturalResource = ItemSubtypeNaturalResource(\n        //         itemSubType\n        //     );\n        // }else if(itemProps.itemType.itemCategory == ItemType.Component){\n        //     itemProps.itemSubtypeComponent = ItemSubtypeComponent(\n        //         itemSubType\n        //     );\n        // }else if(itemProps.itemType.itemCategory == ItemType.Placeable){\n        //     itemProps.itemSubtypePlaceable = ItemSubtypePlaceable(\n        //         itemSubType\n        //     );\n        // }\n\n        items.push(itemProps);\n    }\n\n    function addAssemblerProperties(uint targetTransformationId) external {\n        AssemblerItem storage curAssembler = items[topItemId()]\n            .subtypes\n            .placeable\n            .assembler;\n\n        curAssembler.itemIntf.itemId = topItemId();\n        curAssembler.targetTransformationId = targetTransformationId;\n    }\n\n    function addExtractorProperties(uint targetTransformationId) external {\n        ExtractorItem storage curExtractor = items[topItemId()]\n            .subtypes\n            .placeable\n            .extractor;\n\n        curExtractor.itemIntf.itemId = topItemId();\n        curExtractor.targetTransformationId = targetTransformationId;\n    }\n\n    function addSiloProperties(uint targetItemId, uint maxQuantity) external {\n\n        SiloItem storage curSilo = items[topItemId()]\n            .subtypes\n            .placeable\n            .silo;\n\n        curSilo.itemIntf.itemId = topItemId();\n        curSilo.targetItemId = targetItemId;\n        curSilo.maxQuantity = maxQuantity;\n    }\n\n    function addTransformation(uint transformationId) external {\n        require(\n            transformations.length == transformationId,\n            \"Require that caller know the id the transformation being added\"\n        );\n        transformations.length += 1;\n    }\n\n    function addTransformationElement(\n        bool isInput,\n        uint itemId,\n        uint quantity\n    ) external {\n\n        Transformation storage transformation = transformations[\n            transformations.length - 1\n        ];\n        TransformationElement memory element = TransformationElement(\n            itemId,\n            quantity\n        );\n\n        if(isInput) {\n            transformation.inputs.push(element);\n        }else{\n            transformation.outputs.push(element);\n        }\n    }\n\n    /**************************************************************\n    Internal functions - full\n    **************************************************************/\n\n    function topItemId() internal view returns(uint ) {\n        return items.length - 1;\n    }\n}",
  "sourcePath": "/Users/idanreed/Documents/repos/CryptoGame/contracts/ProductionMap.sol",
  "compiler": {
    "name": "solc",
    "version": "0.5.8+commit.23d335f2.Emscripten.clang"
  },
  "schemaVersion": "3.0.16",
  "updatedAt": "2019-12-06T23:23:15.750Z",
  "devdoc": {
    "methods": {}
  },
  "userdoc": {
    "methods": {
      "addItem(uint256,uint256,uint256)": {
        "notice": "************************************************************ External functions - full*************************************************************"
      },
      "convertAddressToCordinateTuple(address)": {
        "notice": "************************************************************ Public Views/Pure*************************************************************"
      }
    },
    "notice": "ProductionMap contract: stores all possible production transformations and items"
  }
}