{
  "contractName": "ProductionMap",
  "abi": [
    {
      "constant": true,
      "inputs": [
        {
          "name": "addressToConvert",
          "type": "address"
        }
      ],
      "name": "convertAddressToCordinateTuple",
      "outputs": [
        {
          "name": "xAngle",
          "type": "uint256"
        },
        {
          "name": "zAngle",
          "type": "uint256"
        }
      ],
      "payable": false,
      "stateMutability": "pure",
      "type": "function"
    },
    {
      "constant": false,
      "inputs": [
        {
          "name": "itemId",
          "type": "uint256"
        },
        {
          "name": "itemType",
          "type": "uint256"
        },
        {
          "name": "itemSubType",
          "type": "uint256"
        }
      ],
      "name": "addItem",
      "outputs": [],
      "payable": false,
      "stateMutability": "nonpayable",
      "type": "function"
    },
    {
      "constant": false,
      "inputs": [
        {
          "name": "",
          "type": "uint256"
        }
      ],
      "name": "addExtractorProperties",
      "outputs": [],
      "payable": false,
      "stateMutability": "nonpayable",
      "type": "function"
    },
    {
      "constant": false,
      "inputs": [
        {
          "name": "targetItemId",
          "type": "uint256"
        },
        {
          "name": "maxQuantity",
          "type": "uint256"
        }
      ],
      "name": "addSiloProperties",
      "outputs": [],
      "payable": false,
      "stateMutability": "nonpayable",
      "type": "function"
    },
    {
      "constant": false,
      "inputs": [],
      "name": "addTransformation",
      "outputs": [],
      "payable": false,
      "stateMutability": "nonpayable",
      "type": "function"
    },
    {
      "constant": false,
      "inputs": [
        {
          "name": "isInput",
          "type": "bool"
        },
        {
          "name": "itemId",
          "type": "uint256"
        },
        {
          "name": "quantity",
          "type": "uint256"
        }
      ],
      "name": "addTransformationElement",
      "outputs": [],
      "payable": false,
      "stateMutability": "nonpayable",
      "type": "function"
    }
  ],
  "bytecode": "0x608060405234801561001057600080fd5b5061085b806100206000396000f3fe608060405234801561001057600080fd5b50600436106100625760003560e01c8063352c1c1f14610067578063798a712a146100715780637abe28d3146100b3578063ba2371c5146100eb578063ba52d77f1461014a578063d5bbd77914610178575b600080fd5b61006f6101bc565b005b6100b16004803603606081101561008757600080fd5b810190808035906020019092919080359060200190929190803590602001909291905050506101d7565b005b6100e9600480360360408110156100c957600080fd5b81019080803590602001909291908035906020019092919050505061042c565b005b61012d6004803603602081101561010157600080fd5b81019080803573ffffffffffffffffffffffffffffffffffffffff16906020019092919050505061046e565b604051808381526020018281526020019250505060405180910390f35b6101766004803603602081101561016057600080fd5b81019080803590602001909291905050506104b7565b005b6101ba6004803603606081101561018e57600080fd5b8101908080351515906020019092919080359060200190929190803590602001909291905050506104ba565b005b60016000818180549050019150816101d491906105a0565b50565b8260018054905014610234576040517f08c379a00000000000000000000000000000000000000000000000000000000081526004018080602001828103825260338152602001806107fd6033913960400191505060405180910390fd5b61023c6105d2565b610244610606565b6040518060c0016040528060018080549050038152602001600781526020016007815260200185600281111561027657fe5b600281111561028157fe5b815260200184600381111561029257fe5b600381111561029d57fe5b81526020018381525090506001819080600181540180825580915050906001820390600052602060002090600f02016000909192909190915060008201518160000155602082015181600101556040820151816002015560608201518160030160006101000a81548160ff0219169083600281111561031857fe5b021790555060808201518160030160016101000a81548160ff0219169083600381111561034157fe5b021790555060a082015181600401600082015181600001600082015181600001600082015181600001555050602082015181600101600082015181600001555050604082015181600201556060820151816003015560808201518160040155505060208201518160050160008201518160000160008201518160000155505060208201518160010160008201518160000155505060408201518160020155505060408201518160080160008201518160000160008201518160000155505060208201518160010160008201518160000155505060408201518160020155505050505050505050505050565b60006001808080549050038154811061044157fe5b90600052602060002090600f02016004016000019050828160020181905550818160030181905550505050565b600080600069ffffffffffffffffffff905060008473ffffffffffffffffffffffffffffffffffffffff169050605082198216901c935081811692508383935093505050915091565b50565b600080600160008054905003815481106104d057fe5b906000526020600020906003020190506104e8610659565b60405180604001604052808581526020018481525090508415610551578160010181908060018154018082558091505090600182039060005260206000209060020201600090919290919091506000820151816000015560208201518160010155505050610599565b81600201819080600181540180825580915050906001820390600052602060002090600202016000909192909190915060008201518160000155602082015181600101555050505b5050505050565b8154818355818111156105cd576003028160030283600052602060002091820191016105cc9190610673565b5b505050565b6040518061016001604052806105e66106ba565b81526020016105f36106f5565b8152602001610600610722565b81525090565b6040518061020001604052806000815260200160008152602001600081526020016000600281111561063457fe5b81526020016000600381111561064657fe5b815260200161065361074f565b81525090565b604051806040016040528060008152602001600081525090565b6106b791905b808211156106b35760008082016000905560018201600061069a9190610783565b6002820160006106aa9190610783565b50600301610679565b5090565b90565b6040518060a001604052806106cd6107a7565b81526020016106da6107ba565b81526020016000815260200160008152602001600081525090565b60405180606001604052806107086107a7565b81526020016107156107ba565b8152602001600081525090565b60405180606001604052806107356107a7565b81526020016107426107ba565b8152602001600081525090565b6040518061016001604052806107636106ba565b81526020016107706106f5565b815260200161077d610722565b81525090565b50805460008255600202906000526020600020908101906107a491906107cd565b50565b6040518060200160405280600081525090565b6040518060200160405280600081525090565b6107f991905b808211156107f5576000808201600090556001820160009055506002016107d3565b5090565b9056fe5265717569726520746861742063616c6c6572206b6e6f7720746865206964206f66206974656d206265696e67206164646564a165627a7a723058207c5b1f14beab6c9941a034718d0c15dee0b7dcde63c527df3901de11e2fcf92c0029",
  "source": "pragma solidity ^0.5.0;\n\nimport \"./types/TypesSector.sol\";\nimport \"./types/TypesItem.sol\";\nimport \"./types/TypesTransformation.sol\";\n\n/**\nProductionMap contract:\n    stores all possible production transformations and items\n*/\ncontract ProductionMap is\n    TypesItem, TypesTransformation, TypesSector\n    {\n\n    Transformation[] transformations;\n    ItemProperties[] items;\n\n    function addItem(\n        uint itemId,\n        uint itemType,\n        uint itemSubType\n    ) external {\n        require(\n            items.length == itemId,\n            \"Require that caller know the id of item being added\"\n        );\n\n        OptionalItemProperties memory itemPropsOptional;\n\n        ItemProperties memory itemProps = ItemProperties(\n            items.length - 1,\n            7, // density\n            7, // volume\n            ItemType(itemType),\n            ItemSubType(itemSubType),\n            itemPropsOptional\n        );\n        items.push(itemProps);\n    }\n\n    function addExtractorProperties(uint) external {\n  \n    }\n    function addSiloProperties(uint targetItemId, uint maxQuantity) external {\n\n        SiloItem storage curSilo = items[items.length - 1].optionalProperties.silo;\n        curSilo.targetItemId = targetItemId;\n        curSilo.maxQuantity = maxQuantity;\n\n        //  = SiloItem(\n        //     ItemSubtype(items.length),\n        //     PlaceableProperties(7),\n        //     targetItemId,\n        //     maxQuantity,\n        //     0\n        // );\n\n\n    }\n\n    function addTransformation() external {\n        transformations.length += 1;\n    }\n    function addTransformationElement(\n        bool isInput,\n        uint itemId,\n        uint quantity\n    ) external {\n\n        Transformation storage transformation = transformations[\n            transformations.length - 1\n        ];\n        TransformationElement memory element = TransformationElement(\n            itemId,\n            quantity\n        );\n\n        if(isInput) {\n            transformation.inputs.push(element);\n        }else{\n            transformation.outputs.push(element);\n        }\n    }\n}",
  "sourcePath": "/Users/idanreed/Documents/repos/CryptoGame/contracts/ProductionMap.sol",
  "compiler": {
    "name": "solc",
    "version": "0.5.8+commit.23d335f2.Emscripten.clang"
  },
  "schemaVersion": "3.0.16",
  "updatedAt": "2019-11-22T00:24:14.158Z",
  "devdoc": {
    "methods": {}
  },
  "userdoc": {
    "methods": {
      "convertAddressToCordinateTuple(address)": {
        "notice": "************************************************************ Public Views/Pure*************************************************************"
      }
    },
    "notice": "ProductionMap contract: stores all possible production transformations and items"
  }
}