{
  "contractName": "ProductionManager",
  "abi": [
    {
      "constant": false,
      "inputs": [],
      "name": "addTransformation",
      "outputs": [],
      "payable": false,
      "stateMutability": "nonpayable",
      "type": "function"
    },
    {
      "constant": false,
      "inputs": [
        {
          "name": "itemId",
          "type": "uint256"
        },
        {
          "name": "itemType",
          "type": "uint256"
        },
        {
          "name": "itemSubType",
          "type": "uint256"
        }
      ],
      "name": "addItem",
      "outputs": [],
      "payable": false,
      "stateMutability": "nonpayable",
      "type": "function"
    },
    {
      "constant": false,
      "inputs": [
        {
          "name": "targetItemId",
          "type": "uint256"
        },
        {
          "name": "maxQuantity",
          "type": "uint256"
        }
      ],
      "name": "addSiloProperties",
      "outputs": [],
      "payable": false,
      "stateMutability": "nonpayable",
      "type": "function"
    },
    {
      "constant": true,
      "inputs": [
        {
          "name": "addressToConvert",
          "type": "address"
        }
      ],
      "name": "convertAddressToCordinateTuple",
      "outputs": [
        {
          "name": "xAngle",
          "type": "uint256"
        },
        {
          "name": "zAngle",
          "type": "uint256"
        }
      ],
      "payable": false,
      "stateMutability": "pure",
      "type": "function"
    },
    {
      "constant": false,
      "inputs": [
        {
          "name": "",
          "type": "uint256"
        }
      ],
      "name": "addExtractorProperties",
      "outputs": [],
      "payable": false,
      "stateMutability": "nonpayable",
      "type": "function"
    },
    {
      "constant": false,
      "inputs": [
        {
          "name": "isInput",
          "type": "bool"
        },
        {
          "name": "itemId",
          "type": "uint256"
        },
        {
          "name": "quantity",
          "type": "uint256"
        }
      ],
      "name": "addTransformationElement",
      "outputs": [],
      "payable": false,
      "stateMutability": "nonpayable",
      "type": "function"
    },
    {
      "constant": true,
      "inputs": [
        {
          "name": "transformationId",
          "type": "uint256"
        }
      ],
      "name": "getTransformationProperties",
      "outputs": [
        {
          "name": "inputCounts",
          "type": "uint256"
        },
        {
          "name": "inputItemIds",
          "type": "uint256[50]"
        },
        {
          "name": "inputQuantities",
          "type": "uint256[50]"
        },
        {
          "name": "outputCounts",
          "type": "uint256"
        },
        {
          "name": "outputItemIds",
          "type": "uint256[50]"
        },
        {
          "name": "outputQuantities",
          "type": "uint256[50]"
        }
      ],
      "payable": false,
      "stateMutability": "view",
      "type": "function"
    },
    {
      "constant": true,
      "inputs": [
        {
          "name": "itemId",
          "type": "uint256"
        }
      ],
      "name": "getItemProperties",
      "outputs": [
        {
          "name": "density",
          "type": "uint256"
        },
        {
          "name": "itemType",
          "type": "uint256"
        }
      ],
      "payable": false,
      "stateMutability": "view",
      "type": "function"
    },
    {
      "constant": true,
      "inputs": [],
      "name": "getProductionMapRanges",
      "outputs": [
        {
          "name": "itemCount",
          "type": "uint256"
        },
        {
          "name": "transformationCount",
          "type": "uint256"
        }
      ],
      "payable": false,
      "stateMutability": "view",
      "type": "function"
    }
  ],
  "bytecode": "0x608060405234801561001057600080fd5b50610f5a806100206000396000f3fe608060405234801561001057600080fd5b50600436106100935760003560e01c80637b0ed122116100665780637b0ed1221461016557806386f5ffde1461026a578063ba2371c51461028f578063ba52d77f146102ee578063d5bbd7791461031c57610093565b806321ce76de14610098578063352c1c1f146100e1578063798a712a146100eb5780637abe28d31461012d575b600080fd5b6100c4600480360360208110156100ae57600080fd5b8101908080359060200190929190505050610360565b604051808381526020018281526020019250505060405180910390f35b6100e96105bd565b005b61012b6004803603606081101561010157600080fd5b810190808035906020019092919080359060200190929190803590602001909291905050506105d8565b005b6101636004803603604081101561014357600080fd5b81019080803590602001909291908035906020019092919050505061082d565b005b6101916004803603602081101561017b57600080fd5b810190808035906020019092919050505061086f565b6040518087815260200186603260200280838360005b838110156101c25780820151818401526020810190506101a7565b5050505090500185603260200280838360005b838110156101f05780820151818401526020810190506101d5565b5050505090500184815260200183603260200280838360005b83811015610224578082015181840152602081019050610209565b5050505090500182603260200280838360005b83811015610252578082015181840152602081019050610237565b50505050905001965050505050505060405180910390f35b610272610adf565b604051808381526020018281526020019250505060405180910390f35b6102d1600480360360208110156102a557600080fd5b81019080803573ffffffffffffffffffffffffffffffffffffffff169060200190929190505050610af6565b604051808381526020018281526020019250505060405180910390f35b61031a6004803603602081101561030457600080fd5b8101908080359060200190929190505050610b3f565b005b61035e6004803603606081101561033257600080fd5b810190808035151590602001909291908035906020019092919080359060200190929190505050610b42565b005b60008060018054905083106103c0576040517f08c379a0000000000000000000000000000000000000000000000000000000008152600401808060200182810382526033815260200180610ec96033913960400191505060405180910390fd5b6103c8610c28565b600184815481106103d557fe5b90600052602060002090600f02016040518060c00160405290816000820154815260200160018201548152602001600282015481526020016003820160009054906101000a900460ff16600281111561042a57fe5b600281111561043557fe5b81526020016003820160019054906101000a900460ff16600381111561045757fe5b600381111561046257fe5b815260200160048201604051806060016040529081600082016040518060a00160405290816000820160405180602001604052908160008201548152505081526020016001820160405180602001604052908160008201548152505081526020016002820154815260200160038201548152602001600482015481525050815260200160058201604051806060016040529081600082016040518060200160405290816000820154815250508152602001600182016040518060200160405290816000820154815250508152602001600282015481525050815260200160088201604051806060016040529081600082016040518060200160405290816000820154815250508152602001600182016040518060200160405290816000820154815250508152602001600282015481525050815250508152505090508060200151816060015160028111156105b357fe5b9250925050915091565b60016000818180549050019150816105d59190610c7b565b50565b8260018054905014610635576040517f08c379a0000000000000000000000000000000000000000000000000000000008152600401808060200182810382526033815260200180610efc6033913960400191505060405180910390fd5b61063d610cad565b610645610c28565b6040518060c0016040528060018080549050038152602001600781526020016007815260200185600281111561067757fe5b600281111561068257fe5b815260200184600381111561069357fe5b600381111561069e57fe5b81526020018381525090506001819080600181540180825580915050906001820390600052602060002090600f02016000909192909190915060008201518160000155602082015181600101556040820151816002015560608201518160030160006101000a81548160ff0219169083600281111561071957fe5b021790555060808201518160030160016101000a81548160ff0219169083600381111561074257fe5b021790555060a082015181600401600082015181600001600082015181600001600082015181600001555050602082015181600101600082015181600001555050604082015181600201556060820151816003015560808201518160040155505060208201518160050160008201518160000160008201518160000155505060208201518160010160008201518160000155505060408201518160020155505060408201518160080160008201518160000160008201518160000155505060208201518160010160008201518160000155505060408201518160020155505050505050505050505050565b60006001808080549050038154811061084257fe5b90600052602060002090600f02016004016000019050828160020181905550818160030181905550505050565b6000610879610ce1565b610881610ce1565b600061088b610ce1565b610893610ce1565b61089b610d04565b600088815481106108a857fe5b90600052602060002090600302016040518060600160405290816000820154815260200160018201805480602002602001604051908101604052809291908181526020016000905b82821015610936578382906000526020600020906002020160405180604001604052908160008201548152602001600182015481525050815260200190600101906108f0565b50505050815260200160028201805480602002602001604051908101604052809291908181526020016000905b828210156109a957838290600052602060002090600202016040518060400160405290816000820154815260200160018201548152505081526020019060010190610963565b5050505081525050905060008090505b816020015151811015610a3557816020015181815181106109d657fe5b6020026020010151600001518782603281106109ee57fe5b60200201818152505081602001518181518110610a0757fe5b602002602001015160200151868260328110610a1f57fe5b60200201818152505080806001019150506109b9565b5060008090505b816040015151811015610ab85781604001518181518110610a5957fe5b602002602001015160000151848260328110610a7157fe5b60200201818152505081604001518181518110610a8a57fe5b602002602001015160200151838260328110610aa257fe5b6020020181815250508080600101915050610a3c565b50806020015151868683604001515186869650965096509650965096505091939550919395565b600080600180549050600080549050915091509091565b600080600069ffffffffffffffffffff905060008473ffffffffffffffffffffffffffffffffffffffff169050605082198216901c935081811692508383935093505050915091565b50565b60008060016000805490500381548110610b5857fe5b90600052602060002090600302019050610b70610d25565b60405180604001604052808581526020018481525090508415610bd9578160010181908060018154018082558091505090600182039060005260206000209060020201600090919290919091506000820151816000015560208201518160010155505050610c21565b81600201819080600181540180825580915050906001820390600052602060002090600202016000909192909190915060008201518160000155602082015181600101555050505b5050505050565b60405180610200016040528060008152602001600081526020016000815260200160006002811115610c5657fe5b815260200160006003811115610c6857fe5b8152602001610c75610d3f565b81525090565b815481835581811115610ca857600302816003028360005260206000209182019101610ca79190610d73565b5b505050565b604051806101600160405280610cc1610dba565b8152602001610cce610df5565b8152602001610cdb610e22565b81525090565b604051806106400160405280603290602082028038833980820191505090505090565b60405180606001604052806000815260200160608152602001606081525090565b604051806040016040528060008152602001600081525090565b604051806101600160405280610d53610dba565b8152602001610d60610df5565b8152602001610d6d610e22565b81525090565b610db791905b80821115610db357600080820160009055600182016000610d9a9190610e4f565b600282016000610daa9190610e4f565b50600301610d79565b5090565b90565b6040518060a00160405280610dcd610e73565b8152602001610dda610e86565b81526020016000815260200160008152602001600081525090565b6040518060600160405280610e08610e73565b8152602001610e15610e86565b8152602001600081525090565b6040518060600160405280610e35610e73565b8152602001610e42610e86565b8152602001600081525090565b5080546000825560020290600052602060002090810190610e709190610e99565b50565b6040518060200160405280600081525090565b6040518060200160405280600081525090565b610ec591905b80821115610ec157600080820160009055600182016000905550600201610e9f565b5090565b9056fe526571756972652074686174206974656d49642069732077697468696e2072616e6765206f662076616c6964206974656d732e5265717569726520746861742063616c6c6572206b6e6f7720746865206964206f66206974656d206265696e67206164646564a165627a7a72305820c749169841f4bd7ea037b3461eaa0600e09c41db49430b9f8d48328bd259dd040029",
  "source": "pragma solidity ^0.5.0;\n\nimport \"./types/TypesItem.sol\";\nimport \"./types/TypesTransformation.sol\";\nimport \"./types/TypesSector.sol\";\n\nimport \"./ProductionMap.sol\";\n\n/**\nProductionManager contract:\n    is for processing production transformations on a sector\n*/\ncontract ProductionManager is\n    TypesItem, TypesTransformation, TypesSector,\n    ProductionMap\n{\n    /**************************************************************\n    External functions - view, pure\n    **************************************************************/\n    function getTransformationProperties(\n        uint transformationId\n    )\n    external view returns (\n        uint inputCounts,\n        uint[50] memory inputItemIds,\n        uint[50] memory inputQuantities,\n        uint outputCounts,\n        uint[50] memory outputItemIds,\n        uint[50] memory outputQuantities\n    ){\n        Transformation memory transformation = transformations[\n            transformationId\n        ];\n\n        for(uint i = 0; i < transformation.inputs.length; i++){\n            inputItemIds[i] = transformation.inputs[i].itemId;\n            inputQuantities[i] = transformation.inputs[i].quantity;\n        }\n        for(uint i = 0; i < transformation.outputs.length; i++){\n            outputItemIds[i] = transformation.outputs[i].itemId;\n            outputQuantities[i] = transformation.outputs[i].quantity;\n        }\n\n        return (\n            transformation.inputs.length,\n            inputItemIds,\n            inputQuantities,\n\n            transformation.outputs.length,\n            outputItemIds,\n            outputQuantities\n        );\n    }\n\n    function getItemProperties(uint itemId) public view returns (\n        uint density,\n        uint itemType\n    ){\n        require(\n            itemId < items.length,\n            \"Require that itemId is within range of valid items.\"\n        );\n\n        ItemProperties memory item = items[itemId];\n        return (\n            item.density,\n            uint(item.itemType)\n        );\n    }\n\n    function getProductionMapRanges() public view returns (\n        uint itemCount,\n        uint transformationCount\n    ){\n        return(\n            items.length,\n            transformations.length\n        );\n    }\n    /**************************************************************\n    Internal functions - full\n    **************************************************************/\n\n    /**\n    This function is called by manualTransformation or tickSector to\n    execute production transformations on a sector.\n    */\n    function proccessTransformation(\n        Sector storage sector,\n        Transformation memory transformation\n    ) internal {\n        TransformationElement memory trElem;\n        ItemProperties memory itemProps;\n\n        for(uint i = 0; i < transformation.inputs.length; i++){\n            trElem = transformation.inputs[i];\n            itemProps = items[trElem.itemId];\n\n            if(!consumeItem(\n                sector,\n                itemProps,\n                trElem.quantity\n            )){\n                revert(\"Unable to consume input item\");\n            }\n        }\n        for(uint i = 0; i < transformation.outputs.length; i++){\n            trElem = transformation.outputs[i];\n            itemProps = items[trElem.itemId];\n\n            if(!storeItem(\n                sector,\n                itemProps,\n                trElem.quantity\n            )){\n                revert(\"Unable to store output item\");\n            }\n        }\n    }\n\n}",
  "sourcePath": "/Users/idanreed/Documents/repos/CryptoGame/contracts/ProductionManager.sol",
  "compiler": {
    "name": "solc",
    "version": "0.5.8+commit.23d335f2.Emscripten.clang"
  },
  "schemaVersion": "3.0.16",
  "updatedAt": "2019-11-22T00:24:14.153Z",
  "devdoc": {
    "methods": {}
  },
  "userdoc": {
    "methods": {
      "convertAddressToCordinateTuple(address)": {
        "notice": "************************************************************ Public Views/Pure*************************************************************"
      },
      "getTransformationProperties(uint256)": {
        "notice": "************************************************************ External functions - view, pure*************************************************************"
      }
    },
    "notice": "ProductionManager contract: is for processing production transformations on a sector"
  }
}