{
  "contractName": "ProductionManager",
  "abi": [
    {
      "constant": false,
      "inputs": [],
      "name": "addTransformation",
      "outputs": [],
      "payable": false,
      "stateMutability": "nonpayable",
      "type": "function"
    },
    {
      "constant": false,
      "inputs": [],
      "name": "addExtractorProps",
      "outputs": [],
      "payable": false,
      "stateMutability": "nonpayable",
      "type": "function"
    },
    {
      "constant": false,
      "inputs": [
        {
          "name": "density",
          "type": "uint256"
        },
        {
          "name": "itemType",
          "type": "uint256"
        }
      ],
      "name": "addItem",
      "outputs": [],
      "payable": false,
      "stateMutability": "nonpayable",
      "type": "function"
    },
    {
      "constant": true,
      "inputs": [
        {
          "name": "addressToConvert",
          "type": "address"
        }
      ],
      "name": "convertAddressToCordinateTuple",
      "outputs": [
        {
          "name": "xAngle",
          "type": "uint256"
        },
        {
          "name": "zAngle",
          "type": "uint256"
        }
      ],
      "payable": false,
      "stateMutability": "pure",
      "type": "function"
    },
    {
      "constant": false,
      "inputs": [
        {
          "name": "isInput",
          "type": "bool"
        },
        {
          "name": "itemId",
          "type": "uint256"
        },
        {
          "name": "quantity",
          "type": "uint256"
        }
      ],
      "name": "addTransformationElement",
      "outputs": [],
      "payable": false,
      "stateMutability": "nonpayable",
      "type": "function"
    },
    {
      "constant": true,
      "inputs": [
        {
          "name": "transformationId",
          "type": "uint256"
        }
      ],
      "name": "getTransformationProperties",
      "outputs": [
        {
          "name": "inputCounts",
          "type": "uint256"
        },
        {
          "name": "inputItemIds",
          "type": "uint256[50]"
        },
        {
          "name": "inputQuantities",
          "type": "uint256[50]"
        },
        {
          "name": "outputCounts",
          "type": "uint256"
        },
        {
          "name": "outputItemIds",
          "type": "uint256[50]"
        },
        {
          "name": "outputQuantities",
          "type": "uint256[50]"
        }
      ],
      "payable": false,
      "stateMutability": "view",
      "type": "function"
    },
    {
      "constant": true,
      "inputs": [
        {
          "name": "itemId",
          "type": "uint256"
        }
      ],
      "name": "getItemProperties",
      "outputs": [
        {
          "name": "density",
          "type": "uint256"
        },
        {
          "name": "itemType",
          "type": "uint256"
        }
      ],
      "payable": false,
      "stateMutability": "view",
      "type": "function"
    },
    {
      "constant": true,
      "inputs": [],
      "name": "getProductionMapRanges",
      "outputs": [
        {
          "name": "itemCount",
          "type": "uint256"
        },
        {
          "name": "transformationCount",
          "type": "uint256"
        }
      ],
      "payable": false,
      "stateMutability": "view",
      "type": "function"
    }
  ],
  "bytecode": "0x608060405234801561001057600080fd5b50610a3d806100206000396000f3fe608060405234801561001057600080fd5b50600436106100885760003560e01c806386f5ffde1161005b57806386f5ffde146101ef578063a212523214610214578063ba2371c51461024c578063d5bbd779146102ab57610088565b806321ce76de1461008d578063352c1c1f146100d6578063581228ac146100e05780637b0ed122146100ea575b600080fd5b6100b9600480360360208110156100a357600080fd5b81019080803590602001909291905050506102ef565b604051808381526020018281526020019250505060405180910390f35b6100de6103b4565b005b6100e86103cf565b005b6101166004803603602081101561010057600080fd5b81019080803590602001909291905050506103d1565b6040518087815260200186603260200280838360005b8381101561014757808201518184015260208101905061012c565b5050505090500185603260200280838360005b8381101561017557808201518184015260208101905061015a565b5050505090500184815260200183603260200280838360005b838110156101a957808201518184015260208101905061018e565b5050505090500182603260200280838360005b838110156101d75780820151818401526020810190506101bc565b50505050905001965050505050505060405180910390f35b6101f761063f565b604051808381526020018281526020019250505060405180910390f35b61024a6004803603604081101561022a57600080fd5b810190808035906020019092919080359060200190929190505050610656565b005b61028e6004803603602081101561026257600080fd5b81019080803573ffffffffffffffffffffffffffffffffffffffff16906020019092919050505061073a565b604051808381526020018281526020019250505060405180910390f35b6102ed600480360360608110156102c157600080fd5b810190808035151590602001909291908035906020019092919080359060200190929190505050610783565b005b6000806102fa610869565b6001848154811061030757fe5b906000526020600020906004020160405180608001604052908160008201548152602001600182015481526020016002820160009054906101000a900460ff16600381111561035257fe5b600381111561035d57fe5b81526020016003820160405180602001604052908160008201604051806020016040529081600082015481525050815250508152505090508060200151816040015160038111156103aa57fe5b9250925050915091565b60016000818180549050019150816103cc91906108a2565b50565b565b60006103db6108d4565b6103e36108d4565b60006103ed6108d4565b6103f56108d4565b6103fd6108f7565b6000888154811061040a57fe5b90600052602060002090600302016040518060600160405290816000820154815260200160018201805480602002602001604051908101604052809291908181526020016000905b8282101561049857838290600052602060002090600202016040518060400160405290816000820154815260200160018201548152505081526020019060010190610452565b50505050815260200160028201805480602002602001604051908101604052809291908181526020016000905b8282101561050b578382906000526020600020906002020160405180604001604052908160008201548152602001600182015481525050815260200190600101906104c5565b5050505081525050905060008090505b816020015151811015610597578160200151818151811061053857fe5b60200260200101516000015187826032811061055057fe5b6020020181815250508160200151818151811061056957fe5b60200260200101516020015186826032811061058157fe5b602002018181525050808060010191505061051b565b600090505b81604001515181101561061857816040015181815181106105b957fe5b6020026020010151600001518482603281106105d157fe5b602002018181525050816040015181815181106105ea57fe5b60200260200101516020015183826032811061060257fe5b602002018181525050808060010191505061059c565b81602001515187878460400151518787975097509750975097509750505091939550919395565b600080600180549050600080549050915091509091565b61065e610918565b610666610869565b60405180608001604052806001808054905003815260200185815260200184600381111561069057fe5b600381111561069b57fe5b815260200183815250905060018190806001815401808255809150509060018203906000526020600020906004020160009091929091909150600082015181600001556020820151816001015560408201518160020160006101000a81548160ff0219169083600381111561070c57fe5b0217905550606082015181600301600082015181600001600082015181600001555050505050505050505050565b600080600069ffffffffffffffffffff905060008473ffffffffffffffffffffffffffffffffffffffff169050605082198216901c935081811692508383935093505050915091565b6000806001600080549050038154811061079957fe5b906000526020600020906003020190506107b1610931565b6040518060400160405280858152602001848152509050841561081a578160010181908060018154018082558091505090600182039060005260206000209060020201600090919290919091506000820151816000015560208201518160010155505050610862565b81600201819080600181540180825580915050906001820390600052602060002090600202016000909192909190915060008201518160000155602082015181600101555050505b5050505050565b604051806080016040528060008152602001600081526020016000600381111561088f57fe5b815260200161089c61094b565b81525090565b8154818355818111156108cf576003028160030283600052602060002091820191016108ce9190610964565b5b505050565b604051806106400160405280603290602082028038833980820191505090505090565b60405180606001604052806000815260200160608152602001606081525090565b604051806020016040528061092b6109ab565b81525090565b604051806040016040528060008152602001600081525090565b604051806020016040528061095e6109ab565b81525090565b6109a891905b808211156109a45760008082016000905560018201600061098b91906109be565b60028201600061099b91906109be565b5060030161096a565b5090565b90565b6040518060200160405280600081525090565b50805460008255600202906000526020600020908101906109df91906109e2565b50565b610a0e91905b80821115610a0a576000808201600090556001820160009055506002016109e8565b5090565b9056fea165627a7a723058202c249d2e501948dc663226e25c5ff804da9ef6de8a1344802bf6383f16ff11ce0029",
  "source": "pragma solidity ^0.5.0;\n\nimport \"./types/TypesItem.sol\";\nimport \"./types/TypesTransformation.sol\";\nimport \"./types/TypesSector.sol\";\n\nimport \"./ProductionMap.sol\";\n\n/**\nProductionManager contract:\n    is for processing production transformations on a sector\n*/\ncontract ProductionManager is\n    TypesItem, TypesTransformation, TypesSector,\n    ProductionMap\n{\n\n    function getTransformationProperties(uint transformationId) public view returns (\n        uint inputCounts,\n        uint[50] memory inputItemIds,\n        uint[50] memory inputQuantities,\n        uint outputCounts,\n        uint[50] memory outputItemIds,\n        uint[50] memory outputQuantities\n    ){\n        Transformation memory transformation = transformations[transformationId];\n\n        uint i;\n\n        for(i = 0; i < transformation.inputs.length; i++){\n            inputItemIds[i] = transformation.inputs[i].itemId;\n            inputQuantities[i] = transformation.inputs[i].quantity;\n        }\n        for(i = 0; i < transformation.outputs.length; i++){\n            outputItemIds[i] = transformation.outputs[i].itemId;\n            outputQuantities[i] = transformation.outputs[i].quantity;\n        }\n\n        return (\n            transformation.inputs.length,\n            inputItemIds,\n            inputQuantities,\n\n            transformation.outputs.length,\n            outputItemIds,\n            outputQuantities\n        );\n    }\n\n    function getItemProperties(uint itemId) public view returns (\n        uint density,\n        uint itemType\n    ){\n        //require(itemId < items.length, \"Require that itemId is within range of valid items.\");\n        ItemProperties memory item = items[itemId];\n\n        return (\n            item.density,\n            uint(item.itemType)\n        );\n    }\n\n    function getProductionMapRanges() public view returns (\n        uint itemCount,\n        uint transformationCount\n    ){\n        return(\n            items.length,\n            transformations.length\n        );\n    }\n\n    function proccessTransformation(Sector memory sector, Transformation memory transformation) internal returns(\n        bool successful\n    ){\n        TransformationElement memory trElem;\n        ItemProperties memory itemProps;\n\n        for(uint i = 0; i < transformation.inputs.length; i++){\n            trElem = transformation.inputs[i];\n            itemProps = items[trElem.itemId];\n\n            if(!consumeResource(sector, itemProps.itemType, trElem.itemId, trElem.quantity)){\n                return false;\n            }\n        }\n        for(uint i = 0; i < transformation.outputs.length; i++){\n            trElem = transformation.outputs[i];\n            itemProps = items[trElem.itemId];\n\n            if(!storeResource(sector, itemProps.itemType, trElem.itemId, trElem.quantity)){\n                return false;\n            }\n        }\n    }\n}",
  "sourcePath": "/Users/idanreed/Documents/repos/CryptoGame/contracts/ProductionManager.sol",
  "compiler": {
    "name": "solc",
    "version": "0.5.8+commit.23d335f2.Emscripten.clang"
  },
  "schemaVersion": "3.0.16",
  "updatedAt": "2019-11-03T20:09:03.226Z",
  "devdoc": {
    "methods": {}
  },
  "userdoc": {
    "methods": {
      "addItem(uint256,uint256)": {
        "notice": "************************************************************ Item loading*************************************************************"
      },
      "addTransformation()": {
        "notice": "************************************************************ Transformation loading*************************************************************"
      },
      "convertAddressToCordinateTuple(address)": {
        "notice": "************************************************************ Public Views/Pure*************************************************************"
      }
    },
    "notice": "ProductionManager contract: is for processing production transformations on a sector"
  }
}