{
  "contractName": "SectorTypes",
  "abi": [
    {
      "constant": true,
      "inputs": [
        {
          "name": "addressToConvert",
          "type": "address"
        }
      ],
      "name": "convertAddressToCordinateTuple",
      "outputs": [
        {
          "name": "xAngle",
          "type": "uint256"
        },
        {
          "name": "zAngle",
          "type": "uint256"
        }
      ],
      "payable": false,
      "stateMutability": "pure",
      "type": "function"
    }
  ],
  "bytecode": "0x608060405234801561001057600080fd5b5060fe8061001f6000396000f3fe6080604052348015600f57600080fd5b506004361060285760003560e01c8063ba2371c514602d575b600080fd5b606c60048036036020811015604157600080fd5b81019080803573ffffffffffffffffffffffffffffffffffffffff1690602001909291905050506089565b604051808381526020018281526020019250505060405180910390f35b600080600069ffffffffffffffffffff905060008473ffffffffffffffffffffffffffffffffffffffff169050605082198216901c93508181169250838393509350505091509156fea165627a7a72305820e1a8f31845c402892b2b8f77ab3f02ef59b257d5fdda98bc8d2e52808c2946120029",
  "source": "pragma solidity ^0.5.0;\r\n\r\ncontract SectorTypes{\r\n\r\n    /**************************************************************\r\n    Sector\r\n    **************************************************************/\r\n    struct SectorPlaceable {\r\n        uint itemId;\r\n\r\n        uint spaceRequired;\r\n    }\r\n\r\n    /**************************************************************\r\n    Silo\r\n    **************************************************************/\r\n    struct Silo {\r\n        SectorPlaceable placeableData;\r\n\r\n        uint itemId;\r\n        uint quantity;\r\n    }\r\n\r\n    /**************************************************************\r\n    Extractor\r\n    **************************************************************/\r\n    struct Extractor {\r\n        SectorPlaceable placeableData;\r\n\r\n    }\r\n\r\n    /**************************************************************\r\n    Extractor\r\n    **************************************************************/\r\n    struct Factory {\r\n        SectorPlaceable placeableData;\r\n\r\n        uint targetRecipe;\r\n    }\r\n\r\n    /**************************************************************\r\n    World\r\n    **************************************************************/\r\n    struct SphereCordinate{\r\n        uint xAngle; /* address bits from 160 to 80 */\r\n        uint zAngle; /* address bits from 80 to 0   */\r\n    }\r\n\r\n    struct Sector {\r\n        bool initialized;\r\n\r\n        address owner;\r\n        SphereCordinate cordinates;\r\n        uint lastTickBlock;\r\n\r\n        /* Placeables       */\r\n        Silo[] silos;\r\n        Extractor[] extractors;\r\n        Factory[] factories;\r\n    }\r\n    \r\n\r\n    /**************************************************************\r\n    Public Views/Pure\r\n    **************************************************************/\r\n    function convertAddressToCordinateTuple(address addressToConvert) public pure returns (uint xAngle, uint zAngle) {\r\n        \r\n        uint rightMask = (1 << 80) - 1;\r\n        uint addressCasted = uint(addressToConvert);\r\n\r\n        xAngle = (addressCasted & ~rightMask) >> 80;\r\n        zAngle = addressCasted & rightMask;\r\n        return (xAngle, zAngle);\r\n    }\r\n    // function tickExtractor(address sectorAddress, uint extractorIndex) public {\r\n    //     Sector storage selSector = sectors[sectorAddress];\r\n\r\n    //     if(\r\n    //         selSector.initialized &&\r\n    //         selSector.owner == msg.sender &&\r\n    //         extractorIndex < selSector.extractors.length\r\n    //         ) {\r\n\r\n    //         //Extractor storage selExtractor = selSector.extractors[extractorIndex];\r\n    //     }\r\n    // }\r\n}",
  "sourcePath": "A:\\repos\\crypto_game\\contracts\\SectorTypes.sol",
  "compiler": {
    "name": "solc",
    "version": "0.5.8+commit.23d335f2.Emscripten.clang"
  },
  "schemaVersion": "3.0.14",
  "updatedAt": "2019-10-25T17:38:23.680Z",
  "devdoc": {
    "methods": {}
  },
  "userdoc": {
    "methods": {
      "convertAddressToCordinateTuple(address)": {
        "notice": "************************************************************\r Public Views/Pure\r*************************************************************"
      }
    }
  }
}