{
  "contractName": "TypesSector",
  "abi": [
    {
      "constant": true,
      "inputs": [
        {
          "name": "addressToConvert",
          "type": "address"
        }
      ],
      "name": "convertAddressToCordinateTuple",
      "outputs": [
        {
          "name": "xAngle",
          "type": "uint256"
        },
        {
          "name": "zAngle",
          "type": "uint256"
        }
      ],
      "payable": false,
      "stateMutability": "pure",
      "type": "function"
    }
  ],
  "bytecode": "0x608060405234801561001057600080fd5b5060fe8061001f6000396000f3fe6080604052348015600f57600080fd5b506004361060285760003560e01c8063ba2371c514602d575b600080fd5b606c60048036036020811015604157600080fd5b81019080803573ffffffffffffffffffffffffffffffffffffffff1690602001909291905050506089565b604051808381526020018281526020019250505060405180910390f35b600080600069ffffffffffffffffffff905060008473ffffffffffffffffffffffffffffffffffffffff169050605082198216901c93508181169250838393509350505091509156fea165627a7a72305820ed07a802e11bec71a5697fdaa3ed97a6c20ed36f0a1baaa7f6160625827544d50029",
  "source": "pragma solidity ^0.5.0;\n\nimport \"./TypesItem.sol\";\n\n/**\nTypesSector contract:\n    is for the structs resposible for holding the data about a sector.\n    It also contains processing for sector level actions.\n*/\ncontract TypesSector is TypesItem{\n    struct PlaceableProperties {\n        uint itemId;\n\n        uint spaceRequired;\n    }\n    struct Silo {\n        PlaceableProperties placeableProps;\n\n        uint itemId;\n        uint quantity;\n    }\n    struct Extractor {\n        PlaceableProperties placeableProperties;\n\n    }\n    struct Factory {\n        PlaceableProperties placeableProperties;\n\n        uint targetRecipe;\n    }\n    struct SphereCordinate{\n        uint xAngle; /* address bits from 160 to 80 */\n        uint zAngle; /* address bits from 80 to 0   */\n    }\n    struct ExtractionProperties{\n        uint depth;\n        uint heat;\n        uint surroundingHardness;\n    }\n    struct NaturalResource{\n        ExtractionProperties extractionProperties;\n        uint itemId;\n        uint quantity;\n    }\n    struct Sector {\n        bool initialized;\n\n        address owner;\n        SphereCordinate cordinates;\n        uint lastTickBlock;\n\n        NaturalResource[] naturalResources;\n\n        /* Placeables       */\n        Silo[] silos;\n        Extractor[] extractors;\n        Factory[] factories;\n    }\n    /**************************************************************\n    Internal\n    **************************************************************/\n    /**\n    - When sectors are nativly initialize or taken for the first time via\n    confict they need to have their natural properties set. Must be done\n    algorithmically.\n    - Assumes owner is previously set\n    */\n    function initializeSector(\n        Sector memory sector,\n        address sectorAddress /* the key in the address -> sector map */\n    )\n    internal {\n        require(\n            !sector.initialized,\n            \"Require that given sector has not been initialized\"\n        );\n        require(\n            sector.owner != address(0),\n            \"Require that given sector has set owner\"\n        );\n\n        (   uint xAngle,\n            uint zAngle\n        ) = convertAddressToCordinateTuple(sector.owner);\n\n        sector.cordinates = SphereCordinate(xAngle, zAngle);\n\n        initializeSectorNaturalResources(sector);\n    }\n    function initializeSectorNaturalResources(\n        Sector memory sector\n    ) private view {\n\n    }\n    function consumeResource(\n        Sector memory sector,\n        ItemType itemType,\n        uint itemId,\n        uint quantityIn\n    )\n    internal pure returns (\n            bool successful\n    ){\n        uint quantity = quantityIn;\n\n        if(itemType == ItemType.NaturalResource){\n            /* Check nat res arr */\n            for(\n                uint i = 0;\n                i < sector.naturalResources.length && quantity > 0;\n                i++\n            ){\n                if(itemId == sector.naturalResources[i].itemId){\n                    if(quantity < sector.naturalResources[i].quantity){\n                        sector.naturalResources[i].quantity -= quantity;\n                        quantity = 0;\n                    }else{\n                        quantity -= sector.naturalResources[i].quantity;\n                        sector.naturalResources[i].quantity = 0;\n                    }\n                }\n            }\n        }else{\n            /* Check silos */\n            for(\n                uint i = 0;\n                i < sector.silos.length && quantity > 0;\n                i++\n            ){\n                if(itemId == sector.silos[i].itemId){\n                    if(quantity < sector.silos[i].quantity){\n                        sector.silos[i].quantity -= quantity;\n                        quantity = 0;\n                    }else{\n                        quantity -= sector.silos[i].quantity;\n                        sector.silos[i].quantity = 0;\n                    }\n                }\n            }\n        }\n        return (quantity == 0);\n    }\n    function storeResource(\n        Sector memory sector,\n        ItemType itemType,\n        uint itemId,\n        uint quantity\n    )\n    internal returns(\n        bool successful\n    ){\n\n    }\n\n    /**************************************************************\n    Public Views/Pure\n    **************************************************************/\n    function convertAddressToCordinateTuple(\n        address addressToConvert\n    )\n    public pure returns(\n        uint xAngle, uint zAngle\n    ){\n        uint rightMask = (1 << 80) - 1;\n        uint addressCasted = uint(addressToConvert);\n\n        xAngle = (addressCasted & ~rightMask) >> 80;\n        zAngle = addressCasted & rightMask;\n        return (xAngle, zAngle);\n    }\n}",
  "sourcePath": "/Users/idanreed/Documents/repos/CryptoGame/contracts/types/TypesSector.sol",
  "compiler": {
    "name": "solc",
    "version": "0.5.8+commit.23d335f2.Emscripten.clang"
  },
  "schemaVersion": "3.0.16",
  "updatedAt": "2019-11-03T20:09:03.236Z",
  "devdoc": {
    "methods": {}
  },
  "userdoc": {
    "methods": {
      "convertAddressToCordinateTuple(address)": {
        "notice": "************************************************************ Public Views/Pure*************************************************************"
      }
    },
    "notice": "TypesSector contract: is for the structs resposible for holding the data about a sector. It also contains processing for sector level actions."
  }
}