{
  "contractName": "TypesSector",
  "abi": [
    {
      "constant": true,
      "inputs": [
        {
          "name": "addressToConvert",
          "type": "address"
        }
      ],
      "name": "convertAddressToCordinateTuple",
      "outputs": [
        {
          "name": "xAngle",
          "type": "uint256"
        },
        {
          "name": "zAngle",
          "type": "uint256"
        }
      ],
      "payable": false,
      "stateMutability": "pure",
      "type": "function"
    }
  ],
  "bytecode": "0x608060405234801561001057600080fd5b5060fe8061001f6000396000f3fe6080604052348015600f57600080fd5b506004361060285760003560e01c8063ba2371c514602d575b600080fd5b606c60048036036020811015604157600080fd5b81019080803573ffffffffffffffffffffffffffffffffffffffff1690602001909291905050506089565b604051808381526020018281526020019250505060405180910390f35b600080600069ffffffffffffffffffff905060008473ffffffffffffffffffffffffffffffffffffffff169050605082198216901c93508181169250838393509350505091509156fea165627a7a72305820c481dcecd934f90ccfbe56744ff15c37c02c34de628bda7e6314fb4acc6d52760029",
  "source": "pragma solidity ^0.5.0;\n\nimport \"./TypesItem.sol\";\n\n\n/**\nTypesSector contract:\n    is for the structs resposible for holding the data about a sector.\n    It also contains processing for sector level actions.\n*/\ncontract TypesSector is TypesItem{\n\n    struct NaturalResource{\n        uint itemId;\n        uint quantity;\n        uint difficulty;\n    }\n\n    struct SphereCordinate{\n        uint xAngle; /* address bits from 160 to 80 */\n        uint zAngle; /* address bits from 80 to 0   */\n    }\n\n    struct Sector{\n        bool initialized;\n\n        address owner;\n        SphereCordinate cordinates;\n        uint lastTickBlock;\n\n        NaturalResource[] naturalResources;\n\n        /* Placeables       */\n        SiloItem[] silos;\n        ExtractorItem[] extractors;\n        AssemblerItem[] assemblers;\n    }\n\n    struct SectorItemReference{\n        ItemSubtypePlaceable itemType;\n        uint itemIndex;\n        uint originalVal;\n    }\n\n    /**\n    Transformations are applied step-by-step and acts directly on storage (to\n    prevent excess copying). Each step creates one these structs to perserve\n    the original Sector data incase a following step fails.\n\n    TODO switch from memcpy to this, could actually 'store' them in storage to\n    allow for the list to be built dyn\n    */\n    struct SectorModification{\n        ItemSubtypePlaceable itemSubtypePlaceable;\n        uint itemIndex;\n        uint originalValue;\n    }\n\n    /**************************************************************\n    Internal functions - full\n    **************************************************************/\n\n    /**\n    - When sectors are nativly initialize or taken for the first time via\n    confict they need to have their natural properties set. Must be done\n    algorithmically.\n    */\n    function initializeSector(\n        Sector storage sector,\n        address owner, /* the new owner */\n        address sectorAddress /* the key in the address -> sector map */\n    )\n    internal {\n        require(\n            !sector.initialized,\n            \"Require that given sector has not been initialized\"\n        );\n\n        sector.owner = owner;\n        sector.initialized = true;\n\n        (   uint xAngle,\n            uint zAngle\n        ) = convertAddressToCordinateTuple(sectorAddress);\n\n        sector.cordinates = SphereCordinate(xAngle, zAngle);\n\n        initializeSectorNaturalResources(sector);\n    }\n\n    function initializeSectorNaturalResources(\n        Sector storage sector\n    ) private {\n\n    }\n\n    function consumeItem(\n        Sector storage sector,\n        ItemProperties memory item,\n        uint quantityIn\n    )\n    internal returns (\n        bool successful\n    ){\n        uint quantity = quantityIn;\n\n        if(item.itemType.itemCategory == ItemCategory.NaturalResource){\n            /* Extract item from sector's potential nat reasource */\n\n        }else if(item.itemType.itemCategory == ItemCategory.Component){\n            /* Subtract item from sector's silos */\n            for(\n                uint i = 0;\n                i < sector.silos.length && quantity > 0;\n                i++\n            ){\n                if(item.id == sector.silos[i].targetItemId){\n                    if(quantity < sector.silos[i].curQuantity){\n                        sector.silos[i].curQuantity -= quantity;\n                        quantity = 0;\n                    }else{\n                        quantity -= sector.silos[i].curQuantity;\n                        sector.silos[i].curQuantity = 0;\n                    }\n                }\n            }\n        }else if(item.itemType.itemCategory == ItemCategory.Placeable){\n            /* Check if placeable exisits in sector */\n\n            if(\n                item.itemType.itemSubtype == uint(\n                    ItemSubtypePlaceable.Assembler\n                )\n            ){\n                for(uint i = 0;\n                    i < sector.assemblers.length && quantity > 0;\n                    i++\n                ){\n                    if(sector.assemblers[i].itemIntf.itemId == item.id){\n                        quantity -= 1;\n                    }\n                }\n            }else if(\n                item.itemType.itemSubtype == uint(\n                    ItemSubtypePlaceable.Extractor\n                )\n            ){\n                for(uint i = 0;\n                    i < sector.extractors.length && quantity > 0;\n                    i++\n                ){\n                    if(sector.extractors[i].itemIntf.itemId == item.id){\n                        quantity -= 1;\n                    }\n                }\n            }\n\n        }\n        return (quantity == 0);\n    }\n\n    function storeItem(\n        Sector storage sector,\n        ItemProperties memory item,\n        uint quantityIn\n    )\n    internal returns(\n        bool successful\n    ){\n        uint quantity = quantityIn;\n\n        if(item.itemType.itemCategory == ItemCategory.Placeable){\n\n            if(\n                item.itemType.itemSubtype == uint(ItemSubtypePlaceable.Silo)\n            ){\n                sector.silos.push(item.subtypes.placeable.silo);\n            }else if(\n                item.itemType.itemSubtype == uint(ItemSubtypePlaceable.Extractor)\n            ){\n                sector.extractors.push(item.subtypes.placeable.extractor);\n            }else if(\n                item.itemType.itemSubtype == uint(ItemSubtypePlaceable.Silo)\n            ){\n                sector.assemblers.push(item.subtypes.placeable.assembler);\n            }\n\n            quantity = 0;\n\n        }else if(item.itemType.itemCategory == ItemCategory.Component){\n            for(uint i = 0; i < sector.silos.length && quantity > 0; i++){\n\n                if(item.id == sector.silos[i].targetItemId){\n\n                    sector.silos[i].curQuantity += quantity;\n\n                    if(\n                        sector.silos[i].curQuantity\n                        > sector.silos[i].maxQuantity\n                    ){\n                        quantity = sector.silos[i].curQuantity -\n                            sector.silos[i].maxQuantity;\n\n                        sector.silos[i].curQuantity = sector.silos[i].maxQuantity;\n                    }else{\n                        quantity = 0;\n                    }\n                }\n            }\n        }\n\n        return (quantity == 0);\n    }\n\n    function memcpyPlaceable(\n        Sector memory sectorMem,\n        Sector storage sectorStor\n    )\n    internal {\n\n        sectorStor.silos.length = sectorMem.silos.length;\n        for(uint i = 0; i < sectorMem.silos.length; i++ ){\n            sectorStor.silos[i] = sectorMem.silos[i];\n        }\n\n        sectorStor.extractors.length = sectorMem.extractors.length;\n        for(uint i = 0; i < sectorMem.extractors.length; i++ ){\n            sectorStor.extractors[i] = sectorMem.extractors[i];\n        }\n\n        sectorStor.assemblers.length = sectorMem.assemblers.length;\n        for(uint i = 0; i < sectorMem.assemblers.length; i++ ){\n            sectorStor.assemblers[i] = sectorMem.assemblers[i];\n        }\n    }\n\n    function setSectorTickBlock(Sector storage sector) internal {\n        sector.lastTickBlock = block.number;\n    }\n\n    /**************************************************************\n    Public Views/Pure\n    **************************************************************/\n    function convertAddressToCordinateTuple(\n        address addressToConvert\n    )\n    public pure returns(\n        uint xAngle, uint zAngle\n    ){\n        uint rightMask = (1 << 80) - 1;\n        uint addressCasted = uint(addressToConvert);\n\n        xAngle = (addressCasted & ~rightMask) >> 80;\n        zAngle = addressCasted & rightMask;\n        return (xAngle, zAngle);\n    }\n\n}",
  "sourcePath": "/Users/idanreed/Documents/repos/CryptoGame/contracts/types/TypesSector.sol",
  "compiler": {
    "name": "solc",
    "version": "0.5.8+commit.23d335f2.Emscripten.clang"
  },
  "schemaVersion": "3.0.16",
  "updatedAt": "2019-12-06T23:23:15.795Z",
  "devdoc": {
    "methods": {}
  },
  "userdoc": {
    "methods": {
      "convertAddressToCordinateTuple(address)": {
        "notice": "************************************************************ Public Views/Pure*************************************************************"
      }
    },
    "notice": "TypesSector contract: is for the structs resposible for holding the data about a sector. It also contains processing for sector level actions."
  }
}