{
  "contractName": "TypesSector",
  "abi": [
    {
      "constant": true,
      "inputs": [
        {
          "name": "addressToConvert",
          "type": "address"
        }
      ],
      "name": "convertAddressToCordinateTuple",
      "outputs": [
        {
          "name": "xAngle",
          "type": "uint256"
        },
        {
          "name": "zAngle",
          "type": "uint256"
        }
      ],
      "payable": false,
      "stateMutability": "pure",
      "type": "function"
    }
  ],
  "bytecode": "0x608060405234801561001057600080fd5b5060fe8061001f6000396000f3fe6080604052348015600f57600080fd5b506004361060285760003560e01c8063ba2371c514602d575b600080fd5b606c60048036036020811015604157600080fd5b81019080803573ffffffffffffffffffffffffffffffffffffffff1690602001909291905050506089565b604051808381526020018281526020019250505060405180910390f35b600080600069ffffffffffffffffffff905060008473ffffffffffffffffffffffffffffffffffffffff169050605082198216901c93508181169250838393509350505091509156fea165627a7a7230582082585667f8b84a9f587db2fa9c3866bb2032d679575b662844353259d230008c0029",
  "source": "pragma solidity ^0.5.0;\n\nimport \"./TypesItem.sol\";\n\n/**\nTypesSector contract:\n    is for the structs resposible for holding the data about a sector.\n    It also contains processing for sector level actions.\n*/\ncontract TypesSector is TypesItem{\n\n    struct NaturalResource{\n        uint itemId;\n        uint quantity;\n        uint difficulty;\n    }\n\n    struct SphereCordinate{\n        uint xAngle; /* address bits from 160 to 80 */\n        uint zAngle; /* address bits from 80 to 0   */\n    }\n\n    struct Sector {\n        bool initialized;\n\n        address owner;\n        SphereCordinate cordinates;\n        uint lastTickBlock;\n\n        NaturalResource[] naturalResources;\n\n        /* Placeables       */\n        SiloItem[] silos;\n        ExtractorItem[] extractors;\n        AssemblerItem[] assemblers;\n    }\n\n\n    /**************************************************************\n    Internal functions - full\n    **************************************************************/\n\n    /**\n    - When sectors are nativly initialize or taken for the first time via\n    confict they need to have their natural properties set. Must be done\n    algorithmically.\n    */\n    function initializeSector(\n        Sector storage sector,\n        address owner, /* the new owner */\n        address sectorAddress /* the key in the address -> sector map */\n    )\n    internal {\n        require(\n            !sector.initialized,\n            \"Require that given sector has not been initialized\"\n        );\n\n        sector.owner = owner;\n        sector.initialized = true;\n\n        (   uint xAngle,\n            uint zAngle\n        ) = convertAddressToCordinateTuple(sectorAddress);\n\n        sector.cordinates = SphereCordinate(xAngle, zAngle);\n\n        initializeSectorNaturalResources(sector);\n    }\n\n    function initializeSectorNaturalResources(\n        Sector storage sector\n    ) private {\n\n    }\n\n    function consumeItem(\n        Sector storage sector,\n        ItemProperties memory item,\n        uint quantityIn\n    )\n    internal returns (\n        bool successful\n    ){\n        uint quantity = quantityIn;\n\n        if(item.itemType == ItemType.NaturalResource){\n            /* Extract item from sector's potential nat reasource */\n\n        }else if(item.itemType == ItemType.Component){\n            /* Subtract item from sector's silos */\n            for(\n                uint i = 0;\n                i < sector.silos.length && quantity > 0;\n                i++\n            ){\n                if(item.id == sector.silos[i].targetItemId){\n                    if(quantity < sector.silos[i].curQuantity){\n                        sector.silos[i].curQuantity -= quantity;\n                        quantity = 0;\n                    }else{\n                        quantity -= sector.silos[i].curQuantity;\n                        sector.silos[i].curQuantity = 0;\n                    }\n                }\n            }\n        }else if(item.itemType == ItemType.Placeable){\n            /* Check if placeable exisits in sector */\n\n            if(item.itemSubtypePlaceable == ItemSubtypePlaceable.Assembler){\n                for(uint i = 0; i < sector.assemblers.length && quantity > 0; i++){\n                    if(sector.assemblers[i].itemIntf.itemId == item.id){\n                        quantity -= 1;\n                    }\n                }\n            }else if(item.itemSubtypePlaceable == ItemSubtypePlaceable.Extractor){\n\n            }\n        }\n        return (quantity == 0);\n    }\n\n    function storeItem(\n        Sector storage sector,\n        ItemProperties memory item,\n        uint quantityIn\n    )\n    internal returns(\n        bool successful\n    ){\n        uint quantity = quantityIn;\n\n        if(item.itemType == ItemType.Placeable){\n            require(\n                quantity == 1,\n                \"Require that placeable are stored one at a time\"\n            );\n\n            if(item.itemSubtypePlaceable == ItemSubtypePlaceable.Silo){\n                sector.silos.push(item.placeableSubtypes.silo);\n            }else if(item.itemSubtypePlaceable == ItemSubtypePlaceable.Extractor){\n                sector.extractors.push(item.placeableSubtypes.extractor);\n            }else if(item.itemSubtypePlaceable == ItemSubtypePlaceable.Assembler){\n                sector.assemblers.push(item.placeableSubtypes.assembler);\n            }\n\n            quantity = 0;\n\n        }else if(item.itemType == ItemType.Component){\n            for(uint i = 0; i < sector.silos.length && quantity > 0; i++){\n\n                if(item.id == sector.silos[i].targetItemId){\n\n                    sector.silos[i].curQuantity += quantity;\n\n                    if(\n                        sector.silos[i].curQuantity\n                        > sector.silos[i].maxQuantity\n                    ){\n                        quantity = sector.silos[i].curQuantity -\n                            sector.silos[i].maxQuantity;\n\n                        sector.silos[i].curQuantity = sector.silos[i].maxQuantity;\n                    }else{\n                        quantity = 0;\n                    }\n                }\n            }\n        }\n\n        return (quantity == 0);\n    }\n\n\n    /**************************************************************\n    Public Views/Pure\n    **************************************************************/\n    function convertAddressToCordinateTuple(\n        address addressToConvert\n    )\n    public pure returns(\n        uint xAngle, uint zAngle\n    ){\n        uint rightMask = (1 << 80) - 1;\n        uint addressCasted = uint(addressToConvert);\n\n        xAngle = (addressCasted & ~rightMask) >> 80;\n        zAngle = addressCasted & rightMask;\n        return (xAngle, zAngle);\n    }\n\n}",
  "sourcePath": "/Users/idanreed/Documents/repos/CryptoGame/contracts/types/TypesSector.sol",
  "compiler": {
    "name": "solc",
    "version": "0.5.8+commit.23d335f2.Emscripten.clang"
  },
  "schemaVersion": "3.0.16",
  "updatedAt": "2019-11-27T03:19:22.842Z",
  "devdoc": {
    "methods": {}
  },
  "userdoc": {
    "methods": {
      "convertAddressToCordinateTuple(address)": {
        "notice": "************************************************************ Public Views/Pure*************************************************************"
      }
    },
    "notice": "TypesSector contract: is for the structs resposible for holding the data about a sector. It also contains processing for sector level actions."
  }
}