{
  "contractName": "TypesSector",
  "abi": [
    {
      "constant": true,
      "inputs": [
        {
          "name": "addressToConvert",
          "type": "address"
        }
      ],
      "name": "convertAddressToCordinateTuple",
      "outputs": [
        {
          "name": "xAngle",
          "type": "uint256"
        },
        {
          "name": "zAngle",
          "type": "uint256"
        }
      ],
      "payable": false,
      "stateMutability": "pure",
      "type": "function"
    }
  ],
  "bytecode": "0x608060405234801561001057600080fd5b5060fe8061001f6000396000f3fe6080604052348015600f57600080fd5b506004361060285760003560e01c8063ba2371c514602d575b600080fd5b606c60048036036020811015604157600080fd5b81019080803573ffffffffffffffffffffffffffffffffffffffff1690602001909291905050506089565b604051808381526020018281526020019250505060405180910390f35b600080600069ffffffffffffffffffff905060008473ffffffffffffffffffffffffffffffffffffffff169050605082198216901c93508181169250838393509350505091509156fea165627a7a723058204f462d24190b3ea658b24c3354b6fccfa3197cad34407ba96cdd1e52d1c1cbdc0029",
  "source": "pragma solidity ^0.5.0;\n\ncontract TypesSector{\n    struct SectorPlaceable {\n        uint itemId;\n\n        uint spaceRequired;\n    }\n    struct Silo {\n        SectorPlaceable placeableData;\n\n        uint itemId;\n        uint quantity;\n    }\n    struct Extractor {\n        SectorPlaceable placeableData;\n\n    }\n    struct Factory {\n        SectorPlaceable placeableData;\n\n        uint targetRecipe;\n    }\n    struct SphereCordinate{\n        uint xAngle; /* address bits from 160 to 80 */\n        uint zAngle; /* address bits from 80 to 0   */\n    }\n    struct Sector {\n        bool initialized;\n\n        address owner;\n        SphereCordinate cordinates;\n        uint lastTickBlock;\n\n        /* Placeables       */\n        Silo[] silos;\n        Extractor[] extractors;\n        Factory[] factories;\n    }\n    /**************************************************************\n    Internal - production utils\n    **************************************************************/\n    function consume(Sector memory sector, uint itemId, uint quantity) internal returns (\n        bool successful,\n        Sector memory newSector\n    ){\n\n    }\n    function store(Sector memory sector, uint itemId, uint quantity) internal returns (\n        bool successful,\n        Sector memory newSector\n    ){\n\n    }\n\n    /**************************************************************\n    Public Views/Pure - type utils\n    **************************************************************/\n    function convertAddressToCordinateTuple(address addressToConvert) public pure returns (uint xAngle, uint zAngle) {\n        uint rightMask = (1 << 80) - 1;\n        uint addressCasted = uint(addressToConvert);\n\n        xAngle = (addressCasted & ~rightMask) >> 80;\n        zAngle = addressCasted & rightMask;\n        return (xAngle, zAngle);\n    }\n}",
  "sourcePath": "/Users/idanreed/Documents/repos/CryptoGame/contracts/types/TypesSector.sol",
  "compiler": {
    "name": "solc",
    "version": "0.5.8+commit.23d335f2.Emscripten.clang"
  },
  "schemaVersion": "3.0.16",
  "updatedAt": "2019-10-31T22:03:20.564Z",
  "devdoc": {
    "methods": {}
  },
  "userdoc": {
    "methods": {
      "convertAddressToCordinateTuple(address)": {
        "notice": "************************************************************ Public Views/Pure - type utils*************************************************************"
      }
    }
  }
}