{
  "contractName": "TypesSector",
  "abi": [
    {
      "constant": true,
      "inputs": [
        {
          "name": "addressToConvert",
          "type": "address"
        }
      ],
      "name": "convertAddressToCordinateTuple",
      "outputs": [
        {
          "name": "xAngle",
          "type": "uint256"
        },
        {
          "name": "zAngle",
          "type": "uint256"
        }
      ],
      "payable": false,
      "stateMutability": "pure",
      "type": "function"
    }
  ],
  "bytecode": "0x608060405234801561001057600080fd5b5060fe8061001f6000396000f3fe6080604052348015600f57600080fd5b506004361060285760003560e01c8063ba2371c514602d575b600080fd5b606c60048036036020811015604157600080fd5b81019080803573ffffffffffffffffffffffffffffffffffffffff1690602001909291905050506089565b604051808381526020018281526020019250505060405180910390f35b600080600069ffffffffffffffffffff905060008473ffffffffffffffffffffffffffffffffffffffff169050605082198216901c93508181169250838393509350505091509156fea165627a7a72305820db3603f580c528a144ff9d2c29f5148cc688312b80a94dcdc5f4fbeaebb2a2380029",
  "source": "pragma solidity ^0.5.0;\r\n\r\nimport \"./TypesItem.sol\";\r\n\r\n/**\r\nTypesSector contract:\r\n    is for the structs resposible for holding the data about a sector.\r\n    It also contains processing for sector level actions.\r\n*/\r\ncontract TypesSector is TypesItem{\r\n    struct PlaceableProperties {\r\n        uint itemId;\r\n\r\n        uint spaceRequired;\r\n    }\r\n    struct Silo {\r\n        PlaceableProperties placeableProps;\r\n\r\n        uint itemId;\r\n        uint quantity;\r\n    }\r\n    struct Extractor {\r\n        PlaceableProperties placeableProperties;\r\n\r\n    }\r\n    struct Factory {\r\n        PlaceableProperties placeableProperties;\r\n\r\n        uint targetRecipe;\r\n    }\r\n    struct SphereCordinate{\r\n        uint xAngle; /* address bits from 160 to 80 */\r\n        uint zAngle; /* address bits from 80 to 0   */\r\n    }\r\n    struct ExtractionProperties{\r\n        uint depth;\r\n        uint heat;\r\n        uint surroundingHardness;\r\n    }\r\n    struct NaturalResource{\r\n        ExtractionProperties extractionProperties;\r\n        uint itemId;\r\n        uint quantity;\r\n    }\r\n    struct Sector {\r\n        bool initialized;\r\n\r\n        address owner;\r\n        SphereCordinate cordinates;\r\n        uint lastTickBlock;\r\n\r\n        NaturalResource[] naturalResources;\r\n\r\n        /* Placeables       */\r\n        Silo[] silos;\r\n        Extractor[] extractors;\r\n        Factory[] factories;\r\n    }\r\n    /**************************************************************\r\n    Internal\r\n    **************************************************************/\r\n    /**\r\n    - When sectors are nativly initialize or taken for the first time via\r\n    confict they need to have their natural properties set. Must be done\r\n    algorithmically.\r\n    - Assumes owner is previously set\r\n    */\r\n    function initializeSector(\r\n        Sector storage sector,\r\n        address owner, /* the new owner */\r\n        address sectorAddress /* the key in the address -> sector map */\r\n    )\r\n    internal {\r\n        require(\r\n            !sector.initialized,\r\n            \"Require that given sector has not been initialized\"\r\n        );\r\n\r\n        sector.owner = owner;\r\n        sector.initialized = true;\r\n\r\n        (   uint xAngle,\r\n            uint zAngle\r\n        ) = convertAddressToCordinateTuple(sectorAddress);\r\n\r\n        sector.cordinates = SphereCordinate(xAngle, zAngle);\r\n\r\n        initializeSectorNaturalResources(sector);\r\n    }\r\n    function initializeSectorNaturalResources(\r\n        Sector memory sector\r\n    ) private view {\r\n\r\n    }\r\n    function consumeResource(\r\n        Sector memory sector,\r\n        ItemType itemType,\r\n        uint itemId,\r\n        uint quantityIn\r\n    )\r\n    internal pure returns (\r\n            bool successful\r\n    ){\r\n        uint quantity = quantityIn;\r\n\r\n        if(itemType == ItemType.NaturalResource){\r\n            /* Check nat res arr */\r\n            for(\r\n                uint i = 0;\r\n                i < sector.naturalResources.length && quantity > 0;\r\n                i++\r\n            ){\r\n                if(itemId == sector.naturalResources[i].itemId){\r\n                    if(quantity < sector.naturalResources[i].quantity){\r\n                        sector.naturalResources[i].quantity -= quantity;\r\n                        quantity = 0;\r\n                    }else{\r\n                        quantity -= sector.naturalResources[i].quantity;\r\n                        sector.naturalResources[i].quantity = 0;\r\n                    }\r\n                }\r\n            }\r\n        }else{\r\n            /* Check silos */\r\n            for(\r\n                uint i = 0;\r\n                i < sector.silos.length && quantity > 0;\r\n                i++\r\n            ){\r\n                if(itemId == sector.silos[i].itemId){\r\n                    if(quantity < sector.silos[i].quantity){\r\n                        sector.silos[i].quantity -= quantity;\r\n                        quantity = 0;\r\n                    }else{\r\n                        quantity -= sector.silos[i].quantity;\r\n                        sector.silos[i].quantity = 0;\r\n                    }\r\n                }\r\n            }\r\n        }\r\n        return (quantity == 0);\r\n    }\r\n    function storeResource(\r\n        Sector memory sector,\r\n        ItemType itemType,\r\n        uint itemId,\r\n        uint quantity\r\n    )\r\n    internal returns(\r\n        bool successful\r\n    ){\r\n\r\n    }\r\n\r\n    /**************************************************************\r\n    Public Views/Pure\r\n    **************************************************************/\r\n    function convertAddressToCordinateTuple(\r\n        address addressToConvert\r\n    )\r\n    public pure returns(\r\n        uint xAngle, uint zAngle\r\n    ){\r\n        uint rightMask = (1 << 80) - 1;\r\n        uint addressCasted = uint(addressToConvert);\r\n\r\n        xAngle = (addressCasted & ~rightMask) >> 80;\r\n        zAngle = addressCasted & rightMask;\r\n        return (xAngle, zAngle);\r\n    }\r\n}",
  "sourcePath": "A:\\repos\\crypto_game\\contracts\\types\\TypesSector.sol",
  "compiler": {
    "name": "solc",
    "version": "0.5.8+commit.23d335f2.Emscripten.clang"
  },
  "schemaVersion": "3.0.14",
  "updatedAt": "2019-11-13T21:06:49.462Z",
  "devdoc": {
    "methods": {}
  },
  "userdoc": {
    "methods": {
      "convertAddressToCordinateTuple(address)": {
        "notice": "************************************************************\r Public Views/Pure\r*************************************************************"
      }
    },
    "notice": "TypesSector contract:\r is for the structs resposible for holding the data about a sector.\r It also contains processing for sector level actions.\r"
  }
}