{
  "contractName": "Game",
  "abi": [
    {
      "inputs": [],
      "payable": false,
      "stateMutability": "nonpayable",
      "type": "constructor"
    },
    {
      "constant": false,
      "inputs": [
        {
          "internalType": "uint256",
          "name": "targetTransformationId",
          "type": "uint256"
        }
      ],
      "name": "addAssemblerProperties",
      "outputs": [],
      "payable": false,
      "stateMutability": "nonpayable",
      "type": "function"
    },
    {
      "constant": false,
      "inputs": [
        {
          "internalType": "uint256",
          "name": "targetTransformationId",
          "type": "uint256"
        }
      ],
      "name": "addExtractorProperties",
      "outputs": [],
      "payable": false,
      "stateMutability": "nonpayable",
      "type": "function"
    },
    {
      "constant": false,
      "inputs": [
        {
          "internalType": "uint256",
          "name": "itemId",
          "type": "uint256"
        },
        {
          "internalType": "uint256",
          "name": "itemCategory",
          "type": "uint256"
        },
        {
          "internalType": "uint256",
          "name": "itemSubType",
          "type": "uint256"
        }
      ],
      "name": "addItem",
      "outputs": [],
      "payable": false,
      "stateMutability": "nonpayable",
      "type": "function"
    },
    {
      "constant": false,
      "inputs": [
        {
          "internalType": "uint256",
          "name": "targetItemId",
          "type": "uint256"
        },
        {
          "internalType": "uint256",
          "name": "maxQuantity",
          "type": "uint256"
        }
      ],
      "name": "addSiloProperties",
      "outputs": [],
      "payable": false,
      "stateMutability": "nonpayable",
      "type": "function"
    },
    {
      "constant": false,
      "inputs": [
        {
          "internalType": "uint256",
          "name": "transformationId",
          "type": "uint256"
        }
      ],
      "name": "addTransformation",
      "outputs": [],
      "payable": false,
      "stateMutability": "nonpayable",
      "type": "function"
    },
    {
      "constant": false,
      "inputs": [
        {
          "internalType": "bool",
          "name": "isInput",
          "type": "bool"
        },
        {
          "internalType": "uint256",
          "name": "itemId",
          "type": "uint256"
        },
        {
          "internalType": "uint256",
          "name": "quantity",
          "type": "uint256"
        }
      ],
      "name": "addTransformationElement",
      "outputs": [],
      "payable": false,
      "stateMutability": "nonpayable",
      "type": "function"
    },
    {
      "constant": true,
      "inputs": [
        {
          "internalType": "address",
          "name": "addressToConvert",
          "type": "address"
        }
      ],
      "name": "convertAddressToCordinateTuple",
      "outputs": [
        {
          "internalType": "uint256",
          "name": "xAngle",
          "type": "uint256"
        },
        {
          "internalType": "uint256",
          "name": "zAngle",
          "type": "uint256"
        }
      ],
      "payable": false,
      "stateMutability": "pure",
      "type": "function"
    },
    {
      "constant": true,
      "inputs": [
        {
          "internalType": "uint256",
          "name": "itemId",
          "type": "uint256"
        }
      ],
      "name": "getItemType",
      "outputs": [
        {
          "internalType": "uint256",
          "name": "itemCategory",
          "type": "uint256"
        },
        {
          "internalType": "uint256",
          "name": "itemSubtype",
          "type": "uint256"
        }
      ],
      "payable": false,
      "stateMutability": "view",
      "type": "function"
    },
    {
      "constant": true,
      "inputs": [],
      "name": "getProductionMapRanges",
      "outputs": [
        {
          "internalType": "uint256",
          "name": "itemCount",
          "type": "uint256"
        },
        {
          "internalType": "uint256",
          "name": "transformationCount",
          "type": "uint256"
        }
      ],
      "payable": false,
      "stateMutability": "view",
      "type": "function"
    },
    {
      "constant": true,
      "inputs": [
        {
          "internalType": "uint256",
          "name": "transformationId",
          "type": "uint256"
        }
      ],
      "name": "getTransformationProperties",
      "outputs": [
        {
          "internalType": "uint256",
          "name": "inputCounts",
          "type": "uint256"
        },
        {
          "internalType": "uint256[50]",
          "name": "inputItemIds",
          "type": "uint256[50]"
        },
        {
          "internalType": "uint256[50]",
          "name": "inputQuantities",
          "type": "uint256[50]"
        },
        {
          "internalType": "uint256",
          "name": "outputCounts",
          "type": "uint256"
        },
        {
          "internalType": "uint256[50]",
          "name": "outputItemIds",
          "type": "uint256[50]"
        },
        {
          "internalType": "uint256[50]",
          "name": "outputQuantities",
          "type": "uint256[50]"
        }
      ],
      "payable": false,
      "stateMutability": "view",
      "type": "function"
    },
    {
      "constant": true,
      "inputs": [],
      "name": "testUINT",
      "outputs": [
        {
          "internalType": "uint256",
          "name": "",
          "type": "uint256"
        }
      ],
      "payable": false,
      "stateMutability": "view",
      "type": "function"
    },
    {
      "constant": true,
      "inputs": [
        {
          "internalType": "address",
          "name": "sectorAddress",
          "type": "address"
        }
      ],
      "name": "getSectorAp",
      "outputs": [
        {
          "internalType": "uint256",
          "name": "",
          "type": "uint256"
        }
      ],
      "payable": false,
      "stateMutability": "view",
      "type": "function"
    },
    {
      "constant": false,
      "inputs": [
        {
          "internalType": "address",
          "name": "sectorAddress",
          "type": "address"
        }
      ],
      "name": "tickSector",
      "outputs": [
        {
          "internalType": "bool",
          "name": "wasSuccessful",
          "type": "bool"
        },
        {
          "internalType": "bool",
          "name": "wasSuccessful1",
          "type": "bool"
        },
        {
          "internalType": "bool",
          "name": "wasSuccessful2",
          "type": "bool"
        }
      ],
      "payable": false,
      "stateMutability": "nonpayable",
      "type": "function"
    },
    {
      "constant": false,
      "inputs": [
        {
          "internalType": "address",
          "name": "sectorAddressSource",
          "type": "address"
        },
        {
          "internalType": "address",
          "name": "sectorAddressTarget",
          "type": "address"
        },
        {
          "internalType": "uint256",
          "name": "targetItemId",
          "type": "uint256"
        }
      ],
      "name": "createBridge",
      "outputs": [],
      "payable": false,
      "stateMutability": "nonpayable",
      "type": "function"
    },
    {
      "constant": false,
      "inputs": [
        {
          "internalType": "address",
          "name": "sectorAddress",
          "type": "address"
        },
        {
          "internalType": "uint256",
          "name": "bridgeId",
          "type": "uint256"
        },
        {
          "internalType": "uint256",
          "name": "newRate",
          "type": "uint256"
        }
      ],
      "name": "setBridge",
      "outputs": [
        {
          "internalType": "bool",
          "name": "",
          "type": "bool"
        }
      ],
      "payable": false,
      "stateMutability": "nonpayable",
      "type": "function"
    },
    {
      "constant": false,
      "inputs": [],
      "name": "initializeNativeSector",
      "outputs": [],
      "payable": false,
      "stateMutability": "nonpayable",
      "type": "function"
    },
    {
      "constant": false,
      "inputs": [
        {
          "internalType": "address",
          "name": "sectorAddress",
          "type": "address"
        },
        {
          "internalType": "uint256",
          "name": "transformationId",
          "type": "uint256"
        }
      ],
      "name": "manualTransformation",
      "outputs": [
        {
          "internalType": "bool",
          "name": "",
          "type": "bool"
        }
      ],
      "payable": false,
      "stateMutability": "nonpayable",
      "type": "function"
    },
    {
      "constant": true,
      "inputs": [
        {
          "internalType": "address",
          "name": "sectorAddress",
          "type": "address"
        }
      ],
      "name": "getSectorAttributes",
      "outputs": [
        {
          "internalType": "bool",
          "name": "initialized",
          "type": "bool"
        },
        {
          "internalType": "address",
          "name": "owner",
          "type": "address"
        },
        {
          "internalType": "uint256",
          "name": "xAngle",
          "type": "uint256"
        },
        {
          "internalType": "uint256",
          "name": "zAngle",
          "type": "uint256"
        }
      ],
      "payable": false,
      "stateMutability": "view",
      "type": "function"
    },
    {
      "constant": true,
      "inputs": [
        {
          "internalType": "address",
          "name": "sectorAddress",
          "type": "address"
        }
      ],
      "name": "getSectorSilos",
      "outputs": [
        {
          "internalType": "uint256[]",
          "name": "itemIds",
          "type": "uint256[]"
        },
        {
          "internalType": "uint256[]",
          "name": "itemQuantities",
          "type": "uint256[]"
        }
      ],
      "payable": false,
      "stateMutability": "view",
      "type": "function"
    },
    {
      "constant": true,
      "inputs": [
        {
          "internalType": "address",
          "name": "sectorAddress",
          "type": "address"
        }
      ],
      "name": "getSectorNaturalResources",
      "outputs": [
        {
          "internalType": "uint256[]",
          "name": "itemIds",
          "type": "uint256[]"
        },
        {
          "internalType": "uint256[]",
          "name": "remainingQuantities",
          "type": "uint256[]"
        }
      ],
      "payable": false,
      "stateMutability": "view",
      "type": "function"
    }
  ],
  "bytecode": "0x60806040526040518060a00160405280600081526020016002808111156200002357fe5b81526020016002808111156200003557fe5b81526020016004808111156200004757fe5b81526020016002808111156200005957fe5b81525060009060056200006e92919062000120565b5060076004553480156200008157600080fd5b50620000926200009860201b60201c565b620002a0565b600580811115620000a557fe5b600381620000b4919062000172565b5060008090505b600580811115620000c857fe5b8110156200011d5760008181548110620000de57fe5b906000526020600020015460038281548110620000f757fe5b90600052602060002001816200010e9190620001a1565b508080600101915050620000bb565b50565b8280548282559060005260206000209081019282156200015f579160200282015b828111156200015e57825182559160200191906001019062000141565b5b5090506200016e9190620001d0565b5090565b8154818355818111156200019c578183600052602060002091820191016200019b9190620001f8565b5b505050565b815481835581811115620001cb57818360005260206000209182019101620001ca919062000229565b5b505050565b620001f591905b80821115620001f1576000816000905550600101620001d7565b5090565b90565b6200022691905b808211156200022257600081816200021891906200025a565b50600101620001ff565b5090565b90565b6200025791905b808211156200025357600081816200024991906200027d565b5060010162000230565b5090565b90565b50805460008255906000526020600020908101906200027a919062000229565b50565b50805460008255906000526020600020908101906200029d9190620001d0565b50565b615c9480620002b06000396000f3fe608060405234801561001057600080fd5b506004361061012c5760003560e01c80637abe28d3116100ad578063ba52d77f11610071578063ba52d77f1461077e578063c19a4ef5146107ac578063d5bbd779146107f5578063f1e3769b14610839578063f82f6a88146108435761012c565b80637abe28d31461058f5780637b0ed122146105c757806386f5ffde146106cc5780639fab11c4146106f1578063ba2371c51461071f5761012c565b80633b846833116100f45780633b846833146102ed5780634faaee25146103ce5780636e9638721461043e578063724c25511461051f578063798a712a1461054d5761012c565b80630124d89f1461013157806305c3890c146101a357806323524af5146101c15780632e2f362e146102195780633685f6cf1461027f575b600080fd5b6101736004803603602081101561014757600080fd5b81019080803573ffffffffffffffffffffffffffffffffffffffff1690602001909291905050506108e0565b60405180841515151581526020018315151515815260200182151515158152602001935050505060405180910390f35b6101ab610d2d565b6040518082815260200191505060405180910390f35b610203600480360360208110156101d757600080fd5b81019080803573ffffffffffffffffffffffffffffffffffffffff169060200190929190505050610d33565b6040518082815260200191505060405180910390f35b6102656004803603604081101561022f57600080fd5b81019080803573ffffffffffffffffffffffffffffffffffffffff16906020019092919080359060200190929190505050610d7f565b604051808215151515815260200191505060405180910390f35b6102eb6004803603606081101561029557600080fd5b81019080803573ffffffffffffffffffffffffffffffffffffffff169060200190929190803573ffffffffffffffffffffffffffffffffffffffff16906020019092919080359060200190929190505050610fce565b005b61032f6004803603602081101561030357600080fd5b81019080803573ffffffffffffffffffffffffffffffffffffffff169060200190929190505050611306565b604051808060200180602001838103835285818151815260200191508051906020019060200280838360005b8381101561037657808201518184015260208101905061035b565b50505050905001838103825284818151815260200191508051906020019060200280838360005b838110156103b857808201518184015260208101905061039d565b5050505090500194505050505060405180910390f35b610424600480360360608110156103e457600080fd5b81019080803573ffffffffffffffffffffffffffffffffffffffff169060200190929190803590602001909291908035906020019092919050505061188d565b604051808215151515815260200191505060405180910390f35b6104806004803603602081101561045457600080fd5b81019080803573ffffffffffffffffffffffffffffffffffffffff169060200190929190505050611abe565b604051808060200180602001838103835285818151815260200191508051906020019060200280838360005b838110156104c75780820151818401526020810190506104ac565b50505050905001838103825284818151815260200191508051906020019060200280838360005b838110156105095780820151818401526020810190506104ee565b5050505090500194505050505060405180910390f35b61054b6004803603602081101561053557600080fd5b810190808035906020019092919050505061204c565b005b61058d6004803603606081101561056357600080fd5b8101908080359060200190929190803590602001909291908035906020019092919050505061209b565b005b6105c5600480360360408110156105a557600080fd5b81019080803590602001909291908035906020019092919050505061233d565b005b6105f3600480360360208110156105dd57600080fd5b8101908080359060200190929190505050612396565b6040518087815260200186603260200280838360005b83811015610624578082015181840152602081019050610609565b5050505090500185603260200280838360005b83811015610652578082015181840152602081019050610637565b5050505090500184815260200183603260200280838360005b8381101561068657808201518184015260208101905061066b565b5050505090500182603260200280838360005b838110156106b4578082015181840152602081019050610699565b50505050905001965050505050505060405180910390f35b6106d4612606565b604051808381526020018281526020019250505060405180910390f35b61071d6004803603602081101561070757600080fd5b810190808035906020019092919050505061261d565b005b6107616004803603602081101561073557600080fd5b81019080803573ffffffffffffffffffffffffffffffffffffffff169060200190929190505050612695565b604051808381526020018281526020019250505060405180910390f35b6107aa6004803603602081101561079457600080fd5b81019080803590602001909291905050506126de565b005b6107d8600480360360208110156107c257600080fd5b810190808035906020019092919050505061272d565b604051808381526020018281526020019250505060405180910390f35b6108376004803603606081101561080b57600080fd5b810190808035151590602001909291908035906020019092919080359060200190929190505050612997565b005b610841612a7c565b005b6108856004803603602081101561085957600080fd5b81019080803573ffffffffffffffffffffffffffffffffffffffff169060200190929190505050612ae6565b60405180851515151581526020018473ffffffffffffffffffffffffffffffffffffffff1673ffffffffffffffffffffffffffffffffffffffff16815260200183815260200182815260200194505050505060405180910390f35b600080600083600560008273ffffffffffffffffffffffffffffffffffffffff1673ffffffffffffffffffffffffffffffffffffffff16815260200190815260200160002060030160009054906101000a900473ffffffffffffffffffffffffffffffffffffffff1673ffffffffffffffffffffffffffffffffffffffff163373ffffffffffffffffffffffffffffffffffffffff16146109cc576040517f08c379a0000000000000000000000000000000000000000000000000000000008152600401808060200182810382526040815260200180615b4a6040913960400191505060405180910390fd5b6000600560008773ffffffffffffffffffffffffffffffffffffffff1673ffffffffffffffffffffffffffffffffffffffff168152602001908152602001600020905060006001905060008090505b8260080180549050811015610b7857610b69836001856008018481548110610a3f57fe5b90600052602060002090600302016002015481548110610a5b57fe5b90600052602060002090600302016040518060600160405290816000820154815260200160018201805480602002602001604051908101604052809291908181526020016000905b82821015610ae957838290600052602060002090600202016040518060400160405290816000820154815260200160018201548152505081526020019060010190610aa3565b50505050815260200160028201805480602002602001604051908101604052809291908181526020016000905b82821015610b5c57838290600052602060002090600202016040518060400160405290816000820154815260200160018201548152505081526020019060010190610b16565b5050505081525050612f9f565b91508080600101915050610a1b565b5060006001905060008090505b8360090180549050811015610ce257610cd3846001866009018481548110610ba957fe5b90600052602060002090600302016002015481548110610bc557fe5b90600052602060002090600302016040518060600160405290816000820154815260200160018201805480602002602001604051908101604052809291908181526020016000905b82821015610c5357838290600052602060002090600202016040518060400160405290816000820154815260200160018201548152505081526020019060010190610c0d565b50505050815260200160028201805480602002602001604051908101604052809291908181526020016000905b82821015610cc657838290600052602060002090600202016040518060400160405290816000820154815260200160018201548152505081526020019060010190610c80565b5050505081525050612f9f565b91508080600101915050610b85565b5060006001905060008090505b84600a0180549050811015610d1757610d088582613890565b91508080600101915050610cef565b5082828297509750975050505050509193909250565b60045481565b6000600560008373ffffffffffffffffffffffffffffffffffffffff1673ffffffffffffffffffffffffffffffffffffffff168152602001908152602001600020600601549050919050565b600082600560008273ffffffffffffffffffffffffffffffffffffffff1673ffffffffffffffffffffffffffffffffffffffff16815260200190815260200160002060030160009054906101000a900473ffffffffffffffffffffffffffffffffffffffff1673ffffffffffffffffffffffffffffffffffffffff163373ffffffffffffffffffffffffffffffffffffffff1614610e68576040517f08c379a0000000000000000000000000000000000000000000000000000000008152600401808060200182810382526040815260200180615b4a6040913960400191505060405180910390fd5b610fc5600560008673ffffffffffffffffffffffffffffffffffffffff1673ffffffffffffffffffffffffffffffffffffffff16815260200190815260200160002060018581548110610eb757fe5b90600052602060002090600302016040518060600160405290816000820154815260200160018201805480602002602001604051908101604052809291908181526020016000905b82821015610f4557838290600052602060002090600202016040518060400160405290816000820154815260200160018201548152505081526020019060010190610eff565b50505050815260200160028201805480602002602001604051908101604052809291908181526020016000905b82821015610fb857838290600052602060002090600202016040518060400160405290816000820154815260200160018201548152505081526020019060010190610f72565b5050505081525050612f9f565b91505092915050565b82600560008273ffffffffffffffffffffffffffffffffffffffff1673ffffffffffffffffffffffffffffffffffffffff16815260200190815260200160002060030160009054906101000a900473ffffffffffffffffffffffffffffffffffffffff1673ffffffffffffffffffffffffffffffffffffffff163373ffffffffffffffffffffffffffffffffffffffff16146110b5576040517f08c379a0000000000000000000000000000000000000000000000000000000008152600401808060200182810382526040815260200180615b4a6040913960400191505060405180910390fd5b6000600560008673ffffffffffffffffffffffffffffffffffffffff1673ffffffffffffffffffffffffffffffffffffffff16815260200190815260200160002090503373ffffffffffffffffffffffffffffffffffffffff16600560008673ffffffffffffffffffffffffffffffffffffffff1673ffffffffffffffffffffffffffffffffffffffff16815260200190815260200160002060030160009054906101000a900473ffffffffffffffffffffffffffffffffffffffff1673ffffffffffffffffffffffffffffffffffffffff16146111f157611195613c9c565b6000015183146111f0576040517f08c379a0000000000000000000000000000000000000000000000000000000008152600401808060200182810382526037815260200180615b136037913960400191505060405180910390fd5b5b6111f96155f5565b8381602001818152505084816080019073ffffffffffffffffffffffffffffffffffffffff16908173ffffffffffffffffffffffffffffffffffffffff16815250506000816060018181525050600081604001818152505081600a01819080600181540180825580915050906001820390600052602060002090600502016000909192909190915060008201518160000160008201518160000155505060208201518160010155604082015181600201556060820151816003015560808201518160040160006101000a81548173ffffffffffffffffffffffffffffffffffffffff021916908373ffffffffffffffffffffffffffffffffffffffff160217905550505050505050505050565b606080611311615640565b600560008573ffffffffffffffffffffffffffffffffffffffff1673ffffffffffffffffffffffffffffffffffffffff168152602001908152602001600020604051806101400160405290816000820160009054906101000a900460ff16151515158152602001600182016040518060400160405290816000820154815260200160018201548152505081526020016003820160009054906101000a900473ffffffffffffffffffffffffffffffffffffffff1673ffffffffffffffffffffffffffffffffffffffff1673ffffffffffffffffffffffffffffffffffffffff1681526020016004820154815260200160058201805480602002602001604051908101604052809291908181526020016000905b8282101561148857838290600052602060002090600302016040518060600160405290816000820160405180602001604052908160008201548152505081526020016001820154815260200160028201548152505081526020019060010190611424565b5050505081526020016006820154815260200160078201805480602002602001604051908101604052809291908181526020016000905b8282101561154b57838290600052602060002090600502016040518060a00160405290816000820160405180602001604052908160008201548152505081526020016001820160405180602001604052908160008201548152505081526020016002820154815260200160038201548152602001600482015481525050815260200190600101906114bf565b50505050815260200160088201805480602002602001604051908101604052809291908181526020016000905b828210156115f0578382906000526020600020906003020160405180606001604052908160008201604051806020016040529081600082015481525050815260200160018201604051806020016040529081600082015481525050815260200160028201548152505081526020019060010190611578565b50505050815260200160098201805480602002602001604051908101604052809291908181526020016000905b8282101561169557838290600052602060002090600302016040518060600160405290816000820160405180602001604052908160008201548152505081526020016001820160405180602001604052908160008201548152505081526020016002820154815250508152602001906001019061161d565b505050508152602001600a8201805480602002602001604051908101604052809291908181526020016000905b8282101561178657838290600052602060002090600502016040518060a00160405290816000820160405180602001604052908160008201548152505081526020016001820154815260200160028201548152602001600382015481526020016004820160009054906101000a900473ffffffffffffffffffffffffffffffffffffffff1673ffffffffffffffffffffffffffffffffffffffff1673ffffffffffffffffffffffffffffffffffffffff1681525050815260200190600101906116c2565b5050505081525050905060008160800151519050806040519080825280602002602001820160405280156117c95781602001602082028038833980820191505090505b509350806040519080825280602002602001820160405280156117fb5781602001602082028038833980820191505090505b50925060008090505b81811015611885578260800151818151811061181c57fe5b6020026020010151600001516000015185828151811061183857fe5b6020026020010181815250508260800151818151811061185457fe5b60200260200101516040015184828151811061186c57fe5b6020026020010181815250508080600101915050611804565b505050915091565b600083600560008273ffffffffffffffffffffffffffffffffffffffff1673ffffffffffffffffffffffffffffffffffffffff16815260200190815260200160002060030160009054906101000a900473ffffffffffffffffffffffffffffffffffffffff1673ffffffffffffffffffffffffffffffffffffffff163373ffffffffffffffffffffffffffffffffffffffff1614611976576040517f08c379a0000000000000000000000000000000000000000000000000000000008152600401808060200182810382526040815260200180615b4a6040913960400191505060405180910390fd5b6000600560008773ffffffffffffffffffffffffffffffffffffffff1673ffffffffffffffffffffffffffffffffffffffff168152602001908152602001600020905080600a01805490508510611a35576040517f08c379a00000000000000000000000000000000000000000000000000000000081526004018080602001828103825260168152602001807f526571756972652076616c69642062726964676549640000000000000000000081525060200191505060405180910390fd5b600081600a018681548110611a4657fe5b9060005260206000209060050201905084816002015410611a6f57848160030181905550611aaf565b611a8782611a7b613c9c565b83600201548803613ee2565b15611aa357848160020181905550848160030181905550611aae565b600093505050611ab6565b5b6001935050505b509392505050565b606080611ac9615640565b600560008573ffffffffffffffffffffffffffffffffffffffff1673ffffffffffffffffffffffffffffffffffffffff168152602001908152602001600020604051806101400160405290816000820160009054906101000a900460ff16151515158152602001600182016040518060400160405290816000820154815260200160018201548152505081526020016003820160009054906101000a900473ffffffffffffffffffffffffffffffffffffffff1673ffffffffffffffffffffffffffffffffffffffff1673ffffffffffffffffffffffffffffffffffffffff1681526020016004820154815260200160058201805480602002602001604051908101604052809291908181526020016000905b82821015611c4057838290600052602060002090600302016040518060600160405290816000820160405180602001604052908160008201548152505081526020016001820154815260200160028201548152505081526020019060010190611bdc565b5050505081526020016006820154815260200160078201805480602002602001604051908101604052809291908181526020016000905b82821015611d0357838290600052602060002090600502016040518060a0016040529081600082016040518060200160405290816000820154815250508152602001600182016040518060200160405290816000820154815250508152602001600282015481526020016003820154815260200160048201548152505081526020019060010190611c77565b50505050815260200160088201805480602002602001604051908101604052809291908181526020016000905b82821015611da8578382906000526020600020906003020160405180606001604052908160008201604051806020016040529081600082015481525050815260200160018201604051806020016040529081600082015481525050815260200160028201548152505081526020019060010190611d30565b50505050815260200160098201805480602002602001604051908101604052809291908181526020016000905b82821015611e4d578382906000526020600020906003020160405180606001604052908160008201604051806020016040529081600082015481525050815260200160018201604051806020016040529081600082015481525050815260200160028201548152505081526020019060010190611dd5565b505050508152602001600a8201805480602002602001604051908101604052809291908181526020016000905b82821015611f3e57838290600052602060002090600502016040518060a00160405290816000820160405180602001604052908160008201548152505081526020016001820154815260200160028201548152602001600382015481526020016004820160009054906101000a900473ffffffffffffffffffffffffffffffffffffffff1673ffffffffffffffffffffffffffffffffffffffff1673ffffffffffffffffffffffffffffffffffffffff168152505081526020019060010190611e7a565b5050505081525050905060008160c0015151905080604051908082528060200260200182016040528015611f815781602001602082028038833980820191505090505b50935080604051908082528060200260200182016040528015611fb35781602001602082028038833980820191505090505b50925060008090505b8260c001515181101561203e578260c001518181518110611fd957fe5b602002602001015160400151858281518110611ff157fe5b6020026020010181815250508260c00151818151811061200d57fe5b60200260200101516080015184828151811061202557fe5b6020026020010181815250508080600101915050611fbc565b508383935093505050915091565b600060026120586142e1565b8154811061206257fe5b906000526020600020906010020160050160000160080190506120836142e1565b81600001600001819055508181600201819055505050565b82600280549050146120f8576040517f08c379a0000000000000000000000000000000000000000000000000000000008152600401808060200182810382526033815260200180615bfb6033913960400191505060405180910390fd5b6121006156b1565b60028054905081600001818152505082600581111561211b57fe5b816060015160000190600581111561212f57fe5b9081600581111561213c57fe5b8152505081816060015160200181815250506002819080600181540180825580915050906001820390600052602060002090601002016000909192909190915060008201518160000155602082015181600101556040820151816002015560608201518160030160008201518160000160006101000a81548160ff021916908360058111156121c757fe5b0217905550602082015181600101555050608082015181600501600082015181600001600082015181600001600082015181600001600082015181600001555050602082015181600101600082015181600001555050604082015181600201556060820151816003015560808201518160040155505060208201518160050160008201518160000160008201518160000155505060208201518160010160008201518160000155505060408201518160020155505060408201518160080160008201518160000160008201518160000155505060208201518160010160008201518160000155505060408201518160020155505050505050505050600381606001516000015160058111156122d857fe5b815481106122e257fe5b90600052602060002001816060015160200151815481106122ff57fe5b906000526020600020018160000151908060018154018082558091505090600182039060005260206000200160009091929091909150555050505050565b600060026123496142e1565b8154811061235357fe5b906000526020600020906010020160050160000160000190506123746142e1565b8160000160000181905550828160020181905550818160030181905550505050565b60006123a06156ec565b6123a86156ec565b60006123b26156ec565b6123ba6156ec565b6123c261570f565b600188815481106123cf57fe5b90600052602060002090600302016040518060600160405290816000820154815260200160018201805480602002602001604051908101604052809291908181526020016000905b8282101561245d57838290600052602060002090600202016040518060400160405290816000820154815260200160018201548152505081526020019060010190612417565b50505050815260200160028201805480602002602001604051908101604052809291908181526020016000905b828210156124d05783829060005260206000209060020201604051806040016040529081600082015481526020016001820154815250508152602001906001019061248a565b5050505081525050905060008090505b81602001515181101561255c57816020015181815181106124fd57fe5b60200260200101516000015187826032811061251557fe5b6020020181815250508160200151818151811061252e57fe5b60200260200101516020015186826032811061254657fe5b60200201818152505080806001019150506124e0565b5060008090505b8160400151518110156125df578160400151818151811061258057fe5b60200260200101516000015184826032811061259857fe5b602002018181525050816040015181815181106125b157fe5b6020026020010151602001518382603281106125c957fe5b6020020181815250508080600101915050612563565b50806020015151868683604001515186869650965096509650965096505091939550919395565b600080600280549050600180549050915091509091565b806001805490501461267a576040517f08c379a000000000000000000000000000000000000000000000000000000000815260040180806020018281038252603e815260200180615b8a603e913960400191505060405180910390fd5b600180818180549050019150816126919190615730565b5050565b600080600069ffffffffffffffffffff905060008473ffffffffffffffffffffffffffffffffffffffff169050605082198216901c935081811692508383935093505050915091565b600060026126ea6142e1565b815481106126f457fe5b906000526020600020906010020160050160000160050190506127156142e1565b81600001600001819055508181600201819055505050565b600080600280549050831061278d576040517f08c379a0000000000000000000000000000000000000000000000000000000008152600401808060200182810382526033815260200180615bc86033913960400191505060405180910390fd5b6127956156b1565b600284815481106127a257fe5b90600052602060002090601002016040518060a0016040529081600082015481526020016001820154815260200160028201548152602001600382016040518060400160405290816000820160009054906101000a900460ff16600581111561280757fe5b600581111561281257fe5b815260200160018201548152505081526020016005820160405180602001604052908160008201604051806060016040529081600082016040518060a001604052908160008201604051806020016040529081600082015481525050815260200160018201604051806020016040529081600082015481525050815260200160028201548152602001600382015481526020016004820154815250508152602001600582016040518060600160405290816000820160405180602001604052908160008201548152505081526020016001820160405180602001604052908160008201548152505081526020016002820154815250508152602001600882016040518060600160405290816000820160405180602001604052908160008201548152505081526020016001820160405180602001604052908160008201548152505081526020016002820154815250508152505081525050815250509050806060015160000151600581111561298457fe5b8160600151602001519250925050915091565b6000600180808054905003815481106129ac57fe5b906000526020600020906003020190506129c4615762565b60405180604001604052808581526020018481525090508415612a2d578160010181908060018154018082558091505090600182039060005260206000209060020201600090919290919091506000820151816000015560208201518160010155505050612a75565b81600201819080600181540180825580915050906001820390600052602060002090600202016000909192909190915060008201518160000155602082015181600101555050505b5050505050565b6000600560003373ffffffffffffffffffffffffffffffffffffffff1673ffffffffffffffffffffffffffffffffffffffff16815260200190815260200160002090508060000160009054906101000a900460ff16612ae357612ae281333360036142f1565b5b50565b600080600080612af4615640565b600560008773ffffffffffffffffffffffffffffffffffffffff1673ffffffffffffffffffffffffffffffffffffffff168152602001908152602001600020604051806101400160405290816000820160009054906101000a900460ff16151515158152602001600182016040518060400160405290816000820154815260200160018201548152505081526020016003820160009054906101000a900473ffffffffffffffffffffffffffffffffffffffff1673ffffffffffffffffffffffffffffffffffffffff1673ffffffffffffffffffffffffffffffffffffffff1681526020016004820154815260200160058201805480602002602001604051908101604052809291908181526020016000905b82821015612c6b57838290600052602060002090600302016040518060600160405290816000820160405180602001604052908160008201548152505081526020016001820154815260200160028201548152505081526020019060010190612c07565b5050505081526020016006820154815260200160078201805480602002602001604051908101604052809291908181526020016000905b82821015612d2e57838290600052602060002090600502016040518060a0016040529081600082016040518060200160405290816000820154815250508152602001600182016040518060200160405290816000820154815250508152602001600282015481526020016003820154815260200160048201548152505081526020019060010190612ca2565b50505050815260200160088201805480602002602001604051908101604052809291908181526020016000905b82821015612dd3578382906000526020600020906003020160405180606001604052908160008201604051806020016040529081600082015481525050815260200160018201604051806020016040529081600082015481525050815260200160028201548152505081526020019060010190612d5b565b50505050815260200160098201805480602002602001604051908101604052809291908181526020016000905b82821015612e78578382906000526020600020906003020160405180606001604052908160008201604051806020016040529081600082015481525050815260200160018201604051806020016040529081600082015481525050815260200160028201548152505081526020019060010190612e00565b505050508152602001600a8201805480602002602001604051908101604052809291908181526020016000905b82821015612f6957838290600052602060002090600502016040518060a00160405290816000820160405180602001604052908160008201548152505081526020016001820154815260200160028201548152602001600382015481526020016004820160009054906101000a900473ffffffffffffffffffffffffffffffffffffffff1673ffffffffffffffffffffffffffffffffffffffff1673ffffffffffffffffffffffffffffffffffffffff168152505081526020019060010190612ea5565b50505050815250509050806000015181604001518260200151600001518360200151602001519450945094509450509193509193565b6000612fa9615640565b83604051806101400160405290816000820160009054906101000a900460ff16151515158152602001600182016040518060400160405290816000820154815260200160018201548152505081526020016003820160009054906101000a900473ffffffffffffffffffffffffffffffffffffffff1673ffffffffffffffffffffffffffffffffffffffff1673ffffffffffffffffffffffffffffffffffffffff1681526020016004820154815260200160058201805480602002602001604051908101604052809291908181526020016000905b828210156130e25783829060005260206000209060030201604051806060016040529081600082016040518060200160405290816000820154815250508152602001600182015481526020016002820154815250508152602001906001019061307e565b5050505081526020016006820154815260200160078201805480602002602001604051908101604052809291908181526020016000905b828210156131a557838290600052602060002090600502016040518060a0016040529081600082016040518060200160405290816000820154815250508152602001600182016040518060200160405290816000820154815250508152602001600282015481526020016003820154815260200160048201548152505081526020019060010190613119565b50505050815260200160088201805480602002602001604051908101604052809291908181526020016000905b8282101561324a5783829060005260206000209060030201604051806060016040529081600082016040518060200160405290816000820154815250508152602001600182016040518060200160405290816000820154815250508152602001600282015481525050815260200190600101906131d2565b50505050815260200160098201805480602002602001604051908101604052809291908181526020016000905b828210156132ef578382906000526020600020906003020160405180606001604052908160008201604051806020016040529081600082015481525050815260200160018201604051806020016040529081600082015481525050815260200160028201548152505081526020019060010190613277565b505050508152602001600a8201805480602002602001604051908101604052809291908181526020016000905b828210156133e057838290600052602060002090600502016040518060a00160405290816000820160405180602001604052908160008201548152505081526020016001820154815260200160028201548152602001600382015481526020016004820160009054906101000a900473ffffffffffffffffffffffffffffffffffffffff1673ffffffffffffffffffffffffffffffffffffffff1673ffffffffffffffffffffffffffffffffffffffff16815250508152602001906001019061331c565b505050508152505090506133f2615762565b6133fa6156b1565b60008090505b85602001515181101561363d578560200151818151811061341d57fe5b60200260200101519250600283600001518154811061343857fe5b90600052602060002090601002016040518060a0016040529081600082015481526020016001820154815260200160028201548152602001600382016040518060400160405290816000820160009054906101000a900460ff16600581111561349d57fe5b60058111156134a857fe5b815260200160018201548152505081526020016005820160405180602001604052908160008201604051806060016040529081600082016040518060a00160405290816000820160405180602001604052908160008201548152505081526020016001820160405180602001604052908160008201548152505081526020016002820154815260200160038201548152602001600482015481525050815260200160058201604051806060016040529081600082016040518060200160405290816000820154815250508152602001600182016040518060200160405290816000820154815250508152602001600282015481525050815260200160088201604051806060016040529081600082016040518060200160405290816000820154815250508152602001600182016040518060200160405290816000820154815250508152602001600282015481525050815250508152505081525050915061361587838560200151613ee2565b61363057613623848861440b565b600094505050505061388a565b8080600101915050613400565b5060008090505b856040015151811015613881578560400151818151811061366157fe5b60200260200101519250600283600001518154811061367c57fe5b90600052602060002090601002016040518060a0016040529081600082015481526020016001820154815260200160028201548152602001600382016040518060400160405290816000820160009054906101000a900460ff1660058111156136e157fe5b60058111156136ec57fe5b815260200160018201548152505081526020016005820160405180602001604052908160008201604051806060016040529081600082016040518060a0016040529081600082016040518060200160405290816000820154815250508152602001600182016040518060200160405290816000820154815250508152602001600282015481526020016003820154815260200160048201548152505081526020016005820160405180606001604052908160008201604051806020016040529081600082015481525050815260200160018201604051806020016040529081600082015481525050815260200160028201548152505081526020016008820160405180606001604052908160008201604051806020016040529081600082015481525050815260200160018201604051806020016040529081600082015481525050815260200160028201548152505081525050815250508152505091506138598783856020015161460f565b61387457613867848861440b565b600094505050505061388a565b8080600101915050613644565b50600193505050505b92915050565b600061389a6155f5565b83600a0183815481106138a957fe5b90600052602060002090600502016040518060a00160405290816000820160405180602001604052908160008201548152505081526020016001820154815260200160028201548152602001600382015481526020016004820160009054906101000a900473ffffffffffffffffffffffffffffffffffffffff1673ffffffffffffffffffffffffffffffffffffffff1673ffffffffffffffffffffffffffffffffffffffff16815250509050600060056000836080015173ffffffffffffffffffffffffffffffffffffffff1673ffffffffffffffffffffffffffffffffffffffff16815260200190815260200160002090506139a56156b1565b60028360200151815481106139b657fe5b90600052602060002090601002016040518060a0016040529081600082015481526020016001820154815260200160028201548152602001600382016040518060400160405290816000820160009054906101000a900460ff166005811115613a1b57fe5b6005811115613a2657fe5b815260200160018201548152505081526020016005820160405180602001604052908160008201604051806060016040529081600082016040518060a0016040529081600082016040518060200160405290816000820154815250508152602001600182016040518060200160405290816000820154815250508152602001600282015481526020016003820154815260200160048201548152505081526020016005820160405180606001604052908160008201604051806020016040529081600082015481525050815260200160018201604051806020016040529081600082015481525050815260200160028201548152505081526020016008820160405180606001604052908160008201604051806020016040529081600082015481525050815260200160018201604051806020016040529081600082015481525050815260200160028201548152505081525050815250508152505090508160030160009054906101000a900473ffffffffffffffffffffffffffffffffffffffff1673ffffffffffffffffffffffffffffffffffffffff168660030160009054906101000a900473ffffffffffffffffffffffffffffffffffffffff1673ffffffffffffffffffffffffffffffffffffffff1614613c3e57613c07613c9c565b6000015181600001511415613c3257613c2586828560600151613ee2565b50613c31868385614a1c565b5b60019350505050613c96565b613c908660056000866080015173ffffffffffffffffffffffffffffffffffffffff1673ffffffffffffffffffffffffffffffffffffffff168152602001908152602001600020838660600151614b2c565b93505050505b92915050565b613ca46156b1565b6000600360046005811115613cb557fe5b81548110613cbf57fe5b9060005260206000200160016002811115613cd657fe5b81548110613ce057fe5b90600052602060002001600081548110613cf657fe5b9060005260206000200154905060028181548110613d1057fe5b90600052602060002090601002016040518060a0016040529081600082015481526020016001820154815260200160028201548152602001600382016040518060400160405290816000820160009054906101000a900460ff166005811115613d7557fe5b6005811115613d8057fe5b815260200160018201548152505081526020016005820160405180602001604052908160008201604051806060016040529081600082016040518060a0016040529081600082016040518060200160405290816000820154815250508152602001600182016040518060200160405290816000820154815250508152602001600282015481526020016003820154815260200160048201548152505081526020016005820160405180606001604052908160008201604051806020016040529081600082015481525050815260200160018201604051806020016040529081600082015481525050815260200160028201548152505081526020016008820160405180606001604052908160008201604051806020016040529081600082015481525050815260200160018201604051806020016040529081600082015481525050815260200160028201548152505081525050815250508152505091505090565b60008082905060016005811115613ef557fe5b8460600151600001516005811115613f0957fe5b141561401e5760008090505b856005018054905081108015613f2b5750600082115b1561401857856005018181548110613f3f57fe5b9060005260206000209060030201600001600001548560000151141561400b57856005018181548110613f6e57fe5b906000526020600020906003020160020154821015613fbe5781866005018281548110613f9757fe5b9060005260206000209060030201600201600082825403925050819055506000915061400a565b856005018181548110613fcd57fe5b906000526020600020906003020160020154820391506000866005018281548110613ff457fe5b9060005260206000209060030201600201819055505b5b8080600101915050613f15565b506142d3565b6002600581111561402b57fe5b846060015160000151600581111561403f57fe5b14156141515760008090505b8560070180549050811080156140615750600082115b1561414b5785600701818154811061407557fe5b9060005260206000209060050201600201548560000151141561413e578560070181815481106140a157fe5b9060005260206000209060050201600401548210156140f157818660070182815481106140ca57fe5b9060005260206000209060050201600401600082825403925050819055506000915061413d565b85600701818154811061410057fe5b90600052602060002090600502016004015482039150600086600701828154811061412757fe5b9060005260206000209060050201600401819055505b5b808060010191505061404b565b506142d2565b6003600581111561415e57fe5b846060015160000151600581111561417257fe5b1415614286576003600481111561418557fe5b84606001516020015114156141fe5760008090505b8560090180549050811080156141b05750600082115b156141f85784600001518660090182815481106141c957fe5b90600052602060002090600302016000016000015414156141eb576001820391505b808060010191505061419a565b50614281565b6002600481111561420b57fe5b84606001516020015114156142805760008090505b8560080180549050811080156142365750600082115b1561427e57846000015186600801828154811061424f57fe5b9060005260206000209060030201600001600001541415614271576001820391505b8080600101915050614220565b505b5b6142d1565b6004600581111561429357fe5b84606001516000015160058111156142a757fe5b14156142d057846006015481116142cf57808560060160008282540392505081905550600090505b5b5b5b5b600081149150509392505050565b6000600160028054905003905090565b8360000160009054906101000a900460ff1615614359576040517f08c379a0000000000000000000000000000000000000000000000000000000008152600401808060200182810382526032815260200180615c2e6032913960400191505060405180910390fd5b828460030160006101000a81548173ffffffffffffffffffffffffffffffffffffffff021916908373ffffffffffffffffffffffffffffffffffffffff16021790555060018460000160006101000a81548160ff0219169083151502179055506000806143c584612695565b915091506040518060400160405280838152602001828152508660010160008201518160000155602082015181600101559050506144038684615413565b505050505050565b8160c00151518160070181614420919061577c565b5060008090505b8260c00151518110156144c1578260c00151818151811061444457fe5b602002602001015182600701828154811061445b57fe5b90600052602060002090600502016000820151816000016000820151816000015550506020820151816001016000820151816000015550506040820151816002015560608201518160030155608082015181600401559050508080600101915050614427565b508160e001515181600801816144d791906157ae565b5060008090505b8260e0015151811015614564578260e0015181815181106144fb57fe5b602002602001015182600801828154811061451257fe5b90600052602060002090600302016000820151816000016000820151816000015550506020820151816001016000820151816000015550506040820151816002015590505080806001019150506144de565b5081610100015151816009018161457b91906157e0565b5060008090505b8261010001515181101561460a5782610100015181815181106145a157fe5b60200260200101518260090182815481106145b857fe5b9060005260206000209060030201600082015181600001600082015181600001555050602082015181600101600082015181600001555050604082015181600201559050508080600101915050614582565b505050565b6000808290506003600581111561462257fe5b846060015160000151600581111561463657fe5b1415614813576001600481111561464957fe5b84606001516020015114156146e45784600701846080015160000151600001519080600181540180825580915050906001820390600052602060002090600502016000909192909190915060008201518160000160008201518160000155505060208201518160010160008201518160000155505060408201518160020155606082015181600301556080820151816004015550505061480a565b600260048111156146f157fe5b84606001516020015114156147785784600801846080015160000151602001519080600181540180825580915050906001820390600052602060002090600302016000909192909190915060008201518160000160008201518160000155505060208201518160010160008201518160000155505060408201518160020155505050614809565b6003600481111561478557fe5b846060015160200151141561480857846009018460800151600001516040015190806001815401808255809150509060018203906000526020600020906003020160009091929091909150600082015181600001600082015181600001555050602082015181600101600082015181600001555050604082015181600201555050505b5b5b60009050614a0e565b6002600581111561482057fe5b846060015160000151600581111561483457fe5b148061485e57506001600581111561484857fe5b846060015160000151600581111561485c57fe5b145b156149ce5760008090505b85600701805490508110801561487f5750600082115b156149c85785600701818154811061489357fe5b906000526020600020906005020160020154856000015114156149bb57818660070182815481106148c057fe5b9060005260206000209060050201600401600082825401925050819055508560070181815481106148ed57fe5b90600052602060002090600502016003015486600701828154811061490e57fe5b90600052602060002090600502016004015411156149b55785600701818154811061493557fe5b90600052602060002090600502016003015486600701828154811061495657fe5b90600052602060002090600502016004015403915085600701818154811061497a57fe5b90600052602060002090600502016003015486600701828154811061499b57fe5b9060005260206000209060050201600401819055506149ba565b600091505b5b8080600101915050614869565b50614a0d565b600460058111156149db57fe5b84606001516000015160058111156149ef57fe5b1415614a0c57808560060160008282540192505081905550600090505b5b5b600081149150509392505050565b6000816060015183600601540390506000811215614b1c578260000160009054906101000a900460ff16614a8457614a7f838560030160009054906101000a900473ffffffffffffffffffffffffffffffffffffffff16846080015160036142f1565b614b17565b8360030160009054906101000a900473ffffffffffffffffffffffffffffffffffffffff168360030160006101000a81548173ffffffffffffffffffffffffffffffffffffffff021916908373ffffffffffffffffffffffffffffffffffffffff1602179055507fffffffffffffffffffffffffffffffffffffffffffffffffffffffffffffffff810283600601819055505b614b26565b8083600601819055505b50505050565b6000614b36615640565b85604051806101400160405290816000820160009054906101000a900460ff16151515158152602001600182016040518060400160405290816000820154815260200160018201548152505081526020016003820160009054906101000a900473ffffffffffffffffffffffffffffffffffffffff1673ffffffffffffffffffffffffffffffffffffffff1673ffffffffffffffffffffffffffffffffffffffff1681526020016004820154815260200160058201805480602002602001604051908101604052809291908181526020016000905b82821015614c6f57838290600052602060002090600302016040518060600160405290816000820160405180602001604052908160008201548152505081526020016001820154815260200160028201548152505081526020019060010190614c0b565b5050505081526020016006820154815260200160078201805480602002602001604051908101604052809291908181526020016000905b82821015614d3257838290600052602060002090600502016040518060a0016040529081600082016040518060200160405290816000820154815250508152602001600182016040518060200160405290816000820154815250508152602001600282015481526020016003820154815260200160048201548152505081526020019060010190614ca6565b50505050815260200160088201805480602002602001604051908101604052809291908181526020016000905b82821015614dd7578382906000526020600020906003020160405180606001604052908160008201604051806020016040529081600082015481525050815260200160018201604051806020016040529081600082015481525050815260200160028201548152505081526020019060010190614d5f565b50505050815260200160098201805480602002602001604051908101604052809291908181526020016000905b82821015614e7c578382906000526020600020906003020160405180606001604052908160008201604051806020016040529081600082015481525050815260200160018201604051806020016040529081600082015481525050815260200160028201548152505081526020019060010190614e04565b505050508152602001600a8201805480602002602001604051908101604052809291908181526020016000905b82821015614f6d57838290600052602060002090600502016040518060a00160405290816000820160405180602001604052908160008201548152505081526020016001820154815260200160028201548152602001600382015481526020016004820160009054906101000a900473ffffffffffffffffffffffffffffffffffffffff1673ffffffffffffffffffffffffffffffffffffffff1673ffffffffffffffffffffffffffffffffffffffff168152505081526020019060010190614ea9565b50505050815250509050614f7f615640565b85604051806101400160405290816000820160009054906101000a900460ff16151515158152602001600182016040518060400160405290816000820154815260200160018201548152505081526020016003820160009054906101000a900473ffffffffffffffffffffffffffffffffffffffff1673ffffffffffffffffffffffffffffffffffffffff1673ffffffffffffffffffffffffffffffffffffffff1681526020016004820154815260200160058201805480602002602001604051908101604052809291908181526020016000905b828210156150b857838290600052602060002090600302016040518060600160405290816000820160405180602001604052908160008201548152505081526020016001820154815260200160028201548152505081526020019060010190615054565b5050505081526020016006820154815260200160078201805480602002602001604051908101604052809291908181526020016000905b8282101561517b57838290600052602060002090600502016040518060a00160405290816000820160405180602001604052908160008201548152505081526020016001820160405180602001604052908160008201548152505081526020016002820154815260200160038201548152602001600482015481525050815260200190600101906150ef565b50505050815260200160088201805480602002602001604051908101604052809291908181526020016000905b828210156152205783829060005260206000209060030201604051806060016040529081600082016040518060200160405290816000820154815250508152602001600182016040518060200160405290816000820154815250508152602001600282015481525050815260200190600101906151a8565b50505050815260200160098201805480602002602001604051908101604052809291908181526020016000905b828210156152c557838290600052602060002090600302016040518060600160405290816000820160405180602001604052908160008201548152505081526020016001820160405180602001604052908160008201548152505081526020016002820154815250508152602001906001019061524d565b505050508152602001600a8201805480602002602001604051908101604052809291908181526020016000905b828210156153b657838290600052602060002090600502016040518060a00160405290816000820160405180602001604052908160008201548152505081526020016001820154815260200160028201548152602001600382015481526020016004820160009054906101000a900473ffffffffffffffffffffffffffffffffffffffff1673ffffffffffffffffffffffffffffffffffffffff1673ffffffffffffffffffffffffffffffffffffffff1681525050815260200190600101906152f2565b505050508152505090506153cb878686613ee2565b1580156153e057506153de86868661460f565b155b15615404576153ef828861440b565b6153f9818761440b565b60009250505061540b565b6001925050505b949350505050565b61541b615812565b826001016040518060400160405290816000820154815260200160018201548152505090506060826001600581111561545057fe5b8154811061545a57fe5b906000526020600020016001600281111561547157fe5b8154811061547b57fe5b906000526020600020018054806020026020016040519081016040528092919081815260200182805480156154cf57602002820191906000526020600020905b8154815260200190600101908083116154bb575b505050505090506000600f905060008184600001511690506000600a905060008183816154f857fe5b06905060008090505b818110156155ea57600485901b945084876000015116935061552161582c565b868751868161552c57fe5b068151811061553757fe5b60200260200101518160000151600001818152505060006064905080868161555b57fe5b0682604001818152505060006064905080878161557457fe5b068360200181815250508b600501839080600181540180825580915050906001820390600052602060002090600302016000909192909190915060008201518160000160008201518160000155505060208201518160010155604082015181600201555050505050508080600101915050615501565b505050505050505050565b6040518060a00160405280615608615853565b8152602001600081526020016000815260200160008152602001600073ffffffffffffffffffffffffffffffffffffffff1681525090565b60405180610140016040528060001515815260200161565d615866565b8152602001600073ffffffffffffffffffffffffffffffffffffffff168152602001600081526020016060815260200160008152602001606081526020016060815260200160608152602001606081525090565b6040518060a001604052806000815260200160008152602001600081526020016156d9615880565b81526020016156e66158a5565b81525090565b604051806106400160405280603290602082028038833980820191505090505090565b60405180606001604052806000815260200160608152602001606081525090565b81548183558181111561575d5760030281600302836000526020600020918201910161575c91906158be565b5b505050565b604051806040016040528060008152602001600081525090565b8154818355818111156157a9576005028160050283600052602060002091820191016157a89190615905565b5b505050565b8154818355818111156157db576003028160030283600052602060002091820191016157da919061595a565b5b505050565b81548183558181111561580d5760030281600302836000526020600020918201910161580c919061599f565b5b505050565b604051806040016040528060008152602001600081525090565b604051806060016040528061583f6159e4565b815260200160008152602001600081525090565b6040518060200160405280600081525090565b604051806040016040528060008152602001600081525090565b60405180604001604052806000600581111561589857fe5b8152602001600081525090565b60405180602001604052806158b86159f7565b81525090565b61590291905b808211156158fe576000808201600090556001820160006158e59190615a2a565b6002820160006158f59190615a2a565b506003016158c4565b5090565b90565b61595791905b8082111561595357600080820160008082016000905550506001820160008082016000905550506002820160009055600382016000905560048201600090555060050161590b565b5090565b90565b61599c91905b808211156159985760008082016000808201600090555050600182016000808201600090555050600282016000905550600301615960565b5090565b90565b6159e191905b808211156159dd57600080820160008082016000905550506001820160008082016000905550506002820160009055506003016159a5565b5090565b90565b6040518060200160405280600081525090565b6040518060600160405280615a0a615a4e565b8152602001615a17615a89565b8152602001615a24615ab6565b81525090565b5080546000825560020290600052602060002090810190615a4b9190615ae3565b50565b6040518060a00160405280615a616159e4565b8152602001615a6e615853565b81526020016000815260200160008152602001600081525090565b6040518060600160405280615a9c6159e4565b8152602001615aa9615853565b8152602001600081525090565b6040518060600160405280615ac96159e4565b8152602001615ad6615853565b8152602001600081525090565b615b0f91905b80821115615b0b57600080820160009055600182016000905550600201615ae9565b5090565b9056fe526571756972652062726964676520746f206d6f7665204150207768656e20656e64696e6720617420756e6f776e656420736563746f7252657175697265207468617420736563746f72207265666572656e6365642062792061646472657373206973206f776e6564206279207468652063616c6c65725265717569726520746861742063616c6c6572206b6e6f772074686520696420746865207472616e73666f726d6174696f6e206265696e67206164646564526571756972652074686174206974656d49642069732077697468696e2072616e6765206f662076616c6964206974656d732e5265717569726520746861742063616c6c6572206b6e6f7720746865206964206f66206974656d206265696e6720616464656452657175697265207468617420676976656e20736563746f7220686173206e6f74206265656e20696e697469616c697a6564a265627a7a7231582074a0b0a9c0330caa723333ee31f60be746d44a6b9ff42576228f266fe1f9a33d64736f6c634300050c0032",
  "source": "pragma solidity ^0.5.0;\r\n\r\nimport \"./types/TypesItem.sol\";\r\nimport \"./types/TypesTransformation.sol\";\r\nimport \"./types/TypesSector.sol\";\r\n\r\nimport \"./ProductionManager.sol\";\r\n\r\ncontract Game is\r\n    TypesItem, TypesTransformation, TypesSector,\r\n    ProductionManager\r\n    {\r\n\r\n\r\n    uint public testUINT = 7;\r\n\r\n    constructor() ProductionManager() public  {\r\n\r\n    }\r\n    /**************************************************************\r\n    Data\r\n    **************************************************************/\r\n\r\n    mapping (address => Sector) private sectors;\r\n\r\n    /**************************************************************\r\n    External functions - full\r\n    **************************************************************/\r\n\r\n    /**\r\n\r\n    */\r\n    function getSectorAp(address sectorAddress) external view returns(uint) {\r\n        return sectors[sectorAddress].ap;\r\n    }\r\n\r\n    /**\r\n    A primary game function that is called to make a sector's buildings act.\r\n    */\r\n    function tickSector(\r\n        address sectorAddress\r\n    ) external callerOwnsSector(sectorAddress) returns(\r\n        bool wasSuccessful,bool wasSuccessful1,bool wasSuccessful2\r\n    ){\r\n        Sector storage sector = sectors[sectorAddress];\r\n\r\n        bool extractorsSuccesful = true;\r\n        for(uint i = 0; i < sector.extractors.length; i++){\r\n            extractorsSuccesful = proccessTransformation(\r\n                sector,\r\n                transformations[sector.extractors[i].targetTransformationId]\r\n            );\r\n        }\r\n\r\n        bool assemberlsSuccesful = true;\r\n        for(uint i = 0; i < sector.assemblers.length; i++){\r\n            assemberlsSuccesful = proccessTransformation(\r\n                sector,\r\n                transformations[sector.assemblers[i].targetTransformationId]\r\n            );\r\n        }\r\n\r\n        bool bridgesSuccesful = true;\r\n        for(uint i = 0; i < sector.bridges.length; i++){\r\n            bridgesSuccesful = processBridge(\r\n                sector,\r\n                i\r\n           );\r\n        }\r\n\r\n        return (\r\n            extractorsSuccesful,\r\n            assemberlsSuccesful,\r\n            bridgesSuccesful\r\n        );\r\n    }\r\n\r\n    function createBridge(\r\n        address sectorAddressSource,\r\n        address sectorAddressTarget,\r\n        uint targetItemId\r\n    )\r\n        external\r\n        callerOwnsSector(sectorAddressSource)\r\n    {\r\n\r\n        Sector storage sector = sectors[sectorAddressSource];\r\n\r\n        if(sectors[sectorAddressTarget].owner != msg.sender){\r\n            require(\r\n                targetItemId == getApItem().id,\r\n                \"Require bridge to move AP when ending at unowned sector\"\r\n            );\r\n        }\r\n\r\n        Bridge memory bridge;\r\n        bridge.targetItemId = targetItemId;\r\n        bridge.endSector = sectorAddressTarget;\r\n\r\n        bridge.curRate = 0;\r\n        bridge.maxRate = 0;\r\n\r\n        sector.bridges.push(bridge);\r\n    }\r\n\r\n    function setBridge(\r\n        address sectorAddress,\r\n        uint bridgeId,\r\n        uint newRate\r\n    )\r\n        external\r\n        callerOwnsSector(sectorAddress)\r\n        returns(bool)\r\n    {\r\n        Sector storage sector = sectors[sectorAddress];\r\n\r\n        require(\r\n            bridgeId < sector.bridges.length,\r\n            \"Require valid bridgeId\"\r\n        );\r\n\r\n        Bridge storage bridge = sector.bridges[bridgeId];\r\n\r\n        if(bridge.maxRate >= newRate){\r\n            bridge.curRate = newRate;\r\n        }else{\r\n            if(consumeItem(sector, getApItem(), newRate - bridge.maxRate)){\r\n                bridge.maxRate = newRate;\r\n                bridge.curRate = newRate;\r\n            }else{\r\n                return false;\r\n            }\r\n        }\r\n        return true;\r\n    }\r\n\r\n    /**\r\n    Native sector is one with the same key address as the caller. If this\r\n    sector hasn't been annexed or initialized this will do so .\r\n    */\r\n    function initializeNativeSector() external {\r\n        Sector storage nativeSector = sectors[msg.sender];\r\n        if(!nativeSector.initialized){\r\n            initializeSector(\r\n                nativeSector,\r\n                msg.sender,\r\n                msg.sender,\r\n                itemIdsByType\r\n            );\r\n        }\r\n    }\r\n\r\n\r\n    /**\r\n    This function attempts to execute a transformation that was externally\r\n    called. Intended for building placeable items in a sector.\r\n\r\n    */\r\n    function manualTransformation(\r\n        address sectorAddress,\r\n        uint transformationId\r\n    )\r\n    external callerOwnsSector(sectorAddress)\r\n    returns (bool){\r\n        return proccessTransformation(\r\n            sectors[sectorAddress],\r\n            transformations[transformationId]\r\n        );\r\n    }\r\n\r\n    /**************************************************************\r\n    Public functions   - view, pure\r\n    **************************************************************/\r\n\r\n    function getSectorAttributes(address sectorAddress) public view returns (\r\n        bool initialized,\r\n        address owner,\r\n        uint xAngle,\r\n        uint zAngle\r\n    ){\r\n        Sector memory sector = sectors[sectorAddress];\r\n\r\n        return (\r\n            sector.initialized,\r\n            sector.owner,\r\n            sector.cordinates.xAngle,\r\n            sector.cordinates.zAngle\r\n        );\r\n    }\r\n\r\n    function getSectorSilos(address sectorAddress) public view returns (\r\n        uint[] memory itemIds,\r\n        uint[] memory itemQuantities\r\n    ){\r\n\r\n        Sector memory sector = sectors[sectorAddress];\r\n        uint siloCount = sector.silos.length;\r\n\r\n        itemIds = new uint[](siloCount);\r\n        itemQuantities = new uint[](siloCount);\r\n\r\n        for(uint i = 0; i < sector.silos.length; i++){\r\n            itemIds[i] = sector.silos[i].targetItemId;\r\n            itemQuantities[i] = sector.silos[i].curQuantity;\r\n        }\r\n\r\n        return (\r\n            itemIds,\r\n            itemQuantities\r\n        );\r\n    }\r\n\r\n    function getSectorNaturalResources(\r\n        address sectorAddress\r\n    )\r\n    public view returns (\r\n        uint[] memory itemIds,\r\n        uint[] memory remainingQuantities\r\n    ){\r\n        Sector memory sector = sectors[sectorAddress];\r\n        uint naturalResourceCount = sector.naturalResources.length;\r\n\r\n        itemIds = new uint[](naturalResourceCount);\r\n        remainingQuantities = new uint[](naturalResourceCount);\r\n\r\n        for(uint i = 0; i < naturalResourceCount; i++){\r\n            itemIds[i] = sector\r\n                .naturalResources[i]\r\n                .itemIntf\r\n                .itemId;\r\n\r\n            remainingQuantities[i] = sector\r\n                .naturalResources[i]\r\n                .remainingQuantity;\r\n        }\r\n    }\r\n\r\n    /**************************************************************\r\n    Internal functions - full\r\n    **************************************************************/\r\n\r\n    function processBridge(\r\n        Sector storage startSector,\r\n        uint bridgeId\r\n    ) internal returns (bool wasSuccessful){\r\n        Bridge memory bridge = startSector.bridges[bridgeId];\r\n        Sector storage endSector = sectors[bridge.endSector];\r\n        ItemProperties memory item = items[bridge.targetItemId];\r\n\r\n        if(startSector.owner != endSector.owner){\r\n            /*\r\n            A sector with bridges ending at it could be taken by another. In\r\n            that case just stop the bridges from doing anything.\r\n            */\r\n            if(item.id == getApItem().id){\r\n                consumeItem(startSector, item, bridge.curRate);\r\n                proccessAttack(startSector, endSector, bridge);\r\n            }\r\n\r\n            return true;\r\n        }else{\r\n            return transferItem(\r\n                startSector,\r\n                sectors[bridge.endSector],\r\n                item,\r\n                bridge.curRate\r\n            );\r\n        }\r\n    }\r\n\r\n    /**\r\n\r\n    */\r\n    function proccessAttack(\r\n        Sector storage sectorSource,\r\n        Sector storage sectorTarget,\r\n        Bridge memory bridge\r\n    ) internal {\r\n        int apNegated = int(sectorTarget.ap) - int(bridge.curRate);\r\n\r\n        if(apNegated < 0){\r\n            if(!sectorTarget.initialized){\r\n                initializeSector(\r\n                    sectorTarget,\r\n                    sectorSource.owner,\r\n                    bridge.endSector,\r\n                    itemIdsByType\r\n                );\r\n            }else{\r\n                sectorTarget.owner = sectorSource.owner;\r\n                sectorTarget.ap = uint(apNegated * -1);\r\n            }\r\n        }else{\r\n            sectorTarget.ap = uint(apNegated);\r\n        }\r\n    }\r\n\r\n    /**************************************************************\r\n    Modifiers\r\n    **************************************************************/\r\n\r\n    modifier callerOwnsSector(address sectorAddress) {\r\n        require(\r\n            msg.sender == sectors[sectorAddress].owner,\r\n            \"Require that sector referenced by address is owned by the caller\"\r\n        );\r\n        _;\r\n    }\r\n}",
  "sourcePath": "C:/Users/Idan/Desktop/crypto_game/contracts/Game.sol",
  "compiler": {
    "name": "solc",
    "version": "0.5.12+commit.7709ece9.Emscripten.clang"
  },
  "schemaVersion": "3.0.19",
  "updatedAt": "2019-12-17T06:25:01.582Z",
  "networkType": "ethereum",
  "devdoc": {
    "methods": {}
  },
  "userdoc": {
    "methods": {
      "addItem(uint256,uint256,uint256)": {
        "notice": "************************************************************ External functions - full*************************************************************"
      },
      "convertAddressToCordinateTuple(address)": {
        "notice": "************************************************************ Public Views/Pure*************************************************************"
      },
      "getSectorAttributes(address)": {
        "notice": "************************************************************ Public functions   - view, pure*************************************************************"
      },
      "getTransformationProperties(uint256)": {
        "notice": "************************************************************ External functions - view, pure*************************************************************"
      },
      "initializeNativeSector()": {
        "notice": "Native sector is one with the same key address as the caller. If this sector hasn't been annexed or initialized this will do so ."
      },
      "manualTransformation(address,uint256)": {
        "notice": "This function attempts to execute a transformation that was externally called. Intended for building placeable items in a sector."
      },
      "tickSector(address)": {
        "notice": "A primary game function that is called to make a sector's buildings act."
      }
    }
  }
}