{
  "contractName": "ProductionManager",
  "abi": [
    {
      "constant": false,
      "inputs": [
        {
          "internalType": "uint256",
          "name": "targetTransformationId",
          "type": "uint256"
        }
      ],
      "name": "addAssemblerProperties",
      "outputs": [],
      "payable": false,
      "stateMutability": "nonpayable",
      "type": "function"
    },
    {
      "constant": false,
      "inputs": [
        {
          "internalType": "uint256",
          "name": "targetTransformationId",
          "type": "uint256"
        }
      ],
      "name": "addExtractorProperties",
      "outputs": [],
      "payable": false,
      "stateMutability": "nonpayable",
      "type": "function"
    },
    {
      "constant": false,
      "inputs": [
        {
          "internalType": "uint256",
          "name": "itemId",
          "type": "uint256"
        },
        {
          "internalType": "uint256",
          "name": "itemCategory",
          "type": "uint256"
        },
        {
          "internalType": "uint256",
          "name": "itemSubType",
          "type": "uint256"
        }
      ],
      "name": "addItem",
      "outputs": [],
      "payable": false,
      "stateMutability": "nonpayable",
      "type": "function"
    },
    {
      "constant": false,
      "inputs": [
        {
          "internalType": "uint256",
          "name": "targetItemId",
          "type": "uint256"
        },
        {
          "internalType": "uint256",
          "name": "maxQuantity",
          "type": "uint256"
        }
      ],
      "name": "addSiloProperties",
      "outputs": [],
      "payable": false,
      "stateMutability": "nonpayable",
      "type": "function"
    },
    {
      "constant": false,
      "inputs": [
        {
          "internalType": "uint256",
          "name": "transformationId",
          "type": "uint256"
        }
      ],
      "name": "addTransformation",
      "outputs": [],
      "payable": false,
      "stateMutability": "nonpayable",
      "type": "function"
    },
    {
      "constant": false,
      "inputs": [
        {
          "internalType": "bool",
          "name": "isInput",
          "type": "bool"
        },
        {
          "internalType": "uint256",
          "name": "itemId",
          "type": "uint256"
        },
        {
          "internalType": "uint256",
          "name": "quantity",
          "type": "uint256"
        }
      ],
      "name": "addTransformationElement",
      "outputs": [],
      "payable": false,
      "stateMutability": "nonpayable",
      "type": "function"
    },
    {
      "constant": true,
      "inputs": [
        {
          "internalType": "address",
          "name": "addressToConvert",
          "type": "address"
        }
      ],
      "name": "convertAddressToCordinateTuple",
      "outputs": [
        {
          "internalType": "uint256",
          "name": "xAngle",
          "type": "uint256"
        },
        {
          "internalType": "uint256",
          "name": "zAngle",
          "type": "uint256"
        }
      ],
      "payable": false,
      "stateMutability": "pure",
      "type": "function"
    },
    {
      "constant": true,
      "inputs": [
        {
          "internalType": "uint256",
          "name": "transformationId",
          "type": "uint256"
        }
      ],
      "name": "getTransformationProperties",
      "outputs": [
        {
          "internalType": "uint256",
          "name": "inputCounts",
          "type": "uint256"
        },
        {
          "internalType": "uint256[50]",
          "name": "inputItemIds",
          "type": "uint256[50]"
        },
        {
          "internalType": "uint256[50]",
          "name": "inputQuantities",
          "type": "uint256[50]"
        },
        {
          "internalType": "uint256",
          "name": "outputCounts",
          "type": "uint256"
        },
        {
          "internalType": "uint256[50]",
          "name": "outputItemIds",
          "type": "uint256[50]"
        },
        {
          "internalType": "uint256[50]",
          "name": "outputQuantities",
          "type": "uint256[50]"
        }
      ],
      "payable": false,
      "stateMutability": "view",
      "type": "function"
    },
    {
      "constant": true,
      "inputs": [
        {
          "internalType": "uint256",
          "name": "itemId",
          "type": "uint256"
        }
      ],
      "name": "getItemType",
      "outputs": [
        {
          "internalType": "uint256",
          "name": "itemCategory",
          "type": "uint256"
        },
        {
          "internalType": "uint256",
          "name": "itemSubtype",
          "type": "uint256"
        }
      ],
      "payable": false,
      "stateMutability": "view",
      "type": "function"
    },
    {
      "constant": true,
      "inputs": [],
      "name": "getProductionMapRanges",
      "outputs": [
        {
          "internalType": "uint256",
          "name": "itemCount",
          "type": "uint256"
        },
        {
          "internalType": "uint256",
          "name": "transformationCount",
          "type": "uint256"
        }
      ],
      "payable": false,
      "stateMutability": "view",
      "type": "function"
    }
  ],
  "bytecode": "0x60806040526040518060a00160405280600081526020016002808111156200002357fe5b81526020016002808111156200003557fe5b81526020016004808111156200004757fe5b81526020016002808111156200005957fe5b81525060009060056200006e9291906200010d565b506200007f6200008560201b60201c565b6200028d565b6005808111156200009257fe5b600381620000a191906200015f565b5060008090505b600580811115620000b557fe5b8110156200010a5760008181548110620000cb57fe5b906000526020600020015460038281548110620000e457fe5b9060005260206000200181620000fb91906200018e565b508080600101915050620000a8565b50565b8280548282559060005260206000209081019282156200014c579160200282015b828111156200014b5782518255916020019190600101906200012e565b5b5090506200015b9190620001bd565b5090565b8154818355818111156200018957818360005260206000209182019101620001889190620001e5565b5b505050565b815481835581811115620001b857818360005260206000209182019101620001b7919062000216565b5b505050565b620001e291905b80821115620001de576000816000905550600101620001c4565b5090565b90565b6200021391905b808211156200020f576000818162000205919062000247565b50600101620001ec565b5090565b90565b6200024491905b808211156200024057600081816200023691906200026a565b506001016200021d565b5090565b90565b508054600082559060005260206000209081019062000267919062000216565b50565b50805460008255906000526020600020908101906200028a9190620001bd565b50565b611167806200029d6000396000f3fe608060405234801561001057600080fd5b506004361061009e5760003560e01c80639fab11c4116100665780639fab11c414610275578063ba2371c5146102a3578063ba52d77f14610302578063c19a4ef514610330578063d5bbd779146103795761009e565b8063724c2551146100a3578063798a712a146100d15780637abe28d3146101135780637b0ed1221461014b57806386f5ffde14610250575b600080fd5b6100cf600480360360208110156100b957600080fd5b81019080803590602001909291905050506103bd565b005b610111600480360360608110156100e757600080fd5b8101908080359060200190929190803590602001909291908035906020019092919050505061040c565b005b6101496004803603604081101561012957600080fd5b8101908080359060200190929190803590602001909291905050506106ae565b005b6101776004803603602081101561016157600080fd5b8101908080359060200190929190505050610707565b6040518087815260200186603260200280838360005b838110156101a857808201518184015260208101905061018d565b5050505090500185603260200280838360005b838110156101d65780820151818401526020810190506101bb565b5050505090500184815260200183603260200280838360005b8381101561020a5780820151818401526020810190506101ef565b5050505090500182603260200280838360005b8381101561023857808201518184015260208101905061021d565b50505050905001965050505050505060405180910390f35b610258610977565b604051808381526020018281526020019250505060405180910390f35b6102a16004803603602081101561028b57600080fd5b810190808035906020019092919050505061098e565b005b6102e5600480360360208110156102b957600080fd5b81019080803573ffffffffffffffffffffffffffffffffffffffff169060200190929190505050610a06565b604051808381526020018281526020019250505060405180910390f35b61032e6004803603602081101561031857600080fd5b8101908080359060200190929190505050610a4f565b005b61035c6004803603602081101561034657600080fd5b8101908080359060200190929190505050610a9e565b604051808381526020018281526020019250505060405180910390f35b6103bb6004803603606081101561038f57600080fd5b810190808035151590602001909291908035906020019092919080359060200190929190505050610d08565b005b600060026103c9610ded565b815481106103d357fe5b906000526020600020906010020160050160000160080190506103f4610ded565b81600001600001819055508181600201819055505050565b8260028054905014610469576040517f08c379a00000000000000000000000000000000000000000000000000000000081526004018080602001828103825260338152602001806111006033913960400191505060405180910390fd5b610471610dfd565b60028054905081600001818152505082600581111561048c57fe5b81606001516000019060058111156104a057fe5b908160058111156104ad57fe5b8152505081816060015160200181815250506002819080600181540180825580915050906001820390600052602060002090601002016000909192909190915060008201518160000155602082015181600101556040820151816002015560608201518160030160008201518160000160006101000a81548160ff0219169083600581111561053857fe5b02179055506020820151816001015550506080820151816005016000820151816000016000820151816000016000820151816000016000820151816000015550506020820151816001016000820151816000015550506040820151816002015560608201518160030155608082015181600401555050602082015181600501600082015181600001600082015181600001555050602082015181600101600082015181600001555050604082015181600201555050604082015181600801600082015181600001600082015181600001555050602082015181600101600082015181600001555050604082015181600201555050505050505050506003816060015160000151600581111561064957fe5b8154811061065357fe5b906000526020600020018160600151602001518154811061067057fe5b906000526020600020018160000151908060018154018082558091505090600182039060005260206000200160009091929091909150555050505050565b600060026106ba610ded565b815481106106c457fe5b906000526020600020906010020160050160000160000190506106e5610ded565b8160000160000181905550828160020181905550818160030181905550505050565b6000610711610e38565b610719610e38565b6000610723610e38565b61072b610e38565b610733610e5b565b6001888154811061074057fe5b90600052602060002090600302016040518060600160405290816000820154815260200160018201805480602002602001604051908101604052809291908181526020016000905b828210156107ce57838290600052602060002090600202016040518060400160405290816000820154815260200160018201548152505081526020019060010190610788565b50505050815260200160028201805480602002602001604051908101604052809291908181526020016000905b82821015610841578382906000526020600020906002020160405180604001604052908160008201548152602001600182015481525050815260200190600101906107fb565b5050505081525050905060008090505b8160200151518110156108cd578160200151818151811061086e57fe5b60200260200101516000015187826032811061088657fe5b6020020181815250508160200151818151811061089f57fe5b6020026020010151602001518682603281106108b757fe5b6020020181815250508080600101915050610851565b5060008090505b81604001515181101561095057816040015181815181106108f157fe5b60200260200101516000015184826032811061090957fe5b6020020181815250508160400151818151811061092257fe5b60200260200101516020015183826032811061093a57fe5b60200201818152505080806001019150506108d4565b50806020015151868683604001515186869650965096509650965096505091939550919395565b600080600280549050600180549050915091509091565b80600180549050146109eb576040517f08c379a000000000000000000000000000000000000000000000000000000000815260040180806020018281038252603e81526020018061108f603e913960400191505060405180910390fd5b60018081818054905001915081610a029190610e7c565b5050565b600080600069ffffffffffffffffffff905060008473ffffffffffffffffffffffffffffffffffffffff169050605082198216901c935081811692508383935093505050915091565b60006002610a5b610ded565b81548110610a6557fe5b90600052602060002090601002016005016000016005019050610a86610ded565b81600001600001819055508181600201819055505050565b6000806002805490508310610afe576040517f08c379a00000000000000000000000000000000000000000000000000000000081526004018080602001828103825260338152602001806110cd6033913960400191505060405180910390fd5b610b06610dfd565b60028481548110610b1357fe5b90600052602060002090601002016040518060a0016040529081600082015481526020016001820154815260200160028201548152602001600382016040518060400160405290816000820160009054906101000a900460ff166005811115610b7857fe5b6005811115610b8357fe5b815260200160018201548152505081526020016005820160405180602001604052908160008201604051806060016040529081600082016040518060a0016040529081600082016040518060200160405290816000820154815250508152602001600182016040518060200160405290816000820154815250508152602001600282015481526020016003820154815260200160048201548152505081526020016005820160405180606001604052908160008201604051806020016040529081600082015481525050815260200160018201604051806020016040529081600082015481525050815260200160028201548152505081526020016008820160405180606001604052908160008201604051806020016040529081600082015481525050815260200160018201604051806020016040529081600082015481525050815260200160028201548152505081525050815250508152505090508060600151600001516005811115610cf557fe5b8160600151602001519250925050915091565b600060018080805490500381548110610d1d57fe5b90600052602060002090600302019050610d35610eae565b60405180604001604052808581526020018481525090508415610d9e578160010181908060018154018082558091505090600182039060005260206000209060020201600090919290919091506000820151816000015560208201518160010155505050610de6565b81600201819080600181540180825580915050906001820390600052602060002090600202016000909192909190915060008201518160000155602082015181600101555050505b5050505050565b6000600160028054905003905090565b6040518060a00160405280600081526020016000815260200160008152602001610e25610ec8565b8152602001610e32610eed565b81525090565b604051806106400160405280603290602082028038833980820191505090505090565b60405180606001604052806000815260200160608152602001606081525090565b815481835581811115610ea957600302816003028360005260206000209182019101610ea89190610f06565b5b505050565b604051806040016040528060008152602001600081525090565b604051806040016040528060006005811115610ee057fe5b8152602001600081525090565b6040518060200160405280610f00610f4d565b81525090565b610f4a91905b80821115610f4657600080820160009055600182016000610f2d9190610f80565b600282016000610f3d9190610f80565b50600301610f0c565b5090565b90565b6040518060600160405280610f60610fa4565b8152602001610f6d610fdf565b8152602001610f7a61100c565b81525090565b5080546000825560020290600052602060002090810190610fa19190611039565b50565b6040518060a00160405280610fb7611068565b8152602001610fc461107b565b81526020016000815260200160008152602001600081525090565b6040518060600160405280610ff2611068565b8152602001610fff61107b565b8152602001600081525090565b604051806060016040528061101f611068565b815260200161102c61107b565b8152602001600081525090565b61106591905b808211156110615760008082016000905560018201600090555060020161103f565b5090565b90565b6040518060200160405280600081525090565b604051806020016040528060008152509056fe5265717569726520746861742063616c6c6572206b6e6f772074686520696420746865207472616e73666f726d6174696f6e206265696e67206164646564526571756972652074686174206974656d49642069732077697468696e2072616e6765206f662076616c6964206974656d732e5265717569726520746861742063616c6c6572206b6e6f7720746865206964206f66206974656d206265696e67206164646564a265627a7a7231582022c4bee8a7b6cedb5d9a418eab68a3f688d9a8db306ac01c57a72e81afbcde3264736f6c634300050c0032",
  "source": "pragma solidity ^0.5.0;\r\n\r\nimport \"./types/TypesItem.sol\";\r\nimport \"./types/TypesTransformation.sol\";\r\nimport \"./types/TypesSector.sol\";\r\n\r\nimport \"./ProductionMap.sol\";\r\n\r\n/**\r\nProductionManager contract:\r\n    is for processing production transformations on a sector\r\n*/\r\ncontract ProductionManager is\r\n    TypesItem, TypesTransformation, TypesSector,\r\n    ProductionMap\r\n{\r\n    /**************************************************************\r\n    External functions - view, pure\r\n    **************************************************************/\r\n    function getTransformationProperties(\r\n        uint transformationId\r\n    )\r\n    external view returns (\r\n        uint inputCounts,\r\n        uint[50] memory inputItemIds,\r\n        uint[50] memory inputQuantities,\r\n        uint outputCounts,\r\n        uint[50] memory outputItemIds,\r\n        uint[50] memory outputQuantities\r\n    ){\r\n        Transformation memory transformation = transformations[\r\n            transformationId\r\n        ];\r\n\r\n        for(uint i = 0; i < transformation.inputs.length; i++){\r\n            inputItemIds[i] = transformation.inputs[i].itemId;\r\n            inputQuantities[i] = transformation.inputs[i].quantity;\r\n        }\r\n        for(uint i = 0; i < transformation.outputs.length; i++){\r\n            outputItemIds[i] = transformation.outputs[i].itemId;\r\n            outputQuantities[i] = transformation.outputs[i].quantity;\r\n        }\r\n\r\n        return (\r\n            transformation.inputs.length,\r\n            inputItemIds,\r\n            inputQuantities,\r\n\r\n            transformation.outputs.length,\r\n            outputItemIds,\r\n            outputQuantities\r\n        );\r\n    }\r\n\r\n    function getItemType(uint itemId) external view returns (\r\n        uint itemCategory,\r\n        uint itemSubtype\r\n    ){\r\n        require(\r\n            itemId < items.length,\r\n            \"Require that itemId is within range of valid items.\"\r\n        );\r\n\r\n        ItemProperties memory item = items[itemId];\r\n        return (\r\n            uint(item.itemType.itemCategory),\r\n            item.itemType.itemSubtype\r\n        );\r\n    }\r\n\r\n    function getProductionMapRanges() external view returns (\r\n        uint itemCount,\r\n        uint transformationCount\r\n    ){\r\n        return(\r\n            items.length,\r\n            transformations.length\r\n        );\r\n    }\r\n\r\n    /**************************************************************\r\n    Internal functions - full\r\n    **************************************************************/\r\n\r\n    /**\r\n    This function is called by manualTransformation or tickSector to\r\n    execute production transformations on a sector.\r\n    */\r\n    function proccessTransformation(\r\n        Sector storage sector,\r\n        Transformation memory transformation\r\n    ) internal returns (\r\n        bool wasSuccessful\r\n    ){\r\n        Sector memory sectorBackup = sector;\r\n\r\n        TransformationElement memory trElem;\r\n        ItemProperties memory itemProps;\r\n\r\n        for(uint i = 0; i < transformation.inputs.length; i++){\r\n            trElem = transformation.inputs[i];\r\n            itemProps = items[trElem.itemId];\r\n\r\n            if(!consumeItem(\r\n                sector,\r\n                itemProps,\r\n                trElem.quantity\r\n            )){\r\n                memcpyPlaceable(sectorBackup, sector);\r\n                return false;\r\n            }\r\n        }\r\n        for(uint i = 0; i < transformation.outputs.length; i++){\r\n            trElem = transformation.outputs[i];\r\n            itemProps = items[trElem.itemId];\r\n\r\n            if(!storeItem(\r\n                sector,\r\n                itemProps,\r\n                trElem.quantity\r\n            )){\r\n                memcpyPlaceable(sectorBackup, sector);\r\n                return false;\r\n            }\r\n        }\r\n\r\n        return true;\r\n    }\r\n\r\n    /**************************************************************\r\n    Internal functions - view, pure\r\n    **************************************************************/\r\n\r\n    function getApItem() internal view returns (ItemProperties memory){\r\n        uint itemId = itemIdsByType\r\n            [uint(ItemCategory.Ap)]\r\n            [uint(ItemSubtypeAp.Standard)]\r\n            [0]; /* Only 1 ap type */\r\n        return items[itemId];\r\n    }\r\n}",
  "sourcePath": "C:\\Users\\Idan\\Desktop\\crypto_game\\contracts\\ProductionManager.sol",
  "compiler": {
    "name": "solc",
    "version": "0.5.12+commit.7709ece9.Emscripten.clang"
  },
  "schemaVersion": "3.0.19",
  "updatedAt": "2019-12-17T06:25:00.604Z",
  "devdoc": {
    "methods": {}
  },
  "userdoc": {
    "methods": {
      "addItem(uint256,uint256,uint256)": {
        "notice": "************************************************************ External functions - full*************************************************************"
      },
      "convertAddressToCordinateTuple(address)": {
        "notice": "************************************************************ Public Views/Pure*************************************************************"
      },
      "getTransformationProperties(uint256)": {
        "notice": "************************************************************ External functions - view, pure*************************************************************"
      }
    },
    "notice": "ProductionManager contract: is for processing production transformations on a sector"
  }
}