{
  "contractName": "TypesSector",
  "abi": [
    {
      "constant": true,
      "inputs": [
        {
          "internalType": "address",
          "name": "addressToConvert",
          "type": "address"
        }
      ],
      "name": "convertAddressToCordinateTuple",
      "outputs": [
        {
          "internalType": "uint256",
          "name": "xAngle",
          "type": "uint256"
        },
        {
          "internalType": "uint256",
          "name": "zAngle",
          "type": "uint256"
        }
      ],
      "payable": false,
      "stateMutability": "pure",
      "type": "function"
    }
  ],
  "bytecode": "0x60806040526040518060a001604052806000815260200160028081111561002257fe5b815260200160028081111561003357fe5b815260200160048081111561004457fe5b815260200160028081111561005557fe5b815250600090600561006892919061007b565b5034801561007557600080fd5b506100ed565b8280548282559060005260206000209081019282156100b7579160200282015b828111156100b657825182559160200191906001019061009b565b5b5090506100c491906100c8565b5090565b6100ea91905b808211156100e65760008160009055506001016100ce565b5090565b90565b610107806100fc6000396000f3fe6080604052348015600f57600080fd5b506004361060285760003560e01c8063ba2371c514602d575b600080fd5b606c60048036036020811015604157600080fd5b81019080803573ffffffffffffffffffffffffffffffffffffffff1690602001909291905050506089565b604051808381526020018281526020019250505060405180910390f35b600080600069ffffffffffffffffffff905060008473ffffffffffffffffffffffffffffffffffffffff169050605082198216901c93508181169250838393509350505091509156fea265627a7a72315820b25581c1edf7de5b47472f10f17d0161d2ee05299d2d8aab38cc2d8e5b21da4f64736f6c634300050c0032",
  "source": "pragma solidity ^0.5.0;\r\n\r\nimport \"./TypesItem.sol\";\r\n\r\n\r\n/**\r\nTypesSector contract:\r\n    is for the structs resposible for holding the data about a sector.\r\n    It also contains processing for sector level actions.\r\n*/\r\ncontract TypesSector is TypesItem{\r\n\r\n    struct Sector{\r\n        /* Constant         */\r\n        bool initialized;\r\n        SphereCordinate cordinates;\r\n\r\n        /* Volitile         */\r\n        address owner;\r\n        uint lastTickBlock;\r\n        NaturalResourceItem[] naturalResources;\r\n        uint ap;\r\n\r\n        /* Placeables       */\r\n        SiloItem[] silos;\r\n        ExtractorItem[] extractors;\r\n        AssemblerItem[] assemblers;\r\n\r\n        Bridge[] bridges;\r\n\r\n    }\r\n\r\n\r\n    /**\r\n    This struct is for transporting resources between sectors.\r\n    */\r\n    struct Bridge{\r\n        Placeable placeable;\r\n        uint targetItemId;\r\n        uint maxRate;\r\n        uint curRate;\r\n        address endSector;\r\n    }\r\n\r\n    struct SphereCordinate{\r\n        uint xAngle; /* address bits from 160 to 80 */\r\n        uint zAngle; /* address bits from 80 to 0   */\r\n    }\r\n\r\n    /**\r\n    Transformations are applied step-by-step and acts directly on storage (to\r\n    prevent excess copying). Each step creates one these structs to perserve\r\n    the original Sector data incase a following step fails.\r\n\r\n    TODO switch from memcpy to this, put in Sector them in storage to\r\n    allow for the list to be built dyn\r\n    */\r\n    struct SectorModification{\r\n        ItemSubtypePlaceable itemSubtypePlaceable;\r\n        uint itemIndex;\r\n        uint originalValue;\r\n    }\r\n\r\n    /**************************************************************\r\n    Public Views/Pure\r\n    **************************************************************/\r\n    function convertAddressToCordinateTuple(\r\n        address addressToConvert\r\n    )\r\n    public pure returns(\r\n        uint xAngle, uint zAngle\r\n    ){\r\n        uint rightMask = (1 << 80) - 1;\r\n        uint addressCasted = uint(addressToConvert);\r\n\r\n        xAngle = (addressCasted & ~rightMask) >> 80;\r\n        zAngle = addressCasted & rightMask;\r\n        return (xAngle, zAngle);\r\n    }\r\n\r\n    /**************************************************************\r\n    Internal functions - full\r\n    **************************************************************/\r\n\r\n    /**\r\n    - When sectors are nativly initialize or taken for the first time via\r\n    attack they need to have their natural properties set. Must be done\r\n    algorithmically.\r\n    */\r\n    function initializeSector(\r\n        Sector storage sector,\r\n        address owner, /* the new owner */\r\n        address sectorAddress, /* the key in the address -> sector map */\r\n        uint[ /* category   */  ]\r\n            [ /* subtype    */  ]\r\n            [ /* id         */  ]\r\n            storage itemTypeMap\r\n    )\r\n    internal {\r\n        require(\r\n            !sector.initialized,\r\n            \"Require that given sector has not been initialized\"\r\n        );\r\n\r\n        sector.owner = owner;\r\n        sector.initialized = true;\r\n\r\n        (   uint xAngle,\r\n            uint zAngle\r\n        ) = convertAddressToCordinateTuple(sectorAddress);\r\n\r\n        sector.cordinates = SphereCordinate(xAngle, zAngle);\r\n        initializeSectorNaturalResources(sector, itemTypeMap);\r\n    }\r\n\r\n    function initializeSectorNaturalResources(\r\n        Sector storage sector,\r\n        uint[ /* category   */  ]\r\n            [ /* subtype    */  ]\r\n            [ /* id         */  ]\r\n            storage itemTypeMap\r\n    ) private {\r\n        SphereCordinate memory cords = sector.cordinates;\r\n\r\n        uint[] memory naturalResourceIds = itemTypeMap\r\n            [uint(ItemCategory.NaturalResource)]\r\n            [uint(ItemSubtypeNaturalResource.Standard)];\r\n\r\n        uint curByteMask = 0xf;\r\n        uint curByte = (cords.xAngle & curByteMask);\r\n\r\n        uint maxTypes = 10;\r\n        uint typeCount = curByte % maxTypes;\r\n\r\n        for(uint i = 0; i < typeCount; i++){\r\n            curByteMask = curByteMask << 4;\r\n            curByte = (cords.xAngle & curByteMask);\r\n\r\n            NaturalResourceItem memory natResource;\r\n\r\n            natResource.itemIntf.itemId = naturalResourceIds\r\n                [curByte % naturalResourceIds.length];\r\n\r\n            uint maxQuantity = 100;\r\n            natResource.remainingQuantity = curByte % maxQuantity;\r\n\r\n            uint maxDifficulty = 100;\r\n            natResource.difficulty = curByte % maxDifficulty;\r\n\r\n            sector.naturalResources.push(natResource);\r\n        }\r\n    }\r\n\r\n    function consumeItem(\r\n        Sector storage sector,\r\n        ItemProperties memory item,\r\n        uint quantityIn\r\n    )\r\n    internal returns (\r\n        bool successful\r\n    ){\r\n        uint quantity = quantityIn;\r\n\r\n        if(item.itemType.itemCategory == ItemCategory.NaturalResource){\r\n            /* Extract item from sector's potential nat reasource */\r\n            for(\r\n                uint i = 0;\r\n                i < sector.naturalResources.length && quantity > 0;\r\n                i++\r\n            ){\r\n                if(item.id == sector.naturalResources[i].itemIntf.itemId){\r\n                    if(\r\n                        quantity < sector.naturalResources[i].remainingQuantity\r\n                    ){\r\n                        sector\r\n                            .naturalResources[i]\r\n                            .remainingQuantity -= quantity;\r\n                        quantity = 0;\r\n                    }else{\r\n                        quantity -= sector\r\n                            .naturalResources[i]\r\n                            .remainingQuantity;\r\n                        sector.naturalResources[i].remainingQuantity = 0;\r\n                    }\r\n                }\r\n            }\r\n        }else if(item.itemType.itemCategory == ItemCategory.Component){\r\n            /* Subtract item from sector's silos */\r\n            for(\r\n                uint i = 0;\r\n                i < sector.silos.length && quantity > 0;\r\n                i++\r\n            ){\r\n                if(item.id == sector.silos[i].targetItemId){\r\n                    if(quantity < sector.silos[i].curQuantity){\r\n                        sector.silos[i].curQuantity -= quantity;\r\n                        quantity = 0;\r\n                    }else{\r\n                        quantity -= sector.silos[i].curQuantity;\r\n                        sector.silos[i].curQuantity = 0;\r\n                    }\r\n                }\r\n            }\r\n        }else if(item.itemType.itemCategory == ItemCategory.Placeable){\r\n            /* Check if placeable exisits in sector */\r\n\r\n            if(\r\n                item.itemType.itemSubtype == uint(\r\n                    ItemSubtypePlaceable.Assembler\r\n                )\r\n            ){\r\n                for(uint i = 0;\r\n                    i < sector.assemblers.length && quantity > 0;\r\n                    i++\r\n                ){\r\n                    if(sector.assemblers[i].itemIntf.itemId == item.id){\r\n                        quantity -= 1;\r\n                    }\r\n                }\r\n            }else if(\r\n                item.itemType.itemSubtype == uint(\r\n                    ItemSubtypePlaceable.Extractor\r\n                )\r\n            ){\r\n                for(uint i = 0;\r\n                    i < sector.extractors.length && quantity > 0;\r\n                    i++\r\n                ){\r\n                    if(sector.extractors[i].itemIntf.itemId == item.id){\r\n                        quantity -= 1;\r\n                    }\r\n                }\r\n            }\r\n\r\n        }else if(item.itemType.itemCategory == ItemCategory.Ap){\r\n\r\n            if(quantity <= sector.ap){\r\n                sector.ap -= quantity;\r\n                quantity = 0;\r\n            }\r\n        }\r\n        return (quantity == 0);\r\n    }\r\n\r\n    function storeItem(\r\n        Sector storage sector,\r\n        ItemProperties memory item,\r\n        uint quantityIn\r\n    )\r\n    internal returns(\r\n        bool successful\r\n    ){\r\n        uint quantity = quantityIn;\r\n\r\n        if(item.itemType.itemCategory == ItemCategory.Placeable){\r\n            if(\r\n                item.itemType.itemSubtype == uint(\r\n                    ItemSubtypePlaceable.Silo\r\n                )\r\n            ){\r\n                sector.silos.push(item.subtypes.placeable.silo);\r\n            }else if(\r\n                item.itemType.itemSubtype == uint(\r\n                    ItemSubtypePlaceable.Extractor\r\n                )\r\n            ){\r\n                sector.extractors.push(item.subtypes.placeable.extractor);\r\n            }else if(\r\n                item.itemType.itemSubtype == uint(\r\n                    ItemSubtypePlaceable.Assembler\r\n                )\r\n            ){\r\n                sector.assemblers.push(item.subtypes.placeable.assembler);\r\n            }\r\n            quantity = 0;\r\n\r\n        }else if(\r\n            item.itemType.itemCategory == ItemCategory.Component\r\n            || item.itemType.itemCategory == ItemCategory.NaturalResource\r\n        ){\r\n            for(uint i = 0; i < sector.silos.length && quantity > 0; i++){\r\n\r\n                if(item.id == sector.silos[i].targetItemId){\r\n\r\n                    sector.silos[i].curQuantity += quantity;\r\n\r\n                    if(\r\n                        sector.silos[i].curQuantity\r\n                        > sector.silos[i].maxQuantity\r\n                    ){\r\n                        quantity = sector.silos[i].curQuantity -\r\n                            sector.silos[i].maxQuantity;\r\n\r\n                        sector.silos[i].curQuantity = sector\r\n                            .silos[i]\r\n                            .maxQuantity;\r\n                    }else{\r\n                        quantity = 0;\r\n                    }\r\n                }\r\n            }\r\n        }else if(item.itemType.itemCategory == ItemCategory.Ap){\r\n            sector.ap += quantity;\r\n            quantity = 0;\r\n        }\r\n\r\n        return (quantity == 0);\r\n    }\r\n\r\n    function memcpyPlaceable(\r\n        Sector memory sectorMem,\r\n        Sector storage sectorStor\r\n    )\r\n    internal {\r\n\r\n        sectorStor.silos.length = sectorMem.silos.length;\r\n        for(uint i = 0; i < sectorMem.silos.length; i++ ){\r\n            sectorStor.silos[i] = sectorMem.silos[i];\r\n        }\r\n\r\n        sectorStor.extractors.length = sectorMem.extractors.length;\r\n        for(uint i = 0; i < sectorMem.extractors.length; i++ ){\r\n            sectorStor.extractors[i] = sectorMem.extractors[i];\r\n        }\r\n\r\n        sectorStor.assemblers.length = sectorMem.assemblers.length;\r\n        for(uint i = 0; i < sectorMem.assemblers.length; i++ ){\r\n            sectorStor.assemblers[i] = sectorMem.assemblers[i];\r\n        }\r\n    }\r\n\r\n    function setSectorTickBlock(Sector storage sector) internal {\r\n        sector.lastTickBlock = block.number;\r\n    }\r\n\r\n    function transferItem(\r\n        Sector storage sectorSource,\r\n        Sector storage sectorDestination,\r\n        ItemProperties memory item,\r\n        uint quantity\r\n    ) internal returns(\r\n        bool wasSuccessful\r\n    ){\r\n        Sector memory sectorSourceBackup = sectorSource;\r\n        Sector memory sectorDestinationBackup = sectorDestination;\r\n\r\n        if(!consumeItem(\r\n                sectorSource,\r\n                item,\r\n                quantity\r\n            ) &&\r\n            !storeItem(\r\n                sectorDestination,\r\n                item,\r\n                quantity\r\n            )\r\n        ){\r\n\r\n            memcpyPlaceable(sectorSourceBackup, sectorSource);\r\n            memcpyPlaceable(sectorDestinationBackup, sectorDestination);\r\n            return false;\r\n        }\r\n        return true;\r\n    }\r\n}",
  "sourcePath": "C:\\Users\\Idan\\Desktop\\crypto_game\\contracts\\types\\TypesSector.sol",
  "compiler": {
    "name": "solc",
    "version": "0.5.12+commit.7709ece9.Emscripten.clang"
  },
  "schemaVersion": "3.0.19",
  "updatedAt": "2019-12-17T06:25:00.637Z",
  "devdoc": {
    "methods": {}
  },
  "userdoc": {
    "methods": {
      "convertAddressToCordinateTuple(address)": {
        "notice": "************************************************************ Public Views/Pure*************************************************************"
      }
    },
    "notice": "TypesSector contract: is for the structs resposible for holding the data about a sector. It also contains processing for sector level actions."
  }
}